{
  "contracts/Versatile.sol": {
    "Versatile": {
      "abi": [
        {
          "inputs": [
            {
              "internalType": "uint256",
              "name": "numberToHash",
              "type": "uint256"
            }
          ],
          "name": "hashSha256",
          "outputs": [
            {
              "internalType": "bytes32",
              "name": "h",
              "type": "bytes32"
            }
          ],
          "stateMutability": "view",
          "type": "function"
        },
        {
          "inputs": [
            {
              "internalType": "address",
              "name": "_addr",
              "type": "address"
            }
          ],
          "name": "isContract",
          "outputs": [
            {
              "internalType": "bool",
              "name": "",
              "type": "bool"
            }
          ],
          "stateMutability": "view",
          "type": "function"
        },
        {
          "inputs": [
            {
              "internalType": "string",
              "name": "input",
              "type": "string"
            }
          ],
          "name": "ret",
          "outputs": [
            {
              "internalType": "bytes32",
              "name": "r",
              "type": "bytes32"
            }
          ],
          "stateMutability": "view",
          "type": "function"
        }
      ],
      "evm": {
        "bytecode": {
          "linkReferences": {},
          "object": "608060405234801561001057600080fd5b506107bc806100206000396000f3fe608060405234801561001057600080fd5b50600436106100415760003560e01c80631627905514610046578063aa8e575d14610076578063d1218931146100a6575b600080fd5b610060600480360381019061005b919061037b565b6100d6565b60405161006d91906103c3565b60405180910390f35b610090600480360381019061008b9190610524565b6100ef565b60405161009d9190610586565b60405180910390f35b6100c060048036038101906100bb91906105d7565b610253565b6040516100cd9190610586565b60405180910390f35b600080823b905060008163ffffffff1611915050919050565b60008061010090506000808273ffffffffffffffffffffffffffffffffffffffff16856040516024016101229190610683565b6040516020818303038152906040527faa8e575d000000000000000000000000000000000000000000000000000000007bffffffffffffffffffffffffffffffffffffffffffffffffffffffff19166020820180517bffffffffffffffffffffffffffffffffffffffffffffffffffffffff83818316178352505050506040516101ac91906106ec565b600060405180830381855afa9150503d80600081146101e7576040519150601f19603f3d011682016040523d82523d6000602084013e6101ec565b606091505b5091509150818190610234576040517f08c379a000000000000000000000000000000000000000000000000000000000815260040161022b9190610683565b60405180910390fd5b5080806020019051810190610249919061072f565b9350505050919050565b6000806000600273ffffffffffffffffffffffffffffffffffffffff1684604051602001610281919061076b565b60405160208183030381529060405260405161029d91906106ec565b600060405180830381855afa9150503d80600081146102d8576040519150601f19603f3d011682016040523d82523d6000602084013e6102dd565b606091505b5091509150816102ec57600080fd5b80806020019051810190610300919061072f565b92505050919050565b6000604051905090565b600080fd5b600080fd5b600073ffffffffffffffffffffffffffffffffffffffff82169050919050565b60006103488261031d565b9050919050565b6103588161033d565b811461036357600080fd5b50565b6000813590506103758161034f565b92915050565b60006020828403121561039157610390610313565b5b600061039f84828501610366565b91505092915050565b60008115159050919050565b6103bd816103a8565b82525050565b60006020820190506103d860008301846103b4565b92915050565b600080fd5b600080fd5b6000601f19601f8301169050919050565b7f4e487b7100000000000000000000000000000000000000000000000000000000600052604160045260246000fd5b610431826103e8565b810181811067ffffffffffffffff821117156104505761044f6103f9565b5b80604052505050565b6000610463610309565b905061046f8282610428565b919050565b600067ffffffffffffffff82111561048f5761048e6103f9565b5b610498826103e8565b9050602081019050919050565b82818337600083830152505050565b60006104c76104c284610474565b610459565b9050828152602081018484840111156104e3576104e26103e3565b5b6104ee8482856104a5565b509392505050565b600082601f83011261050b5761050a6103de565b5b813561051b8482602086016104b4565b91505092915050565b60006020828403121561053a57610539610313565b5b600082013567ffffffffffffffff81111561055857610557610318565b5b610564848285016104f6565b91505092915050565b6000819050919050565b6105808161056d565b82525050565b600060208201905061059b6000830184610577565b92915050565b6000819050919050565b6105b4816105a1565b81146105bf57600080fd5b50565b6000813590506105d1816105ab565b92915050565b6000602082840312156105ed576105ec610313565b5b60006105fb848285016105c2565b91505092915050565b600081519050919050565b600082825260208201905092915050565b60005b8381101561063e578082015181840152602081019050610623565b60008484015250505050565b600061065582610604565b61065f818561060f565b935061066f818560208601610620565b610678816103e8565b840191505092915050565b6000602082019050818103600083015261069d818461064a565b905092915050565b600081519050919050565b600081905092915050565b60006106c6826106a5565b6106d081856106b0565b93506106e0818560208601610620565b80840191505092915050565b60006106f882846106bb565b915081905092915050565b61070c8161056d565b811461071757600080fd5b50565b60008151905061072981610703565b92915050565b60006020828403121561074557610744610313565b5b60006107538482850161071a565b91505092915050565b610765816105a1565b82525050565b6000602082019050610780600083018461075c565b9291505056fea2646970667358221220b119a45ca0ae55b1a8dba276eebe3d8d36ebc8a1dc1f74a3b5ab014b7aa4454864736f6c63430008180033",
          "opcodes": "PUSH1 0x80 PUSH1 0x40 MSTORE CALLVALUE DUP1 ISZERO PUSH2 0x10 JUMPI PUSH1 0x0 DUP1 REVERT JUMPDEST POP PUSH2 0x7BC DUP1 PUSH2 0x20 PUSH1 0x0 CODECOPY PUSH1 0x0 RETURN INVALID PUSH1 0x80 PUSH1 0x40 MSTORE CALLVALUE DUP1 ISZERO PUSH2 0x10 JUMPI PUSH1 0x0 DUP1 REVERT JUMPDEST POP PUSH1 0x4 CALLDATASIZE LT PUSH2 0x41 JUMPI PUSH1 0x0 CALLDATALOAD PUSH1 0xE0 SHR DUP1 PUSH4 0x16279055 EQ PUSH2 0x46 JUMPI DUP1 PUSH4 0xAA8E575D EQ PUSH2 0x76 JUMPI DUP1 PUSH4 0xD1218931 EQ PUSH2 0xA6 JUMPI JUMPDEST PUSH1 0x0 DUP1 REVERT JUMPDEST PUSH2 0x60 PUSH1 0x4 DUP1 CALLDATASIZE SUB DUP2 ADD SWAP1 PUSH2 0x5B SWAP2 SWAP1 PUSH2 0x37B JUMP JUMPDEST PUSH2 0xD6 JUMP JUMPDEST PUSH1 0x40 MLOAD PUSH2 0x6D SWAP2 SWAP1 PUSH2 0x3C3 JUMP JUMPDEST PUSH1 0x40 MLOAD DUP1 SWAP2 SUB SWAP1 RETURN JUMPDEST PUSH2 0x90 PUSH1 0x4 DUP1 CALLDATASIZE SUB DUP2 ADD SWAP1 PUSH2 0x8B SWAP2 SWAP1 PUSH2 0x524 JUMP JUMPDEST PUSH2 0xEF JUMP JUMPDEST PUSH1 0x40 MLOAD PUSH2 0x9D SWAP2 SWAP1 PUSH2 0x586 JUMP JUMPDEST PUSH1 0x40 MLOAD DUP1 SWAP2 SUB SWAP1 RETURN JUMPDEST PUSH2 0xC0 PUSH1 0x4 DUP1 CALLDATASIZE SUB DUP2 ADD SWAP1 PUSH2 0xBB SWAP2 SWAP1 PUSH2 0x5D7 JUMP JUMPDEST PUSH2 0x253 JUMP JUMPDEST PUSH1 0x40 MLOAD PUSH2 0xCD SWAP2 SWAP1 PUSH2 0x586 JUMP JUMPDEST PUSH1 0x40 MLOAD DUP1 SWAP2 SUB SWAP1 RETURN JUMPDEST PUSH1 0x0 DUP1 DUP3 EXTCODESIZE SWAP1 POP PUSH1 0x0 DUP2 PUSH4 0xFFFFFFFF AND GT SWAP2 POP POP SWAP2 SWAP1 POP JUMP JUMPDEST PUSH1 0x0 DUP1 PUSH2 0x100 SWAP1 POP PUSH1 0x0 DUP1 DUP3 PUSH20 0xFFFFFFFFFFFFFFFFFFFFFFFFFFFFFFFFFFFFFFFF AND DUP6 PUSH1 0x40 MLOAD PUSH1 0x24 ADD PUSH2 0x122 SWAP2 SWAP1 PUSH2 0x683 JUMP JUMPDEST PUSH1 0x40 MLOAD PUSH1 0x20 DUP2 DUP4 SUB SUB DUP2 MSTORE SWAP1 PUSH1 0x40 MSTORE PUSH32 0xAA8E575D00000000000000000000000000000000000000000000000000000000 PUSH28 0xFFFFFFFFFFFFFFFFFFFFFFFFFFFFFFFFFFFFFFFFFFFFFFFFFFFFFFFF NOT AND PUSH1 0x20 DUP3 ADD DUP1 MLOAD PUSH28 0xFFFFFFFFFFFFFFFFFFFFFFFFFFFFFFFFFFFFFFFFFFFFFFFFFFFFFFFF DUP4 DUP2 DUP4 AND OR DUP4 MSTORE POP POP POP POP PUSH1 0x40 MLOAD PUSH2 0x1AC SWAP2 SWAP1 PUSH2 0x6EC JUMP JUMPDEST PUSH1 0x0 PUSH1 0x40 MLOAD DUP1 DUP4 SUB DUP2 DUP6 GAS STATICCALL SWAP2 POP POP RETURNDATASIZE DUP1 PUSH1 0x0 DUP2 EQ PUSH2 0x1E7 JUMPI PUSH1 0x40 MLOAD SWAP2 POP PUSH1 0x1F NOT PUSH1 0x3F RETURNDATASIZE ADD AND DUP3 ADD PUSH1 0x40 MSTORE RETURNDATASIZE DUP3 MSTORE RETURNDATASIZE PUSH1 0x0 PUSH1 0x20 DUP5 ADD RETURNDATACOPY PUSH2 0x1EC JUMP JUMPDEST PUSH1 0x60 SWAP2 POP JUMPDEST POP SWAP2 POP SWAP2 POP DUP2 DUP2 SWAP1 PUSH2 0x234 JUMPI PUSH1 0x40 MLOAD PUSH32 0x8C379A000000000000000000000000000000000000000000000000000000000 DUP2 MSTORE PUSH1 0x4 ADD PUSH2 0x22B SWAP2 SWAP1 PUSH2 0x683 JUMP JUMPDEST PUSH1 0x40 MLOAD DUP1 SWAP2 SUB SWAP1 REVERT JUMPDEST POP DUP1 DUP1 PUSH1 0x20 ADD SWAP1 MLOAD DUP2 ADD SWAP1 PUSH2 0x249 SWAP2 SWAP1 PUSH2 0x72F JUMP JUMPDEST SWAP4 POP POP POP POP SWAP2 SWAP1 POP JUMP JUMPDEST PUSH1 0x0 DUP1 PUSH1 0x0 PUSH1 0x2 PUSH20 0xFFFFFFFFFFFFFFFFFFFFFFFFFFFFFFFFFFFFFFFF AND DUP5 PUSH1 0x40 MLOAD PUSH1 0x20 ADD PUSH2 0x281 SWAP2 SWAP1 PUSH2 0x76B JUMP JUMPDEST PUSH1 0x40 MLOAD PUSH1 0x20 DUP2 DUP4 SUB SUB DUP2 MSTORE SWAP1 PUSH1 0x40 MSTORE PUSH1 0x40 MLOAD PUSH2 0x29D SWAP2 SWAP1 PUSH2 0x6EC JUMP JUMPDEST PUSH1 0x0 PUSH1 0x40 MLOAD DUP1 DUP4 SUB DUP2 DUP6 GAS STATICCALL SWAP2 POP POP RETURNDATASIZE DUP1 PUSH1 0x0 DUP2 EQ PUSH2 0x2D8 JUMPI PUSH1 0x40 MLOAD SWAP2 POP PUSH1 0x1F NOT PUSH1 0x3F RETURNDATASIZE ADD AND DUP3 ADD PUSH1 0x40 MSTORE RETURNDATASIZE DUP3 MSTORE RETURNDATASIZE PUSH1 0x0 PUSH1 0x20 DUP5 ADD RETURNDATACOPY PUSH2 0x2DD JUMP JUMPDEST PUSH1 0x60 SWAP2 POP JUMPDEST POP SWAP2 POP SWAP2 POP DUP2 PUSH2 0x2EC JUMPI PUSH1 0x0 DUP1 REVERT JUMPDEST DUP1 DUP1 PUSH1 0x20 ADD SWAP1 MLOAD DUP2 ADD SWAP1 PUSH2 0x300 SWAP2 SWAP1 PUSH2 0x72F JUMP JUMPDEST SWAP3 POP POP POP SWAP2 SWAP1 POP JUMP JUMPDEST PUSH1 0x0 PUSH1 0x40 MLOAD SWAP1 POP SWAP1 JUMP JUMPDEST PUSH1 0x0 DUP1 REVERT JUMPDEST PUSH1 0x0 DUP1 REVERT JUMPDEST PUSH1 0x0 PUSH20 0xFFFFFFFFFFFFFFFFFFFFFFFFFFFFFFFFFFFFFFFF DUP3 AND SWAP1 POP SWAP2 SWAP1 POP JUMP JUMPDEST PUSH1 0x0 PUSH2 0x348 DUP3 PUSH2 0x31D JUMP JUMPDEST SWAP1 POP SWAP2 SWAP1 POP JUMP JUMPDEST PUSH2 0x358 DUP2 PUSH2 0x33D JUMP JUMPDEST DUP2 EQ PUSH2 0x363 JUMPI PUSH1 0x0 DUP1 REVERT JUMPDEST POP JUMP JUMPDEST PUSH1 0x0 DUP2 CALLDATALOAD SWAP1 POP PUSH2 0x375 DUP2 PUSH2 0x34F JUMP JUMPDEST SWAP3 SWAP2 POP POP JUMP JUMPDEST PUSH1 0x0 PUSH1 0x20 DUP3 DUP5 SUB SLT ISZERO PUSH2 0x391 JUMPI PUSH2 0x390 PUSH2 0x313 JUMP JUMPDEST JUMPDEST PUSH1 0x0 PUSH2 0x39F DUP5 DUP3 DUP6 ADD PUSH2 0x366 JUMP JUMPDEST SWAP2 POP POP SWAP3 SWAP2 POP POP JUMP JUMPDEST PUSH1 0x0 DUP2 ISZERO ISZERO SWAP1 POP SWAP2 SWAP1 POP JUMP JUMPDEST PUSH2 0x3BD DUP2 PUSH2 0x3A8 JUMP JUMPDEST DUP3 MSTORE POP POP JUMP JUMPDEST PUSH1 0x0 PUSH1 0x20 DUP3 ADD SWAP1 POP PUSH2 0x3D8 PUSH1 0x0 DUP4 ADD DUP5 PUSH2 0x3B4 JUMP JUMPDEST SWAP3 SWAP2 POP POP JUMP JUMPDEST PUSH1 0x0 DUP1 REVERT JUMPDEST PUSH1 0x0 DUP1 REVERT JUMPDEST PUSH1 0x0 PUSH1 0x1F NOT PUSH1 0x1F DUP4 ADD AND SWAP1 POP SWAP2 SWAP1 POP JUMP JUMPDEST PUSH32 0x4E487B7100000000000000000000000000000000000000000000000000000000 PUSH1 0x0 MSTORE PUSH1 0x41 PUSH1 0x4 MSTORE PUSH1 0x24 PUSH1 0x0 REVERT JUMPDEST PUSH2 0x431 DUP3 PUSH2 0x3E8 JUMP JUMPDEST DUP2 ADD DUP2 DUP2 LT PUSH8 0xFFFFFFFFFFFFFFFF DUP3 GT OR ISZERO PUSH2 0x450 JUMPI PUSH2 0x44F PUSH2 0x3F9 JUMP JUMPDEST JUMPDEST DUP1 PUSH1 0x40 MSTORE POP POP POP JUMP JUMPDEST PUSH1 0x0 PUSH2 0x463 PUSH2 0x309 JUMP JUMPDEST SWAP1 POP PUSH2 0x46F DUP3 DUP3 PUSH2 0x428 JUMP JUMPDEST SWAP2 SWAP1 POP JUMP JUMPDEST PUSH1 0x0 PUSH8 0xFFFFFFFFFFFFFFFF DUP3 GT ISZERO PUSH2 0x48F JUMPI PUSH2 0x48E PUSH2 0x3F9 JUMP JUMPDEST JUMPDEST PUSH2 0x498 DUP3 PUSH2 0x3E8 JUMP JUMPDEST SWAP1 POP PUSH1 0x20 DUP2 ADD SWAP1 POP SWAP2 SWAP1 POP JUMP JUMPDEST DUP3 DUP2 DUP4 CALLDATACOPY PUSH1 0x0 DUP4 DUP4 ADD MSTORE POP POP POP JUMP JUMPDEST PUSH1 0x0 PUSH2 0x4C7 PUSH2 0x4C2 DUP5 PUSH2 0x474 JUMP JUMPDEST PUSH2 0x459 JUMP JUMPDEST SWAP1 POP DUP3 DUP2 MSTORE PUSH1 0x20 DUP2 ADD DUP5 DUP5 DUP5 ADD GT ISZERO PUSH2 0x4E3 JUMPI PUSH2 0x4E2 PUSH2 0x3E3 JUMP JUMPDEST JUMPDEST PUSH2 0x4EE DUP5 DUP3 DUP6 PUSH2 0x4A5 JUMP JUMPDEST POP SWAP4 SWAP3 POP POP POP JUMP JUMPDEST PUSH1 0x0 DUP3 PUSH1 0x1F DUP4 ADD SLT PUSH2 0x50B JUMPI PUSH2 0x50A PUSH2 0x3DE JUMP JUMPDEST JUMPDEST DUP2 CALLDATALOAD PUSH2 0x51B DUP5 DUP3 PUSH1 0x20 DUP7 ADD PUSH2 0x4B4 JUMP JUMPDEST SWAP2 POP POP SWAP3 SWAP2 POP POP JUMP JUMPDEST PUSH1 0x0 PUSH1 0x20 DUP3 DUP5 SUB SLT ISZERO PUSH2 0x53A JUMPI PUSH2 0x539 PUSH2 0x313 JUMP JUMPDEST JUMPDEST PUSH1 0x0 DUP3 ADD CALLDATALOAD PUSH8 0xFFFFFFFFFFFFFFFF DUP2 GT ISZERO PUSH2 0x558 JUMPI PUSH2 0x557 PUSH2 0x318 JUMP JUMPDEST JUMPDEST PUSH2 0x564 DUP5 DUP3 DUP6 ADD PUSH2 0x4F6 JUMP JUMPDEST SWAP2 POP POP SWAP3 SWAP2 POP POP JUMP JUMPDEST PUSH1 0x0 DUP2 SWAP1 POP SWAP2 SWAP1 POP JUMP JUMPDEST PUSH2 0x580 DUP2 PUSH2 0x56D JUMP JUMPDEST DUP3 MSTORE POP POP JUMP JUMPDEST PUSH1 0x0 PUSH1 0x20 DUP3 ADD SWAP1 POP PUSH2 0x59B PUSH1 0x0 DUP4 ADD DUP5 PUSH2 0x577 JUMP JUMPDEST SWAP3 SWAP2 POP POP JUMP JUMPDEST PUSH1 0x0 DUP2 SWAP1 POP SWAP2 SWAP1 POP JUMP JUMPDEST PUSH2 0x5B4 DUP2 PUSH2 0x5A1 JUMP JUMPDEST DUP2 EQ PUSH2 0x5BF JUMPI PUSH1 0x0 DUP1 REVERT JUMPDEST POP JUMP JUMPDEST PUSH1 0x0 DUP2 CALLDATALOAD SWAP1 POP PUSH2 0x5D1 DUP2 PUSH2 0x5AB JUMP JUMPDEST SWAP3 SWAP2 POP POP JUMP JUMPDEST PUSH1 0x0 PUSH1 0x20 DUP3 DUP5 SUB SLT ISZERO PUSH2 0x5ED JUMPI PUSH2 0x5EC PUSH2 0x313 JUMP JUMPDEST JUMPDEST PUSH1 0x0 PUSH2 0x5FB DUP5 DUP3 DUP6 ADD PUSH2 0x5C2 JUMP JUMPDEST SWAP2 POP POP SWAP3 SWAP2 POP POP JUMP JUMPDEST PUSH1 0x0 DUP2 MLOAD SWAP1 POP SWAP2 SWAP1 POP JUMP JUMPDEST PUSH1 0x0 DUP3 DUP3 MSTORE PUSH1 0x20 DUP3 ADD SWAP1 POP SWAP3 SWAP2 POP POP JUMP JUMPDEST PUSH1 0x0 JUMPDEST DUP4 DUP2 LT ISZERO PUSH2 0x63E JUMPI DUP1 DUP3 ADD MLOAD DUP2 DUP5 ADD MSTORE PUSH1 0x20 DUP2 ADD SWAP1 POP PUSH2 0x623 JUMP JUMPDEST PUSH1 0x0 DUP5 DUP5 ADD MSTORE POP POP POP POP JUMP JUMPDEST PUSH1 0x0 PUSH2 0x655 DUP3 PUSH2 0x604 JUMP JUMPDEST PUSH2 0x65F DUP2 DUP6 PUSH2 0x60F JUMP JUMPDEST SWAP4 POP PUSH2 0x66F DUP2 DUP6 PUSH1 0x20 DUP7 ADD PUSH2 0x620 JUMP JUMPDEST PUSH2 0x678 DUP2 PUSH2 0x3E8 JUMP JUMPDEST DUP5 ADD SWAP2 POP POP SWAP3 SWAP2 POP POP JUMP JUMPDEST PUSH1 0x0 PUSH1 0x20 DUP3 ADD SWAP1 POP DUP2 DUP2 SUB PUSH1 0x0 DUP4 ADD MSTORE PUSH2 0x69D DUP2 DUP5 PUSH2 0x64A JUMP JUMPDEST SWAP1 POP SWAP3 SWAP2 POP POP JUMP JUMPDEST PUSH1 0x0 DUP2 MLOAD SWAP1 POP SWAP2 SWAP1 POP JUMP JUMPDEST PUSH1 0x0 DUP2 SWAP1 POP SWAP3 SWAP2 POP POP JUMP JUMPDEST PUSH1 0x0 PUSH2 0x6C6 DUP3 PUSH2 0x6A5 JUMP JUMPDEST PUSH2 0x6D0 DUP2 DUP6 PUSH2 0x6B0 JUMP JUMPDEST SWAP4 POP PUSH2 0x6E0 DUP2 DUP6 PUSH1 0x20 DUP7 ADD PUSH2 0x620 JUMP JUMPDEST DUP1 DUP5 ADD SWAP2 POP POP SWAP3 SWAP2 POP POP JUMP JUMPDEST PUSH1 0x0 PUSH2 0x6F8 DUP3 DUP5 PUSH2 0x6BB JUMP JUMPDEST SWAP2 POP DUP2 SWAP1 POP SWAP3 SWAP2 POP POP JUMP JUMPDEST PUSH2 0x70C DUP2 PUSH2 0x56D JUMP JUMPDEST DUP2 EQ PUSH2 0x717 JUMPI PUSH1 0x0 DUP1 REVERT JUMPDEST POP JUMP JUMPDEST PUSH1 0x0 DUP2 MLOAD SWAP1 POP PUSH2 0x729 DUP2 PUSH2 0x703 JUMP JUMPDEST SWAP3 SWAP2 POP POP JUMP JUMPDEST PUSH1 0x0 PUSH1 0x20 DUP3 DUP5 SUB SLT ISZERO PUSH2 0x745 JUMPI PUSH2 0x744 PUSH2 0x313 JUMP JUMPDEST JUMPDEST PUSH1 0x0 PUSH2 0x753 DUP5 DUP3 DUP6 ADD PUSH2 0x71A JUMP JUMPDEST SWAP2 POP POP SWAP3 SWAP2 POP POP JUMP JUMPDEST PUSH2 0x765 DUP2 PUSH2 0x5A1 JUMP JUMPDEST DUP3 MSTORE POP POP JUMP JUMPDEST PUSH1 0x0 PUSH1 0x20 DUP3 ADD SWAP1 POP PUSH2 0x780 PUSH1 0x0 DUP4 ADD DUP5 PUSH2 0x75C JUMP JUMPDEST SWAP3 SWAP2 POP POP JUMP INVALID LOG2 PUSH5 0x6970667358 0x22 SLT KECCAK256 0xB1 NOT LOG4 TLOAD LOG0 0xAE SSTORE 0xB1 0xA8 0xDB LOG2 PUSH23 0xEEBE3D8D36EBC8A1DC1F74A3B5AB014B7AA4454864736F PUSH13 0x63430008180033000000000000 "
        },
        "methodIdentifiers": {
          "hashSha256(uint256)": "d1218931",
          "isContract(address)": "16279055",
          "ret(string)": "aa8e575d"
        }
      }
    }
  }
}