{
  "contracts/HackAndSlashParser.sol": {
    "HackAndSlashParser": {
      "abi": [
        {
          "inputs": [
            {
              "internalType": "bytes",
              "name": "input",
              "type": "bytes"
            }
          ],
          "name": "hackAndSlashConstant",
          "outputs": [
            {
              "internalType": "bool",
              "name": "ok",
              "type": "bool"
            },
            {
              "internalType": "bytes",
              "name": "out",
              "type": "bytes"
            }
          ],
          "stateMutability": "view",
          "type": "function"
        },
        {
          "inputs": [],
          "name": "readHackAndSlash",
          "outputs": [
            {
              "components": [
                {
                  "internalType": "uint8[16]",
                  "name": "id",
                  "type": "uint8[16]"
                },
                {
                  "internalType": "uint8[16][]",
                  "name": "costumes",
                  "type": "uint8[16][]"
                },
                {
                  "internalType": "uint8[16][]",
                  "name": "equipments",
                  "type": "uint8[16][]"
                },
                {
                  "internalType": "int64[][]",
                  "name": "r",
                  "type": "int64[][]"
                },
                {
                  "internalType": "uint8[16][]",
                  "name": "foods",
                  "type": "uint8[16][]"
                },
                {
                  "internalType": "int64",
                  "name": "worldId",
                  "type": "int64"
                },
                {
                  "internalType": "int64",
                  "name": "stageId",
                  "type": "int64"
                },
                {
                  "internalType": "address",
                  "name": "avatarAddress",
                  "type": "address"
                },
                {
                  "internalType": "int64",
                  "name": "totalPlayCount",
                  "type": "int64"
                },
                {
                  "internalType": "int64",
                  "name": "apStoneCount",
                  "type": "int64"
                }
              ],
              "internalType": "struct HackAndSlashParser.HackAndSlashStruct",
              "name": "",
              "type": "tuple"
            }
          ],
          "stateMutability": "view",
          "type": "function"
        }
      ],
      "evm": {
        "bytecode": {
          "linkReferences": {},
          "object": "608060405234801561001057600080fd5b50610e9c806100206000396000f3fe608060405234801561001057600080fd5b50600436106100365760003560e01c8063824d6b3a1461003b578063865aac9614610059575b600080fd5b61004361008a565b6040516100509190610621565b60405180910390f35b610073600480360381019061006e919061079d565b6100dc565b604051610081929190610880565b60405180910390f35b610092610157565b6000806100ad604051806020016040528060008152506100dc565b91509150816100bb57600080fd5b6000818060200190518101906100d19190610dca565b905080935050505090565b60006060600061010190508073ffffffffffffffffffffffffffffffffffffffff168460405161010c9190610e4f565b600060405180830381855afa9150503d8060008114610147576040519150601f19603f3d011682016040523d82523d6000602084013e61014c565b606091505b509250925050915091565b60405180610140016040528061016b6101d2565b815260200160608152602001606081526020016060815260200160608152602001600060070b8152602001600060070b8152602001600073ffffffffffffffffffffffffffffffffffffffff168152602001600060070b8152602001600060070b81525090565b604051806102000160405280601090602082028036833780820191505090505090565b600060109050919050565b600081905092915050565b6000819050919050565b600060ff82169050919050565b61022b81610215565b82525050565b600061023d8383610222565b60208301905092915050565b6000602082019050919050565b61025f816101f5565b6102698184610200565b92506102748261020b565b8060005b838110156102a557815161028c8782610231565b965061029783610249565b925050600181019050610278565b505050505050565b600081519050919050565b600082825260208201905092915050565b6000819050602082019050919050565b60006102e58383610256565b6102008301905092915050565b6000602082019050919050565b600061030a826102ad565b61031481856102b8565b935061031f836102c9565b8060005b8381101561035057815161033788826102d9565b9750610342836102f2565b925050600181019050610323565b5085935050505092915050565b600081519050919050565b600082825260208201905092915050565b6000819050602082019050919050565b600081519050919050565b600082825260208201905092915050565b6000819050602082019050919050565b60008160070b9050919050565b6103cb816103b5565b82525050565b60006103dd83836103c2565b60208301905092915050565b6000602082019050919050565b600061040182610389565b61040b8185610394565b9350610416836103a5565b8060005b8381101561044757815161042e88826103d1565b9750610439836103e9565b92505060018101905061041a565b5085935050505092915050565b600061046083836103f6565b905092915050565b6000602082019050919050565b60006104808261035d565b61048a8185610368565b93508360208202850161049c85610379565b8060005b858110156104d857848403895281516104b98582610454565b94506104c483610468565b925060208a019950506001810190506104a0565b50829750879550505050505092915050565b600073ffffffffffffffffffffffffffffffffffffffff82169050919050565b6000610515826104ea565b9050919050565b6105258161050a565b82525050565b6000610320830160008301516105446000860182610256565b50602083015184820361020086015261055d82826102ff565b915050604083015184820361022086015261057882826102ff565b91505060608301518482036102408601526105938282610475565b91505060808301518482036102608601526105ae82826102ff565b91505060a08301516105c46102808601826103c2565b5060c08301516105d86102a08601826103c2565b5060e08301516105ec6102c086018261051c565b506101008301516106016102e08601826103c2565b506101208301516106166103008601826103c2565b508091505092915050565b6000602082019050818103600083015261063b818461052b565b905092915050565b6000604051905090565b600080fd5b600080fd5b600080fd5b600080fd5b6000601f19601f8301169050919050565b7f4e487b7100000000000000000000000000000000000000000000000000000000600052604160045260246000fd5b6106aa82610661565b810181811067ffffffffffffffff821117156106c9576106c8610672565b5b80604052505050565b60006106dc610643565b90506106e882826106a1565b919050565b600067ffffffffffffffff82111561070857610707610672565b5b61071182610661565b9050602081019050919050565b82818337600083830152505050565b600061074061073b846106ed565b6106d2565b90508281526020810184848401111561075c5761075b61065c565b5b61076784828561071e565b509392505050565b600082601f83011261078457610783610657565b5b813561079484826020860161072d565b91505092915050565b6000602082840312156107b3576107b261064d565b5b600082013567ffffffffffffffff8111156107d1576107d0610652565b5b6107dd8482850161076f565b91505092915050565b60008115159050919050565b6107fb816107e6565b82525050565b600081519050919050565b600082825260208201905092915050565b60005b8381101561083b578082015181840152602081019050610820565b60008484015250505050565b600061085282610801565b61085c818561080c565b935061086c81856020860161081d565b61087581610661565b840191505092915050565b600060408201905061089560008301856107f2565b81810360208301526108a78184610847565b90509392505050565b600080fd5b600080fd5b600067ffffffffffffffff8211156108d5576108d4610672565b5b602082029050919050565b600080fd5b6108ee81610215565b81146108f957600080fd5b50565b60008151905061090b816108e5565b92915050565b600061092461091f846108ba565b6106d2565b9050806020840283018581111561093e5761093d6108e0565b5b835b81811015610967578061095388826108fc565b845260208401935050602081019050610940565b5050509392505050565b600082601f83011261098657610985610657565b5b6010610993848285610911565b91505092915050565b600067ffffffffffffffff8211156109b7576109b6610672565b5b602082029050602081019050919050565b60006109db6109d68461099c565b6106d2565b90508083825260208201905061020084028301858111156109ff576109fe6108e0565b5b835b81811015610a295780610a148882610971565b84526020840193505061020081019050610a01565b5050509392505050565b600082601f830112610a4857610a47610657565b5b8151610a588482602086016109c8565b91505092915050565b600067ffffffffffffffff821115610a7c57610a7b610672565b5b602082029050602081019050919050565b600067ffffffffffffffff821115610aa857610aa7610672565b5b602082029050602081019050919050565b610ac2816103b5565b8114610acd57600080fd5b50565b600081519050610adf81610ab9565b92915050565b6000610af8610af384610a8d565b6106d2565b90508083825260208201905060208402830185811115610b1b57610b1a6108e0565b5b835b81811015610b445780610b308882610ad0565b845260208401935050602081019050610b1d565b5050509392505050565b600082601f830112610b6357610b62610657565b5b8151610b73848260208601610ae5565b91505092915050565b6000610b8f610b8a84610a61565b6106d2565b90508083825260208201905060208402830185811115610bb257610bb16108e0565b5b835b81811015610bf957805167ffffffffffffffff811115610bd757610bd6610657565b5b808601610be48982610b4e565b85526020850194505050602081019050610bb4565b5050509392505050565b600082601f830112610c1857610c17610657565b5b8151610c28848260208601610b7c565b91505092915050565b610c3a8161050a565b8114610c4557600080fd5b50565b600081519050610c5781610c31565b92915050565b60006103208284031215610c7457610c736108b0565b5b610c7f6101406106d2565b90506000610c8f84828501610971565b60008301525061020082015167ffffffffffffffff811115610cb457610cb36108b5565b5b610cc084828501610a33565b60208301525061022082015167ffffffffffffffff811115610ce557610ce46108b5565b5b610cf184828501610a33565b60408301525061024082015167ffffffffffffffff811115610d1657610d156108b5565b5b610d2284828501610c03565b60608301525061026082015167ffffffffffffffff811115610d4757610d466108b5565b5b610d5384828501610a33565b608083015250610280610d6884828501610ad0565b60a0830152506102a0610d7d84828501610ad0565b60c0830152506102c0610d9284828501610c48565b60e0830152506102e0610da784828501610ad0565b61010083015250610300610dbd84828501610ad0565b6101208301525092915050565b600060208284031215610de057610ddf61064d565b5b600082015167ffffffffffffffff811115610dfe57610dfd610652565b5b610e0a84828501610c5d565b91505092915050565b600081905092915050565b6000610e2982610801565b610e338185610e13565b9350610e4381856020860161081d565b80840191505092915050565b6000610e5b8284610e1e565b91508190509291505056fea26469706673582212200b1deeffd3dead865d7581f2e2368e9ecc875c4dd735c5106f2f9a9141bc4b0164736f6c63430008180033",
          "opcodes": "PUSH1 0x80 PUSH1 0x40 MSTORE CALLVALUE DUP1 ISZERO PUSH2 0x10 JUMPI PUSH1 0x0 DUP1 REVERT JUMPDEST POP PUSH2 0xE9C DUP1 PUSH2 0x20 PUSH1 0x0 CODECOPY PUSH1 0x0 RETURN INVALID PUSH1 0x80 PUSH1 0x40 MSTORE CALLVALUE DUP1 ISZERO PUSH2 0x10 JUMPI PUSH1 0x0 DUP1 REVERT JUMPDEST POP PUSH1 0x4 CALLDATASIZE LT PUSH2 0x36 JUMPI PUSH1 0x0 CALLDATALOAD PUSH1 0xE0 SHR DUP1 PUSH4 0x824D6B3A EQ PUSH2 0x3B JUMPI DUP1 PUSH4 0x865AAC96 EQ PUSH2 0x59 JUMPI JUMPDEST PUSH1 0x0 DUP1 REVERT JUMPDEST PUSH2 0x43 PUSH2 0x8A JUMP JUMPDEST PUSH1 0x40 MLOAD PUSH2 0x50 SWAP2 SWAP1 PUSH2 0x621 JUMP JUMPDEST PUSH1 0x40 MLOAD DUP1 SWAP2 SUB SWAP1 RETURN JUMPDEST PUSH2 0x73 PUSH1 0x4 DUP1 CALLDATASIZE SUB DUP2 ADD SWAP1 PUSH2 0x6E SWAP2 SWAP1 PUSH2 0x79D JUMP JUMPDEST PUSH2 0xDC JUMP JUMPDEST PUSH1 0x40 MLOAD PUSH2 0x81 SWAP3 SWAP2 SWAP1 PUSH2 0x880 JUMP JUMPDEST PUSH1 0x40 MLOAD DUP1 SWAP2 SUB SWAP1 RETURN JUMPDEST PUSH2 0x92 PUSH2 0x157 JUMP JUMPDEST PUSH1 0x0 DUP1 PUSH2 0xAD PUSH1 0x40 MLOAD DUP1 PUSH1 0x20 ADD PUSH1 0x40 MSTORE DUP1 PUSH1 0x0 DUP2 MSTORE POP PUSH2 0xDC JUMP JUMPDEST SWAP2 POP SWAP2 POP DUP2 PUSH2 0xBB JUMPI PUSH1 0x0 DUP1 REVERT JUMPDEST PUSH1 0x0 DUP2 DUP1 PUSH1 0x20 ADD SWAP1 MLOAD DUP2 ADD SWAP1 PUSH2 0xD1 SWAP2 SWAP1 PUSH2 0xDCA JUMP JUMPDEST SWAP1 POP DUP1 SWAP4 POP POP POP POP SWAP1 JUMP JUMPDEST PUSH1 0x0 PUSH1 0x60 PUSH1 0x0 PUSH2 0x101 SWAP1 POP DUP1 PUSH20 0xFFFFFFFFFFFFFFFFFFFFFFFFFFFFFFFFFFFFFFFF AND DUP5 PUSH1 0x40 MLOAD PUSH2 0x10C SWAP2 SWAP1 PUSH2 0xE4F JUMP JUMPDEST PUSH1 0x0 PUSH1 0x40 MLOAD DUP1 DUP4 SUB DUP2 DUP6 GAS STATICCALL SWAP2 POP POP RETURNDATASIZE DUP1 PUSH1 0x0 DUP2 EQ PUSH2 0x147 JUMPI PUSH1 0x40 MLOAD SWAP2 POP PUSH1 0x1F NOT PUSH1 0x3F RETURNDATASIZE ADD AND DUP3 ADD PUSH1 0x40 MSTORE RETURNDATASIZE DUP3 MSTORE RETURNDATASIZE PUSH1 0x0 PUSH1 0x20 DUP5 ADD RETURNDATACOPY PUSH2 0x14C JUMP JUMPDEST PUSH1 0x60 SWAP2 POP JUMPDEST POP SWAP3 POP SWAP3 POP POP SWAP2 POP SWAP2 JUMP JUMPDEST PUSH1 0x40 MLOAD DUP1 PUSH2 0x140 ADD PUSH1 0x40 MSTORE DUP1 PUSH2 0x16B PUSH2 0x1D2 JUMP JUMPDEST DUP2 MSTORE PUSH1 0x20 ADD PUSH1 0x60 DUP2 MSTORE PUSH1 0x20 ADD PUSH1 0x60 DUP2 MSTORE PUSH1 0x20 ADD PUSH1 0x60 DUP2 MSTORE PUSH1 0x20 ADD PUSH1 0x60 DUP2 MSTORE PUSH1 0x20 ADD PUSH1 0x0 PUSH1 0x7 SIGNEXTEND DUP2 MSTORE PUSH1 0x20 ADD PUSH1 0x0 PUSH1 0x7 SIGNEXTEND DUP2 MSTORE PUSH1 0x20 ADD PUSH1 0x0 PUSH20 0xFFFFFFFFFFFFFFFFFFFFFFFFFFFFFFFFFFFFFFFF AND DUP2 MSTORE PUSH1 0x20 ADD PUSH1 0x0 PUSH1 0x7 SIGNEXTEND DUP2 MSTORE PUSH1 0x20 ADD PUSH1 0x0 PUSH1 0x7 SIGNEXTEND DUP2 MSTORE POP SWAP1 JUMP JUMPDEST PUSH1 0x40 MLOAD DUP1 PUSH2 0x200 ADD PUSH1 0x40 MSTORE DUP1 PUSH1 0x10 SWAP1 PUSH1 0x20 DUP3 MUL DUP1 CALLDATASIZE DUP4 CALLDATACOPY DUP1 DUP3 ADD SWAP2 POP POP SWAP1 POP POP SWAP1 JUMP JUMPDEST PUSH1 0x0 PUSH1 0x10 SWAP1 POP SWAP2 SWAP1 POP JUMP JUMPDEST PUSH1 0x0 DUP2 SWAP1 POP SWAP3 SWAP2 POP POP JUMP JUMPDEST PUSH1 0x0 DUP2 SWAP1 POP SWAP2 SWAP1 POP JUMP JUMPDEST PUSH1 0x0 PUSH1 0xFF DUP3 AND SWAP1 POP SWAP2 SWAP1 POP JUMP JUMPDEST PUSH2 0x22B DUP2 PUSH2 0x215 JUMP JUMPDEST DUP3 MSTORE POP POP JUMP JUMPDEST PUSH1 0x0 PUSH2 0x23D DUP4 DUP4 PUSH2 0x222 JUMP JUMPDEST PUSH1 0x20 DUP4 ADD SWAP1 POP SWAP3 SWAP2 POP POP JUMP JUMPDEST PUSH1 0x0 PUSH1 0x20 DUP3 ADD SWAP1 POP SWAP2 SWAP1 POP JUMP JUMPDEST PUSH2 0x25F DUP2 PUSH2 0x1F5 JUMP JUMPDEST PUSH2 0x269 DUP2 DUP5 PUSH2 0x200 JUMP JUMPDEST SWAP3 POP PUSH2 0x274 DUP3 PUSH2 0x20B JUMP JUMPDEST DUP1 PUSH1 0x0 JUMPDEST DUP4 DUP2 LT ISZERO PUSH2 0x2A5 JUMPI DUP2 MLOAD PUSH2 0x28C DUP8 DUP3 PUSH2 0x231 JUMP JUMPDEST SWAP7 POP PUSH2 0x297 DUP4 PUSH2 0x249 JUMP JUMPDEST SWAP3 POP POP PUSH1 0x1 DUP2 ADD SWAP1 POP PUSH2 0x278 JUMP JUMPDEST POP POP POP POP POP POP JUMP JUMPDEST PUSH1 0x0 DUP2 MLOAD SWAP1 POP SWAP2 SWAP1 POP JUMP JUMPDEST PUSH1 0x0 DUP3 DUP3 MSTORE PUSH1 0x20 DUP3 ADD SWAP1 POP SWAP3 SWAP2 POP POP JUMP JUMPDEST PUSH1 0x0 DUP2 SWAP1 POP PUSH1 0x20 DUP3 ADD SWAP1 POP SWAP2 SWAP1 POP JUMP JUMPDEST PUSH1 0x0 PUSH2 0x2E5 DUP4 DUP4 PUSH2 0x256 JUMP JUMPDEST PUSH2 0x200 DUP4 ADD SWAP1 POP SWAP3 SWAP2 POP POP JUMP JUMPDEST PUSH1 0x0 PUSH1 0x20 DUP3 ADD SWAP1 POP SWAP2 SWAP1 POP JUMP JUMPDEST PUSH1 0x0 PUSH2 0x30A DUP3 PUSH2 0x2AD JUMP JUMPDEST PUSH2 0x314 DUP2 DUP6 PUSH2 0x2B8 JUMP JUMPDEST SWAP4 POP PUSH2 0x31F DUP4 PUSH2 0x2C9 JUMP JUMPDEST DUP1 PUSH1 0x0 JUMPDEST DUP4 DUP2 LT ISZERO PUSH2 0x350 JUMPI DUP2 MLOAD PUSH2 0x337 DUP9 DUP3 PUSH2 0x2D9 JUMP JUMPDEST SWAP8 POP PUSH2 0x342 DUP4 PUSH2 0x2F2 JUMP JUMPDEST SWAP3 POP POP PUSH1 0x1 DUP2 ADD SWAP1 POP PUSH2 0x323 JUMP JUMPDEST POP DUP6 SWAP4 POP POP POP POP SWAP3 SWAP2 POP POP JUMP JUMPDEST PUSH1 0x0 DUP2 MLOAD SWAP1 POP SWAP2 SWAP1 POP JUMP JUMPDEST PUSH1 0x0 DUP3 DUP3 MSTORE PUSH1 0x20 DUP3 ADD SWAP1 POP SWAP3 SWAP2 POP POP JUMP JUMPDEST PUSH1 0x0 DUP2 SWAP1 POP PUSH1 0x20 DUP3 ADD SWAP1 POP SWAP2 SWAP1 POP JUMP JUMPDEST PUSH1 0x0 DUP2 MLOAD SWAP1 POP SWAP2 SWAP1 POP JUMP JUMPDEST PUSH1 0x0 DUP3 DUP3 MSTORE PUSH1 0x20 DUP3 ADD SWAP1 POP SWAP3 SWAP2 POP POP JUMP JUMPDEST PUSH1 0x0 DUP2 SWAP1 POP PUSH1 0x20 DUP3 ADD SWAP1 POP SWAP2 SWAP1 POP JUMP JUMPDEST PUSH1 0x0 DUP2 PUSH1 0x7 SIGNEXTEND SWAP1 POP SWAP2 SWAP1 POP JUMP JUMPDEST PUSH2 0x3CB DUP2 PUSH2 0x3B5 JUMP JUMPDEST DUP3 MSTORE POP POP JUMP JUMPDEST PUSH1 0x0 PUSH2 0x3DD DUP4 DUP4 PUSH2 0x3C2 JUMP JUMPDEST PUSH1 0x20 DUP4 ADD SWAP1 POP SWAP3 SWAP2 POP POP JUMP JUMPDEST PUSH1 0x0 PUSH1 0x20 DUP3 ADD SWAP1 POP SWAP2 SWAP1 POP JUMP JUMPDEST PUSH1 0x0 PUSH2 0x401 DUP3 PUSH2 0x389 JUMP JUMPDEST PUSH2 0x40B DUP2 DUP6 PUSH2 0x394 JUMP JUMPDEST SWAP4 POP PUSH2 0x416 DUP4 PUSH2 0x3A5 JUMP JUMPDEST DUP1 PUSH1 0x0 JUMPDEST DUP4 DUP2 LT ISZERO PUSH2 0x447 JUMPI DUP2 MLOAD PUSH2 0x42E DUP9 DUP3 PUSH2 0x3D1 JUMP JUMPDEST SWAP8 POP PUSH2 0x439 DUP4 PUSH2 0x3E9 JUMP JUMPDEST SWAP3 POP POP PUSH1 0x1 DUP2 ADD SWAP1 POP PUSH2 0x41A JUMP JUMPDEST POP DUP6 SWAP4 POP POP POP POP SWAP3 SWAP2 POP POP JUMP JUMPDEST PUSH1 0x0 PUSH2 0x460 DUP4 DUP4 PUSH2 0x3F6 JUMP JUMPDEST SWAP1 POP SWAP3 SWAP2 POP POP JUMP JUMPDEST PUSH1 0x0 PUSH1 0x20 DUP3 ADD SWAP1 POP SWAP2 SWAP1 POP JUMP JUMPDEST PUSH1 0x0 PUSH2 0x480 DUP3 PUSH2 0x35D JUMP JUMPDEST PUSH2 0x48A DUP2 DUP6 PUSH2 0x368 JUMP JUMPDEST SWAP4 POP DUP4 PUSH1 0x20 DUP3 MUL DUP6 ADD PUSH2 0x49C DUP6 PUSH2 0x379 JUMP JUMPDEST DUP1 PUSH1 0x0 JUMPDEST DUP6 DUP2 LT ISZERO PUSH2 0x4D8 JUMPI DUP5 DUP5 SUB DUP10 MSTORE DUP2 MLOAD PUSH2 0x4B9 DUP6 DUP3 PUSH2 0x454 JUMP JUMPDEST SWAP5 POP PUSH2 0x4C4 DUP4 PUSH2 0x468 JUMP JUMPDEST SWAP3 POP PUSH1 0x20 DUP11 ADD SWAP10 POP POP PUSH1 0x1 DUP2 ADD SWAP1 POP PUSH2 0x4A0 JUMP JUMPDEST POP DUP3 SWAP8 POP DUP8 SWAP6 POP POP POP POP POP POP SWAP3 SWAP2 POP POP JUMP JUMPDEST PUSH1 0x0 PUSH20 0xFFFFFFFFFFFFFFFFFFFFFFFFFFFFFFFFFFFFFFFF DUP3 AND SWAP1 POP SWAP2 SWAP1 POP JUMP JUMPDEST PUSH1 0x0 PUSH2 0x515 DUP3 PUSH2 0x4EA JUMP JUMPDEST SWAP1 POP SWAP2 SWAP1 POP JUMP JUMPDEST PUSH2 0x525 DUP2 PUSH2 0x50A JUMP JUMPDEST DUP3 MSTORE POP POP JUMP JUMPDEST PUSH1 0x0 PUSH2 0x320 DUP4 ADD PUSH1 0x0 DUP4 ADD MLOAD PUSH2 0x544 PUSH1 0x0 DUP7 ADD DUP3 PUSH2 0x256 JUMP JUMPDEST POP PUSH1 0x20 DUP4 ADD MLOAD DUP5 DUP3 SUB PUSH2 0x200 DUP7 ADD MSTORE PUSH2 0x55D DUP3 DUP3 PUSH2 0x2FF JUMP JUMPDEST SWAP2 POP POP PUSH1 0x40 DUP4 ADD MLOAD DUP5 DUP3 SUB PUSH2 0x220 DUP7 ADD MSTORE PUSH2 0x578 DUP3 DUP3 PUSH2 0x2FF JUMP JUMPDEST SWAP2 POP POP PUSH1 0x60 DUP4 ADD MLOAD DUP5 DUP3 SUB PUSH2 0x240 DUP7 ADD MSTORE PUSH2 0x593 DUP3 DUP3 PUSH2 0x475 JUMP JUMPDEST SWAP2 POP POP PUSH1 0x80 DUP4 ADD MLOAD DUP5 DUP3 SUB PUSH2 0x260 DUP7 ADD MSTORE PUSH2 0x5AE DUP3 DUP3 PUSH2 0x2FF JUMP JUMPDEST SWAP2 POP POP PUSH1 0xA0 DUP4 ADD MLOAD PUSH2 0x5C4 PUSH2 0x280 DUP7 ADD DUP3 PUSH2 0x3C2 JUMP JUMPDEST POP PUSH1 0xC0 DUP4 ADD MLOAD PUSH2 0x5D8 PUSH2 0x2A0 DUP7 ADD DUP3 PUSH2 0x3C2 JUMP JUMPDEST POP PUSH1 0xE0 DUP4 ADD MLOAD PUSH2 0x5EC PUSH2 0x2C0 DUP7 ADD DUP3 PUSH2 0x51C JUMP JUMPDEST POP PUSH2 0x100 DUP4 ADD MLOAD PUSH2 0x601 PUSH2 0x2E0 DUP7 ADD DUP3 PUSH2 0x3C2 JUMP JUMPDEST POP PUSH2 0x120 DUP4 ADD MLOAD PUSH2 0x616 PUSH2 0x300 DUP7 ADD DUP3 PUSH2 0x3C2 JUMP JUMPDEST POP DUP1 SWAP2 POP POP SWAP3 SWAP2 POP POP JUMP JUMPDEST PUSH1 0x0 PUSH1 0x20 DUP3 ADD SWAP1 POP DUP2 DUP2 SUB PUSH1 0x0 DUP4 ADD MSTORE PUSH2 0x63B DUP2 DUP5 PUSH2 0x52B JUMP JUMPDEST SWAP1 POP SWAP3 SWAP2 POP POP JUMP JUMPDEST PUSH1 0x0 PUSH1 0x40 MLOAD SWAP1 POP SWAP1 JUMP JUMPDEST PUSH1 0x0 DUP1 REVERT JUMPDEST PUSH1 0x0 DUP1 REVERT JUMPDEST PUSH1 0x0 DUP1 REVERT JUMPDEST PUSH1 0x0 DUP1 REVERT JUMPDEST PUSH1 0x0 PUSH1 0x1F NOT PUSH1 0x1F DUP4 ADD AND SWAP1 POP SWAP2 SWAP1 POP JUMP JUMPDEST PUSH32 0x4E487B7100000000000000000000000000000000000000000000000000000000 PUSH1 0x0 MSTORE PUSH1 0x41 PUSH1 0x4 MSTORE PUSH1 0x24 PUSH1 0x0 REVERT JUMPDEST PUSH2 0x6AA DUP3 PUSH2 0x661 JUMP JUMPDEST DUP2 ADD DUP2 DUP2 LT PUSH8 0xFFFFFFFFFFFFFFFF DUP3 GT OR ISZERO PUSH2 0x6C9 JUMPI PUSH2 0x6C8 PUSH2 0x672 JUMP JUMPDEST JUMPDEST DUP1 PUSH1 0x40 MSTORE POP POP POP JUMP JUMPDEST PUSH1 0x0 PUSH2 0x6DC PUSH2 0x643 JUMP JUMPDEST SWAP1 POP PUSH2 0x6E8 DUP3 DUP3 PUSH2 0x6A1 JUMP JUMPDEST SWAP2 SWAP1 POP JUMP JUMPDEST PUSH1 0x0 PUSH8 0xFFFFFFFFFFFFFFFF DUP3 GT ISZERO PUSH2 0x708 JUMPI PUSH2 0x707 PUSH2 0x672 JUMP JUMPDEST JUMPDEST PUSH2 0x711 DUP3 PUSH2 0x661 JUMP JUMPDEST SWAP1 POP PUSH1 0x20 DUP2 ADD SWAP1 POP SWAP2 SWAP1 POP JUMP JUMPDEST DUP3 DUP2 DUP4 CALLDATACOPY PUSH1 0x0 DUP4 DUP4 ADD MSTORE POP POP POP JUMP JUMPDEST PUSH1 0x0 PUSH2 0x740 PUSH2 0x73B DUP5 PUSH2 0x6ED JUMP JUMPDEST PUSH2 0x6D2 JUMP JUMPDEST SWAP1 POP DUP3 DUP2 MSTORE PUSH1 0x20 DUP2 ADD DUP5 DUP5 DUP5 ADD GT ISZERO PUSH2 0x75C JUMPI PUSH2 0x75B PUSH2 0x65C JUMP JUMPDEST JUMPDEST PUSH2 0x767 DUP5 DUP3 DUP6 PUSH2 0x71E JUMP JUMPDEST POP SWAP4 SWAP3 POP POP POP JUMP JUMPDEST PUSH1 0x0 DUP3 PUSH1 0x1F DUP4 ADD SLT PUSH2 0x784 JUMPI PUSH2 0x783 PUSH2 0x657 JUMP JUMPDEST JUMPDEST DUP2 CALLDATALOAD PUSH2 0x794 DUP5 DUP3 PUSH1 0x20 DUP7 ADD PUSH2 0x72D JUMP JUMPDEST SWAP2 POP POP SWAP3 SWAP2 POP POP JUMP JUMPDEST PUSH1 0x0 PUSH1 0x20 DUP3 DUP5 SUB SLT ISZERO PUSH2 0x7B3 JUMPI PUSH2 0x7B2 PUSH2 0x64D JUMP JUMPDEST JUMPDEST PUSH1 0x0 DUP3 ADD CALLDATALOAD PUSH8 0xFFFFFFFFFFFFFFFF DUP2 GT ISZERO PUSH2 0x7D1 JUMPI PUSH2 0x7D0 PUSH2 0x652 JUMP JUMPDEST JUMPDEST PUSH2 0x7DD DUP5 DUP3 DUP6 ADD PUSH2 0x76F JUMP JUMPDEST SWAP2 POP POP SWAP3 SWAP2 POP POP JUMP JUMPDEST PUSH1 0x0 DUP2 ISZERO ISZERO SWAP1 POP SWAP2 SWAP1 POP JUMP JUMPDEST PUSH2 0x7FB DUP2 PUSH2 0x7E6 JUMP JUMPDEST DUP3 MSTORE POP POP JUMP JUMPDEST PUSH1 0x0 DUP2 MLOAD SWAP1 POP SWAP2 SWAP1 POP JUMP JUMPDEST PUSH1 0x0 DUP3 DUP3 MSTORE PUSH1 0x20 DUP3 ADD SWAP1 POP SWAP3 SWAP2 POP POP JUMP JUMPDEST PUSH1 0x0 JUMPDEST DUP4 DUP2 LT ISZERO PUSH2 0x83B JUMPI DUP1 DUP3 ADD MLOAD DUP2 DUP5 ADD MSTORE PUSH1 0x20 DUP2 ADD SWAP1 POP PUSH2 0x820 JUMP JUMPDEST PUSH1 0x0 DUP5 DUP5 ADD MSTORE POP POP POP POP JUMP JUMPDEST PUSH1 0x0 PUSH2 0x852 DUP3 PUSH2 0x801 JUMP JUMPDEST PUSH2 0x85C DUP2 DUP6 PUSH2 0x80C JUMP JUMPDEST SWAP4 POP PUSH2 0x86C DUP2 DUP6 PUSH1 0x20 DUP7 ADD PUSH2 0x81D JUMP JUMPDEST PUSH2 0x875 DUP2 PUSH2 0x661 JUMP JUMPDEST DUP5 ADD SWAP2 POP POP SWAP3 SWAP2 POP POP JUMP JUMPDEST PUSH1 0x0 PUSH1 0x40 DUP3 ADD SWAP1 POP PUSH2 0x895 PUSH1 0x0 DUP4 ADD DUP6 PUSH2 0x7F2 JUMP JUMPDEST DUP2 DUP2 SUB PUSH1 0x20 DUP4 ADD MSTORE PUSH2 0x8A7 DUP2 DUP5 PUSH2 0x847 JUMP JUMPDEST SWAP1 POP SWAP4 SWAP3 POP POP POP JUMP JUMPDEST PUSH1 0x0 DUP1 REVERT JUMPDEST PUSH1 0x0 DUP1 REVERT JUMPDEST PUSH1 0x0 PUSH8 0xFFFFFFFFFFFFFFFF DUP3 GT ISZERO PUSH2 0x8D5 JUMPI PUSH2 0x8D4 PUSH2 0x672 JUMP JUMPDEST JUMPDEST PUSH1 0x20 DUP3 MUL SWAP1 POP SWAP2 SWAP1 POP JUMP JUMPDEST PUSH1 0x0 DUP1 REVERT JUMPDEST PUSH2 0x8EE DUP2 PUSH2 0x215 JUMP JUMPDEST DUP2 EQ PUSH2 0x8F9 JUMPI PUSH1 0x0 DUP1 REVERT JUMPDEST POP JUMP JUMPDEST PUSH1 0x0 DUP2 MLOAD SWAP1 POP PUSH2 0x90B DUP2 PUSH2 0x8E5 JUMP JUMPDEST SWAP3 SWAP2 POP POP JUMP JUMPDEST PUSH1 0x0 PUSH2 0x924 PUSH2 0x91F DUP5 PUSH2 0x8BA JUMP JUMPDEST PUSH2 0x6D2 JUMP JUMPDEST SWAP1 POP DUP1 PUSH1 0x20 DUP5 MUL DUP4 ADD DUP6 DUP2 GT ISZERO PUSH2 0x93E JUMPI PUSH2 0x93D PUSH2 0x8E0 JUMP JUMPDEST JUMPDEST DUP4 JUMPDEST DUP2 DUP2 LT ISZERO PUSH2 0x967 JUMPI DUP1 PUSH2 0x953 DUP9 DUP3 PUSH2 0x8FC JUMP JUMPDEST DUP5 MSTORE PUSH1 0x20 DUP5 ADD SWAP4 POP POP PUSH1 0x20 DUP2 ADD SWAP1 POP PUSH2 0x940 JUMP JUMPDEST POP POP POP SWAP4 SWAP3 POP POP POP JUMP JUMPDEST PUSH1 0x0 DUP3 PUSH1 0x1F DUP4 ADD SLT PUSH2 0x986 JUMPI PUSH2 0x985 PUSH2 0x657 JUMP JUMPDEST JUMPDEST PUSH1 0x10 PUSH2 0x993 DUP5 DUP3 DUP6 PUSH2 0x911 JUMP JUMPDEST SWAP2 POP POP SWAP3 SWAP2 POP POP JUMP JUMPDEST PUSH1 0x0 PUSH8 0xFFFFFFFFFFFFFFFF DUP3 GT ISZERO PUSH2 0x9B7 JUMPI PUSH2 0x9B6 PUSH2 0x672 JUMP JUMPDEST JUMPDEST PUSH1 0x20 DUP3 MUL SWAP1 POP PUSH1 0x20 DUP2 ADD SWAP1 POP SWAP2 SWAP1 POP JUMP JUMPDEST PUSH1 0x0 PUSH2 0x9DB PUSH2 0x9D6 DUP5 PUSH2 0x99C JUMP JUMPDEST PUSH2 0x6D2 JUMP JUMPDEST SWAP1 POP DUP1 DUP4 DUP3 MSTORE PUSH1 0x20 DUP3 ADD SWAP1 POP PUSH2 0x200 DUP5 MUL DUP4 ADD DUP6 DUP2 GT ISZERO PUSH2 0x9FF JUMPI PUSH2 0x9FE PUSH2 0x8E0 JUMP JUMPDEST JUMPDEST DUP4 JUMPDEST DUP2 DUP2 LT ISZERO PUSH2 0xA29 JUMPI DUP1 PUSH2 0xA14 DUP9 DUP3 PUSH2 0x971 JUMP JUMPDEST DUP5 MSTORE PUSH1 0x20 DUP5 ADD SWAP4 POP POP PUSH2 0x200 DUP2 ADD SWAP1 POP PUSH2 0xA01 JUMP JUMPDEST POP POP POP SWAP4 SWAP3 POP POP POP JUMP JUMPDEST PUSH1 0x0 DUP3 PUSH1 0x1F DUP4 ADD SLT PUSH2 0xA48 JUMPI PUSH2 0xA47 PUSH2 0x657 JUMP JUMPDEST JUMPDEST DUP2 MLOAD PUSH2 0xA58 DUP5 DUP3 PUSH1 0x20 DUP7 ADD PUSH2 0x9C8 JUMP JUMPDEST SWAP2 POP POP SWAP3 SWAP2 POP POP JUMP JUMPDEST PUSH1 0x0 PUSH8 0xFFFFFFFFFFFFFFFF DUP3 GT ISZERO PUSH2 0xA7C JUMPI PUSH2 0xA7B PUSH2 0x672 JUMP JUMPDEST JUMPDEST PUSH1 0x20 DUP3 MUL SWAP1 POP PUSH1 0x20 DUP2 ADD SWAP1 POP SWAP2 SWAP1 POP JUMP JUMPDEST PUSH1 0x0 PUSH8 0xFFFFFFFFFFFFFFFF DUP3 GT ISZERO PUSH2 0xAA8 JUMPI PUSH2 0xAA7 PUSH2 0x672 JUMP JUMPDEST JUMPDEST PUSH1 0x20 DUP3 MUL SWAP1 POP PUSH1 0x20 DUP2 ADD SWAP1 POP SWAP2 SWAP1 POP JUMP JUMPDEST PUSH2 0xAC2 DUP2 PUSH2 0x3B5 JUMP JUMPDEST DUP2 EQ PUSH2 0xACD JUMPI PUSH1 0x0 DUP1 REVERT JUMPDEST POP JUMP JUMPDEST PUSH1 0x0 DUP2 MLOAD SWAP1 POP PUSH2 0xADF DUP2 PUSH2 0xAB9 JUMP JUMPDEST SWAP3 SWAP2 POP POP JUMP JUMPDEST PUSH1 0x0 PUSH2 0xAF8 PUSH2 0xAF3 DUP5 PUSH2 0xA8D JUMP JUMPDEST PUSH2 0x6D2 JUMP JUMPDEST SWAP1 POP DUP1 DUP4 DUP3 MSTORE PUSH1 0x20 DUP3 ADD SWAP1 POP PUSH1 0x20 DUP5 MUL DUP4 ADD DUP6 DUP2 GT ISZERO PUSH2 0xB1B JUMPI PUSH2 0xB1A PUSH2 0x8E0 JUMP JUMPDEST JUMPDEST DUP4 JUMPDEST DUP2 DUP2 LT ISZERO PUSH2 0xB44 JUMPI DUP1 PUSH2 0xB30 DUP9 DUP3 PUSH2 0xAD0 JUMP JUMPDEST DUP5 MSTORE PUSH1 0x20 DUP5 ADD SWAP4 POP POP PUSH1 0x20 DUP2 ADD SWAP1 POP PUSH2 0xB1D JUMP JUMPDEST POP POP POP SWAP4 SWAP3 POP POP POP JUMP JUMPDEST PUSH1 0x0 DUP3 PUSH1 0x1F DUP4 ADD SLT PUSH2 0xB63 JUMPI PUSH2 0xB62 PUSH2 0x657 JUMP JUMPDEST JUMPDEST DUP2 MLOAD PUSH2 0xB73 DUP5 DUP3 PUSH1 0x20 DUP7 ADD PUSH2 0xAE5 JUMP JUMPDEST SWAP2 POP POP SWAP3 SWAP2 POP POP JUMP JUMPDEST PUSH1 0x0 PUSH2 0xB8F PUSH2 0xB8A DUP5 PUSH2 0xA61 JUMP JUMPDEST PUSH2 0x6D2 JUMP JUMPDEST SWAP1 POP DUP1 DUP4 DUP3 MSTORE PUSH1 0x20 DUP3 ADD SWAP1 POP PUSH1 0x20 DUP5 MUL DUP4 ADD DUP6 DUP2 GT ISZERO PUSH2 0xBB2 JUMPI PUSH2 0xBB1 PUSH2 0x8E0 JUMP JUMPDEST JUMPDEST DUP4 JUMPDEST DUP2 DUP2 LT ISZERO PUSH2 0xBF9 JUMPI DUP1 MLOAD PUSH8 0xFFFFFFFFFFFFFFFF DUP2 GT ISZERO PUSH2 0xBD7 JUMPI PUSH2 0xBD6 PUSH2 0x657 JUMP JUMPDEST JUMPDEST DUP1 DUP7 ADD PUSH2 0xBE4 DUP10 DUP3 PUSH2 0xB4E JUMP JUMPDEST DUP6 MSTORE PUSH1 0x20 DUP6 ADD SWAP5 POP POP POP PUSH1 0x20 DUP2 ADD SWAP1 POP PUSH2 0xBB4 JUMP JUMPDEST POP POP POP SWAP4 SWAP3 POP POP POP JUMP JUMPDEST PUSH1 0x0 DUP3 PUSH1 0x1F DUP4 ADD SLT PUSH2 0xC18 JUMPI PUSH2 0xC17 PUSH2 0x657 JUMP JUMPDEST JUMPDEST DUP2 MLOAD PUSH2 0xC28 DUP5 DUP3 PUSH1 0x20 DUP7 ADD PUSH2 0xB7C JUMP JUMPDEST SWAP2 POP POP SWAP3 SWAP2 POP POP JUMP JUMPDEST PUSH2 0xC3A DUP2 PUSH2 0x50A JUMP JUMPDEST DUP2 EQ PUSH2 0xC45 JUMPI PUSH1 0x0 DUP1 REVERT JUMPDEST POP JUMP JUMPDEST PUSH1 0x0 DUP2 MLOAD SWAP1 POP PUSH2 0xC57 DUP2 PUSH2 0xC31 JUMP JUMPDEST SWAP3 SWAP2 POP POP JUMP JUMPDEST PUSH1 0x0 PUSH2 0x320 DUP3 DUP5 SUB SLT ISZERO PUSH2 0xC74 JUMPI PUSH2 0xC73 PUSH2 0x8B0 JUMP JUMPDEST JUMPDEST PUSH2 0xC7F PUSH2 0x140 PUSH2 0x6D2 JUMP JUMPDEST SWAP1 POP PUSH1 0x0 PUSH2 0xC8F DUP5 DUP3 DUP6 ADD PUSH2 0x971 JUMP JUMPDEST PUSH1 0x0 DUP4 ADD MSTORE POP PUSH2 0x200 DUP3 ADD MLOAD PUSH8 0xFFFFFFFFFFFFFFFF DUP2 GT ISZERO PUSH2 0xCB4 JUMPI PUSH2 0xCB3 PUSH2 0x8B5 JUMP JUMPDEST JUMPDEST PUSH2 0xCC0 DUP5 DUP3 DUP6 ADD PUSH2 0xA33 JUMP JUMPDEST PUSH1 0x20 DUP4 ADD MSTORE POP PUSH2 0x220 DUP3 ADD MLOAD PUSH8 0xFFFFFFFFFFFFFFFF DUP2 GT ISZERO PUSH2 0xCE5 JUMPI PUSH2 0xCE4 PUSH2 0x8B5 JUMP JUMPDEST JUMPDEST PUSH2 0xCF1 DUP5 DUP3 DUP6 ADD PUSH2 0xA33 JUMP JUMPDEST PUSH1 0x40 DUP4 ADD MSTORE POP PUSH2 0x240 DUP3 ADD MLOAD PUSH8 0xFFFFFFFFFFFFFFFF DUP2 GT ISZERO PUSH2 0xD16 JUMPI PUSH2 0xD15 PUSH2 0x8B5 JUMP JUMPDEST JUMPDEST PUSH2 0xD22 DUP5 DUP3 DUP6 ADD PUSH2 0xC03 JUMP JUMPDEST PUSH1 0x60 DUP4 ADD MSTORE POP PUSH2 0x260 DUP3 ADD MLOAD PUSH8 0xFFFFFFFFFFFFFFFF DUP2 GT ISZERO PUSH2 0xD47 JUMPI PUSH2 0xD46 PUSH2 0x8B5 JUMP JUMPDEST JUMPDEST PUSH2 0xD53 DUP5 DUP3 DUP6 ADD PUSH2 0xA33 JUMP JUMPDEST PUSH1 0x80 DUP4 ADD MSTORE POP PUSH2 0x280 PUSH2 0xD68 DUP5 DUP3 DUP6 ADD PUSH2 0xAD0 JUMP JUMPDEST PUSH1 0xA0 DUP4 ADD MSTORE POP PUSH2 0x2A0 PUSH2 0xD7D DUP5 DUP3 DUP6 ADD PUSH2 0xAD0 JUMP JUMPDEST PUSH1 0xC0 DUP4 ADD MSTORE POP PUSH2 0x2C0 PUSH2 0xD92 DUP5 DUP3 DUP6 ADD PUSH2 0xC48 JUMP JUMPDEST PUSH1 0xE0 DUP4 ADD MSTORE POP PUSH2 0x2E0 PUSH2 0xDA7 DUP5 DUP3 DUP6 ADD PUSH2 0xAD0 JUMP JUMPDEST PUSH2 0x100 DUP4 ADD MSTORE POP PUSH2 0x300 PUSH2 0xDBD DUP5 DUP3 DUP6 ADD PUSH2 0xAD0 JUMP JUMPDEST PUSH2 0x120 DUP4 ADD MSTORE POP SWAP3 SWAP2 POP POP JUMP JUMPDEST PUSH1 0x0 PUSH1 0x20 DUP3 DUP5 SUB SLT ISZERO PUSH2 0xDE0 JUMPI PUSH2 0xDDF PUSH2 0x64D JUMP JUMPDEST JUMPDEST PUSH1 0x0 DUP3 ADD MLOAD PUSH8 0xFFFFFFFFFFFFFFFF DUP2 GT ISZERO PUSH2 0xDFE JUMPI PUSH2 0xDFD PUSH2 0x652 JUMP JUMPDEST JUMPDEST PUSH2 0xE0A DUP5 DUP3 DUP6 ADD PUSH2 0xC5D JUMP JUMPDEST SWAP2 POP POP SWAP3 SWAP2 POP POP JUMP JUMPDEST PUSH1 0x0 DUP2 SWAP1 POP SWAP3 SWAP2 POP POP JUMP JUMPDEST PUSH1 0x0 PUSH2 0xE29 DUP3 PUSH2 0x801 JUMP JUMPDEST PUSH2 0xE33 DUP2 DUP6 PUSH2 0xE13 JUMP JUMPDEST SWAP4 POP PUSH2 0xE43 DUP2 DUP6 PUSH1 0x20 DUP7 ADD PUSH2 0x81D JUMP JUMPDEST DUP1 DUP5 ADD SWAP2 POP POP SWAP3 SWAP2 POP POP JUMP JUMPDEST PUSH1 0x0 PUSH2 0xE5B DUP3 DUP5 PUSH2 0xE1E JUMP JUMPDEST SWAP2 POP DUP2 SWAP1 POP SWAP3 SWAP2 POP POP JUMP INVALID LOG2 PUSH5 0x6970667358 0x22 SLT KECCAK256 SIGNEXTEND SAR 0xEE SELFDESTRUCT 0xD3 0xDE 0xAD DUP7 TSTORE PUSH22 0x81F2E2368E9ECC875C4DD735C5106F2F9A9141BC4B01 PUSH5 0x736F6C6343 STOP ADDMOD XOR STOP CALLER "
        },
        "methodIdentifiers": {
          "hackAndSlashConstant(bytes)": "865aac96",
          "readHackAndSlash()": "824d6b3a"
        }
      }
    }
  }
}