{
  "contracts/Versatile.sol": {
    "Versatile": {
      "abi": [
        {
          "inputs": [
            {
              "internalType": "uint256",
              "name": "numberToHash",
              "type": "uint256"
            }
          ],
          "name": "hashSha256",
          "outputs": [
            {
              "internalType": "bytes32",
              "name": "h",
              "type": "bytes32"
            }
          ],
          "stateMutability": "view",
          "type": "function"
        },
        {
          "inputs": [
            {
              "internalType": "address",
              "name": "_addr",
              "type": "address"
            }
          ],
          "name": "isContract",
          "outputs": [
            {
              "internalType": "bool",
              "name": "",
              "type": "bool"
            }
          ],
          "stateMutability": "view",
          "type": "function"
        },
        {
          "inputs": [
            {
              "internalType": "bytes",
              "name": "input",
              "type": "bytes"
            }
          ],
          "name": "ret",
          "outputs": [
            {
              "internalType": "bool",
              "name": "ok",
              "type": "bool"
            },
            {
              "internalType": "bytes",
              "name": "out",
              "type": "bytes"
            }
          ],
          "stateMutability": "view",
          "type": "function"
        },
        {
          "inputs": [],
          "name": "serialize",
          "outputs": [
            {
              "internalType": "bool",
              "name": "ok",
              "type": "bool"
            },
            {
              "internalType": "bytes",
              "name": "out",
              "type": "bytes"
            }
          ],
          "stateMutability": "nonpayable",
          "type": "function"
        }
      ],
      "evm": {
        "bytecode": {
          "linkReferences": {},
          "object": "608060405234801561001057600080fd5b50610f88806100206000396000f3fe60806040523480156200001157600080fd5b5060043610620000525760003560e01c8063162790551462000057578063bc8018b1146200008d578063d121893114620000b0578063d5d4984e14620000e6575b600080fd5b6200007560048036038101906200006f919062000399565b6200011d565b604051620000849190620003e8565b60405180910390f35b6200009762000136565b604051620000a79291906200049f565b60405180910390f35b620000ce6004803603810190620000c891906200050e565b620001cf565b604051620000dd91906200055b565b60405180910390f35b620001046004803603810190620000fe9190620006c9565b62000293565b604051620001149291906200049f565b60405180910390f35b600080823b905060008163ffffffff1611915050919050565b60006060600060017f62797465733332000000000000000000000000000000000000000000000000006040516200016d9062000312565b6200017a929190620007c8565b604051809103906000f08015801562000197573d6000803e3d6000fd5b509050620001c681604051602001620001b191906200086b565b60405160208183030381529060405262000293565b92509250509091565b600080600290506000808273ffffffffffffffffffffffffffffffffffffffff168560405160200162000203919062000899565b604051602081830303815290604052604051620002219190620008f8565b600060405180830381855afa9150503d80600081146200025e576040519150601f19603f3d011682016040523d82523d6000602084013e62000263565b606091505b5091509150816200027357600080fd5b8080602001905181019062000289919062000942565b9350505050919050565b60006060600061010090508073ffffffffffffffffffffffffffffffffffffffff1684604051620002c59190620008f8565b600060405180830381855afa9150503d806000811462000302576040519150601f19603f3d011682016040523d82523d6000602084013e62000307565b606091505b509250925050915091565b6105de806200097583390190565b6000604051905090565b600080fd5b600080fd5b600073ffffffffffffffffffffffffffffffffffffffff82169050919050565b6000620003618262000334565b9050919050565b620003738162000354565b81146200037f57600080fd5b50565b600081359050620003938162000368565b92915050565b600060208284031215620003b257620003b16200032a565b5b6000620003c28482850162000382565b91505092915050565b60008115159050919050565b620003e281620003cb565b82525050565b6000602082019050620003ff6000830184620003d7565b92915050565b600081519050919050565b600082825260208201905092915050565b60005b838110156200044157808201518184015260208101905062000424565b60008484015250505050565b6000601f19601f8301169050919050565b60006200046b8262000405565b62000477818562000410565b93506200048981856020860162000421565b62000494816200044d565b840191505092915050565b6000604082019050620004b66000830185620003d7565b8181036020830152620004ca81846200045e565b90509392505050565b6000819050919050565b620004e881620004d3565b8114620004f457600080fd5b50565b6000813590506200050881620004dd565b92915050565b6000602082840312156200052757620005266200032a565b5b60006200053784828501620004f7565b91505092915050565b6000819050919050565b620005558162000540565b82525050565b60006020820190506200057260008301846200054a565b92915050565b600080fd5b600080fd5b7f4e487b7100000000000000000000000000000000000000000000000000000000600052604160045260246000fd5b620005bc826200044d565b810181811067ffffffffffffffff82111715620005de57620005dd62000582565b5b80604052505050565b6000620005f362000320565b9050620006018282620005b1565b919050565b600067ffffffffffffffff82111562000624576200062362000582565b5b6200062f826200044d565b9050602081019050919050565b82818337600083830152505050565b6000620006626200065c8462000606565b620005e7565b9050828152602081018484840111156200068157620006806200057d565b5b6200068e8482856200063c565b509392505050565b600082601f830112620006ae57620006ad62000578565b5b8135620006c08482602086016200064b565b91505092915050565b600060208284031215620006e257620006e16200032a565b5b600082013567ffffffffffffffff8111156200070357620007026200032f565b5b620007118482850162000696565b91505092915050565b6000819050919050565b6000819050919050565b60006200074f6200074962000743846200071a565b62000724565b620004d3565b9050919050565b62000761816200072e565b82525050565b600082825260208201905092915050565b7f68656c6c6f000000000000000000000000000000000000000000000000000000600082015250565b6000620007b060058362000767565b9150620007bd8262000778565b602082019050919050565b6000606082019050620007df600083018562000756565b8181036020830152620007f281620007a1565b90506200080360408301846200054a565b9392505050565b60006200082b620008256200081f8462000334565b62000724565b62000334565b9050919050565b60006200083f826200080a565b9050919050565b6000620008538262000832565b9050919050565b620008658162000846565b82525050565b60006020820190506200088260008301846200085a565b92915050565b6200089381620004d3565b82525050565b6000602082019050620008b0600083018462000888565b92915050565b600081905092915050565b6000620008ce8262000405565b620008da8185620008b6565b9350620008ec81856020860162000421565b80840191505092915050565b6000620009068284620008c1565b915081905092915050565b6200091c8162000540565b81146200092857600080fd5b50565b6000815190506200093c8162000911565b92915050565b6000602082840312156200095b576200095a6200032a565b5b60006200096b848285016200092b565b9150509291505056fe608060405234801561001057600080fd5b506040516105de3803806105de83398181016040528101906100329190610239565b82600081905550816001908161004891906104bf565b5080600281905550505050610591565b6000604051905090565b600080fd5b600080fd5b6000819050919050565b61007f8161006c565b811461008a57600080fd5b50565b60008151905061009c81610076565b92915050565b600080fd5b600080fd5b6000601f19601f8301169050919050565b7f4e487b7100000000000000000000000000000000000000000000000000000000600052604160045260246000fd5b6100f5826100ac565b810181811067ffffffffffffffff82111715610114576101136100bd565b5b80604052505050565b6000610127610058565b905061013382826100ec565b919050565b600067ffffffffffffffff821115610153576101526100bd565b5b61015c826100ac565b9050602081019050919050565b60005b8381101561018757808201518184015260208101905061016c565b60008484015250505050565b60006101a66101a184610138565b61011d565b9050828152602081018484840111156101c2576101c16100a7565b5b6101cd848285610169565b509392505050565b600082601f8301126101ea576101e96100a2565b5b81516101fa848260208601610193565b91505092915050565b6000819050919050565b61021681610203565b811461022157600080fd5b50565b6000815190506102338161020d565b92915050565b60008060006060848603121561025257610251610062565b5b60006102608682870161008d565b935050602084015167ffffffffffffffff81111561028157610280610067565b5b61028d868287016101d5565b925050604061029e86828701610224565b9150509250925092565b600081519050919050565b7f4e487b7100000000000000000000000000000000000000000000000000000000600052602260045260246000fd5b600060028204905060018216806102fa57607f821691505b60208210810361030d5761030c6102b3565b5b50919050565b60008190508160005260206000209050919050565b60006020601f8301049050919050565b600082821b905092915050565b6000600883026103757fffffffffffffffffffffffffffffffffffffffffffffffffffffffffffffffff82610338565b61037f8683610338565b95508019841693508086168417925050509392505050565b6000819050919050565b60006103bc6103b76103b28461006c565b610397565b61006c565b9050919050565b6000819050919050565b6103d6836103a1565b6103ea6103e2826103c3565b848454610345565b825550505050565b600090565b6103ff6103f2565b61040a8184846103cd565b505050565b5b8181101561042e576104236000826103f7565b600181019050610410565b5050565b601f8211156104735761044481610313565b61044d84610328565b8101602085101561045c578190505b61047061046885610328565b83018261040f565b50505b505050565b600082821c905092915050565b600061049660001984600802610478565b1980831691505092915050565b60006104af8383610485565b9150826002028217905092915050565b6104c8826102a8565b67ffffffffffffffff8111156104e1576104e06100bd565b5b6104eb82546102e2565b6104f6828285610432565b600060209050601f8311600181146105295760008415610517578287015190505b61052185826104a3565b865550610589565b601f19841661053786610313565b60005b8281101561055f5784890151825560018201915060208501945060208101905061053a565b8683101561057c5784890151610578601f891682610485565b8355505b6001600288020188555050505b505050505050565b603f8061059f6000396000f3fe6080604052600080fdfea26469706673582212202dba8a1bdfc10ed87d1c2c29df6426c3fd2a402233ba1a868b12ca3198027ead64736f6c63430008180033a2646970667358221220174b21b4c78ed257351b48c3247fb0d6023439b14dcc2cd6c3af239ec84d84cb64736f6c63430008180033",
          "opcodes": "PUSH1 0x80 PUSH1 0x40 MSTORE CALLVALUE DUP1 ISZERO PUSH2 0x10 JUMPI PUSH1 0x0 DUP1 REVERT JUMPDEST POP PUSH2 0xF88 DUP1 PUSH2 0x20 PUSH1 0x0 CODECOPY PUSH1 0x0 RETURN INVALID PUSH1 0x80 PUSH1 0x40 MSTORE CALLVALUE DUP1 ISZERO PUSH3 0x11 JUMPI PUSH1 0x0 DUP1 REVERT JUMPDEST POP PUSH1 0x4 CALLDATASIZE LT PUSH3 0x52 JUMPI PUSH1 0x0 CALLDATALOAD PUSH1 0xE0 SHR DUP1 PUSH4 0x16279055 EQ PUSH3 0x57 JUMPI DUP1 PUSH4 0xBC8018B1 EQ PUSH3 0x8D JUMPI DUP1 PUSH4 0xD1218931 EQ PUSH3 0xB0 JUMPI DUP1 PUSH4 0xD5D4984E EQ PUSH3 0xE6 JUMPI JUMPDEST PUSH1 0x0 DUP1 REVERT JUMPDEST PUSH3 0x75 PUSH1 0x4 DUP1 CALLDATASIZE SUB DUP2 ADD SWAP1 PUSH3 0x6F SWAP2 SWAP1 PUSH3 0x399 JUMP JUMPDEST PUSH3 0x11D JUMP JUMPDEST PUSH1 0x40 MLOAD PUSH3 0x84 SWAP2 SWAP1 PUSH3 0x3E8 JUMP JUMPDEST PUSH1 0x40 MLOAD DUP1 SWAP2 SUB SWAP1 RETURN JUMPDEST PUSH3 0x97 PUSH3 0x136 JUMP JUMPDEST PUSH1 0x40 MLOAD PUSH3 0xA7 SWAP3 SWAP2 SWAP1 PUSH3 0x49F JUMP JUMPDEST PUSH1 0x40 MLOAD DUP1 SWAP2 SUB SWAP1 RETURN JUMPDEST PUSH3 0xCE PUSH1 0x4 DUP1 CALLDATASIZE SUB DUP2 ADD SWAP1 PUSH3 0xC8 SWAP2 SWAP1 PUSH3 0x50E JUMP JUMPDEST PUSH3 0x1CF JUMP JUMPDEST PUSH1 0x40 MLOAD PUSH3 0xDD SWAP2 SWAP1 PUSH3 0x55B JUMP JUMPDEST PUSH1 0x40 MLOAD DUP1 SWAP2 SUB SWAP1 RETURN JUMPDEST PUSH3 0x104 PUSH1 0x4 DUP1 CALLDATASIZE SUB DUP2 ADD SWAP1 PUSH3 0xFE SWAP2 SWAP1 PUSH3 0x6C9 JUMP JUMPDEST PUSH3 0x293 JUMP JUMPDEST PUSH1 0x40 MLOAD PUSH3 0x114 SWAP3 SWAP2 SWAP1 PUSH3 0x49F JUMP JUMPDEST PUSH1 0x40 MLOAD DUP1 SWAP2 SUB SWAP1 RETURN JUMPDEST PUSH1 0x0 DUP1 DUP3 EXTCODESIZE SWAP1 POP PUSH1 0x0 DUP2 PUSH4 0xFFFFFFFF AND GT SWAP2 POP POP SWAP2 SWAP1 POP JUMP JUMPDEST PUSH1 0x0 PUSH1 0x60 PUSH1 0x0 PUSH1 0x1 PUSH32 0x6279746573333200000000000000000000000000000000000000000000000000 PUSH1 0x40 MLOAD PUSH3 0x16D SWAP1 PUSH3 0x312 JUMP JUMPDEST PUSH3 0x17A SWAP3 SWAP2 SWAP1 PUSH3 0x7C8 JUMP JUMPDEST PUSH1 0x40 MLOAD DUP1 SWAP2 SUB SWAP1 PUSH1 0x0 CREATE DUP1 ISZERO DUP1 ISZERO PUSH3 0x197 JUMPI RETURNDATASIZE PUSH1 0x0 DUP1 RETURNDATACOPY RETURNDATASIZE PUSH1 0x0 REVERT JUMPDEST POP SWAP1 POP PUSH3 0x1C6 DUP2 PUSH1 0x40 MLOAD PUSH1 0x20 ADD PUSH3 0x1B1 SWAP2 SWAP1 PUSH3 0x86B JUMP JUMPDEST PUSH1 0x40 MLOAD PUSH1 0x20 DUP2 DUP4 SUB SUB DUP2 MSTORE SWAP1 PUSH1 0x40 MSTORE PUSH3 0x293 JUMP JUMPDEST SWAP3 POP SWAP3 POP POP SWAP1 SWAP2 JUMP JUMPDEST PUSH1 0x0 DUP1 PUSH1 0x2 SWAP1 POP PUSH1 0x0 DUP1 DUP3 PUSH20 0xFFFFFFFFFFFFFFFFFFFFFFFFFFFFFFFFFFFFFFFF AND DUP6 PUSH1 0x40 MLOAD PUSH1 0x20 ADD PUSH3 0x203 SWAP2 SWAP1 PUSH3 0x899 JUMP JUMPDEST PUSH1 0x40 MLOAD PUSH1 0x20 DUP2 DUP4 SUB SUB DUP2 MSTORE SWAP1 PUSH1 0x40 MSTORE PUSH1 0x40 MLOAD PUSH3 0x221 SWAP2 SWAP1 PUSH3 0x8F8 JUMP JUMPDEST PUSH1 0x0 PUSH1 0x40 MLOAD DUP1 DUP4 SUB DUP2 DUP6 GAS STATICCALL SWAP2 POP POP RETURNDATASIZE DUP1 PUSH1 0x0 DUP2 EQ PUSH3 0x25E JUMPI PUSH1 0x40 MLOAD SWAP2 POP PUSH1 0x1F NOT PUSH1 0x3F RETURNDATASIZE ADD AND DUP3 ADD PUSH1 0x40 MSTORE RETURNDATASIZE DUP3 MSTORE RETURNDATASIZE PUSH1 0x0 PUSH1 0x20 DUP5 ADD RETURNDATACOPY PUSH3 0x263 JUMP JUMPDEST PUSH1 0x60 SWAP2 POP JUMPDEST POP SWAP2 POP SWAP2 POP DUP2 PUSH3 0x273 JUMPI PUSH1 0x0 DUP1 REVERT JUMPDEST DUP1 DUP1 PUSH1 0x20 ADD SWAP1 MLOAD DUP2 ADD SWAP1 PUSH3 0x289 SWAP2 SWAP1 PUSH3 0x942 JUMP JUMPDEST SWAP4 POP POP POP POP SWAP2 SWAP1 POP JUMP JUMPDEST PUSH1 0x0 PUSH1 0x60 PUSH1 0x0 PUSH2 0x100 SWAP1 POP DUP1 PUSH20 0xFFFFFFFFFFFFFFFFFFFFFFFFFFFFFFFFFFFFFFFF AND DUP5 PUSH1 0x40 MLOAD PUSH3 0x2C5 SWAP2 SWAP1 PUSH3 0x8F8 JUMP JUMPDEST PUSH1 0x0 PUSH1 0x40 MLOAD DUP1 DUP4 SUB DUP2 DUP6 GAS STATICCALL SWAP2 POP POP RETURNDATASIZE DUP1 PUSH1 0x0 DUP2 EQ PUSH3 0x302 JUMPI PUSH1 0x40 MLOAD SWAP2 POP PUSH1 0x1F NOT PUSH1 0x3F RETURNDATASIZE ADD AND DUP3 ADD PUSH1 0x40 MSTORE RETURNDATASIZE DUP3 MSTORE RETURNDATASIZE PUSH1 0x0 PUSH1 0x20 DUP5 ADD RETURNDATACOPY PUSH3 0x307 JUMP JUMPDEST PUSH1 0x60 SWAP2 POP JUMPDEST POP SWAP3 POP SWAP3 POP POP SWAP2 POP SWAP2 JUMP JUMPDEST PUSH2 0x5DE DUP1 PUSH3 0x975 DUP4 CODECOPY ADD SWAP1 JUMP JUMPDEST PUSH1 0x0 PUSH1 0x40 MLOAD SWAP1 POP SWAP1 JUMP JUMPDEST PUSH1 0x0 DUP1 REVERT JUMPDEST PUSH1 0x0 DUP1 REVERT JUMPDEST PUSH1 0x0 PUSH20 0xFFFFFFFFFFFFFFFFFFFFFFFFFFFFFFFFFFFFFFFF DUP3 AND SWAP1 POP SWAP2 SWAP1 POP JUMP JUMPDEST PUSH1 0x0 PUSH3 0x361 DUP3 PUSH3 0x334 JUMP JUMPDEST SWAP1 POP SWAP2 SWAP1 POP JUMP JUMPDEST PUSH3 0x373 DUP2 PUSH3 0x354 JUMP JUMPDEST DUP2 EQ PUSH3 0x37F JUMPI PUSH1 0x0 DUP1 REVERT JUMPDEST POP JUMP JUMPDEST PUSH1 0x0 DUP2 CALLDATALOAD SWAP1 POP PUSH3 0x393 DUP2 PUSH3 0x368 JUMP JUMPDEST SWAP3 SWAP2 POP POP JUMP JUMPDEST PUSH1 0x0 PUSH1 0x20 DUP3 DUP5 SUB SLT ISZERO PUSH3 0x3B2 JUMPI PUSH3 0x3B1 PUSH3 0x32A JUMP JUMPDEST JUMPDEST PUSH1 0x0 PUSH3 0x3C2 DUP5 DUP3 DUP6 ADD PUSH3 0x382 JUMP JUMPDEST SWAP2 POP POP SWAP3 SWAP2 POP POP JUMP JUMPDEST PUSH1 0x0 DUP2 ISZERO ISZERO SWAP1 POP SWAP2 SWAP1 POP JUMP JUMPDEST PUSH3 0x3E2 DUP2 PUSH3 0x3CB JUMP JUMPDEST DUP3 MSTORE POP POP JUMP JUMPDEST PUSH1 0x0 PUSH1 0x20 DUP3 ADD SWAP1 POP PUSH3 0x3FF PUSH1 0x0 DUP4 ADD DUP5 PUSH3 0x3D7 JUMP JUMPDEST SWAP3 SWAP2 POP POP JUMP JUMPDEST PUSH1 0x0 DUP2 MLOAD SWAP1 POP SWAP2 SWAP1 POP JUMP JUMPDEST PUSH1 0x0 DUP3 DUP3 MSTORE PUSH1 0x20 DUP3 ADD SWAP1 POP SWAP3 SWAP2 POP POP JUMP JUMPDEST PUSH1 0x0 JUMPDEST DUP4 DUP2 LT ISZERO PUSH3 0x441 JUMPI DUP1 DUP3 ADD MLOAD DUP2 DUP5 ADD MSTORE PUSH1 0x20 DUP2 ADD SWAP1 POP PUSH3 0x424 JUMP JUMPDEST PUSH1 0x0 DUP5 DUP5 ADD MSTORE POP POP POP POP JUMP JUMPDEST PUSH1 0x0 PUSH1 0x1F NOT PUSH1 0x1F DUP4 ADD AND SWAP1 POP SWAP2 SWAP1 POP JUMP JUMPDEST PUSH1 0x0 PUSH3 0x46B DUP3 PUSH3 0x405 JUMP JUMPDEST PUSH3 0x477 DUP2 DUP6 PUSH3 0x410 JUMP JUMPDEST SWAP4 POP PUSH3 0x489 DUP2 DUP6 PUSH1 0x20 DUP7 ADD PUSH3 0x421 JUMP JUMPDEST PUSH3 0x494 DUP2 PUSH3 0x44D JUMP JUMPDEST DUP5 ADD SWAP2 POP POP SWAP3 SWAP2 POP POP JUMP JUMPDEST PUSH1 0x0 PUSH1 0x40 DUP3 ADD SWAP1 POP PUSH3 0x4B6 PUSH1 0x0 DUP4 ADD DUP6 PUSH3 0x3D7 JUMP JUMPDEST DUP2 DUP2 SUB PUSH1 0x20 DUP4 ADD MSTORE PUSH3 0x4CA DUP2 DUP5 PUSH3 0x45E JUMP JUMPDEST SWAP1 POP SWAP4 SWAP3 POP POP POP JUMP JUMPDEST PUSH1 0x0 DUP2 SWAP1 POP SWAP2 SWAP1 POP JUMP JUMPDEST PUSH3 0x4E8 DUP2 PUSH3 0x4D3 JUMP JUMPDEST DUP2 EQ PUSH3 0x4F4 JUMPI PUSH1 0x0 DUP1 REVERT JUMPDEST POP JUMP JUMPDEST PUSH1 0x0 DUP2 CALLDATALOAD SWAP1 POP PUSH3 0x508 DUP2 PUSH3 0x4DD JUMP JUMPDEST SWAP3 SWAP2 POP POP JUMP JUMPDEST PUSH1 0x0 PUSH1 0x20 DUP3 DUP5 SUB SLT ISZERO PUSH3 0x527 JUMPI PUSH3 0x526 PUSH3 0x32A JUMP JUMPDEST JUMPDEST PUSH1 0x0 PUSH3 0x537 DUP5 DUP3 DUP6 ADD PUSH3 0x4F7 JUMP JUMPDEST SWAP2 POP POP SWAP3 SWAP2 POP POP JUMP JUMPDEST PUSH1 0x0 DUP2 SWAP1 POP SWAP2 SWAP1 POP JUMP JUMPDEST PUSH3 0x555 DUP2 PUSH3 0x540 JUMP JUMPDEST DUP3 MSTORE POP POP JUMP JUMPDEST PUSH1 0x0 PUSH1 0x20 DUP3 ADD SWAP1 POP PUSH3 0x572 PUSH1 0x0 DUP4 ADD DUP5 PUSH3 0x54A JUMP JUMPDEST SWAP3 SWAP2 POP POP JUMP JUMPDEST PUSH1 0x0 DUP1 REVERT JUMPDEST PUSH1 0x0 DUP1 REVERT JUMPDEST PUSH32 0x4E487B7100000000000000000000000000000000000000000000000000000000 PUSH1 0x0 MSTORE PUSH1 0x41 PUSH1 0x4 MSTORE PUSH1 0x24 PUSH1 0x0 REVERT JUMPDEST PUSH3 0x5BC DUP3 PUSH3 0x44D JUMP JUMPDEST DUP2 ADD DUP2 DUP2 LT PUSH8 0xFFFFFFFFFFFFFFFF DUP3 GT OR ISZERO PUSH3 0x5DE JUMPI PUSH3 0x5DD PUSH3 0x582 JUMP JUMPDEST JUMPDEST DUP1 PUSH1 0x40 MSTORE POP POP POP JUMP JUMPDEST PUSH1 0x0 PUSH3 0x5F3 PUSH3 0x320 JUMP JUMPDEST SWAP1 POP PUSH3 0x601 DUP3 DUP3 PUSH3 0x5B1 JUMP JUMPDEST SWAP2 SWAP1 POP JUMP JUMPDEST PUSH1 0x0 PUSH8 0xFFFFFFFFFFFFFFFF DUP3 GT ISZERO PUSH3 0x624 JUMPI PUSH3 0x623 PUSH3 0x582 JUMP JUMPDEST JUMPDEST PUSH3 0x62F DUP3 PUSH3 0x44D JUMP JUMPDEST SWAP1 POP PUSH1 0x20 DUP2 ADD SWAP1 POP SWAP2 SWAP1 POP JUMP JUMPDEST DUP3 DUP2 DUP4 CALLDATACOPY PUSH1 0x0 DUP4 DUP4 ADD MSTORE POP POP POP JUMP JUMPDEST PUSH1 0x0 PUSH3 0x662 PUSH3 0x65C DUP5 PUSH3 0x606 JUMP JUMPDEST PUSH3 0x5E7 JUMP JUMPDEST SWAP1 POP DUP3 DUP2 MSTORE PUSH1 0x20 DUP2 ADD DUP5 DUP5 DUP5 ADD GT ISZERO PUSH3 0x681 JUMPI PUSH3 0x680 PUSH3 0x57D JUMP JUMPDEST JUMPDEST PUSH3 0x68E DUP5 DUP3 DUP6 PUSH3 0x63C JUMP JUMPDEST POP SWAP4 SWAP3 POP POP POP JUMP JUMPDEST PUSH1 0x0 DUP3 PUSH1 0x1F DUP4 ADD SLT PUSH3 0x6AE JUMPI PUSH3 0x6AD PUSH3 0x578 JUMP JUMPDEST JUMPDEST DUP2 CALLDATALOAD PUSH3 0x6C0 DUP5 DUP3 PUSH1 0x20 DUP7 ADD PUSH3 0x64B JUMP JUMPDEST SWAP2 POP POP SWAP3 SWAP2 POP POP JUMP JUMPDEST PUSH1 0x0 PUSH1 0x20 DUP3 DUP5 SUB SLT ISZERO PUSH3 0x6E2 JUMPI PUSH3 0x6E1 PUSH3 0x32A JUMP JUMPDEST JUMPDEST PUSH1 0x0 DUP3 ADD CALLDATALOAD PUSH8 0xFFFFFFFFFFFFFFFF DUP2 GT ISZERO PUSH3 0x703 JUMPI PUSH3 0x702 PUSH3 0x32F JUMP JUMPDEST JUMPDEST PUSH3 0x711 DUP5 DUP3 DUP6 ADD PUSH3 0x696 JUMP JUMPDEST SWAP2 POP POP SWAP3 SWAP2 POP POP JUMP JUMPDEST PUSH1 0x0 DUP2 SWAP1 POP SWAP2 SWAP1 POP JUMP JUMPDEST PUSH1 0x0 DUP2 SWAP1 POP SWAP2 SWAP1 POP JUMP JUMPDEST PUSH1 0x0 PUSH3 0x74F PUSH3 0x749 PUSH3 0x743 DUP5 PUSH3 0x71A JUMP JUMPDEST PUSH3 0x724 JUMP JUMPDEST PUSH3 0x4D3 JUMP JUMPDEST SWAP1 POP SWAP2 SWAP1 POP JUMP JUMPDEST PUSH3 0x761 DUP2 PUSH3 0x72E JUMP JUMPDEST DUP3 MSTORE POP POP JUMP JUMPDEST PUSH1 0x0 DUP3 DUP3 MSTORE PUSH1 0x20 DUP3 ADD SWAP1 POP SWAP3 SWAP2 POP POP JUMP JUMPDEST PUSH32 0x68656C6C6F000000000000000000000000000000000000000000000000000000 PUSH1 0x0 DUP3 ADD MSTORE POP JUMP JUMPDEST PUSH1 0x0 PUSH3 0x7B0 PUSH1 0x5 DUP4 PUSH3 0x767 JUMP JUMPDEST SWAP2 POP PUSH3 0x7BD DUP3 PUSH3 0x778 JUMP JUMPDEST PUSH1 0x20 DUP3 ADD SWAP1 POP SWAP2 SWAP1 POP JUMP JUMPDEST PUSH1 0x0 PUSH1 0x60 DUP3 ADD SWAP1 POP PUSH3 0x7DF PUSH1 0x0 DUP4 ADD DUP6 PUSH3 0x756 JUMP JUMPDEST DUP2 DUP2 SUB PUSH1 0x20 DUP4 ADD MSTORE PUSH3 0x7F2 DUP2 PUSH3 0x7A1 JUMP JUMPDEST SWAP1 POP PUSH3 0x803 PUSH1 0x40 DUP4 ADD DUP5 PUSH3 0x54A JUMP JUMPDEST SWAP4 SWAP3 POP POP POP JUMP JUMPDEST PUSH1 0x0 PUSH3 0x82B PUSH3 0x825 PUSH3 0x81F DUP5 PUSH3 0x334 JUMP JUMPDEST PUSH3 0x724 JUMP JUMPDEST PUSH3 0x334 JUMP JUMPDEST SWAP1 POP SWAP2 SWAP1 POP JUMP JUMPDEST PUSH1 0x0 PUSH3 0x83F DUP3 PUSH3 0x80A JUMP JUMPDEST SWAP1 POP SWAP2 SWAP1 POP JUMP JUMPDEST PUSH1 0x0 PUSH3 0x853 DUP3 PUSH3 0x832 JUMP JUMPDEST SWAP1 POP SWAP2 SWAP1 POP JUMP JUMPDEST PUSH3 0x865 DUP2 PUSH3 0x846 JUMP JUMPDEST DUP3 MSTORE POP POP JUMP JUMPDEST PUSH1 0x0 PUSH1 0x20 DUP3 ADD SWAP1 POP PUSH3 0x882 PUSH1 0x0 DUP4 ADD DUP5 PUSH3 0x85A JUMP JUMPDEST SWAP3 SWAP2 POP POP JUMP JUMPDEST PUSH3 0x893 DUP2 PUSH3 0x4D3 JUMP JUMPDEST DUP3 MSTORE POP POP JUMP JUMPDEST PUSH1 0x0 PUSH1 0x20 DUP3 ADD SWAP1 POP PUSH3 0x8B0 PUSH1 0x0 DUP4 ADD DUP5 PUSH3 0x888 JUMP JUMPDEST SWAP3 SWAP2 POP POP JUMP JUMPDEST PUSH1 0x0 DUP2 SWAP1 POP SWAP3 SWAP2 POP POP JUMP JUMPDEST PUSH1 0x0 PUSH3 0x8CE DUP3 PUSH3 0x405 JUMP JUMPDEST PUSH3 0x8DA DUP2 DUP6 PUSH3 0x8B6 JUMP JUMPDEST SWAP4 POP PUSH3 0x8EC DUP2 DUP6 PUSH1 0x20 DUP7 ADD PUSH3 0x421 JUMP JUMPDEST DUP1 DUP5 ADD SWAP2 POP POP SWAP3 SWAP2 POP POP JUMP JUMPDEST PUSH1 0x0 PUSH3 0x906 DUP3 DUP5 PUSH3 0x8C1 JUMP JUMPDEST SWAP2 POP DUP2 SWAP1 POP SWAP3 SWAP2 POP POP JUMP JUMPDEST PUSH3 0x91C DUP2 PUSH3 0x540 JUMP JUMPDEST DUP2 EQ PUSH3 0x928 JUMPI PUSH1 0x0 DUP1 REVERT JUMPDEST POP JUMP JUMPDEST PUSH1 0x0 DUP2 MLOAD SWAP1 POP PUSH3 0x93C DUP2 PUSH3 0x911 JUMP JUMPDEST SWAP3 SWAP2 POP POP JUMP JUMPDEST PUSH1 0x0 PUSH1 0x20 DUP3 DUP5 SUB SLT ISZERO PUSH3 0x95B JUMPI PUSH3 0x95A PUSH3 0x32A JUMP JUMPDEST JUMPDEST PUSH1 0x0 PUSH3 0x96B DUP5 DUP3 DUP6 ADD PUSH3 0x92B JUMP JUMPDEST SWAP2 POP POP SWAP3 SWAP2 POP POP JUMP INVALID PUSH1 0x80 PUSH1 0x40 MSTORE CALLVALUE DUP1 ISZERO PUSH2 0x10 JUMPI PUSH1 0x0 DUP1 REVERT JUMPDEST POP PUSH1 0x40 MLOAD PUSH2 0x5DE CODESIZE SUB DUP1 PUSH2 0x5DE DUP4 CODECOPY DUP2 DUP2 ADD PUSH1 0x40 MSTORE DUP2 ADD SWAP1 PUSH2 0x32 SWAP2 SWAP1 PUSH2 0x239 JUMP JUMPDEST DUP3 PUSH1 0x0 DUP2 SWAP1 SSTORE POP DUP2 PUSH1 0x1 SWAP1 DUP2 PUSH2 0x48 SWAP2 SWAP1 PUSH2 0x4BF JUMP JUMPDEST POP DUP1 PUSH1 0x2 DUP2 SWAP1 SSTORE POP POP POP POP PUSH2 0x591 JUMP JUMPDEST PUSH1 0x0 PUSH1 0x40 MLOAD SWAP1 POP SWAP1 JUMP JUMPDEST PUSH1 0x0 DUP1 REVERT JUMPDEST PUSH1 0x0 DUP1 REVERT JUMPDEST PUSH1 0x0 DUP2 SWAP1 POP SWAP2 SWAP1 POP JUMP JUMPDEST PUSH2 0x7F DUP2 PUSH2 0x6C JUMP JUMPDEST DUP2 EQ PUSH2 0x8A JUMPI PUSH1 0x0 DUP1 REVERT JUMPDEST POP JUMP JUMPDEST PUSH1 0x0 DUP2 MLOAD SWAP1 POP PUSH2 0x9C DUP2 PUSH2 0x76 JUMP JUMPDEST SWAP3 SWAP2 POP POP JUMP JUMPDEST PUSH1 0x0 DUP1 REVERT JUMPDEST PUSH1 0x0 DUP1 REVERT JUMPDEST PUSH1 0x0 PUSH1 0x1F NOT PUSH1 0x1F DUP4 ADD AND SWAP1 POP SWAP2 SWAP1 POP JUMP JUMPDEST PUSH32 0x4E487B7100000000000000000000000000000000000000000000000000000000 PUSH1 0x0 MSTORE PUSH1 0x41 PUSH1 0x4 MSTORE PUSH1 0x24 PUSH1 0x0 REVERT JUMPDEST PUSH2 0xF5 DUP3 PUSH2 0xAC JUMP JUMPDEST DUP2 ADD DUP2 DUP2 LT PUSH8 0xFFFFFFFFFFFFFFFF DUP3 GT OR ISZERO PUSH2 0x114 JUMPI PUSH2 0x113 PUSH2 0xBD JUMP JUMPDEST JUMPDEST DUP1 PUSH1 0x40 MSTORE POP POP POP JUMP JUMPDEST PUSH1 0x0 PUSH2 0x127 PUSH2 0x58 JUMP JUMPDEST SWAP1 POP PUSH2 0x133 DUP3 DUP3 PUSH2 0xEC JUMP JUMPDEST SWAP2 SWAP1 POP JUMP JUMPDEST PUSH1 0x0 PUSH8 0xFFFFFFFFFFFFFFFF DUP3 GT ISZERO PUSH2 0x153 JUMPI PUSH2 0x152 PUSH2 0xBD JUMP JUMPDEST JUMPDEST PUSH2 0x15C DUP3 PUSH2 0xAC JUMP JUMPDEST SWAP1 POP PUSH1 0x20 DUP2 ADD SWAP1 POP SWAP2 SWAP1 POP JUMP JUMPDEST PUSH1 0x0 JUMPDEST DUP4 DUP2 LT ISZERO PUSH2 0x187 JUMPI DUP1 DUP3 ADD MLOAD DUP2 DUP5 ADD MSTORE PUSH1 0x20 DUP2 ADD SWAP1 POP PUSH2 0x16C JUMP JUMPDEST PUSH1 0x0 DUP5 DUP5 ADD MSTORE POP POP POP POP JUMP JUMPDEST PUSH1 0x0 PUSH2 0x1A6 PUSH2 0x1A1 DUP5 PUSH2 0x138 JUMP JUMPDEST PUSH2 0x11D JUMP JUMPDEST SWAP1 POP DUP3 DUP2 MSTORE PUSH1 0x20 DUP2 ADD DUP5 DUP5 DUP5 ADD GT ISZERO PUSH2 0x1C2 JUMPI PUSH2 0x1C1 PUSH2 0xA7 JUMP JUMPDEST JUMPDEST PUSH2 0x1CD DUP5 DUP3 DUP6 PUSH2 0x169 JUMP JUMPDEST POP SWAP4 SWAP3 POP POP POP JUMP JUMPDEST PUSH1 0x0 DUP3 PUSH1 0x1F DUP4 ADD SLT PUSH2 0x1EA JUMPI PUSH2 0x1E9 PUSH2 0xA2 JUMP JUMPDEST JUMPDEST DUP2 MLOAD PUSH2 0x1FA DUP5 DUP3 PUSH1 0x20 DUP7 ADD PUSH2 0x193 JUMP JUMPDEST SWAP2 POP POP SWAP3 SWAP2 POP POP JUMP JUMPDEST PUSH1 0x0 DUP2 SWAP1 POP SWAP2 SWAP1 POP JUMP JUMPDEST PUSH2 0x216 DUP2 PUSH2 0x203 JUMP JUMPDEST DUP2 EQ PUSH2 0x221 JUMPI PUSH1 0x0 DUP1 REVERT JUMPDEST POP JUMP JUMPDEST PUSH1 0x0 DUP2 MLOAD SWAP1 POP PUSH2 0x233 DUP2 PUSH2 0x20D JUMP JUMPDEST SWAP3 SWAP2 POP POP JUMP JUMPDEST PUSH1 0x0 DUP1 PUSH1 0x0 PUSH1 0x60 DUP5 DUP7 SUB SLT ISZERO PUSH2 0x252 JUMPI PUSH2 0x251 PUSH2 0x62 JUMP JUMPDEST JUMPDEST PUSH1 0x0 PUSH2 0x260 DUP7 DUP3 DUP8 ADD PUSH2 0x8D JUMP JUMPDEST SWAP4 POP POP PUSH1 0x20 DUP5 ADD MLOAD PUSH8 0xFFFFFFFFFFFFFFFF DUP2 GT ISZERO PUSH2 0x281 JUMPI PUSH2 0x280 PUSH2 0x67 JUMP JUMPDEST JUMPDEST PUSH2 0x28D DUP7 DUP3 DUP8 ADD PUSH2 0x1D5 JUMP JUMPDEST SWAP3 POP POP PUSH1 0x40 PUSH2 0x29E DUP7 DUP3 DUP8 ADD PUSH2 0x224 JUMP JUMPDEST SWAP2 POP POP SWAP3 POP SWAP3 POP SWAP3 JUMP JUMPDEST PUSH1 0x0 DUP2 MLOAD SWAP1 POP SWAP2 SWAP1 POP JUMP JUMPDEST PUSH32 0x4E487B7100000000000000000000000000000000000000000000000000000000 PUSH1 0x0 MSTORE PUSH1 0x22 PUSH1 0x4 MSTORE PUSH1 0x24 PUSH1 0x0 REVERT JUMPDEST PUSH1 0x0 PUSH1 0x2 DUP3 DIV SWAP1 POP PUSH1 0x1 DUP3 AND DUP1 PUSH2 0x2FA JUMPI PUSH1 0x7F DUP3 AND SWAP2 POP JUMPDEST PUSH1 0x20 DUP3 LT DUP2 SUB PUSH2 0x30D JUMPI PUSH2 0x30C PUSH2 0x2B3 JUMP JUMPDEST JUMPDEST POP SWAP2 SWAP1 POP JUMP JUMPDEST PUSH1 0x0 DUP2 SWAP1 POP DUP2 PUSH1 0x0 MSTORE PUSH1 0x20 PUSH1 0x0 KECCAK256 SWAP1 POP SWAP2 SWAP1 POP JUMP JUMPDEST PUSH1 0x0 PUSH1 0x20 PUSH1 0x1F DUP4 ADD DIV SWAP1 POP SWAP2 SWAP1 POP JUMP JUMPDEST PUSH1 0x0 DUP3 DUP3 SHL SWAP1 POP SWAP3 SWAP2 POP POP JUMP JUMPDEST PUSH1 0x0 PUSH1 0x8 DUP4 MUL PUSH2 0x375 PUSH32 0xFFFFFFFFFFFFFFFFFFFFFFFFFFFFFFFFFFFFFFFFFFFFFFFFFFFFFFFFFFFFFFFF DUP3 PUSH2 0x338 JUMP JUMPDEST PUSH2 0x37F DUP7 DUP4 PUSH2 0x338 JUMP JUMPDEST SWAP6 POP DUP1 NOT DUP5 AND SWAP4 POP DUP1 DUP7 AND DUP5 OR SWAP3 POP POP POP SWAP4 SWAP3 POP POP POP JUMP JUMPDEST PUSH1 0x0 DUP2 SWAP1 POP SWAP2 SWAP1 POP JUMP JUMPDEST PUSH1 0x0 PUSH2 0x3BC PUSH2 0x3B7 PUSH2 0x3B2 DUP5 PUSH2 0x6C JUMP JUMPDEST PUSH2 0x397 JUMP JUMPDEST PUSH2 0x6C JUMP JUMPDEST SWAP1 POP SWAP2 SWAP1 POP JUMP JUMPDEST PUSH1 0x0 DUP2 SWAP1 POP SWAP2 SWAP1 POP JUMP JUMPDEST PUSH2 0x3D6 DUP4 PUSH2 0x3A1 JUMP JUMPDEST PUSH2 0x3EA PUSH2 0x3E2 DUP3 PUSH2 0x3C3 JUMP JUMPDEST DUP5 DUP5 SLOAD PUSH2 0x345 JUMP JUMPDEST DUP3 SSTORE POP POP POP POP JUMP JUMPDEST PUSH1 0x0 SWAP1 JUMP JUMPDEST PUSH2 0x3FF PUSH2 0x3F2 JUMP JUMPDEST PUSH2 0x40A DUP2 DUP5 DUP5 PUSH2 0x3CD JUMP JUMPDEST POP POP POP JUMP JUMPDEST JUMPDEST DUP2 DUP2 LT ISZERO PUSH2 0x42E JUMPI PUSH2 0x423 PUSH1 0x0 DUP3 PUSH2 0x3F7 JUMP JUMPDEST PUSH1 0x1 DUP2 ADD SWAP1 POP PUSH2 0x410 JUMP JUMPDEST POP POP JUMP JUMPDEST PUSH1 0x1F DUP3 GT ISZERO PUSH2 0x473 JUMPI PUSH2 0x444 DUP2 PUSH2 0x313 JUMP JUMPDEST PUSH2 0x44D DUP5 PUSH2 0x328 JUMP JUMPDEST DUP2 ADD PUSH1 0x20 DUP6 LT ISZERO PUSH2 0x45C JUMPI DUP2 SWAP1 POP JUMPDEST PUSH2 0x470 PUSH2 0x468 DUP6 PUSH2 0x328 JUMP JUMPDEST DUP4 ADD DUP3 PUSH2 0x40F JUMP JUMPDEST POP POP JUMPDEST POP POP POP JUMP JUMPDEST PUSH1 0x0 DUP3 DUP3 SHR SWAP1 POP SWAP3 SWAP2 POP POP JUMP JUMPDEST PUSH1 0x0 PUSH2 0x496 PUSH1 0x0 NOT DUP5 PUSH1 0x8 MUL PUSH2 0x478 JUMP JUMPDEST NOT DUP1 DUP4 AND SWAP2 POP POP SWAP3 SWAP2 POP POP JUMP JUMPDEST PUSH1 0x0 PUSH2 0x4AF DUP4 DUP4 PUSH2 0x485 JUMP JUMPDEST SWAP2 POP DUP3 PUSH1 0x2 MUL DUP3 OR SWAP1 POP SWAP3 SWAP2 POP POP JUMP JUMPDEST PUSH2 0x4C8 DUP3 PUSH2 0x2A8 JUMP JUMPDEST PUSH8 0xFFFFFFFFFFFFFFFF DUP2 GT ISZERO PUSH2 0x4E1 JUMPI PUSH2 0x4E0 PUSH2 0xBD JUMP JUMPDEST JUMPDEST PUSH2 0x4EB DUP3 SLOAD PUSH2 0x2E2 JUMP JUMPDEST PUSH2 0x4F6 DUP3 DUP3 DUP6 PUSH2 0x432 JUMP JUMPDEST PUSH1 0x0 PUSH1 0x20 SWAP1 POP PUSH1 0x1F DUP4 GT PUSH1 0x1 DUP2 EQ PUSH2 0x529 JUMPI PUSH1 0x0 DUP5 ISZERO PUSH2 0x517 JUMPI DUP3 DUP8 ADD MLOAD SWAP1 POP JUMPDEST PUSH2 0x521 DUP6 DUP3 PUSH2 0x4A3 JUMP JUMPDEST DUP7 SSTORE POP PUSH2 0x589 JUMP JUMPDEST PUSH1 0x1F NOT DUP5 AND PUSH2 0x537 DUP7 PUSH2 0x313 JUMP JUMPDEST PUSH1 0x0 JUMPDEST DUP3 DUP2 LT ISZERO PUSH2 0x55F JUMPI DUP5 DUP10 ADD MLOAD DUP3 SSTORE PUSH1 0x1 DUP3 ADD SWAP2 POP PUSH1 0x20 DUP6 ADD SWAP5 POP PUSH1 0x20 DUP2 ADD SWAP1 POP PUSH2 0x53A JUMP JUMPDEST DUP7 DUP4 LT ISZERO PUSH2 0x57C JUMPI DUP5 DUP10 ADD MLOAD PUSH2 0x578 PUSH1 0x1F DUP10 AND DUP3 PUSH2 0x485 JUMP JUMPDEST DUP4 SSTORE POP JUMPDEST PUSH1 0x1 PUSH1 0x2 DUP9 MUL ADD DUP9 SSTORE POP POP POP JUMPDEST POP POP POP POP POP POP JUMP JUMPDEST PUSH1 0x3F DUP1 PUSH2 0x59F PUSH1 0x0 CODECOPY PUSH1 0x0 RETURN INVALID PUSH1 0x80 PUSH1 0x40 MSTORE PUSH1 0x0 DUP1 REVERT INVALID LOG2 PUSH5 0x6970667358 0x22 SLT KECCAK256 0x2D 0xBA DUP11 SHL 0xDF 0xC1 0xE 0xD8 PUSH30 0x1C2C29DF6426C3FD2A402233BA1A868B12CA3198027EAD64736F6C634300 ADDMOD XOR STOP CALLER LOG2 PUSH5 0x6970667358 0x22 SLT KECCAK256 OR 0x4B 0x21 0xB4 0xC7 DUP15 0xD2 JUMPI CALLDATALOAD SHL BASEFEE 0xC3 0x24 PUSH32 0xB0D6023439B14DCC2CD6C3AF239EC84D84CB64736F6C63430008180033000000 "
        },
        "methodIdentifiers": {
          "hashSha256(uint256)": "d1218931",
          "isContract(address)": "16279055",
          "ret(bytes)": "d5d4984e",
          "serialize()": "bc8018b1"
        }
      }
    }
  }
}