{
  "contracts/Versatile.sol": {
    "Versatile": {
      "abi": [
        {
          "inputs": [],
          "name": "check",
          "outputs": [],
          "stateMutability": "nonpayable",
          "type": "function"
        },
        {
          "inputs": [],
          "name": "deserialize",
          "outputs": [
            {
              "internalType": "uint256",
              "name": "",
              "type": "uint256"
            },
            {
              "internalType": "string",
              "name": "",
              "type": "string"
            },
            {
              "internalType": "bytes32",
              "name": "",
              "type": "bytes32"
            }
          ],
          "stateMutability": "view",
          "type": "function"
        },
        {
          "inputs": [],
          "name": "deserializeParams",
          "outputs": [],
          "stateMutability": "nonpayable",
          "type": "function"
        },
        {
          "inputs": [
            {
              "internalType": "uint256",
              "name": "numberToHash",
              "type": "uint256"
            }
          ],
          "name": "hashSha256",
          "outputs": [
            {
              "internalType": "bytes32",
              "name": "h",
              "type": "bytes32"
            }
          ],
          "stateMutability": "view",
          "type": "function"
        },
        {
          "inputs": [
            {
              "internalType": "address",
              "name": "_addr",
              "type": "address"
            }
          ],
          "name": "isContract",
          "outputs": [
            {
              "internalType": "bool",
              "name": "",
              "type": "bool"
            }
          ],
          "stateMutability": "view",
          "type": "function"
        },
        {
          "inputs": [],
          "name": "modelResult",
          "outputs": [
            {
              "internalType": "uint256",
              "name": "",
              "type": "uint256"
            },
            {
              "internalType": "string",
              "name": "",
              "type": "string"
            },
            {
              "internalType": "bytes32",
              "name": "",
              "type": "bytes32"
            }
          ],
          "stateMutability": "view",
          "type": "function"
        },
        {
          "inputs": [
            {
              "internalType": "bytes",
              "name": "input",
              "type": "bytes"
            }
          ],
          "name": "ret",
          "outputs": [
            {
              "internalType": "bool",
              "name": "ok",
              "type": "bool"
            },
            {
              "internalType": "bytes",
              "name": "out",
              "type": "bytes"
            }
          ],
          "stateMutability": "view",
          "type": "function"
        },
        {
          "inputs": [],
          "name": "serialize",
          "outputs": [],
          "stateMutability": "nonpayable",
          "type": "function"
        },
        {
          "inputs": [],
          "name": "serializeParams",
          "outputs": [],
          "stateMutability": "nonpayable",
          "type": "function"
        },
        {
          "inputs": [],
          "name": "value",
          "outputs": [
            {
              "internalType": "bytes",
              "name": "",
              "type": "bytes"
            }
          ],
          "stateMutability": "view",
          "type": "function"
        }
      ],
      "evm": {
        "bytecode": {
          "linkReferences": {},
          "object": "608060405234801561001057600080fd5b5061212c806100206000396000f3fe60806040523480156200001157600080fd5b5060043610620000ac5760003560e01c8063b5cc88f3116200006f578063b5cc88f3146200012d578063bc8018b11462000151578063d1218931146200015d578063d5d4984e1462000193578063e2159c6d14620001ca57620000ac565b80630cef0a5b14620000b15780631627905514620000bd5780633fa4f24514620000f357806347b16d641462000115578063919840ad1462000121575b600080fd5b620000bb620001ee565b005b620000db6004803603810190620000d5919062000b86565b62000265565b604051620000ea919062000bd5565b60405180910390f35b620000fd6200027e565b6040516200010c919062000c8c565b60405180910390f35b6200011f62000318565b005b6200012b6200044c565b005b620001376200051d565b604051620001489392919062000d43565b60405180910390f35b6200015b62000735565b005b6200017b600480360381019062000175919062000db8565b620007ea565b6040516200018a919062000dea565b60405180910390f35b620001b16004803603810190620001ab919062000f58565b620008ae565b604051620001c192919062000fa9565b60405180910390f35b620001d46200092d565b604051620001e59392919062000d43565b60405180910390f35b6000806200024060017f62797465733332000000000000000000000000000000000000000000000000006040516020016200022b92919062001087565b604051602081830303815290604052620008ae565b91509150816200024f57600080fd5b8060009081620002609190620012f5565b505050565b600080823b905060008163ffffffff1611915050919050565b6060600080546200028f90620010f8565b80601f0160208091040260200160405190810160405280929190818152602001828054620002bd90620010f8565b80156200030e5780601f10620002e2576101008083540402835291602001916200030e565b820191906000526020600020905b815481529060010190602001808311620002f057829003601f168201915b5050505050905090565b60008060008080546200032b90620010f8565b80601f01602080910402602001604051908101604052809291908181526020018280546200035990620010f8565b8015620003aa5780601f106200037e57610100808354040283529160200191620003aa565b820191906000526020600020905b8154815290600101906020018083116200038c57829003601f168201915b5050505050806020019051810190620003c49190620014d8565b925092509250828282604051620003db9062000aff565b620003e99392919062000d43565b604051809103906000f08015801562000406573d6000803e3d6000fd5b50600160006101000a81548173ffffffffffffffffffffffffffffffffffffffff021916908373ffffffffffffffffffffffffffffffffffffffff160217905550505050565b6000806200046960405180602001604052806000815250620008ae565b91509150816200047857600080fd5b600080600083806020019051810190620004939190620014d8565b925092509250828282604051620004aa9062000aff565b620004b89392919062000d43565b604051809103906000f080158015620004d5573d6000803e3d6000fd5b50600160006101000a81548173ffffffffffffffffffffffffffffffffffffffff021916908373ffffffffffffffffffffffffffffffffffffffff1602179055505050505050565b60006060600080600080546200053390620010f8565b80601f01602080910402602001604051908101604052809291908181526020018280546200056190620010f8565b8015620005b25780601f106200058657610100808354040283529160200191620005b2565b820191906000526020600020905b8154815290600101906020018083116200059457829003601f168201915b5050505050806020019051810190620005cc919062001598565b90508073ffffffffffffffffffffffffffffffffffffffff1663cd5f65cb6040518163ffffffff1660e01b8152600401602060405180830381865afa1580156200061a573d6000803e3d6000fd5b505050506040513d601f19601f82011682018060405250810190620006409190620015ca565b8173ffffffffffffffffffffffffffffffffffffffff1663a32d88816040518163ffffffff1660e01b8152600401600060405180830381865afa1580156200068c573d6000803e3d6000fd5b505050506040513d6000823e3d601f19601f82011682018060405250810190620006b79190620015fc565b8273ffffffffffffffffffffffffffffffffffffffff1663f39668d26040518163ffffffff1660e01b8152600401602060405180830381865afa15801562000703573d6000803e3d6000fd5b505050506040513d601f19601f820116820180604052508101906200072991906200164d565b93509350935050909192565b600060017f6279746573333200000000000000000000000000000000000000000000000000604051620007689062000aff565b62000775929190620016b8565b604051809103906000f08015801562000792573d6000803e3d6000fd5b509050600080620007c483604051602001620007af91906200175b565b604051602081830303815290604052620008ae565b9150915081620007d357600080fd5b8060009081620007e49190620012f5565b50505050565b600080600290506000808273ffffffffffffffffffffffffffffffffffffffff16856040516020016200081e919062001778565b6040516020818303038152906040526040516200083c9190620017d7565b600060405180830381855afa9150503d806000811462000879576040519150601f19603f3d011682016040523d82523d6000602084013e6200087e565b606091505b5091509150816200088e57600080fd5b80806020019051810190620008a491906200164d565b9350505050919050565b60006060600061010090508073ffffffffffffffffffffffffffffffffffffffff1684604051620008e09190620017d7565b600060405180830381855afa9150503d80600081146200091d576040519150601f19603f3d011682016040523d82523d6000602084013e62000922565b606091505b509250925050915091565b600060606000600160009054906101000a900473ffffffffffffffffffffffffffffffffffffffff1673ffffffffffffffffffffffffffffffffffffffff1663cd5f65cb6040518163ffffffff1660e01b8152600401602060405180830381865afa158015620009a1573d6000803e3d6000fd5b505050506040513d601f19601f82011682018060405250810190620009c79190620015ca565b600160009054906101000a900473ffffffffffffffffffffffffffffffffffffffff1673ffffffffffffffffffffffffffffffffffffffff1663a32d88816040518163ffffffff1660e01b8152600401600060405180830381865afa15801562000a35573d6000803e3d6000fd5b505050506040513d6000823e3d601f19601f8201168201806040525081019062000a609190620015fc565b600160009054906101000a900473ffffffffffffffffffffffffffffffffffffffff1673ffffffffffffffffffffffffffffffffffffffff1663f39668d26040518163ffffffff1660e01b8152600401602060405180830381865afa15801562000ace573d6000803e3d6000fd5b505050506040513d601f19601f8201168201806040525081019062000af491906200164d565b925092509250909192565b61090680620017f183390190565b6000604051905090565b600080fd5b600080fd5b600073ffffffffffffffffffffffffffffffffffffffff82169050919050565b600062000b4e8262000b21565b9050919050565b62000b608162000b41565b811462000b6c57600080fd5b50565b60008135905062000b808162000b55565b92915050565b60006020828403121562000b9f5762000b9e62000b17565b5b600062000baf8482850162000b6f565b91505092915050565b60008115159050919050565b62000bcf8162000bb8565b82525050565b600060208201905062000bec600083018462000bc4565b92915050565b600081519050919050565b600082825260208201905092915050565b60005b8381101562000c2e57808201518184015260208101905062000c11565b60008484015250505050565b6000601f19601f8301169050919050565b600062000c588262000bf2565b62000c64818562000bfd565b935062000c7681856020860162000c0e565b62000c818162000c3a565b840191505092915050565b6000602082019050818103600083015262000ca8818462000c4b565b905092915050565b6000819050919050565b62000cc58162000cb0565b82525050565b600081519050919050565b600082825260208201905092915050565b600062000cf48262000ccb565b62000d00818562000cd6565b935062000d1281856020860162000c0e565b62000d1d8162000c3a565b840191505092915050565b6000819050919050565b62000d3d8162000d28565b82525050565b600060608201905062000d5a600083018662000cba565b818103602083015262000d6e818562000ce7565b905062000d7f604083018462000d32565b949350505050565b62000d928162000cb0565b811462000d9e57600080fd5b50565b60008135905062000db28162000d87565b92915050565b60006020828403121562000dd15762000dd062000b17565b5b600062000de18482850162000da1565b91505092915050565b600060208201905062000e01600083018462000d32565b92915050565b600080fd5b600080fd5b7f4e487b7100000000000000000000000000000000000000000000000000000000600052604160045260246000fd5b62000e4b8262000c3a565b810181811067ffffffffffffffff8211171562000e6d5762000e6c62000e11565b5b80604052505050565b600062000e8262000b0d565b905062000e90828262000e40565b919050565b600067ffffffffffffffff82111562000eb35762000eb262000e11565b5b62000ebe8262000c3a565b9050602081019050919050565b82818337600083830152505050565b600062000ef162000eeb8462000e95565b62000e76565b90508281526020810184848401111562000f105762000f0f62000e0c565b5b62000f1d84828562000ecb565b509392505050565b600082601f83011262000f3d5762000f3c62000e07565b5b813562000f4f84826020860162000eda565b91505092915050565b60006020828403121562000f715762000f7062000b17565b5b600082013567ffffffffffffffff81111562000f925762000f9162000b1c565b5b62000fa08482850162000f25565b91505092915050565b600060408201905062000fc0600083018562000bc4565b818103602083015262000fd4818462000c4b565b90509392505050565b6000819050919050565b600060ff82169050919050565b6000819050919050565b60006200101f62001019620010138462000fdd565b62000ff4565b62000fe7565b9050919050565b620010318162000ffe565b82525050565b7f68656c6c6f000000000000000000000000000000000000000000000000000000600082015250565b60006200106f60058362000cd6565b91506200107c8262001037565b602082019050919050565b60006060820190506200109e600083018562001026565b8181036020830152620010b18162001060565b9050620010c2604083018462000d32565b9392505050565b7f4e487b7100000000000000000000000000000000000000000000000000000000600052602260045260246000fd5b600060028204905060018216806200111157607f821691505b602082108103620011275762001126620010c9565b5b50919050565b60008190508160005260206000209050919050565b60006020601f8301049050919050565b600082821b905092915050565b600060088302620011917fffffffffffffffffffffffffffffffffffffffffffffffffffffffffffffffff8262001152565b6200119d868362001152565b95508019841693508086168417925050509392505050565b6000620011d6620011d0620011ca8462000cb0565b62000ff4565b62000cb0565b9050919050565b6000819050919050565b620011f283620011b5565b6200120a6200120182620011dd565b8484546200115f565b825550505050565b600090565b6200122162001212565b6200122e818484620011e7565b505050565b5b8181101562001256576200124a60008262001217565b60018101905062001234565b5050565b601f821115620012a5576200126f816200112d565b6200127a8462001142565b810160208510156200128a578190505b620012a2620012998562001142565b83018262001233565b50505b505050565b600082821c905092915050565b6000620012ca60001984600802620012aa565b1980831691505092915050565b6000620012e58383620012b7565b9150826002028217905092915050565b620013008262000bf2565b67ffffffffffffffff8111156200131c576200131b62000e11565b5b620013288254620010f8565b620013358282856200125a565b600060209050601f8311600181146200136d576000841562001358578287015190505b620013648582620012d7565b865550620013d4565b601f1984166200137d866200112d565b60005b82811015620013a75784890151825560018201915060208501945060208101905062001380565b86831015620013c75784890151620013c3601f891682620012b7565b8355505b6001600288020188555050505b505050505050565b600081519050620013ed8162000d87565b92915050565b600067ffffffffffffffff82111562001411576200141062000e11565b5b6200141c8262000c3a565b9050602081019050919050565b6000620014406200143a84620013f3565b62000e76565b9050828152602081018484840111156200145f576200145e62000e0c565b5b6200146c84828562000c0e565b509392505050565b600082601f8301126200148c576200148b62000e07565b5b81516200149e84826020860162001429565b91505092915050565b620014b28162000d28565b8114620014be57600080fd5b50565b600081519050620014d281620014a7565b92915050565b600080600060608486031215620014f457620014f362000b17565b5b60006200150486828701620013dc565b935050602084015167ffffffffffffffff81111562001528576200152762000b1c565b5b620015368682870162001474565b92505060406200154986828701620014c1565b9150509250925092565b6000620015608262000b41565b9050919050565b620015728162001553565b81146200157e57600080fd5b50565b600081519050620015928162001567565b92915050565b600060208284031215620015b157620015b062000b17565b5b6000620015c18482850162001581565b91505092915050565b600060208284031215620015e357620015e262000b17565b5b6000620015f384828501620013dc565b91505092915050565b60006020828403121562001615576200161462000b17565b5b600082015167ffffffffffffffff81111562001636576200163562000b1c565b5b620016448482850162001474565b91505092915050565b60006020828403121562001666576200166562000b17565b5b60006200167684828501620014c1565b91505092915050565b6000620016a06200169a620016948462000fdd565b62000ff4565b62000cb0565b9050919050565b620016b2816200167f565b82525050565b6000606082019050620016cf6000830185620016a7565b8181036020830152620016e28162001060565b9050620016f3604083018462000d32565b9392505050565b60006200171b620017156200170f8462000b21565b62000ff4565b62000b21565b9050919050565b60006200172f82620016fa565b9050919050565b6000620017438262001722565b9050919050565b620017558162001736565b82525050565b60006020820190506200177260008301846200174a565b92915050565b60006020820190506200178f600083018462000cba565b92915050565b600081905092915050565b6000620017ad8262000bf2565b620017b9818562001795565b9350620017cb81856020860162000c0e565b80840191505092915050565b6000620017e58284620017a0565b91508190509291505056fe60806040523480156200001157600080fd5b506040516200090638038062000906833981810160405281019062000037919062000269565b8260008190555081600190816200004f919062000525565b50806002819055505050506200060c565b6000604051905090565b600080fd5b600080fd5b6000819050919050565b620000898162000074565b81146200009557600080fd5b50565b600081519050620000a9816200007e565b92915050565b600080fd5b600080fd5b6000601f19601f8301169050919050565b7f4e487b7100000000000000000000000000000000000000000000000000000000600052604160045260246000fd5b6200010482620000b9565b810181811067ffffffffffffffff82111715620001265762000125620000ca565b5b80604052505050565b60006200013b62000060565b9050620001498282620000f9565b919050565b600067ffffffffffffffff8211156200016c576200016b620000ca565b5b6200017782620000b9565b9050602081019050919050565b60005b83811015620001a457808201518184015260208101905062000187565b60008484015250505050565b6000620001c7620001c1846200014e565b6200012f565b905082815260208101848484011115620001e657620001e5620000b4565b5b620001f384828562000184565b509392505050565b600082601f830112620002135762000212620000af565b5b815162000225848260208601620001b0565b91505092915050565b6000819050919050565b62000243816200022e565b81146200024f57600080fd5b50565b600081519050620002638162000238565b92915050565b6000806000606084860312156200028557620002846200006a565b5b6000620002958682870162000098565b935050602084015167ffffffffffffffff811115620002b957620002b86200006f565b5b620002c786828701620001fb565b9250506040620002da8682870162000252565b9150509250925092565b600081519050919050565b7f4e487b7100000000000000000000000000000000000000000000000000000000600052602260045260246000fd5b600060028204905060018216806200033757607f821691505b6020821081036200034d576200034c620002ef565b5b50919050565b60008190508160005260206000209050919050565b60006020601f8301049050919050565b600082821b905092915050565b600060088302620003b77fffffffffffffffffffffffffffffffffffffffffffffffffffffffffffffffff8262000378565b620003c3868362000378565b95508019841693508086168417925050509392505050565b6000819050919050565b60006200040662000400620003fa8462000074565b620003db565b62000074565b9050919050565b6000819050919050565b6200042283620003e5565b6200043a62000431826200040d565b84845462000385565b825550505050565b600090565b6200045162000442565b6200045e81848462000417565b505050565b5b8181101562000486576200047a60008262000447565b60018101905062000464565b5050565b601f821115620004d5576200049f8162000353565b620004aa8462000368565b81016020851015620004ba578190505b620004d2620004c98562000368565b83018262000463565b50505b505050565b600082821c905092915050565b6000620004fa60001984600802620004da565b1980831691505092915050565b6000620005158383620004e7565b9150826002028217905092915050565b6200053082620002e4565b67ffffffffffffffff8111156200054c576200054b620000ca565b5b6200055882546200031e565b620005658282856200048a565b600060209050601f8311600181146200059d576000841562000588578287015190505b62000594858262000507565b86555062000604565b601f198416620005ad8662000353565b60005b82811015620005d757848901518255600182019150602085019450602081019050620005b0565b86831015620005f75784890151620005f3601f891682620004e7565b8355505b6001600288020188555050505b505050505050565b6102ea806200061c6000396000f3fe608060405234801561001057600080fd5b50600436106100415760003560e01c8063a32d888114610046578063cd5f65cb14610064578063f39668d214610082575b600080fd5b61004e6100a0565b60405161005b91906101ca565b60405180910390f35b61006c61012e565b6040516100799190610205565b60405180910390f35b61008a610134565b6040516100979190610239565b60405180910390f35b600180546100ad90610283565b80601f01602080910402602001604051908101604052809291908181526020018280546100d990610283565b80156101265780601f106100fb57610100808354040283529160200191610126565b820191906000526020600020905b81548152906001019060200180831161010957829003601f168201915b505050505081565b60005481565b60025481565b600081519050919050565b600082825260208201905092915050565b60005b83811015610174578082015181840152602081019050610159565b60008484015250505050565b6000601f19601f8301169050919050565b600061019c8261013a565b6101a68185610145565b93506101b6818560208601610156565b6101bf81610180565b840191505092915050565b600060208201905081810360008301526101e48184610191565b905092915050565b6000819050919050565b6101ff816101ec565b82525050565b600060208201905061021a60008301846101f6565b92915050565b6000819050919050565b61023381610220565b82525050565b600060208201905061024e600083018461022a565b92915050565b7f4e487b7100000000000000000000000000000000000000000000000000000000600052602260045260246000fd5b6000600282049050600182168061029b57607f821691505b6020821081036102ae576102ad610254565b5b5091905056fea264697066735822122044505496b014e1a4dbd166f717d7440d3d3a58f160dfd59ba613346a5889eba564736f6c63430008180033a26469706673582212207eba2ebc95ef41d43c951daf982489237c99a78ff33675d1e24e401ea2ecf9ea64736f6c63430008180033",
          "opcodes": "PUSH1 0x80 PUSH1 0x40 MSTORE CALLVALUE DUP1 ISZERO PUSH2 0x10 JUMPI PUSH1 0x0 DUP1 REVERT JUMPDEST POP PUSH2 0x212C DUP1 PUSH2 0x20 PUSH1 0x0 CODECOPY PUSH1 0x0 RETURN INVALID PUSH1 0x80 PUSH1 0x40 MSTORE CALLVALUE DUP1 ISZERO PUSH3 0x11 JUMPI PUSH1 0x0 DUP1 REVERT JUMPDEST POP PUSH1 0x4 CALLDATASIZE LT PUSH3 0xAC JUMPI PUSH1 0x0 CALLDATALOAD PUSH1 0xE0 SHR DUP1 PUSH4 0xB5CC88F3 GT PUSH3 0x6F JUMPI DUP1 PUSH4 0xB5CC88F3 EQ PUSH3 0x12D JUMPI DUP1 PUSH4 0xBC8018B1 EQ PUSH3 0x151 JUMPI DUP1 PUSH4 0xD1218931 EQ PUSH3 0x15D JUMPI DUP1 PUSH4 0xD5D4984E EQ PUSH3 0x193 JUMPI DUP1 PUSH4 0xE2159C6D EQ PUSH3 0x1CA JUMPI PUSH3 0xAC JUMP JUMPDEST DUP1 PUSH4 0xCEF0A5B EQ PUSH3 0xB1 JUMPI DUP1 PUSH4 0x16279055 EQ PUSH3 0xBD JUMPI DUP1 PUSH4 0x3FA4F245 EQ PUSH3 0xF3 JUMPI DUP1 PUSH4 0x47B16D64 EQ PUSH3 0x115 JUMPI DUP1 PUSH4 0x919840AD EQ PUSH3 0x121 JUMPI JUMPDEST PUSH1 0x0 DUP1 REVERT JUMPDEST PUSH3 0xBB PUSH3 0x1EE JUMP JUMPDEST STOP JUMPDEST PUSH3 0xDB PUSH1 0x4 DUP1 CALLDATASIZE SUB DUP2 ADD SWAP1 PUSH3 0xD5 SWAP2 SWAP1 PUSH3 0xB86 JUMP JUMPDEST PUSH3 0x265 JUMP JUMPDEST PUSH1 0x40 MLOAD PUSH3 0xEA SWAP2 SWAP1 PUSH3 0xBD5 JUMP JUMPDEST PUSH1 0x40 MLOAD DUP1 SWAP2 SUB SWAP1 RETURN JUMPDEST PUSH3 0xFD PUSH3 0x27E JUMP JUMPDEST PUSH1 0x40 MLOAD PUSH3 0x10C SWAP2 SWAP1 PUSH3 0xC8C JUMP JUMPDEST PUSH1 0x40 MLOAD DUP1 SWAP2 SUB SWAP1 RETURN JUMPDEST PUSH3 0x11F PUSH3 0x318 JUMP JUMPDEST STOP JUMPDEST PUSH3 0x12B PUSH3 0x44C JUMP JUMPDEST STOP JUMPDEST PUSH3 0x137 PUSH3 0x51D JUMP JUMPDEST PUSH1 0x40 MLOAD PUSH3 0x148 SWAP4 SWAP3 SWAP2 SWAP1 PUSH3 0xD43 JUMP JUMPDEST PUSH1 0x40 MLOAD DUP1 SWAP2 SUB SWAP1 RETURN JUMPDEST PUSH3 0x15B PUSH3 0x735 JUMP JUMPDEST STOP JUMPDEST PUSH3 0x17B PUSH1 0x4 DUP1 CALLDATASIZE SUB DUP2 ADD SWAP1 PUSH3 0x175 SWAP2 SWAP1 PUSH3 0xDB8 JUMP JUMPDEST PUSH3 0x7EA JUMP JUMPDEST PUSH1 0x40 MLOAD PUSH3 0x18A SWAP2 SWAP1 PUSH3 0xDEA JUMP JUMPDEST PUSH1 0x40 MLOAD DUP1 SWAP2 SUB SWAP1 RETURN JUMPDEST PUSH3 0x1B1 PUSH1 0x4 DUP1 CALLDATASIZE SUB DUP2 ADD SWAP1 PUSH3 0x1AB SWAP2 SWAP1 PUSH3 0xF58 JUMP JUMPDEST PUSH3 0x8AE JUMP JUMPDEST PUSH1 0x40 MLOAD PUSH3 0x1C1 SWAP3 SWAP2 SWAP1 PUSH3 0xFA9 JUMP JUMPDEST PUSH1 0x40 MLOAD DUP1 SWAP2 SUB SWAP1 RETURN JUMPDEST PUSH3 0x1D4 PUSH3 0x92D JUMP JUMPDEST PUSH1 0x40 MLOAD PUSH3 0x1E5 SWAP4 SWAP3 SWAP2 SWAP1 PUSH3 0xD43 JUMP JUMPDEST PUSH1 0x40 MLOAD DUP1 SWAP2 SUB SWAP1 RETURN JUMPDEST PUSH1 0x0 DUP1 PUSH3 0x240 PUSH1 0x1 PUSH32 0x6279746573333200000000000000000000000000000000000000000000000000 PUSH1 0x40 MLOAD PUSH1 0x20 ADD PUSH3 0x22B SWAP3 SWAP2 SWAP1 PUSH3 0x1087 JUMP JUMPDEST PUSH1 0x40 MLOAD PUSH1 0x20 DUP2 DUP4 SUB SUB DUP2 MSTORE SWAP1 PUSH1 0x40 MSTORE PUSH3 0x8AE JUMP JUMPDEST SWAP2 POP SWAP2 POP DUP2 PUSH3 0x24F JUMPI PUSH1 0x0 DUP1 REVERT JUMPDEST DUP1 PUSH1 0x0 SWAP1 DUP2 PUSH3 0x260 SWAP2 SWAP1 PUSH3 0x12F5 JUMP JUMPDEST POP POP POP JUMP JUMPDEST PUSH1 0x0 DUP1 DUP3 EXTCODESIZE SWAP1 POP PUSH1 0x0 DUP2 PUSH4 0xFFFFFFFF AND GT SWAP2 POP POP SWAP2 SWAP1 POP JUMP JUMPDEST PUSH1 0x60 PUSH1 0x0 DUP1 SLOAD PUSH3 0x28F SWAP1 PUSH3 0x10F8 JUMP JUMPDEST DUP1 PUSH1 0x1F ADD PUSH1 0x20 DUP1 SWAP2 DIV MUL PUSH1 0x20 ADD PUSH1 0x40 MLOAD SWAP1 DUP2 ADD PUSH1 0x40 MSTORE DUP1 SWAP3 SWAP2 SWAP1 DUP2 DUP2 MSTORE PUSH1 0x20 ADD DUP3 DUP1 SLOAD PUSH3 0x2BD SWAP1 PUSH3 0x10F8 JUMP JUMPDEST DUP1 ISZERO PUSH3 0x30E JUMPI DUP1 PUSH1 0x1F LT PUSH3 0x2E2 JUMPI PUSH2 0x100 DUP1 DUP4 SLOAD DIV MUL DUP4 MSTORE SWAP2 PUSH1 0x20 ADD SWAP2 PUSH3 0x30E JUMP JUMPDEST DUP3 ADD SWAP2 SWAP1 PUSH1 0x0 MSTORE PUSH1 0x20 PUSH1 0x0 KECCAK256 SWAP1 JUMPDEST DUP2 SLOAD DUP2 MSTORE SWAP1 PUSH1 0x1 ADD SWAP1 PUSH1 0x20 ADD DUP1 DUP4 GT PUSH3 0x2F0 JUMPI DUP3 SWAP1 SUB PUSH1 0x1F AND DUP3 ADD SWAP2 JUMPDEST POP POP POP POP POP SWAP1 POP SWAP1 JUMP JUMPDEST PUSH1 0x0 DUP1 PUSH1 0x0 DUP1 DUP1 SLOAD PUSH3 0x32B SWAP1 PUSH3 0x10F8 JUMP JUMPDEST DUP1 PUSH1 0x1F ADD PUSH1 0x20 DUP1 SWAP2 DIV MUL PUSH1 0x20 ADD PUSH1 0x40 MLOAD SWAP1 DUP2 ADD PUSH1 0x40 MSTORE DUP1 SWAP3 SWAP2 SWAP1 DUP2 DUP2 MSTORE PUSH1 0x20 ADD DUP3 DUP1 SLOAD PUSH3 0x359 SWAP1 PUSH3 0x10F8 JUMP JUMPDEST DUP1 ISZERO PUSH3 0x3AA JUMPI DUP1 PUSH1 0x1F LT PUSH3 0x37E JUMPI PUSH2 0x100 DUP1 DUP4 SLOAD DIV MUL DUP4 MSTORE SWAP2 PUSH1 0x20 ADD SWAP2 PUSH3 0x3AA JUMP JUMPDEST DUP3 ADD SWAP2 SWAP1 PUSH1 0x0 MSTORE PUSH1 0x20 PUSH1 0x0 KECCAK256 SWAP1 JUMPDEST DUP2 SLOAD DUP2 MSTORE SWAP1 PUSH1 0x1 ADD SWAP1 PUSH1 0x20 ADD DUP1 DUP4 GT PUSH3 0x38C JUMPI DUP3 SWAP1 SUB PUSH1 0x1F AND DUP3 ADD SWAP2 JUMPDEST POP POP POP POP POP DUP1 PUSH1 0x20 ADD SWAP1 MLOAD DUP2 ADD SWAP1 PUSH3 0x3C4 SWAP2 SWAP1 PUSH3 0x14D8 JUMP JUMPDEST SWAP3 POP SWAP3 POP SWAP3 POP DUP3 DUP3 DUP3 PUSH1 0x40 MLOAD PUSH3 0x3DB SWAP1 PUSH3 0xAFF JUMP JUMPDEST PUSH3 0x3E9 SWAP4 SWAP3 SWAP2 SWAP1 PUSH3 0xD43 JUMP JUMPDEST PUSH1 0x40 MLOAD DUP1 SWAP2 SUB SWAP1 PUSH1 0x0 CREATE DUP1 ISZERO DUP1 ISZERO PUSH3 0x406 JUMPI RETURNDATASIZE PUSH1 0x0 DUP1 RETURNDATACOPY RETURNDATASIZE PUSH1 0x0 REVERT JUMPDEST POP PUSH1 0x1 PUSH1 0x0 PUSH2 0x100 EXP DUP2 SLOAD DUP2 PUSH20 0xFFFFFFFFFFFFFFFFFFFFFFFFFFFFFFFFFFFFFFFF MUL NOT AND SWAP1 DUP4 PUSH20 0xFFFFFFFFFFFFFFFFFFFFFFFFFFFFFFFFFFFFFFFF AND MUL OR SWAP1 SSTORE POP POP POP POP JUMP JUMPDEST PUSH1 0x0 DUP1 PUSH3 0x469 PUSH1 0x40 MLOAD DUP1 PUSH1 0x20 ADD PUSH1 0x40 MSTORE DUP1 PUSH1 0x0 DUP2 MSTORE POP PUSH3 0x8AE JUMP JUMPDEST SWAP2 POP SWAP2 POP DUP2 PUSH3 0x478 JUMPI PUSH1 0x0 DUP1 REVERT JUMPDEST PUSH1 0x0 DUP1 PUSH1 0x0 DUP4 DUP1 PUSH1 0x20 ADD SWAP1 MLOAD DUP2 ADD SWAP1 PUSH3 0x493 SWAP2 SWAP1 PUSH3 0x14D8 JUMP JUMPDEST SWAP3 POP SWAP3 POP SWAP3 POP DUP3 DUP3 DUP3 PUSH1 0x40 MLOAD PUSH3 0x4AA SWAP1 PUSH3 0xAFF JUMP JUMPDEST PUSH3 0x4B8 SWAP4 SWAP3 SWAP2 SWAP1 PUSH3 0xD43 JUMP JUMPDEST PUSH1 0x40 MLOAD DUP1 SWAP2 SUB SWAP1 PUSH1 0x0 CREATE DUP1 ISZERO DUP1 ISZERO PUSH3 0x4D5 JUMPI RETURNDATASIZE PUSH1 0x0 DUP1 RETURNDATACOPY RETURNDATASIZE PUSH1 0x0 REVERT JUMPDEST POP PUSH1 0x1 PUSH1 0x0 PUSH2 0x100 EXP DUP2 SLOAD DUP2 PUSH20 0xFFFFFFFFFFFFFFFFFFFFFFFFFFFFFFFFFFFFFFFF MUL NOT AND SWAP1 DUP4 PUSH20 0xFFFFFFFFFFFFFFFFFFFFFFFFFFFFFFFFFFFFFFFF AND MUL OR SWAP1 SSTORE POP POP POP POP POP POP JUMP JUMPDEST PUSH1 0x0 PUSH1 0x60 PUSH1 0x0 DUP1 PUSH1 0x0 DUP1 SLOAD PUSH3 0x533 SWAP1 PUSH3 0x10F8 JUMP JUMPDEST DUP1 PUSH1 0x1F ADD PUSH1 0x20 DUP1 SWAP2 DIV MUL PUSH1 0x20 ADD PUSH1 0x40 MLOAD SWAP1 DUP2 ADD PUSH1 0x40 MSTORE DUP1 SWAP3 SWAP2 SWAP1 DUP2 DUP2 MSTORE PUSH1 0x20 ADD DUP3 DUP1 SLOAD PUSH3 0x561 SWAP1 PUSH3 0x10F8 JUMP JUMPDEST DUP1 ISZERO PUSH3 0x5B2 JUMPI DUP1 PUSH1 0x1F LT PUSH3 0x586 JUMPI PUSH2 0x100 DUP1 DUP4 SLOAD DIV MUL DUP4 MSTORE SWAP2 PUSH1 0x20 ADD SWAP2 PUSH3 0x5B2 JUMP JUMPDEST DUP3 ADD SWAP2 SWAP1 PUSH1 0x0 MSTORE PUSH1 0x20 PUSH1 0x0 KECCAK256 SWAP1 JUMPDEST DUP2 SLOAD DUP2 MSTORE SWAP1 PUSH1 0x1 ADD SWAP1 PUSH1 0x20 ADD DUP1 DUP4 GT PUSH3 0x594 JUMPI DUP3 SWAP1 SUB PUSH1 0x1F AND DUP3 ADD SWAP2 JUMPDEST POP POP POP POP POP DUP1 PUSH1 0x20 ADD SWAP1 MLOAD DUP2 ADD SWAP1 PUSH3 0x5CC SWAP2 SWAP1 PUSH3 0x1598 JUMP JUMPDEST SWAP1 POP DUP1 PUSH20 0xFFFFFFFFFFFFFFFFFFFFFFFFFFFFFFFFFFFFFFFF AND PUSH4 0xCD5F65CB PUSH1 0x40 MLOAD DUP2 PUSH4 0xFFFFFFFF AND PUSH1 0xE0 SHL DUP2 MSTORE PUSH1 0x4 ADD PUSH1 0x20 PUSH1 0x40 MLOAD DUP1 DUP4 SUB DUP2 DUP7 GAS STATICCALL ISZERO DUP1 ISZERO PUSH3 0x61A JUMPI RETURNDATASIZE PUSH1 0x0 DUP1 RETURNDATACOPY RETURNDATASIZE PUSH1 0x0 REVERT JUMPDEST POP POP POP POP PUSH1 0x40 MLOAD RETURNDATASIZE PUSH1 0x1F NOT PUSH1 0x1F DUP3 ADD AND DUP3 ADD DUP1 PUSH1 0x40 MSTORE POP DUP2 ADD SWAP1 PUSH3 0x640 SWAP2 SWAP1 PUSH3 0x15CA JUMP JUMPDEST DUP2 PUSH20 0xFFFFFFFFFFFFFFFFFFFFFFFFFFFFFFFFFFFFFFFF AND PUSH4 0xA32D8881 PUSH1 0x40 MLOAD DUP2 PUSH4 0xFFFFFFFF AND PUSH1 0xE0 SHL DUP2 MSTORE PUSH1 0x4 ADD PUSH1 0x0 PUSH1 0x40 MLOAD DUP1 DUP4 SUB DUP2 DUP7 GAS STATICCALL ISZERO DUP1 ISZERO PUSH3 0x68C JUMPI RETURNDATASIZE PUSH1 0x0 DUP1 RETURNDATACOPY RETURNDATASIZE PUSH1 0x0 REVERT JUMPDEST POP POP POP POP PUSH1 0x40 MLOAD RETURNDATASIZE PUSH1 0x0 DUP3 RETURNDATACOPY RETURNDATASIZE PUSH1 0x1F NOT PUSH1 0x1F DUP3 ADD AND DUP3 ADD DUP1 PUSH1 0x40 MSTORE POP DUP2 ADD SWAP1 PUSH3 0x6B7 SWAP2 SWAP1 PUSH3 0x15FC JUMP JUMPDEST DUP3 PUSH20 0xFFFFFFFFFFFFFFFFFFFFFFFFFFFFFFFFFFFFFFFF AND PUSH4 0xF39668D2 PUSH1 0x40 MLOAD DUP2 PUSH4 0xFFFFFFFF AND PUSH1 0xE0 SHL DUP2 MSTORE PUSH1 0x4 ADD PUSH1 0x20 PUSH1 0x40 MLOAD DUP1 DUP4 SUB DUP2 DUP7 GAS STATICCALL ISZERO DUP1 ISZERO PUSH3 0x703 JUMPI RETURNDATASIZE PUSH1 0x0 DUP1 RETURNDATACOPY RETURNDATASIZE PUSH1 0x0 REVERT JUMPDEST POP POP POP POP PUSH1 0x40 MLOAD RETURNDATASIZE PUSH1 0x1F NOT PUSH1 0x1F DUP3 ADD AND DUP3 ADD DUP1 PUSH1 0x40 MSTORE POP DUP2 ADD SWAP1 PUSH3 0x729 SWAP2 SWAP1 PUSH3 0x164D JUMP JUMPDEST SWAP4 POP SWAP4 POP SWAP4 POP POP SWAP1 SWAP2 SWAP3 JUMP JUMPDEST PUSH1 0x0 PUSH1 0x1 PUSH32 0x6279746573333200000000000000000000000000000000000000000000000000 PUSH1 0x40 MLOAD PUSH3 0x768 SWAP1 PUSH3 0xAFF JUMP JUMPDEST PUSH3 0x775 SWAP3 SWAP2 SWAP1 PUSH3 0x16B8 JUMP JUMPDEST PUSH1 0x40 MLOAD DUP1 SWAP2 SUB SWAP1 PUSH1 0x0 CREATE DUP1 ISZERO DUP1 ISZERO PUSH3 0x792 JUMPI RETURNDATASIZE PUSH1 0x0 DUP1 RETURNDATACOPY RETURNDATASIZE PUSH1 0x0 REVERT JUMPDEST POP SWAP1 POP PUSH1 0x0 DUP1 PUSH3 0x7C4 DUP4 PUSH1 0x40 MLOAD PUSH1 0x20 ADD PUSH3 0x7AF SWAP2 SWAP1 PUSH3 0x175B JUMP JUMPDEST PUSH1 0x40 MLOAD PUSH1 0x20 DUP2 DUP4 SUB SUB DUP2 MSTORE SWAP1 PUSH1 0x40 MSTORE PUSH3 0x8AE JUMP JUMPDEST SWAP2 POP SWAP2 POP DUP2 PUSH3 0x7D3 JUMPI PUSH1 0x0 DUP1 REVERT JUMPDEST DUP1 PUSH1 0x0 SWAP1 DUP2 PUSH3 0x7E4 SWAP2 SWAP1 PUSH3 0x12F5 JUMP JUMPDEST POP POP POP POP JUMP JUMPDEST PUSH1 0x0 DUP1 PUSH1 0x2 SWAP1 POP PUSH1 0x0 DUP1 DUP3 PUSH20 0xFFFFFFFFFFFFFFFFFFFFFFFFFFFFFFFFFFFFFFFF AND DUP6 PUSH1 0x40 MLOAD PUSH1 0x20 ADD PUSH3 0x81E SWAP2 SWAP1 PUSH3 0x1778 JUMP JUMPDEST PUSH1 0x40 MLOAD PUSH1 0x20 DUP2 DUP4 SUB SUB DUP2 MSTORE SWAP1 PUSH1 0x40 MSTORE PUSH1 0x40 MLOAD PUSH3 0x83C SWAP2 SWAP1 PUSH3 0x17D7 JUMP JUMPDEST PUSH1 0x0 PUSH1 0x40 MLOAD DUP1 DUP4 SUB DUP2 DUP6 GAS STATICCALL SWAP2 POP POP RETURNDATASIZE DUP1 PUSH1 0x0 DUP2 EQ PUSH3 0x879 JUMPI PUSH1 0x40 MLOAD SWAP2 POP PUSH1 0x1F NOT PUSH1 0x3F RETURNDATASIZE ADD AND DUP3 ADD PUSH1 0x40 MSTORE RETURNDATASIZE DUP3 MSTORE RETURNDATASIZE PUSH1 0x0 PUSH1 0x20 DUP5 ADD RETURNDATACOPY PUSH3 0x87E JUMP JUMPDEST PUSH1 0x60 SWAP2 POP JUMPDEST POP SWAP2 POP SWAP2 POP DUP2 PUSH3 0x88E JUMPI PUSH1 0x0 DUP1 REVERT JUMPDEST DUP1 DUP1 PUSH1 0x20 ADD SWAP1 MLOAD DUP2 ADD SWAP1 PUSH3 0x8A4 SWAP2 SWAP1 PUSH3 0x164D JUMP JUMPDEST SWAP4 POP POP POP POP SWAP2 SWAP1 POP JUMP JUMPDEST PUSH1 0x0 PUSH1 0x60 PUSH1 0x0 PUSH2 0x100 SWAP1 POP DUP1 PUSH20 0xFFFFFFFFFFFFFFFFFFFFFFFFFFFFFFFFFFFFFFFF AND DUP5 PUSH1 0x40 MLOAD PUSH3 0x8E0 SWAP2 SWAP1 PUSH3 0x17D7 JUMP JUMPDEST PUSH1 0x0 PUSH1 0x40 MLOAD DUP1 DUP4 SUB DUP2 DUP6 GAS STATICCALL SWAP2 POP POP RETURNDATASIZE DUP1 PUSH1 0x0 DUP2 EQ PUSH3 0x91D JUMPI PUSH1 0x40 MLOAD SWAP2 POP PUSH1 0x1F NOT PUSH1 0x3F RETURNDATASIZE ADD AND DUP3 ADD PUSH1 0x40 MSTORE RETURNDATASIZE DUP3 MSTORE RETURNDATASIZE PUSH1 0x0 PUSH1 0x20 DUP5 ADD RETURNDATACOPY PUSH3 0x922 JUMP JUMPDEST PUSH1 0x60 SWAP2 POP JUMPDEST POP SWAP3 POP SWAP3 POP POP SWAP2 POP SWAP2 JUMP JUMPDEST PUSH1 0x0 PUSH1 0x60 PUSH1 0x0 PUSH1 0x1 PUSH1 0x0 SWAP1 SLOAD SWAP1 PUSH2 0x100 EXP SWAP1 DIV PUSH20 0xFFFFFFFFFFFFFFFFFFFFFFFFFFFFFFFFFFFFFFFF AND PUSH20 0xFFFFFFFFFFFFFFFFFFFFFFFFFFFFFFFFFFFFFFFF AND PUSH4 0xCD5F65CB PUSH1 0x40 MLOAD DUP2 PUSH4 0xFFFFFFFF AND PUSH1 0xE0 SHL DUP2 MSTORE PUSH1 0x4 ADD PUSH1 0x20 PUSH1 0x40 MLOAD DUP1 DUP4 SUB DUP2 DUP7 GAS STATICCALL ISZERO DUP1 ISZERO PUSH3 0x9A1 JUMPI RETURNDATASIZE PUSH1 0x0 DUP1 RETURNDATACOPY RETURNDATASIZE PUSH1 0x0 REVERT JUMPDEST POP POP POP POP PUSH1 0x40 MLOAD RETURNDATASIZE PUSH1 0x1F NOT PUSH1 0x1F DUP3 ADD AND DUP3 ADD DUP1 PUSH1 0x40 MSTORE POP DUP2 ADD SWAP1 PUSH3 0x9C7 SWAP2 SWAP1 PUSH3 0x15CA JUMP JUMPDEST PUSH1 0x1 PUSH1 0x0 SWAP1 SLOAD SWAP1 PUSH2 0x100 EXP SWAP1 DIV PUSH20 0xFFFFFFFFFFFFFFFFFFFFFFFFFFFFFFFFFFFFFFFF AND PUSH20 0xFFFFFFFFFFFFFFFFFFFFFFFFFFFFFFFFFFFFFFFF AND PUSH4 0xA32D8881 PUSH1 0x40 MLOAD DUP2 PUSH4 0xFFFFFFFF AND PUSH1 0xE0 SHL DUP2 MSTORE PUSH1 0x4 ADD PUSH1 0x0 PUSH1 0x40 MLOAD DUP1 DUP4 SUB DUP2 DUP7 GAS STATICCALL ISZERO DUP1 ISZERO PUSH3 0xA35 JUMPI RETURNDATASIZE PUSH1 0x0 DUP1 RETURNDATACOPY RETURNDATASIZE PUSH1 0x0 REVERT JUMPDEST POP POP POP POP PUSH1 0x40 MLOAD RETURNDATASIZE PUSH1 0x0 DUP3 RETURNDATACOPY RETURNDATASIZE PUSH1 0x1F NOT PUSH1 0x1F DUP3 ADD AND DUP3 ADD DUP1 PUSH1 0x40 MSTORE POP DUP2 ADD SWAP1 PUSH3 0xA60 SWAP2 SWAP1 PUSH3 0x15FC JUMP JUMPDEST PUSH1 0x1 PUSH1 0x0 SWAP1 SLOAD SWAP1 PUSH2 0x100 EXP SWAP1 DIV PUSH20 0xFFFFFFFFFFFFFFFFFFFFFFFFFFFFFFFFFFFFFFFF AND PUSH20 0xFFFFFFFFFFFFFFFFFFFFFFFFFFFFFFFFFFFFFFFF AND PUSH4 0xF39668D2 PUSH1 0x40 MLOAD DUP2 PUSH4 0xFFFFFFFF AND PUSH1 0xE0 SHL DUP2 MSTORE PUSH1 0x4 ADD PUSH1 0x20 PUSH1 0x40 MLOAD DUP1 DUP4 SUB DUP2 DUP7 GAS STATICCALL ISZERO DUP1 ISZERO PUSH3 0xACE JUMPI RETURNDATASIZE PUSH1 0x0 DUP1 RETURNDATACOPY RETURNDATASIZE PUSH1 0x0 REVERT JUMPDEST POP POP POP POP PUSH1 0x40 MLOAD RETURNDATASIZE PUSH1 0x1F NOT PUSH1 0x1F DUP3 ADD AND DUP3 ADD DUP1 PUSH1 0x40 MSTORE POP DUP2 ADD SWAP1 PUSH3 0xAF4 SWAP2 SWAP1 PUSH3 0x164D JUMP JUMPDEST SWAP3 POP SWAP3 POP SWAP3 POP SWAP1 SWAP2 SWAP3 JUMP JUMPDEST PUSH2 0x906 DUP1 PUSH3 0x17F1 DUP4 CODECOPY ADD SWAP1 JUMP JUMPDEST PUSH1 0x0 PUSH1 0x40 MLOAD SWAP1 POP SWAP1 JUMP JUMPDEST PUSH1 0x0 DUP1 REVERT JUMPDEST PUSH1 0x0 DUP1 REVERT JUMPDEST PUSH1 0x0 PUSH20 0xFFFFFFFFFFFFFFFFFFFFFFFFFFFFFFFFFFFFFFFF DUP3 AND SWAP1 POP SWAP2 SWAP1 POP JUMP JUMPDEST PUSH1 0x0 PUSH3 0xB4E DUP3 PUSH3 0xB21 JUMP JUMPDEST SWAP1 POP SWAP2 SWAP1 POP JUMP JUMPDEST PUSH3 0xB60 DUP2 PUSH3 0xB41 JUMP JUMPDEST DUP2 EQ PUSH3 0xB6C JUMPI PUSH1 0x0 DUP1 REVERT JUMPDEST POP JUMP JUMPDEST PUSH1 0x0 DUP2 CALLDATALOAD SWAP1 POP PUSH3 0xB80 DUP2 PUSH3 0xB55 JUMP JUMPDEST SWAP3 SWAP2 POP POP JUMP JUMPDEST PUSH1 0x0 PUSH1 0x20 DUP3 DUP5 SUB SLT ISZERO PUSH3 0xB9F JUMPI PUSH3 0xB9E PUSH3 0xB17 JUMP JUMPDEST JUMPDEST PUSH1 0x0 PUSH3 0xBAF DUP5 DUP3 DUP6 ADD PUSH3 0xB6F JUMP JUMPDEST SWAP2 POP POP SWAP3 SWAP2 POP POP JUMP JUMPDEST PUSH1 0x0 DUP2 ISZERO ISZERO SWAP1 POP SWAP2 SWAP1 POP JUMP JUMPDEST PUSH3 0xBCF DUP2 PUSH3 0xBB8 JUMP JUMPDEST DUP3 MSTORE POP POP JUMP JUMPDEST PUSH1 0x0 PUSH1 0x20 DUP3 ADD SWAP1 POP PUSH3 0xBEC PUSH1 0x0 DUP4 ADD DUP5 PUSH3 0xBC4 JUMP JUMPDEST SWAP3 SWAP2 POP POP JUMP JUMPDEST PUSH1 0x0 DUP2 MLOAD SWAP1 POP SWAP2 SWAP1 POP JUMP JUMPDEST PUSH1 0x0 DUP3 DUP3 MSTORE PUSH1 0x20 DUP3 ADD SWAP1 POP SWAP3 SWAP2 POP POP JUMP JUMPDEST PUSH1 0x0 JUMPDEST DUP4 DUP2 LT ISZERO PUSH3 0xC2E JUMPI DUP1 DUP3 ADD MLOAD DUP2 DUP5 ADD MSTORE PUSH1 0x20 DUP2 ADD SWAP1 POP PUSH3 0xC11 JUMP JUMPDEST PUSH1 0x0 DUP5 DUP5 ADD MSTORE POP POP POP POP JUMP JUMPDEST PUSH1 0x0 PUSH1 0x1F NOT PUSH1 0x1F DUP4 ADD AND SWAP1 POP SWAP2 SWAP1 POP JUMP JUMPDEST PUSH1 0x0 PUSH3 0xC58 DUP3 PUSH3 0xBF2 JUMP JUMPDEST PUSH3 0xC64 DUP2 DUP6 PUSH3 0xBFD JUMP JUMPDEST SWAP4 POP PUSH3 0xC76 DUP2 DUP6 PUSH1 0x20 DUP7 ADD PUSH3 0xC0E JUMP JUMPDEST PUSH3 0xC81 DUP2 PUSH3 0xC3A JUMP JUMPDEST DUP5 ADD SWAP2 POP POP SWAP3 SWAP2 POP POP JUMP JUMPDEST PUSH1 0x0 PUSH1 0x20 DUP3 ADD SWAP1 POP DUP2 DUP2 SUB PUSH1 0x0 DUP4 ADD MSTORE PUSH3 0xCA8 DUP2 DUP5 PUSH3 0xC4B JUMP JUMPDEST SWAP1 POP SWAP3 SWAP2 POP POP JUMP JUMPDEST PUSH1 0x0 DUP2 SWAP1 POP SWAP2 SWAP1 POP JUMP JUMPDEST PUSH3 0xCC5 DUP2 PUSH3 0xCB0 JUMP JUMPDEST DUP3 MSTORE POP POP JUMP JUMPDEST PUSH1 0x0 DUP2 MLOAD SWAP1 POP SWAP2 SWAP1 POP JUMP JUMPDEST PUSH1 0x0 DUP3 DUP3 MSTORE PUSH1 0x20 DUP3 ADD SWAP1 POP SWAP3 SWAP2 POP POP JUMP JUMPDEST PUSH1 0x0 PUSH3 0xCF4 DUP3 PUSH3 0xCCB JUMP JUMPDEST PUSH3 0xD00 DUP2 DUP6 PUSH3 0xCD6 JUMP JUMPDEST SWAP4 POP PUSH3 0xD12 DUP2 DUP6 PUSH1 0x20 DUP7 ADD PUSH3 0xC0E JUMP JUMPDEST PUSH3 0xD1D DUP2 PUSH3 0xC3A JUMP JUMPDEST DUP5 ADD SWAP2 POP POP SWAP3 SWAP2 POP POP JUMP JUMPDEST PUSH1 0x0 DUP2 SWAP1 POP SWAP2 SWAP1 POP JUMP JUMPDEST PUSH3 0xD3D DUP2 PUSH3 0xD28 JUMP JUMPDEST DUP3 MSTORE POP POP JUMP JUMPDEST PUSH1 0x0 PUSH1 0x60 DUP3 ADD SWAP1 POP PUSH3 0xD5A PUSH1 0x0 DUP4 ADD DUP7 PUSH3 0xCBA JUMP JUMPDEST DUP2 DUP2 SUB PUSH1 0x20 DUP4 ADD MSTORE PUSH3 0xD6E DUP2 DUP6 PUSH3 0xCE7 JUMP JUMPDEST SWAP1 POP PUSH3 0xD7F PUSH1 0x40 DUP4 ADD DUP5 PUSH3 0xD32 JUMP JUMPDEST SWAP5 SWAP4 POP POP POP POP JUMP JUMPDEST PUSH3 0xD92 DUP2 PUSH3 0xCB0 JUMP JUMPDEST DUP2 EQ PUSH3 0xD9E JUMPI PUSH1 0x0 DUP1 REVERT JUMPDEST POP JUMP JUMPDEST PUSH1 0x0 DUP2 CALLDATALOAD SWAP1 POP PUSH3 0xDB2 DUP2 PUSH3 0xD87 JUMP JUMPDEST SWAP3 SWAP2 POP POP JUMP JUMPDEST PUSH1 0x0 PUSH1 0x20 DUP3 DUP5 SUB SLT ISZERO PUSH3 0xDD1 JUMPI PUSH3 0xDD0 PUSH3 0xB17 JUMP JUMPDEST JUMPDEST PUSH1 0x0 PUSH3 0xDE1 DUP5 DUP3 DUP6 ADD PUSH3 0xDA1 JUMP JUMPDEST SWAP2 POP POP SWAP3 SWAP2 POP POP JUMP JUMPDEST PUSH1 0x0 PUSH1 0x20 DUP3 ADD SWAP1 POP PUSH3 0xE01 PUSH1 0x0 DUP4 ADD DUP5 PUSH3 0xD32 JUMP JUMPDEST SWAP3 SWAP2 POP POP JUMP JUMPDEST PUSH1 0x0 DUP1 REVERT JUMPDEST PUSH1 0x0 DUP1 REVERT JUMPDEST PUSH32 0x4E487B7100000000000000000000000000000000000000000000000000000000 PUSH1 0x0 MSTORE PUSH1 0x41 PUSH1 0x4 MSTORE PUSH1 0x24 PUSH1 0x0 REVERT JUMPDEST PUSH3 0xE4B DUP3 PUSH3 0xC3A JUMP JUMPDEST DUP2 ADD DUP2 DUP2 LT PUSH8 0xFFFFFFFFFFFFFFFF DUP3 GT OR ISZERO PUSH3 0xE6D JUMPI PUSH3 0xE6C PUSH3 0xE11 JUMP JUMPDEST JUMPDEST DUP1 PUSH1 0x40 MSTORE POP POP POP JUMP JUMPDEST PUSH1 0x0 PUSH3 0xE82 PUSH3 0xB0D JUMP JUMPDEST SWAP1 POP PUSH3 0xE90 DUP3 DUP3 PUSH3 0xE40 JUMP JUMPDEST SWAP2 SWAP1 POP JUMP JUMPDEST PUSH1 0x0 PUSH8 0xFFFFFFFFFFFFFFFF DUP3 GT ISZERO PUSH3 0xEB3 JUMPI PUSH3 0xEB2 PUSH3 0xE11 JUMP JUMPDEST JUMPDEST PUSH3 0xEBE DUP3 PUSH3 0xC3A JUMP JUMPDEST SWAP1 POP PUSH1 0x20 DUP2 ADD SWAP1 POP SWAP2 SWAP1 POP JUMP JUMPDEST DUP3 DUP2 DUP4 CALLDATACOPY PUSH1 0x0 DUP4 DUP4 ADD MSTORE POP POP POP JUMP JUMPDEST PUSH1 0x0 PUSH3 0xEF1 PUSH3 0xEEB DUP5 PUSH3 0xE95 JUMP JUMPDEST PUSH3 0xE76 JUMP JUMPDEST SWAP1 POP DUP3 DUP2 MSTORE PUSH1 0x20 DUP2 ADD DUP5 DUP5 DUP5 ADD GT ISZERO PUSH3 0xF10 JUMPI PUSH3 0xF0F PUSH3 0xE0C JUMP JUMPDEST JUMPDEST PUSH3 0xF1D DUP5 DUP3 DUP6 PUSH3 0xECB JUMP JUMPDEST POP SWAP4 SWAP3 POP POP POP JUMP JUMPDEST PUSH1 0x0 DUP3 PUSH1 0x1F DUP4 ADD SLT PUSH3 0xF3D JUMPI PUSH3 0xF3C PUSH3 0xE07 JUMP JUMPDEST JUMPDEST DUP2 CALLDATALOAD PUSH3 0xF4F DUP5 DUP3 PUSH1 0x20 DUP7 ADD PUSH3 0xEDA JUMP JUMPDEST SWAP2 POP POP SWAP3 SWAP2 POP POP JUMP JUMPDEST PUSH1 0x0 PUSH1 0x20 DUP3 DUP5 SUB SLT ISZERO PUSH3 0xF71 JUMPI PUSH3 0xF70 PUSH3 0xB17 JUMP JUMPDEST JUMPDEST PUSH1 0x0 DUP3 ADD CALLDATALOAD PUSH8 0xFFFFFFFFFFFFFFFF DUP2 GT ISZERO PUSH3 0xF92 JUMPI PUSH3 0xF91 PUSH3 0xB1C JUMP JUMPDEST JUMPDEST PUSH3 0xFA0 DUP5 DUP3 DUP6 ADD PUSH3 0xF25 JUMP JUMPDEST SWAP2 POP POP SWAP3 SWAP2 POP POP JUMP JUMPDEST PUSH1 0x0 PUSH1 0x40 DUP3 ADD SWAP1 POP PUSH3 0xFC0 PUSH1 0x0 DUP4 ADD DUP6 PUSH3 0xBC4 JUMP JUMPDEST DUP2 DUP2 SUB PUSH1 0x20 DUP4 ADD MSTORE PUSH3 0xFD4 DUP2 DUP5 PUSH3 0xC4B JUMP JUMPDEST SWAP1 POP SWAP4 SWAP3 POP POP POP JUMP JUMPDEST PUSH1 0x0 DUP2 SWAP1 POP SWAP2 SWAP1 POP JUMP JUMPDEST PUSH1 0x0 PUSH1 0xFF DUP3 AND SWAP1 POP SWAP2 SWAP1 POP JUMP JUMPDEST PUSH1 0x0 DUP2 SWAP1 POP SWAP2 SWAP1 POP JUMP JUMPDEST PUSH1 0x0 PUSH3 0x101F PUSH3 0x1019 PUSH3 0x1013 DUP5 PUSH3 0xFDD JUMP JUMPDEST PUSH3 0xFF4 JUMP JUMPDEST PUSH3 0xFE7 JUMP JUMPDEST SWAP1 POP SWAP2 SWAP1 POP JUMP JUMPDEST PUSH3 0x1031 DUP2 PUSH3 0xFFE JUMP JUMPDEST DUP3 MSTORE POP POP JUMP JUMPDEST PUSH32 0x68656C6C6F000000000000000000000000000000000000000000000000000000 PUSH1 0x0 DUP3 ADD MSTORE POP JUMP JUMPDEST PUSH1 0x0 PUSH3 0x106F PUSH1 0x5 DUP4 PUSH3 0xCD6 JUMP JUMPDEST SWAP2 POP PUSH3 0x107C DUP3 PUSH3 0x1037 JUMP JUMPDEST PUSH1 0x20 DUP3 ADD SWAP1 POP SWAP2 SWAP1 POP JUMP JUMPDEST PUSH1 0x0 PUSH1 0x60 DUP3 ADD SWAP1 POP PUSH3 0x109E PUSH1 0x0 DUP4 ADD DUP6 PUSH3 0x1026 JUMP JUMPDEST DUP2 DUP2 SUB PUSH1 0x20 DUP4 ADD MSTORE PUSH3 0x10B1 DUP2 PUSH3 0x1060 JUMP JUMPDEST SWAP1 POP PUSH3 0x10C2 PUSH1 0x40 DUP4 ADD DUP5 PUSH3 0xD32 JUMP JUMPDEST SWAP4 SWAP3 POP POP POP JUMP JUMPDEST PUSH32 0x4E487B7100000000000000000000000000000000000000000000000000000000 PUSH1 0x0 MSTORE PUSH1 0x22 PUSH1 0x4 MSTORE PUSH1 0x24 PUSH1 0x0 REVERT JUMPDEST PUSH1 0x0 PUSH1 0x2 DUP3 DIV SWAP1 POP PUSH1 0x1 DUP3 AND DUP1 PUSH3 0x1111 JUMPI PUSH1 0x7F DUP3 AND SWAP2 POP JUMPDEST PUSH1 0x20 DUP3 LT DUP2 SUB PUSH3 0x1127 JUMPI PUSH3 0x1126 PUSH3 0x10C9 JUMP JUMPDEST JUMPDEST POP SWAP2 SWAP1 POP JUMP JUMPDEST PUSH1 0x0 DUP2 SWAP1 POP DUP2 PUSH1 0x0 MSTORE PUSH1 0x20 PUSH1 0x0 KECCAK256 SWAP1 POP SWAP2 SWAP1 POP JUMP JUMPDEST PUSH1 0x0 PUSH1 0x20 PUSH1 0x1F DUP4 ADD DIV SWAP1 POP SWAP2 SWAP1 POP JUMP JUMPDEST PUSH1 0x0 DUP3 DUP3 SHL SWAP1 POP SWAP3 SWAP2 POP POP JUMP JUMPDEST PUSH1 0x0 PUSH1 0x8 DUP4 MUL PUSH3 0x1191 PUSH32 0xFFFFFFFFFFFFFFFFFFFFFFFFFFFFFFFFFFFFFFFFFFFFFFFFFFFFFFFFFFFFFFFF DUP3 PUSH3 0x1152 JUMP JUMPDEST PUSH3 0x119D DUP7 DUP4 PUSH3 0x1152 JUMP JUMPDEST SWAP6 POP DUP1 NOT DUP5 AND SWAP4 POP DUP1 DUP7 AND DUP5 OR SWAP3 POP POP POP SWAP4 SWAP3 POP POP POP JUMP JUMPDEST PUSH1 0x0 PUSH3 0x11D6 PUSH3 0x11D0 PUSH3 0x11CA DUP5 PUSH3 0xCB0 JUMP JUMPDEST PUSH3 0xFF4 JUMP JUMPDEST PUSH3 0xCB0 JUMP JUMPDEST SWAP1 POP SWAP2 SWAP1 POP JUMP JUMPDEST PUSH1 0x0 DUP2 SWAP1 POP SWAP2 SWAP1 POP JUMP JUMPDEST PUSH3 0x11F2 DUP4 PUSH3 0x11B5 JUMP JUMPDEST PUSH3 0x120A PUSH3 0x1201 DUP3 PUSH3 0x11DD JUMP JUMPDEST DUP5 DUP5 SLOAD PUSH3 0x115F JUMP JUMPDEST DUP3 SSTORE POP POP POP POP JUMP JUMPDEST PUSH1 0x0 SWAP1 JUMP JUMPDEST PUSH3 0x1221 PUSH3 0x1212 JUMP JUMPDEST PUSH3 0x122E DUP2 DUP5 DUP5 PUSH3 0x11E7 JUMP JUMPDEST POP POP POP JUMP JUMPDEST JUMPDEST DUP2 DUP2 LT ISZERO PUSH3 0x1256 JUMPI PUSH3 0x124A PUSH1 0x0 DUP3 PUSH3 0x1217 JUMP JUMPDEST PUSH1 0x1 DUP2 ADD SWAP1 POP PUSH3 0x1234 JUMP JUMPDEST POP POP JUMP JUMPDEST PUSH1 0x1F DUP3 GT ISZERO PUSH3 0x12A5 JUMPI PUSH3 0x126F DUP2 PUSH3 0x112D JUMP JUMPDEST PUSH3 0x127A DUP5 PUSH3 0x1142 JUMP JUMPDEST DUP2 ADD PUSH1 0x20 DUP6 LT ISZERO PUSH3 0x128A JUMPI DUP2 SWAP1 POP JUMPDEST PUSH3 0x12A2 PUSH3 0x1299 DUP6 PUSH3 0x1142 JUMP JUMPDEST DUP4 ADD DUP3 PUSH3 0x1233 JUMP JUMPDEST POP POP JUMPDEST POP POP POP JUMP JUMPDEST PUSH1 0x0 DUP3 DUP3 SHR SWAP1 POP SWAP3 SWAP2 POP POP JUMP JUMPDEST PUSH1 0x0 PUSH3 0x12CA PUSH1 0x0 NOT DUP5 PUSH1 0x8 MUL PUSH3 0x12AA JUMP JUMPDEST NOT DUP1 DUP4 AND SWAP2 POP POP SWAP3 SWAP2 POP POP JUMP JUMPDEST PUSH1 0x0 PUSH3 0x12E5 DUP4 DUP4 PUSH3 0x12B7 JUMP JUMPDEST SWAP2 POP DUP3 PUSH1 0x2 MUL DUP3 OR SWAP1 POP SWAP3 SWAP2 POP POP JUMP JUMPDEST PUSH3 0x1300 DUP3 PUSH3 0xBF2 JUMP JUMPDEST PUSH8 0xFFFFFFFFFFFFFFFF DUP2 GT ISZERO PUSH3 0x131C JUMPI PUSH3 0x131B PUSH3 0xE11 JUMP JUMPDEST JUMPDEST PUSH3 0x1328 DUP3 SLOAD PUSH3 0x10F8 JUMP JUMPDEST PUSH3 0x1335 DUP3 DUP3 DUP6 PUSH3 0x125A JUMP JUMPDEST PUSH1 0x0 PUSH1 0x20 SWAP1 POP PUSH1 0x1F DUP4 GT PUSH1 0x1 DUP2 EQ PUSH3 0x136D JUMPI PUSH1 0x0 DUP5 ISZERO PUSH3 0x1358 JUMPI DUP3 DUP8 ADD MLOAD SWAP1 POP JUMPDEST PUSH3 0x1364 DUP6 DUP3 PUSH3 0x12D7 JUMP JUMPDEST DUP7 SSTORE POP PUSH3 0x13D4 JUMP JUMPDEST PUSH1 0x1F NOT DUP5 AND PUSH3 0x137D DUP7 PUSH3 0x112D JUMP JUMPDEST PUSH1 0x0 JUMPDEST DUP3 DUP2 LT ISZERO PUSH3 0x13A7 JUMPI DUP5 DUP10 ADD MLOAD DUP3 SSTORE PUSH1 0x1 DUP3 ADD SWAP2 POP PUSH1 0x20 DUP6 ADD SWAP5 POP PUSH1 0x20 DUP2 ADD SWAP1 POP PUSH3 0x1380 JUMP JUMPDEST DUP7 DUP4 LT ISZERO PUSH3 0x13C7 JUMPI DUP5 DUP10 ADD MLOAD PUSH3 0x13C3 PUSH1 0x1F DUP10 AND DUP3 PUSH3 0x12B7 JUMP JUMPDEST DUP4 SSTORE POP JUMPDEST PUSH1 0x1 PUSH1 0x2 DUP9 MUL ADD DUP9 SSTORE POP POP POP JUMPDEST POP POP POP POP POP POP JUMP JUMPDEST PUSH1 0x0 DUP2 MLOAD SWAP1 POP PUSH3 0x13ED DUP2 PUSH3 0xD87 JUMP JUMPDEST SWAP3 SWAP2 POP POP JUMP JUMPDEST PUSH1 0x0 PUSH8 0xFFFFFFFFFFFFFFFF DUP3 GT ISZERO PUSH3 0x1411 JUMPI PUSH3 0x1410 PUSH3 0xE11 JUMP JUMPDEST JUMPDEST PUSH3 0x141C DUP3 PUSH3 0xC3A JUMP JUMPDEST SWAP1 POP PUSH1 0x20 DUP2 ADD SWAP1 POP SWAP2 SWAP1 POP JUMP JUMPDEST PUSH1 0x0 PUSH3 0x1440 PUSH3 0x143A DUP5 PUSH3 0x13F3 JUMP JUMPDEST PUSH3 0xE76 JUMP JUMPDEST SWAP1 POP DUP3 DUP2 MSTORE PUSH1 0x20 DUP2 ADD DUP5 DUP5 DUP5 ADD GT ISZERO PUSH3 0x145F JUMPI PUSH3 0x145E PUSH3 0xE0C JUMP JUMPDEST JUMPDEST PUSH3 0x146C DUP5 DUP3 DUP6 PUSH3 0xC0E JUMP JUMPDEST POP SWAP4 SWAP3 POP POP POP JUMP JUMPDEST PUSH1 0x0 DUP3 PUSH1 0x1F DUP4 ADD SLT PUSH3 0x148C JUMPI PUSH3 0x148B PUSH3 0xE07 JUMP JUMPDEST JUMPDEST DUP2 MLOAD PUSH3 0x149E DUP5 DUP3 PUSH1 0x20 DUP7 ADD PUSH3 0x1429 JUMP JUMPDEST SWAP2 POP POP SWAP3 SWAP2 POP POP JUMP JUMPDEST PUSH3 0x14B2 DUP2 PUSH3 0xD28 JUMP JUMPDEST DUP2 EQ PUSH3 0x14BE JUMPI PUSH1 0x0 DUP1 REVERT JUMPDEST POP JUMP JUMPDEST PUSH1 0x0 DUP2 MLOAD SWAP1 POP PUSH3 0x14D2 DUP2 PUSH3 0x14A7 JUMP JUMPDEST SWAP3 SWAP2 POP POP JUMP JUMPDEST PUSH1 0x0 DUP1 PUSH1 0x0 PUSH1 0x60 DUP5 DUP7 SUB SLT ISZERO PUSH3 0x14F4 JUMPI PUSH3 0x14F3 PUSH3 0xB17 JUMP JUMPDEST JUMPDEST PUSH1 0x0 PUSH3 0x1504 DUP7 DUP3 DUP8 ADD PUSH3 0x13DC JUMP JUMPDEST SWAP4 POP POP PUSH1 0x20 DUP5 ADD MLOAD PUSH8 0xFFFFFFFFFFFFFFFF DUP2 GT ISZERO PUSH3 0x1528 JUMPI PUSH3 0x1527 PUSH3 0xB1C JUMP JUMPDEST JUMPDEST PUSH3 0x1536 DUP7 DUP3 DUP8 ADD PUSH3 0x1474 JUMP JUMPDEST SWAP3 POP POP PUSH1 0x40 PUSH3 0x1549 DUP7 DUP3 DUP8 ADD PUSH3 0x14C1 JUMP JUMPDEST SWAP2 POP POP SWAP3 POP SWAP3 POP SWAP3 JUMP JUMPDEST PUSH1 0x0 PUSH3 0x1560 DUP3 PUSH3 0xB41 JUMP JUMPDEST SWAP1 POP SWAP2 SWAP1 POP JUMP JUMPDEST PUSH3 0x1572 DUP2 PUSH3 0x1553 JUMP JUMPDEST DUP2 EQ PUSH3 0x157E JUMPI PUSH1 0x0 DUP1 REVERT JUMPDEST POP JUMP JUMPDEST PUSH1 0x0 DUP2 MLOAD SWAP1 POP PUSH3 0x1592 DUP2 PUSH3 0x1567 JUMP JUMPDEST SWAP3 SWAP2 POP POP JUMP JUMPDEST PUSH1 0x0 PUSH1 0x20 DUP3 DUP5 SUB SLT ISZERO PUSH3 0x15B1 JUMPI PUSH3 0x15B0 PUSH3 0xB17 JUMP JUMPDEST JUMPDEST PUSH1 0x0 PUSH3 0x15C1 DUP5 DUP3 DUP6 ADD PUSH3 0x1581 JUMP JUMPDEST SWAP2 POP POP SWAP3 SWAP2 POP POP JUMP JUMPDEST PUSH1 0x0 PUSH1 0x20 DUP3 DUP5 SUB SLT ISZERO PUSH3 0x15E3 JUMPI PUSH3 0x15E2 PUSH3 0xB17 JUMP JUMPDEST JUMPDEST PUSH1 0x0 PUSH3 0x15F3 DUP5 DUP3 DUP6 ADD PUSH3 0x13DC JUMP JUMPDEST SWAP2 POP POP SWAP3 SWAP2 POP POP JUMP JUMPDEST PUSH1 0x0 PUSH1 0x20 DUP3 DUP5 SUB SLT ISZERO PUSH3 0x1615 JUMPI PUSH3 0x1614 PUSH3 0xB17 JUMP JUMPDEST JUMPDEST PUSH1 0x0 DUP3 ADD MLOAD PUSH8 0xFFFFFFFFFFFFFFFF DUP2 GT ISZERO PUSH3 0x1636 JUMPI PUSH3 0x1635 PUSH3 0xB1C JUMP JUMPDEST JUMPDEST PUSH3 0x1644 DUP5 DUP3 DUP6 ADD PUSH3 0x1474 JUMP JUMPDEST SWAP2 POP POP SWAP3 SWAP2 POP POP JUMP JUMPDEST PUSH1 0x0 PUSH1 0x20 DUP3 DUP5 SUB SLT ISZERO PUSH3 0x1666 JUMPI PUSH3 0x1665 PUSH3 0xB17 JUMP JUMPDEST JUMPDEST PUSH1 0x0 PUSH3 0x1676 DUP5 DUP3 DUP6 ADD PUSH3 0x14C1 JUMP JUMPDEST SWAP2 POP POP SWAP3 SWAP2 POP POP JUMP JUMPDEST PUSH1 0x0 PUSH3 0x16A0 PUSH3 0x169A PUSH3 0x1694 DUP5 PUSH3 0xFDD JUMP JUMPDEST PUSH3 0xFF4 JUMP JUMPDEST PUSH3 0xCB0 JUMP JUMPDEST SWAP1 POP SWAP2 SWAP1 POP JUMP JUMPDEST PUSH3 0x16B2 DUP2 PUSH3 0x167F JUMP JUMPDEST DUP3 MSTORE POP POP JUMP JUMPDEST PUSH1 0x0 PUSH1 0x60 DUP3 ADD SWAP1 POP PUSH3 0x16CF PUSH1 0x0 DUP4 ADD DUP6 PUSH3 0x16A7 JUMP JUMPDEST DUP2 DUP2 SUB PUSH1 0x20 DUP4 ADD MSTORE PUSH3 0x16E2 DUP2 PUSH3 0x1060 JUMP JUMPDEST SWAP1 POP PUSH3 0x16F3 PUSH1 0x40 DUP4 ADD DUP5 PUSH3 0xD32 JUMP JUMPDEST SWAP4 SWAP3 POP POP POP JUMP JUMPDEST PUSH1 0x0 PUSH3 0x171B PUSH3 0x1715 PUSH3 0x170F DUP5 PUSH3 0xB21 JUMP JUMPDEST PUSH3 0xFF4 JUMP JUMPDEST PUSH3 0xB21 JUMP JUMPDEST SWAP1 POP SWAP2 SWAP1 POP JUMP JUMPDEST PUSH1 0x0 PUSH3 0x172F DUP3 PUSH3 0x16FA JUMP JUMPDEST SWAP1 POP SWAP2 SWAP1 POP JUMP JUMPDEST PUSH1 0x0 PUSH3 0x1743 DUP3 PUSH3 0x1722 JUMP JUMPDEST SWAP1 POP SWAP2 SWAP1 POP JUMP JUMPDEST PUSH3 0x1755 DUP2 PUSH3 0x1736 JUMP JUMPDEST DUP3 MSTORE POP POP JUMP JUMPDEST PUSH1 0x0 PUSH1 0x20 DUP3 ADD SWAP1 POP PUSH3 0x1772 PUSH1 0x0 DUP4 ADD DUP5 PUSH3 0x174A JUMP JUMPDEST SWAP3 SWAP2 POP POP JUMP JUMPDEST PUSH1 0x0 PUSH1 0x20 DUP3 ADD SWAP1 POP PUSH3 0x178F PUSH1 0x0 DUP4 ADD DUP5 PUSH3 0xCBA JUMP JUMPDEST SWAP3 SWAP2 POP POP JUMP JUMPDEST PUSH1 0x0 DUP2 SWAP1 POP SWAP3 SWAP2 POP POP JUMP JUMPDEST PUSH1 0x0 PUSH3 0x17AD DUP3 PUSH3 0xBF2 JUMP JUMPDEST PUSH3 0x17B9 DUP2 DUP6 PUSH3 0x1795 JUMP JUMPDEST SWAP4 POP PUSH3 0x17CB DUP2 DUP6 PUSH1 0x20 DUP7 ADD PUSH3 0xC0E JUMP JUMPDEST DUP1 DUP5 ADD SWAP2 POP POP SWAP3 SWAP2 POP POP JUMP JUMPDEST PUSH1 0x0 PUSH3 0x17E5 DUP3 DUP5 PUSH3 0x17A0 JUMP JUMPDEST SWAP2 POP DUP2 SWAP1 POP SWAP3 SWAP2 POP POP JUMP INVALID PUSH1 0x80 PUSH1 0x40 MSTORE CALLVALUE DUP1 ISZERO PUSH3 0x11 JUMPI PUSH1 0x0 DUP1 REVERT JUMPDEST POP PUSH1 0x40 MLOAD PUSH3 0x906 CODESIZE SUB DUP1 PUSH3 0x906 DUP4 CODECOPY DUP2 DUP2 ADD PUSH1 0x40 MSTORE DUP2 ADD SWAP1 PUSH3 0x37 SWAP2 SWAP1 PUSH3 0x269 JUMP JUMPDEST DUP3 PUSH1 0x0 DUP2 SWAP1 SSTORE POP DUP2 PUSH1 0x1 SWAP1 DUP2 PUSH3 0x4F SWAP2 SWAP1 PUSH3 0x525 JUMP JUMPDEST POP DUP1 PUSH1 0x2 DUP2 SWAP1 SSTORE POP POP POP POP PUSH3 0x60C JUMP JUMPDEST PUSH1 0x0 PUSH1 0x40 MLOAD SWAP1 POP SWAP1 JUMP JUMPDEST PUSH1 0x0 DUP1 REVERT JUMPDEST PUSH1 0x0 DUP1 REVERT JUMPDEST PUSH1 0x0 DUP2 SWAP1 POP SWAP2 SWAP1 POP JUMP JUMPDEST PUSH3 0x89 DUP2 PUSH3 0x74 JUMP JUMPDEST DUP2 EQ PUSH3 0x95 JUMPI PUSH1 0x0 DUP1 REVERT JUMPDEST POP JUMP JUMPDEST PUSH1 0x0 DUP2 MLOAD SWAP1 POP PUSH3 0xA9 DUP2 PUSH3 0x7E JUMP JUMPDEST SWAP3 SWAP2 POP POP JUMP JUMPDEST PUSH1 0x0 DUP1 REVERT JUMPDEST PUSH1 0x0 DUP1 REVERT JUMPDEST PUSH1 0x0 PUSH1 0x1F NOT PUSH1 0x1F DUP4 ADD AND SWAP1 POP SWAP2 SWAP1 POP JUMP JUMPDEST PUSH32 0x4E487B7100000000000000000000000000000000000000000000000000000000 PUSH1 0x0 MSTORE PUSH1 0x41 PUSH1 0x4 MSTORE PUSH1 0x24 PUSH1 0x0 REVERT JUMPDEST PUSH3 0x104 DUP3 PUSH3 0xB9 JUMP JUMPDEST DUP2 ADD DUP2 DUP2 LT PUSH8 0xFFFFFFFFFFFFFFFF DUP3 GT OR ISZERO PUSH3 0x126 JUMPI PUSH3 0x125 PUSH3 0xCA JUMP JUMPDEST JUMPDEST DUP1 PUSH1 0x40 MSTORE POP POP POP JUMP JUMPDEST PUSH1 0x0 PUSH3 0x13B PUSH3 0x60 JUMP JUMPDEST SWAP1 POP PUSH3 0x149 DUP3 DUP3 PUSH3 0xF9 JUMP JUMPDEST SWAP2 SWAP1 POP JUMP JUMPDEST PUSH1 0x0 PUSH8 0xFFFFFFFFFFFFFFFF DUP3 GT ISZERO PUSH3 0x16C JUMPI PUSH3 0x16B PUSH3 0xCA JUMP JUMPDEST JUMPDEST PUSH3 0x177 DUP3 PUSH3 0xB9 JUMP JUMPDEST SWAP1 POP PUSH1 0x20 DUP2 ADD SWAP1 POP SWAP2 SWAP1 POP JUMP JUMPDEST PUSH1 0x0 JUMPDEST DUP4 DUP2 LT ISZERO PUSH3 0x1A4 JUMPI DUP1 DUP3 ADD MLOAD DUP2 DUP5 ADD MSTORE PUSH1 0x20 DUP2 ADD SWAP1 POP PUSH3 0x187 JUMP JUMPDEST PUSH1 0x0 DUP5 DUP5 ADD MSTORE POP POP POP POP JUMP JUMPDEST PUSH1 0x0 PUSH3 0x1C7 PUSH3 0x1C1 DUP5 PUSH3 0x14E JUMP JUMPDEST PUSH3 0x12F JUMP JUMPDEST SWAP1 POP DUP3 DUP2 MSTORE PUSH1 0x20 DUP2 ADD DUP5 DUP5 DUP5 ADD GT ISZERO PUSH3 0x1E6 JUMPI PUSH3 0x1E5 PUSH3 0xB4 JUMP JUMPDEST JUMPDEST PUSH3 0x1F3 DUP5 DUP3 DUP6 PUSH3 0x184 JUMP JUMPDEST POP SWAP4 SWAP3 POP POP POP JUMP JUMPDEST PUSH1 0x0 DUP3 PUSH1 0x1F DUP4 ADD SLT PUSH3 0x213 JUMPI PUSH3 0x212 PUSH3 0xAF JUMP JUMPDEST JUMPDEST DUP2 MLOAD PUSH3 0x225 DUP5 DUP3 PUSH1 0x20 DUP7 ADD PUSH3 0x1B0 JUMP JUMPDEST SWAP2 POP POP SWAP3 SWAP2 POP POP JUMP JUMPDEST PUSH1 0x0 DUP2 SWAP1 POP SWAP2 SWAP1 POP JUMP JUMPDEST PUSH3 0x243 DUP2 PUSH3 0x22E JUMP JUMPDEST DUP2 EQ PUSH3 0x24F JUMPI PUSH1 0x0 DUP1 REVERT JUMPDEST POP JUMP JUMPDEST PUSH1 0x0 DUP2 MLOAD SWAP1 POP PUSH3 0x263 DUP2 PUSH3 0x238 JUMP JUMPDEST SWAP3 SWAP2 POP POP JUMP JUMPDEST PUSH1 0x0 DUP1 PUSH1 0x0 PUSH1 0x60 DUP5 DUP7 SUB SLT ISZERO PUSH3 0x285 JUMPI PUSH3 0x284 PUSH3 0x6A JUMP JUMPDEST JUMPDEST PUSH1 0x0 PUSH3 0x295 DUP7 DUP3 DUP8 ADD PUSH3 0x98 JUMP JUMPDEST SWAP4 POP POP PUSH1 0x20 DUP5 ADD MLOAD PUSH8 0xFFFFFFFFFFFFFFFF DUP2 GT ISZERO PUSH3 0x2B9 JUMPI PUSH3 0x2B8 PUSH3 0x6F JUMP JUMPDEST JUMPDEST PUSH3 0x2C7 DUP7 DUP3 DUP8 ADD PUSH3 0x1FB JUMP JUMPDEST SWAP3 POP POP PUSH1 0x40 PUSH3 0x2DA DUP7 DUP3 DUP8 ADD PUSH3 0x252 JUMP JUMPDEST SWAP2 POP POP SWAP3 POP SWAP3 POP SWAP3 JUMP JUMPDEST PUSH1 0x0 DUP2 MLOAD SWAP1 POP SWAP2 SWAP1 POP JUMP JUMPDEST PUSH32 0x4E487B7100000000000000000000000000000000000000000000000000000000 PUSH1 0x0 MSTORE PUSH1 0x22 PUSH1 0x4 MSTORE PUSH1 0x24 PUSH1 0x0 REVERT JUMPDEST PUSH1 0x0 PUSH1 0x2 DUP3 DIV SWAP1 POP PUSH1 0x1 DUP3 AND DUP1 PUSH3 0x337 JUMPI PUSH1 0x7F DUP3 AND SWAP2 POP JUMPDEST PUSH1 0x20 DUP3 LT DUP2 SUB PUSH3 0x34D JUMPI PUSH3 0x34C PUSH3 0x2EF JUMP JUMPDEST JUMPDEST POP SWAP2 SWAP1 POP JUMP JUMPDEST PUSH1 0x0 DUP2 SWAP1 POP DUP2 PUSH1 0x0 MSTORE PUSH1 0x20 PUSH1 0x0 KECCAK256 SWAP1 POP SWAP2 SWAP1 POP JUMP JUMPDEST PUSH1 0x0 PUSH1 0x20 PUSH1 0x1F DUP4 ADD DIV SWAP1 POP SWAP2 SWAP1 POP JUMP JUMPDEST PUSH1 0x0 DUP3 DUP3 SHL SWAP1 POP SWAP3 SWAP2 POP POP JUMP JUMPDEST PUSH1 0x0 PUSH1 0x8 DUP4 MUL PUSH3 0x3B7 PUSH32 0xFFFFFFFFFFFFFFFFFFFFFFFFFFFFFFFFFFFFFFFFFFFFFFFFFFFFFFFFFFFFFFFF DUP3 PUSH3 0x378 JUMP JUMPDEST PUSH3 0x3C3 DUP7 DUP4 PUSH3 0x378 JUMP JUMPDEST SWAP6 POP DUP1 NOT DUP5 AND SWAP4 POP DUP1 DUP7 AND DUP5 OR SWAP3 POP POP POP SWAP4 SWAP3 POP POP POP JUMP JUMPDEST PUSH1 0x0 DUP2 SWAP1 POP SWAP2 SWAP1 POP JUMP JUMPDEST PUSH1 0x0 PUSH3 0x406 PUSH3 0x400 PUSH3 0x3FA DUP5 PUSH3 0x74 JUMP JUMPDEST PUSH3 0x3DB JUMP JUMPDEST PUSH3 0x74 JUMP JUMPDEST SWAP1 POP SWAP2 SWAP1 POP JUMP JUMPDEST PUSH1 0x0 DUP2 SWAP1 POP SWAP2 SWAP1 POP JUMP JUMPDEST PUSH3 0x422 DUP4 PUSH3 0x3E5 JUMP JUMPDEST PUSH3 0x43A PUSH3 0x431 DUP3 PUSH3 0x40D JUMP JUMPDEST DUP5 DUP5 SLOAD PUSH3 0x385 JUMP JUMPDEST DUP3 SSTORE POP POP POP POP JUMP JUMPDEST PUSH1 0x0 SWAP1 JUMP JUMPDEST PUSH3 0x451 PUSH3 0x442 JUMP JUMPDEST PUSH3 0x45E DUP2 DUP5 DUP5 PUSH3 0x417 JUMP JUMPDEST POP POP POP JUMP JUMPDEST JUMPDEST DUP2 DUP2 LT ISZERO PUSH3 0x486 JUMPI PUSH3 0x47A PUSH1 0x0 DUP3 PUSH3 0x447 JUMP JUMPDEST PUSH1 0x1 DUP2 ADD SWAP1 POP PUSH3 0x464 JUMP JUMPDEST POP POP JUMP JUMPDEST PUSH1 0x1F DUP3 GT ISZERO PUSH3 0x4D5 JUMPI PUSH3 0x49F DUP2 PUSH3 0x353 JUMP JUMPDEST PUSH3 0x4AA DUP5 PUSH3 0x368 JUMP JUMPDEST DUP2 ADD PUSH1 0x20 DUP6 LT ISZERO PUSH3 0x4BA JUMPI DUP2 SWAP1 POP JUMPDEST PUSH3 0x4D2 PUSH3 0x4C9 DUP6 PUSH3 0x368 JUMP JUMPDEST DUP4 ADD DUP3 PUSH3 0x463 JUMP JUMPDEST POP POP JUMPDEST POP POP POP JUMP JUMPDEST PUSH1 0x0 DUP3 DUP3 SHR SWAP1 POP SWAP3 SWAP2 POP POP JUMP JUMPDEST PUSH1 0x0 PUSH3 0x4FA PUSH1 0x0 NOT DUP5 PUSH1 0x8 MUL PUSH3 0x4DA JUMP JUMPDEST NOT DUP1 DUP4 AND SWAP2 POP POP SWAP3 SWAP2 POP POP JUMP JUMPDEST PUSH1 0x0 PUSH3 0x515 DUP4 DUP4 PUSH3 0x4E7 JUMP JUMPDEST SWAP2 POP DUP3 PUSH1 0x2 MUL DUP3 OR SWAP1 POP SWAP3 SWAP2 POP POP JUMP JUMPDEST PUSH3 0x530 DUP3 PUSH3 0x2E4 JUMP JUMPDEST PUSH8 0xFFFFFFFFFFFFFFFF DUP2 GT ISZERO PUSH3 0x54C JUMPI PUSH3 0x54B PUSH3 0xCA JUMP JUMPDEST JUMPDEST PUSH3 0x558 DUP3 SLOAD PUSH3 0x31E JUMP JUMPDEST PUSH3 0x565 DUP3 DUP3 DUP6 PUSH3 0x48A JUMP JUMPDEST PUSH1 0x0 PUSH1 0x20 SWAP1 POP PUSH1 0x1F DUP4 GT PUSH1 0x1 DUP2 EQ PUSH3 0x59D JUMPI PUSH1 0x0 DUP5 ISZERO PUSH3 0x588 JUMPI DUP3 DUP8 ADD MLOAD SWAP1 POP JUMPDEST PUSH3 0x594 DUP6 DUP3 PUSH3 0x507 JUMP JUMPDEST DUP7 SSTORE POP PUSH3 0x604 JUMP JUMPDEST PUSH1 0x1F NOT DUP5 AND PUSH3 0x5AD DUP7 PUSH3 0x353 JUMP JUMPDEST PUSH1 0x0 JUMPDEST DUP3 DUP2 LT ISZERO PUSH3 0x5D7 JUMPI DUP5 DUP10 ADD MLOAD DUP3 SSTORE PUSH1 0x1 DUP3 ADD SWAP2 POP PUSH1 0x20 DUP6 ADD SWAP5 POP PUSH1 0x20 DUP2 ADD SWAP1 POP PUSH3 0x5B0 JUMP JUMPDEST DUP7 DUP4 LT ISZERO PUSH3 0x5F7 JUMPI DUP5 DUP10 ADD MLOAD PUSH3 0x5F3 PUSH1 0x1F DUP10 AND DUP3 PUSH3 0x4E7 JUMP JUMPDEST DUP4 SSTORE POP JUMPDEST PUSH1 0x1 PUSH1 0x2 DUP9 MUL ADD DUP9 SSTORE POP POP POP JUMPDEST POP POP POP POP POP POP JUMP JUMPDEST PUSH2 0x2EA DUP1 PUSH3 0x61C PUSH1 0x0 CODECOPY PUSH1 0x0 RETURN INVALID PUSH1 0x80 PUSH1 0x40 MSTORE CALLVALUE DUP1 ISZERO PUSH2 0x10 JUMPI PUSH1 0x0 DUP1 REVERT JUMPDEST POP PUSH1 0x4 CALLDATASIZE LT PUSH2 0x41 JUMPI PUSH1 0x0 CALLDATALOAD PUSH1 0xE0 SHR DUP1 PUSH4 0xA32D8881 EQ PUSH2 0x46 JUMPI DUP1 PUSH4 0xCD5F65CB EQ PUSH2 0x64 JUMPI DUP1 PUSH4 0xF39668D2 EQ PUSH2 0x82 JUMPI JUMPDEST PUSH1 0x0 DUP1 REVERT JUMPDEST PUSH2 0x4E PUSH2 0xA0 JUMP JUMPDEST PUSH1 0x40 MLOAD PUSH2 0x5B SWAP2 SWAP1 PUSH2 0x1CA JUMP JUMPDEST PUSH1 0x40 MLOAD DUP1 SWAP2 SUB SWAP1 RETURN JUMPDEST PUSH2 0x6C PUSH2 0x12E JUMP JUMPDEST PUSH1 0x40 MLOAD PUSH2 0x79 SWAP2 SWAP1 PUSH2 0x205 JUMP JUMPDEST PUSH1 0x40 MLOAD DUP1 SWAP2 SUB SWAP1 RETURN JUMPDEST PUSH2 0x8A PUSH2 0x134 JUMP JUMPDEST PUSH1 0x40 MLOAD PUSH2 0x97 SWAP2 SWAP1 PUSH2 0x239 JUMP JUMPDEST PUSH1 0x40 MLOAD DUP1 SWAP2 SUB SWAP1 RETURN JUMPDEST PUSH1 0x1 DUP1 SLOAD PUSH2 0xAD SWAP1 PUSH2 0x283 JUMP JUMPDEST DUP1 PUSH1 0x1F ADD PUSH1 0x20 DUP1 SWAP2 DIV MUL PUSH1 0x20 ADD PUSH1 0x40 MLOAD SWAP1 DUP2 ADD PUSH1 0x40 MSTORE DUP1 SWAP3 SWAP2 SWAP1 DUP2 DUP2 MSTORE PUSH1 0x20 ADD DUP3 DUP1 SLOAD PUSH2 0xD9 SWAP1 PUSH2 0x283 JUMP JUMPDEST DUP1 ISZERO PUSH2 0x126 JUMPI DUP1 PUSH1 0x1F LT PUSH2 0xFB JUMPI PUSH2 0x100 DUP1 DUP4 SLOAD DIV MUL DUP4 MSTORE SWAP2 PUSH1 0x20 ADD SWAP2 PUSH2 0x126 JUMP JUMPDEST DUP3 ADD SWAP2 SWAP1 PUSH1 0x0 MSTORE PUSH1 0x20 PUSH1 0x0 KECCAK256 SWAP1 JUMPDEST DUP2 SLOAD DUP2 MSTORE SWAP1 PUSH1 0x1 ADD SWAP1 PUSH1 0x20 ADD DUP1 DUP4 GT PUSH2 0x109 JUMPI DUP3 SWAP1 SUB PUSH1 0x1F AND DUP3 ADD SWAP2 JUMPDEST POP POP POP POP POP DUP2 JUMP JUMPDEST PUSH1 0x0 SLOAD DUP2 JUMP JUMPDEST PUSH1 0x2 SLOAD DUP2 JUMP JUMPDEST PUSH1 0x0 DUP2 MLOAD SWAP1 POP SWAP2 SWAP1 POP JUMP JUMPDEST PUSH1 0x0 DUP3 DUP3 MSTORE PUSH1 0x20 DUP3 ADD SWAP1 POP SWAP3 SWAP2 POP POP JUMP JUMPDEST PUSH1 0x0 JUMPDEST DUP4 DUP2 LT ISZERO PUSH2 0x174 JUMPI DUP1 DUP3 ADD MLOAD DUP2 DUP5 ADD MSTORE PUSH1 0x20 DUP2 ADD SWAP1 POP PUSH2 0x159 JUMP JUMPDEST PUSH1 0x0 DUP5 DUP5 ADD MSTORE POP POP POP POP JUMP JUMPDEST PUSH1 0x0 PUSH1 0x1F NOT PUSH1 0x1F DUP4 ADD AND SWAP1 POP SWAP2 SWAP1 POP JUMP JUMPDEST PUSH1 0x0 PUSH2 0x19C DUP3 PUSH2 0x13A JUMP JUMPDEST PUSH2 0x1A6 DUP2 DUP6 PUSH2 0x145 JUMP JUMPDEST SWAP4 POP PUSH2 0x1B6 DUP2 DUP6 PUSH1 0x20 DUP7 ADD PUSH2 0x156 JUMP JUMPDEST PUSH2 0x1BF DUP2 PUSH2 0x180 JUMP JUMPDEST DUP5 ADD SWAP2 POP POP SWAP3 SWAP2 POP POP JUMP JUMPDEST PUSH1 0x0 PUSH1 0x20 DUP3 ADD SWAP1 POP DUP2 DUP2 SUB PUSH1 0x0 DUP4 ADD MSTORE PUSH2 0x1E4 DUP2 DUP5 PUSH2 0x191 JUMP JUMPDEST SWAP1 POP SWAP3 SWAP2 POP POP JUMP JUMPDEST PUSH1 0x0 DUP2 SWAP1 POP SWAP2 SWAP1 POP JUMP JUMPDEST PUSH2 0x1FF DUP2 PUSH2 0x1EC JUMP JUMPDEST DUP3 MSTORE POP POP JUMP JUMPDEST PUSH1 0x0 PUSH1 0x20 DUP3 ADD SWAP1 POP PUSH2 0x21A PUSH1 0x0 DUP4 ADD DUP5 PUSH2 0x1F6 JUMP JUMPDEST SWAP3 SWAP2 POP POP JUMP JUMPDEST PUSH1 0x0 DUP2 SWAP1 POP SWAP2 SWAP1 POP JUMP JUMPDEST PUSH2 0x233 DUP2 PUSH2 0x220 JUMP JUMPDEST DUP3 MSTORE POP POP JUMP JUMPDEST PUSH1 0x0 PUSH1 0x20 DUP3 ADD SWAP1 POP PUSH2 0x24E PUSH1 0x0 DUP4 ADD DUP5 PUSH2 0x22A JUMP JUMPDEST SWAP3 SWAP2 POP POP JUMP JUMPDEST PUSH32 0x4E487B7100000000000000000000000000000000000000000000000000000000 PUSH1 0x0 MSTORE PUSH1 0x22 PUSH1 0x4 MSTORE PUSH1 0x24 PUSH1 0x0 REVERT JUMPDEST PUSH1 0x0 PUSH1 0x2 DUP3 DIV SWAP1 POP PUSH1 0x1 DUP3 AND DUP1 PUSH2 0x29B JUMPI PUSH1 0x7F DUP3 AND SWAP2 POP JUMPDEST PUSH1 0x20 DUP3 LT DUP2 SUB PUSH2 0x2AE JUMPI PUSH2 0x2AD PUSH2 0x254 JUMP JUMPDEST JUMPDEST POP SWAP2 SWAP1 POP JUMP INVALID LOG2 PUSH5 0x6970667358 0x22 SLT KECCAK256 PREVRANDAO POP SLOAD SWAP7 0xB0 EQ 0xE1 LOG4 0xDB 0xD1 PUSH7 0xF717D7440D3D3A PC CALL PUSH1 0xDF 0xD5 SWAP12 0xA6 SGT CALLVALUE PUSH11 0x5889EBA564736F6C634300 ADDMOD XOR STOP CALLER LOG2 PUSH5 0x6970667358 0x22 SLT KECCAK256 PUSH31 0xBA2EBC95EF41D43C951DAF982489237C99A78FF33675D1E24E401EA2ECF9EA PUSH5 0x736F6C6343 STOP ADDMOD XOR STOP CALLER "
        },
        "methodIdentifiers": {
          "check()": "919840ad",
          "deserialize()": "b5cc88f3",
          "deserializeParams()": "47b16d64",
          "hashSha256(uint256)": "d1218931",
          "isContract(address)": "16279055",
          "modelResult()": "e2159c6d",
          "ret(bytes)": "d5d4984e",
          "serialize()": "bc8018b1",
          "serializeParams()": "0cef0a5b",
          "value()": "3fa4f245"
        }
      }
    }
  }
}