{
  "contracts/Versatile.sol": {
    "Versatile": {
      "abi": [
        {
          "inputs": [],
          "name": "deserialize",
          "outputs": [
            {
              "internalType": "contract VersatileModel",
              "name": "",
              "type": "address"
            }
          ],
          "stateMutability": "view",
          "type": "function"
        },
        {
          "inputs": [
            {
              "internalType": "uint256",
              "name": "numberToHash",
              "type": "uint256"
            }
          ],
          "name": "hashSha256",
          "outputs": [
            {
              "internalType": "bytes32",
              "name": "h",
              "type": "bytes32"
            }
          ],
          "stateMutability": "view",
          "type": "function"
        },
        {
          "inputs": [
            {
              "internalType": "address",
              "name": "_addr",
              "type": "address"
            }
          ],
          "name": "isContract",
          "outputs": [
            {
              "internalType": "bool",
              "name": "",
              "type": "bool"
            }
          ],
          "stateMutability": "view",
          "type": "function"
        },
        {
          "inputs": [
            {
              "internalType": "bytes",
              "name": "input",
              "type": "bytes"
            }
          ],
          "name": "ret",
          "outputs": [
            {
              "internalType": "bool",
              "name": "ok",
              "type": "bool"
            },
            {
              "internalType": "bytes",
              "name": "out",
              "type": "bytes"
            }
          ],
          "stateMutability": "view",
          "type": "function"
        },
        {
          "inputs": [],
          "name": "serialize",
          "outputs": [],
          "stateMutability": "nonpayable",
          "type": "function"
        },
        {
          "inputs": [],
          "name": "value",
          "outputs": [
            {
              "internalType": "bytes",
              "name": "",
              "type": "bytes"
            }
          ],
          "stateMutability": "view",
          "type": "function"
        }
      ],
      "evm": {
        "bytecode": {
          "linkReferences": {},
          "object": "608060405234801561001057600080fd5b506114e5806100206000396000f3fe60806040523480156200001157600080fd5b50600436106200006a5760003560e01c806316279055146200006f5780633fa4f24514620000a5578063b5cc88f314620000c7578063bc8018b114620000e9578063d121893114620000f5578063d5d4984e146200012b575b600080fd5b6200008d600480360381019062000087919062000548565b62000162565b6040516200009c919062000597565b60405180910390f35b620000af6200017b565b604051620000be91906200064e565b60405180910390f35b620000d162000215565b604051620000e09190620006dd565b60405180910390f35b620000f3620002c9565b005b6200011360048036038101906200010d919062000735565b6200037e565b60405162000122919062000782565b60405180910390f35b620001496004803603810190620001439190620008f0565b62000442565b6040516200015992919062000941565b60405180910390f35b600080823b905060008163ffffffff1611915050919050565b6060600080546200018c90620009a4565b80601f0160208091040260200160405190810160405280929190818152602001828054620001ba90620009a4565b80156200020b5780601f10620001df576101008083540402835291602001916200020b565b820191906000526020600020905b815481529060010190602001808311620001ed57829003601f168201915b5050505050905090565b600080600080546200022790620009a4565b80601f01602080910402602001604051908101604052809291908181526020018280546200025590620009a4565b8015620002a65780601f106200027a57610100808354040283529160200191620002a6565b820191906000526020600020905b8154815290600101906020018083116200028857829003601f168201915b5050505050806020019051810190620002c0919062000a1e565b90508091505090565b600060017f6279746573333200000000000000000000000000000000000000000000000000604051620002fc90620004c1565b6200030992919062000af4565b604051809103906000f08015801562000326573d6000803e3d6000fd5b5090506000806200035883604051602001620003439190620006dd565b60405160208183030381529060405262000442565b91509150816200036757600080fd5b806000908162000378919062000cfe565b50505050565b600080600290506000808273ffffffffffffffffffffffffffffffffffffffff1685604051602001620003b2919062000df6565b604051602081830303815290604052604051620003d0919062000e55565b600060405180830381855afa9150503d80600081146200040d576040519150601f19603f3d011682016040523d82523d6000602084013e62000412565b606091505b5091509150816200042257600080fd5b8080602001905181019062000438919062000e9f565b9350505050919050565b60006060600061010090508073ffffffffffffffffffffffffffffffffffffffff168460405162000474919062000e55565b600060405180830381855afa9150503d8060008114620004b1576040519150601f19603f3d011682016040523d82523d6000602084013e620004b6565b606091505b509250925050915091565b6105de8062000ed283390190565b6000604051905090565b600080fd5b600080fd5b600073ffffffffffffffffffffffffffffffffffffffff82169050919050565b60006200051082620004e3565b9050919050565b620005228162000503565b81146200052e57600080fd5b50565b600081359050620005428162000517565b92915050565b600060208284031215620005615762000560620004d9565b5b6000620005718482850162000531565b91505092915050565b60008115159050919050565b62000591816200057a565b82525050565b6000602082019050620005ae600083018462000586565b92915050565b600081519050919050565b600082825260208201905092915050565b60005b83811015620005f0578082015181840152602081019050620005d3565b60008484015250505050565b6000601f19601f8301169050919050565b60006200061a82620005b4565b620006268185620005bf565b935062000638818560208601620005d0565b6200064381620005fc565b840191505092915050565b600060208201905081810360008301526200066a81846200060d565b905092915050565b6000819050919050565b60006200069d620006976200069184620004e3565b62000672565b620004e3565b9050919050565b6000620006b1826200067c565b9050919050565b6000620006c582620006a4565b9050919050565b620006d781620006b8565b82525050565b6000602082019050620006f46000830184620006cc565b92915050565b6000819050919050565b6200070f81620006fa565b81146200071b57600080fd5b50565b6000813590506200072f8162000704565b92915050565b6000602082840312156200074e576200074d620004d9565b5b60006200075e848285016200071e565b91505092915050565b6000819050919050565b6200077c8162000767565b82525050565b600060208201905062000799600083018462000771565b92915050565b600080fd5b600080fd5b7f4e487b7100000000000000000000000000000000000000000000000000000000600052604160045260246000fd5b620007e382620005fc565b810181811067ffffffffffffffff82111715620008055762000804620007a9565b5b80604052505050565b60006200081a620004cf565b9050620008288282620007d8565b919050565b600067ffffffffffffffff8211156200084b576200084a620007a9565b5b6200085682620005fc565b9050602081019050919050565b82818337600083830152505050565b60006200088962000883846200082d565b6200080e565b905082815260208101848484011115620008a857620008a7620007a4565b5b620008b584828562000863565b509392505050565b600082601f830112620008d557620008d46200079f565b5b8135620008e784826020860162000872565b91505092915050565b600060208284031215620009095762000908620004d9565b5b600082013567ffffffffffffffff8111156200092a5762000929620004de565b5b6200093884828501620008bd565b91505092915050565b600060408201905062000958600083018562000586565b81810360208301526200096c81846200060d565b90509392505050565b7f4e487b7100000000000000000000000000000000000000000000000000000000600052602260045260246000fd5b60006002820490506001821680620009bd57607f821691505b602082108103620009d357620009d262000975565b5b50919050565b6000620009e68262000503565b9050919050565b620009f881620009d9565b811462000a0457600080fd5b50565b60008151905062000a1881620009ed565b92915050565b60006020828403121562000a375762000a36620004d9565b5b600062000a478482850162000a07565b91505092915050565b6000819050919050565b600062000a7b62000a7562000a6f8462000a50565b62000672565b620006fa565b9050919050565b62000a8d8162000a5a565b82525050565b600082825260208201905092915050565b7f68656c6c6f000000000000000000000000000000000000000000000000000000600082015250565b600062000adc60058362000a93565b915062000ae98262000aa4565b602082019050919050565b600060608201905062000b0b600083018562000a82565b818103602083015262000b1e8162000acd565b905062000b2f604083018462000771565b9392505050565b60008190508160005260206000209050919050565b60006020601f8301049050919050565b600082821b905092915050565b60006008830262000b9a7fffffffffffffffffffffffffffffffffffffffffffffffffffffffffffffffff8262000b5b565b62000ba6868362000b5b565b95508019841693508086168417925050509392505050565b600062000bdf62000bd962000bd384620006fa565b62000672565b620006fa565b9050919050565b6000819050919050565b62000bfb8362000bbe565b62000c1362000c0a8262000be6565b84845462000b68565b825550505050565b600090565b62000c2a62000c1b565b62000c3781848462000bf0565b505050565b5b8181101562000c5f5762000c5360008262000c20565b60018101905062000c3d565b5050565b601f82111562000cae5762000c788162000b36565b62000c838462000b4b565b8101602085101562000c93578190505b62000cab62000ca28562000b4b565b83018262000c3c565b50505b505050565b600082821c905092915050565b600062000cd36000198460080262000cb3565b1980831691505092915050565b600062000cee838362000cc0565b9150826002028217905092915050565b62000d0982620005b4565b67ffffffffffffffff81111562000d255762000d24620007a9565b5b62000d318254620009a4565b62000d3e82828562000c63565b600060209050601f83116001811462000d76576000841562000d61578287015190505b62000d6d858262000ce0565b86555062000ddd565b601f19841662000d868662000b36565b60005b8281101562000db05784890151825560018201915060208501945060208101905062000d89565b8683101562000dd0578489015162000dcc601f89168262000cc0565b8355505b6001600288020188555050505b505050505050565b62000df081620006fa565b82525050565b600060208201905062000e0d600083018462000de5565b92915050565b600081905092915050565b600062000e2b82620005b4565b62000e37818562000e13565b935062000e49818560208601620005d0565b80840191505092915050565b600062000e63828462000e1e565b915081905092915050565b62000e798162000767565b811462000e8557600080fd5b50565b60008151905062000e998162000e6e565b92915050565b60006020828403121562000eb85762000eb7620004d9565b5b600062000ec88482850162000e88565b9150509291505056fe608060405234801561001057600080fd5b506040516105de3803806105de83398181016040528101906100329190610239565b82600081905550816001908161004891906104bf565b5080600281905550505050610591565b6000604051905090565b600080fd5b600080fd5b6000819050919050565b61007f8161006c565b811461008a57600080fd5b50565b60008151905061009c81610076565b92915050565b600080fd5b600080fd5b6000601f19601f8301169050919050565b7f4e487b7100000000000000000000000000000000000000000000000000000000600052604160045260246000fd5b6100f5826100ac565b810181811067ffffffffffffffff82111715610114576101136100bd565b5b80604052505050565b6000610127610058565b905061013382826100ec565b919050565b600067ffffffffffffffff821115610153576101526100bd565b5b61015c826100ac565b9050602081019050919050565b60005b8381101561018757808201518184015260208101905061016c565b60008484015250505050565b60006101a66101a184610138565b61011d565b9050828152602081018484840111156101c2576101c16100a7565b5b6101cd848285610169565b509392505050565b600082601f8301126101ea576101e96100a2565b5b81516101fa848260208601610193565b91505092915050565b6000819050919050565b61021681610203565b811461022157600080fd5b50565b6000815190506102338161020d565b92915050565b60008060006060848603121561025257610251610062565b5b60006102608682870161008d565b935050602084015167ffffffffffffffff81111561028157610280610067565b5b61028d868287016101d5565b925050604061029e86828701610224565b9150509250925092565b600081519050919050565b7f4e487b7100000000000000000000000000000000000000000000000000000000600052602260045260246000fd5b600060028204905060018216806102fa57607f821691505b60208210810361030d5761030c6102b3565b5b50919050565b60008190508160005260206000209050919050565b60006020601f8301049050919050565b600082821b905092915050565b6000600883026103757fffffffffffffffffffffffffffffffffffffffffffffffffffffffffffffffff82610338565b61037f8683610338565b95508019841693508086168417925050509392505050565b6000819050919050565b60006103bc6103b76103b28461006c565b610397565b61006c565b9050919050565b6000819050919050565b6103d6836103a1565b6103ea6103e2826103c3565b848454610345565b825550505050565b600090565b6103ff6103f2565b61040a8184846103cd565b505050565b5b8181101561042e576104236000826103f7565b600181019050610410565b5050565b601f8211156104735761044481610313565b61044d84610328565b8101602085101561045c578190505b61047061046885610328565b83018261040f565b50505b505050565b600082821c905092915050565b600061049660001984600802610478565b1980831691505092915050565b60006104af8383610485565b9150826002028217905092915050565b6104c8826102a8565b67ffffffffffffffff8111156104e1576104e06100bd565b5b6104eb82546102e2565b6104f6828285610432565b600060209050601f8311600181146105295760008415610517578287015190505b61052185826104a3565b865550610589565b601f19841661053786610313565b60005b8281101561055f5784890151825560018201915060208501945060208101905061053a565b8683101561057c5784890151610578601f891682610485565b8355505b6001600288020188555050505b505050505050565b603f8061059f6000396000f3fe6080604052600080fdfea26469706673582212202dba8a1bdfc10ed87d1c2c29df6426c3fd2a402233ba1a868b12ca3198027ead64736f6c63430008180033a2646970667358221220550b8d93e7106029072c791312290ed447bdbff3d9c651e135b67a40e86a4a3764736f6c63430008180033",
          "opcodes": "PUSH1 0x80 PUSH1 0x40 MSTORE CALLVALUE DUP1 ISZERO PUSH2 0x10 JUMPI PUSH1 0x0 DUP1 REVERT JUMPDEST POP PUSH2 0x14E5 DUP1 PUSH2 0x20 PUSH1 0x0 CODECOPY PUSH1 0x0 RETURN INVALID PUSH1 0x80 PUSH1 0x40 MSTORE CALLVALUE DUP1 ISZERO PUSH3 0x11 JUMPI PUSH1 0x0 DUP1 REVERT JUMPDEST POP PUSH1 0x4 CALLDATASIZE LT PUSH3 0x6A JUMPI PUSH1 0x0 CALLDATALOAD PUSH1 0xE0 SHR DUP1 PUSH4 0x16279055 EQ PUSH3 0x6F JUMPI DUP1 PUSH4 0x3FA4F245 EQ PUSH3 0xA5 JUMPI DUP1 PUSH4 0xB5CC88F3 EQ PUSH3 0xC7 JUMPI DUP1 PUSH4 0xBC8018B1 EQ PUSH3 0xE9 JUMPI DUP1 PUSH4 0xD1218931 EQ PUSH3 0xF5 JUMPI DUP1 PUSH4 0xD5D4984E EQ PUSH3 0x12B JUMPI JUMPDEST PUSH1 0x0 DUP1 REVERT JUMPDEST PUSH3 0x8D PUSH1 0x4 DUP1 CALLDATASIZE SUB DUP2 ADD SWAP1 PUSH3 0x87 SWAP2 SWAP1 PUSH3 0x548 JUMP JUMPDEST PUSH3 0x162 JUMP JUMPDEST PUSH1 0x40 MLOAD PUSH3 0x9C SWAP2 SWAP1 PUSH3 0x597 JUMP JUMPDEST PUSH1 0x40 MLOAD DUP1 SWAP2 SUB SWAP1 RETURN JUMPDEST PUSH3 0xAF PUSH3 0x17B JUMP JUMPDEST PUSH1 0x40 MLOAD PUSH3 0xBE SWAP2 SWAP1 PUSH3 0x64E JUMP JUMPDEST PUSH1 0x40 MLOAD DUP1 SWAP2 SUB SWAP1 RETURN JUMPDEST PUSH3 0xD1 PUSH3 0x215 JUMP JUMPDEST PUSH1 0x40 MLOAD PUSH3 0xE0 SWAP2 SWAP1 PUSH3 0x6DD JUMP JUMPDEST PUSH1 0x40 MLOAD DUP1 SWAP2 SUB SWAP1 RETURN JUMPDEST PUSH3 0xF3 PUSH3 0x2C9 JUMP JUMPDEST STOP JUMPDEST PUSH3 0x113 PUSH1 0x4 DUP1 CALLDATASIZE SUB DUP2 ADD SWAP1 PUSH3 0x10D SWAP2 SWAP1 PUSH3 0x735 JUMP JUMPDEST PUSH3 0x37E JUMP JUMPDEST PUSH1 0x40 MLOAD PUSH3 0x122 SWAP2 SWAP1 PUSH3 0x782 JUMP JUMPDEST PUSH1 0x40 MLOAD DUP1 SWAP2 SUB SWAP1 RETURN JUMPDEST PUSH3 0x149 PUSH1 0x4 DUP1 CALLDATASIZE SUB DUP2 ADD SWAP1 PUSH3 0x143 SWAP2 SWAP1 PUSH3 0x8F0 JUMP JUMPDEST PUSH3 0x442 JUMP JUMPDEST PUSH1 0x40 MLOAD PUSH3 0x159 SWAP3 SWAP2 SWAP1 PUSH3 0x941 JUMP JUMPDEST PUSH1 0x40 MLOAD DUP1 SWAP2 SUB SWAP1 RETURN JUMPDEST PUSH1 0x0 DUP1 DUP3 EXTCODESIZE SWAP1 POP PUSH1 0x0 DUP2 PUSH4 0xFFFFFFFF AND GT SWAP2 POP POP SWAP2 SWAP1 POP JUMP JUMPDEST PUSH1 0x60 PUSH1 0x0 DUP1 SLOAD PUSH3 0x18C SWAP1 PUSH3 0x9A4 JUMP JUMPDEST DUP1 PUSH1 0x1F ADD PUSH1 0x20 DUP1 SWAP2 DIV MUL PUSH1 0x20 ADD PUSH1 0x40 MLOAD SWAP1 DUP2 ADD PUSH1 0x40 MSTORE DUP1 SWAP3 SWAP2 SWAP1 DUP2 DUP2 MSTORE PUSH1 0x20 ADD DUP3 DUP1 SLOAD PUSH3 0x1BA SWAP1 PUSH3 0x9A4 JUMP JUMPDEST DUP1 ISZERO PUSH3 0x20B JUMPI DUP1 PUSH1 0x1F LT PUSH3 0x1DF JUMPI PUSH2 0x100 DUP1 DUP4 SLOAD DIV MUL DUP4 MSTORE SWAP2 PUSH1 0x20 ADD SWAP2 PUSH3 0x20B JUMP JUMPDEST DUP3 ADD SWAP2 SWAP1 PUSH1 0x0 MSTORE PUSH1 0x20 PUSH1 0x0 KECCAK256 SWAP1 JUMPDEST DUP2 SLOAD DUP2 MSTORE SWAP1 PUSH1 0x1 ADD SWAP1 PUSH1 0x20 ADD DUP1 DUP4 GT PUSH3 0x1ED JUMPI DUP3 SWAP1 SUB PUSH1 0x1F AND DUP3 ADD SWAP2 JUMPDEST POP POP POP POP POP SWAP1 POP SWAP1 JUMP JUMPDEST PUSH1 0x0 DUP1 PUSH1 0x0 DUP1 SLOAD PUSH3 0x227 SWAP1 PUSH3 0x9A4 JUMP JUMPDEST DUP1 PUSH1 0x1F ADD PUSH1 0x20 DUP1 SWAP2 DIV MUL PUSH1 0x20 ADD PUSH1 0x40 MLOAD SWAP1 DUP2 ADD PUSH1 0x40 MSTORE DUP1 SWAP3 SWAP2 SWAP1 DUP2 DUP2 MSTORE PUSH1 0x20 ADD DUP3 DUP1 SLOAD PUSH3 0x255 SWAP1 PUSH3 0x9A4 JUMP JUMPDEST DUP1 ISZERO PUSH3 0x2A6 JUMPI DUP1 PUSH1 0x1F LT PUSH3 0x27A JUMPI PUSH2 0x100 DUP1 DUP4 SLOAD DIV MUL DUP4 MSTORE SWAP2 PUSH1 0x20 ADD SWAP2 PUSH3 0x2A6 JUMP JUMPDEST DUP3 ADD SWAP2 SWAP1 PUSH1 0x0 MSTORE PUSH1 0x20 PUSH1 0x0 KECCAK256 SWAP1 JUMPDEST DUP2 SLOAD DUP2 MSTORE SWAP1 PUSH1 0x1 ADD SWAP1 PUSH1 0x20 ADD DUP1 DUP4 GT PUSH3 0x288 JUMPI DUP3 SWAP1 SUB PUSH1 0x1F AND DUP3 ADD SWAP2 JUMPDEST POP POP POP POP POP DUP1 PUSH1 0x20 ADD SWAP1 MLOAD DUP2 ADD SWAP1 PUSH3 0x2C0 SWAP2 SWAP1 PUSH3 0xA1E JUMP JUMPDEST SWAP1 POP DUP1 SWAP2 POP POP SWAP1 JUMP JUMPDEST PUSH1 0x0 PUSH1 0x1 PUSH32 0x6279746573333200000000000000000000000000000000000000000000000000 PUSH1 0x40 MLOAD PUSH3 0x2FC SWAP1 PUSH3 0x4C1 JUMP JUMPDEST PUSH3 0x309 SWAP3 SWAP2 SWAP1 PUSH3 0xAF4 JUMP JUMPDEST PUSH1 0x40 MLOAD DUP1 SWAP2 SUB SWAP1 PUSH1 0x0 CREATE DUP1 ISZERO DUP1 ISZERO PUSH3 0x326 JUMPI RETURNDATASIZE PUSH1 0x0 DUP1 RETURNDATACOPY RETURNDATASIZE PUSH1 0x0 REVERT JUMPDEST POP SWAP1 POP PUSH1 0x0 DUP1 PUSH3 0x358 DUP4 PUSH1 0x40 MLOAD PUSH1 0x20 ADD PUSH3 0x343 SWAP2 SWAP1 PUSH3 0x6DD JUMP JUMPDEST PUSH1 0x40 MLOAD PUSH1 0x20 DUP2 DUP4 SUB SUB DUP2 MSTORE SWAP1 PUSH1 0x40 MSTORE PUSH3 0x442 JUMP JUMPDEST SWAP2 POP SWAP2 POP DUP2 PUSH3 0x367 JUMPI PUSH1 0x0 DUP1 REVERT JUMPDEST DUP1 PUSH1 0x0 SWAP1 DUP2 PUSH3 0x378 SWAP2 SWAP1 PUSH3 0xCFE JUMP JUMPDEST POP POP POP POP JUMP JUMPDEST PUSH1 0x0 DUP1 PUSH1 0x2 SWAP1 POP PUSH1 0x0 DUP1 DUP3 PUSH20 0xFFFFFFFFFFFFFFFFFFFFFFFFFFFFFFFFFFFFFFFF AND DUP6 PUSH1 0x40 MLOAD PUSH1 0x20 ADD PUSH3 0x3B2 SWAP2 SWAP1 PUSH3 0xDF6 JUMP JUMPDEST PUSH1 0x40 MLOAD PUSH1 0x20 DUP2 DUP4 SUB SUB DUP2 MSTORE SWAP1 PUSH1 0x40 MSTORE PUSH1 0x40 MLOAD PUSH3 0x3D0 SWAP2 SWAP1 PUSH3 0xE55 JUMP JUMPDEST PUSH1 0x0 PUSH1 0x40 MLOAD DUP1 DUP4 SUB DUP2 DUP6 GAS STATICCALL SWAP2 POP POP RETURNDATASIZE DUP1 PUSH1 0x0 DUP2 EQ PUSH3 0x40D JUMPI PUSH1 0x40 MLOAD SWAP2 POP PUSH1 0x1F NOT PUSH1 0x3F RETURNDATASIZE ADD AND DUP3 ADD PUSH1 0x40 MSTORE RETURNDATASIZE DUP3 MSTORE RETURNDATASIZE PUSH1 0x0 PUSH1 0x20 DUP5 ADD RETURNDATACOPY PUSH3 0x412 JUMP JUMPDEST PUSH1 0x60 SWAP2 POP JUMPDEST POP SWAP2 POP SWAP2 POP DUP2 PUSH3 0x422 JUMPI PUSH1 0x0 DUP1 REVERT JUMPDEST DUP1 DUP1 PUSH1 0x20 ADD SWAP1 MLOAD DUP2 ADD SWAP1 PUSH3 0x438 SWAP2 SWAP1 PUSH3 0xE9F JUMP JUMPDEST SWAP4 POP POP POP POP SWAP2 SWAP1 POP JUMP JUMPDEST PUSH1 0x0 PUSH1 0x60 PUSH1 0x0 PUSH2 0x100 SWAP1 POP DUP1 PUSH20 0xFFFFFFFFFFFFFFFFFFFFFFFFFFFFFFFFFFFFFFFF AND DUP5 PUSH1 0x40 MLOAD PUSH3 0x474 SWAP2 SWAP1 PUSH3 0xE55 JUMP JUMPDEST PUSH1 0x0 PUSH1 0x40 MLOAD DUP1 DUP4 SUB DUP2 DUP6 GAS STATICCALL SWAP2 POP POP RETURNDATASIZE DUP1 PUSH1 0x0 DUP2 EQ PUSH3 0x4B1 JUMPI PUSH1 0x40 MLOAD SWAP2 POP PUSH1 0x1F NOT PUSH1 0x3F RETURNDATASIZE ADD AND DUP3 ADD PUSH1 0x40 MSTORE RETURNDATASIZE DUP3 MSTORE RETURNDATASIZE PUSH1 0x0 PUSH1 0x20 DUP5 ADD RETURNDATACOPY PUSH3 0x4B6 JUMP JUMPDEST PUSH1 0x60 SWAP2 POP JUMPDEST POP SWAP3 POP SWAP3 POP POP SWAP2 POP SWAP2 JUMP JUMPDEST PUSH2 0x5DE DUP1 PUSH3 0xED2 DUP4 CODECOPY ADD SWAP1 JUMP JUMPDEST PUSH1 0x0 PUSH1 0x40 MLOAD SWAP1 POP SWAP1 JUMP JUMPDEST PUSH1 0x0 DUP1 REVERT JUMPDEST PUSH1 0x0 DUP1 REVERT JUMPDEST PUSH1 0x0 PUSH20 0xFFFFFFFFFFFFFFFFFFFFFFFFFFFFFFFFFFFFFFFF DUP3 AND SWAP1 POP SWAP2 SWAP1 POP JUMP JUMPDEST PUSH1 0x0 PUSH3 0x510 DUP3 PUSH3 0x4E3 JUMP JUMPDEST SWAP1 POP SWAP2 SWAP1 POP JUMP JUMPDEST PUSH3 0x522 DUP2 PUSH3 0x503 JUMP JUMPDEST DUP2 EQ PUSH3 0x52E JUMPI PUSH1 0x0 DUP1 REVERT JUMPDEST POP JUMP JUMPDEST PUSH1 0x0 DUP2 CALLDATALOAD SWAP1 POP PUSH3 0x542 DUP2 PUSH3 0x517 JUMP JUMPDEST SWAP3 SWAP2 POP POP JUMP JUMPDEST PUSH1 0x0 PUSH1 0x20 DUP3 DUP5 SUB SLT ISZERO PUSH3 0x561 JUMPI PUSH3 0x560 PUSH3 0x4D9 JUMP JUMPDEST JUMPDEST PUSH1 0x0 PUSH3 0x571 DUP5 DUP3 DUP6 ADD PUSH3 0x531 JUMP JUMPDEST SWAP2 POP POP SWAP3 SWAP2 POP POP JUMP JUMPDEST PUSH1 0x0 DUP2 ISZERO ISZERO SWAP1 POP SWAP2 SWAP1 POP JUMP JUMPDEST PUSH3 0x591 DUP2 PUSH3 0x57A JUMP JUMPDEST DUP3 MSTORE POP POP JUMP JUMPDEST PUSH1 0x0 PUSH1 0x20 DUP3 ADD SWAP1 POP PUSH3 0x5AE PUSH1 0x0 DUP4 ADD DUP5 PUSH3 0x586 JUMP JUMPDEST SWAP3 SWAP2 POP POP JUMP JUMPDEST PUSH1 0x0 DUP2 MLOAD SWAP1 POP SWAP2 SWAP1 POP JUMP JUMPDEST PUSH1 0x0 DUP3 DUP3 MSTORE PUSH1 0x20 DUP3 ADD SWAP1 POP SWAP3 SWAP2 POP POP JUMP JUMPDEST PUSH1 0x0 JUMPDEST DUP4 DUP2 LT ISZERO PUSH3 0x5F0 JUMPI DUP1 DUP3 ADD MLOAD DUP2 DUP5 ADD MSTORE PUSH1 0x20 DUP2 ADD SWAP1 POP PUSH3 0x5D3 JUMP JUMPDEST PUSH1 0x0 DUP5 DUP5 ADD MSTORE POP POP POP POP JUMP JUMPDEST PUSH1 0x0 PUSH1 0x1F NOT PUSH1 0x1F DUP4 ADD AND SWAP1 POP SWAP2 SWAP1 POP JUMP JUMPDEST PUSH1 0x0 PUSH3 0x61A DUP3 PUSH3 0x5B4 JUMP JUMPDEST PUSH3 0x626 DUP2 DUP6 PUSH3 0x5BF JUMP JUMPDEST SWAP4 POP PUSH3 0x638 DUP2 DUP6 PUSH1 0x20 DUP7 ADD PUSH3 0x5D0 JUMP JUMPDEST PUSH3 0x643 DUP2 PUSH3 0x5FC JUMP JUMPDEST DUP5 ADD SWAP2 POP POP SWAP3 SWAP2 POP POP JUMP JUMPDEST PUSH1 0x0 PUSH1 0x20 DUP3 ADD SWAP1 POP DUP2 DUP2 SUB PUSH1 0x0 DUP4 ADD MSTORE PUSH3 0x66A DUP2 DUP5 PUSH3 0x60D JUMP JUMPDEST SWAP1 POP SWAP3 SWAP2 POP POP JUMP JUMPDEST PUSH1 0x0 DUP2 SWAP1 POP SWAP2 SWAP1 POP JUMP JUMPDEST PUSH1 0x0 PUSH3 0x69D PUSH3 0x697 PUSH3 0x691 DUP5 PUSH3 0x4E3 JUMP JUMPDEST PUSH3 0x672 JUMP JUMPDEST PUSH3 0x4E3 JUMP JUMPDEST SWAP1 POP SWAP2 SWAP1 POP JUMP JUMPDEST PUSH1 0x0 PUSH3 0x6B1 DUP3 PUSH3 0x67C JUMP JUMPDEST SWAP1 POP SWAP2 SWAP1 POP JUMP JUMPDEST PUSH1 0x0 PUSH3 0x6C5 DUP3 PUSH3 0x6A4 JUMP JUMPDEST SWAP1 POP SWAP2 SWAP1 POP JUMP JUMPDEST PUSH3 0x6D7 DUP2 PUSH3 0x6B8 JUMP JUMPDEST DUP3 MSTORE POP POP JUMP JUMPDEST PUSH1 0x0 PUSH1 0x20 DUP3 ADD SWAP1 POP PUSH3 0x6F4 PUSH1 0x0 DUP4 ADD DUP5 PUSH3 0x6CC JUMP JUMPDEST SWAP3 SWAP2 POP POP JUMP JUMPDEST PUSH1 0x0 DUP2 SWAP1 POP SWAP2 SWAP1 POP JUMP JUMPDEST PUSH3 0x70F DUP2 PUSH3 0x6FA JUMP JUMPDEST DUP2 EQ PUSH3 0x71B JUMPI PUSH1 0x0 DUP1 REVERT JUMPDEST POP JUMP JUMPDEST PUSH1 0x0 DUP2 CALLDATALOAD SWAP1 POP PUSH3 0x72F DUP2 PUSH3 0x704 JUMP JUMPDEST SWAP3 SWAP2 POP POP JUMP JUMPDEST PUSH1 0x0 PUSH1 0x20 DUP3 DUP5 SUB SLT ISZERO PUSH3 0x74E JUMPI PUSH3 0x74D PUSH3 0x4D9 JUMP JUMPDEST JUMPDEST PUSH1 0x0 PUSH3 0x75E DUP5 DUP3 DUP6 ADD PUSH3 0x71E JUMP JUMPDEST SWAP2 POP POP SWAP3 SWAP2 POP POP JUMP JUMPDEST PUSH1 0x0 DUP2 SWAP1 POP SWAP2 SWAP1 POP JUMP JUMPDEST PUSH3 0x77C DUP2 PUSH3 0x767 JUMP JUMPDEST DUP3 MSTORE POP POP JUMP JUMPDEST PUSH1 0x0 PUSH1 0x20 DUP3 ADD SWAP1 POP PUSH3 0x799 PUSH1 0x0 DUP4 ADD DUP5 PUSH3 0x771 JUMP JUMPDEST SWAP3 SWAP2 POP POP JUMP JUMPDEST PUSH1 0x0 DUP1 REVERT JUMPDEST PUSH1 0x0 DUP1 REVERT JUMPDEST PUSH32 0x4E487B7100000000000000000000000000000000000000000000000000000000 PUSH1 0x0 MSTORE PUSH1 0x41 PUSH1 0x4 MSTORE PUSH1 0x24 PUSH1 0x0 REVERT JUMPDEST PUSH3 0x7E3 DUP3 PUSH3 0x5FC JUMP JUMPDEST DUP2 ADD DUP2 DUP2 LT PUSH8 0xFFFFFFFFFFFFFFFF DUP3 GT OR ISZERO PUSH3 0x805 JUMPI PUSH3 0x804 PUSH3 0x7A9 JUMP JUMPDEST JUMPDEST DUP1 PUSH1 0x40 MSTORE POP POP POP JUMP JUMPDEST PUSH1 0x0 PUSH3 0x81A PUSH3 0x4CF JUMP JUMPDEST SWAP1 POP PUSH3 0x828 DUP3 DUP3 PUSH3 0x7D8 JUMP JUMPDEST SWAP2 SWAP1 POP JUMP JUMPDEST PUSH1 0x0 PUSH8 0xFFFFFFFFFFFFFFFF DUP3 GT ISZERO PUSH3 0x84B JUMPI PUSH3 0x84A PUSH3 0x7A9 JUMP JUMPDEST JUMPDEST PUSH3 0x856 DUP3 PUSH3 0x5FC JUMP JUMPDEST SWAP1 POP PUSH1 0x20 DUP2 ADD SWAP1 POP SWAP2 SWAP1 POP JUMP JUMPDEST DUP3 DUP2 DUP4 CALLDATACOPY PUSH1 0x0 DUP4 DUP4 ADD MSTORE POP POP POP JUMP JUMPDEST PUSH1 0x0 PUSH3 0x889 PUSH3 0x883 DUP5 PUSH3 0x82D JUMP JUMPDEST PUSH3 0x80E JUMP JUMPDEST SWAP1 POP DUP3 DUP2 MSTORE PUSH1 0x20 DUP2 ADD DUP5 DUP5 DUP5 ADD GT ISZERO PUSH3 0x8A8 JUMPI PUSH3 0x8A7 PUSH3 0x7A4 JUMP JUMPDEST JUMPDEST PUSH3 0x8B5 DUP5 DUP3 DUP6 PUSH3 0x863 JUMP JUMPDEST POP SWAP4 SWAP3 POP POP POP JUMP JUMPDEST PUSH1 0x0 DUP3 PUSH1 0x1F DUP4 ADD SLT PUSH3 0x8D5 JUMPI PUSH3 0x8D4 PUSH3 0x79F JUMP JUMPDEST JUMPDEST DUP2 CALLDATALOAD PUSH3 0x8E7 DUP5 DUP3 PUSH1 0x20 DUP7 ADD PUSH3 0x872 JUMP JUMPDEST SWAP2 POP POP SWAP3 SWAP2 POP POP JUMP JUMPDEST PUSH1 0x0 PUSH1 0x20 DUP3 DUP5 SUB SLT ISZERO PUSH3 0x909 JUMPI PUSH3 0x908 PUSH3 0x4D9 JUMP JUMPDEST JUMPDEST PUSH1 0x0 DUP3 ADD CALLDATALOAD PUSH8 0xFFFFFFFFFFFFFFFF DUP2 GT ISZERO PUSH3 0x92A JUMPI PUSH3 0x929 PUSH3 0x4DE JUMP JUMPDEST JUMPDEST PUSH3 0x938 DUP5 DUP3 DUP6 ADD PUSH3 0x8BD JUMP JUMPDEST SWAP2 POP POP SWAP3 SWAP2 POP POP JUMP JUMPDEST PUSH1 0x0 PUSH1 0x40 DUP3 ADD SWAP1 POP PUSH3 0x958 PUSH1 0x0 DUP4 ADD DUP6 PUSH3 0x586 JUMP JUMPDEST DUP2 DUP2 SUB PUSH1 0x20 DUP4 ADD MSTORE PUSH3 0x96C DUP2 DUP5 PUSH3 0x60D JUMP JUMPDEST SWAP1 POP SWAP4 SWAP3 POP POP POP JUMP JUMPDEST PUSH32 0x4E487B7100000000000000000000000000000000000000000000000000000000 PUSH1 0x0 MSTORE PUSH1 0x22 PUSH1 0x4 MSTORE PUSH1 0x24 PUSH1 0x0 REVERT JUMPDEST PUSH1 0x0 PUSH1 0x2 DUP3 DIV SWAP1 POP PUSH1 0x1 DUP3 AND DUP1 PUSH3 0x9BD JUMPI PUSH1 0x7F DUP3 AND SWAP2 POP JUMPDEST PUSH1 0x20 DUP3 LT DUP2 SUB PUSH3 0x9D3 JUMPI PUSH3 0x9D2 PUSH3 0x975 JUMP JUMPDEST JUMPDEST POP SWAP2 SWAP1 POP JUMP JUMPDEST PUSH1 0x0 PUSH3 0x9E6 DUP3 PUSH3 0x503 JUMP JUMPDEST SWAP1 POP SWAP2 SWAP1 POP JUMP JUMPDEST PUSH3 0x9F8 DUP2 PUSH3 0x9D9 JUMP JUMPDEST DUP2 EQ PUSH3 0xA04 JUMPI PUSH1 0x0 DUP1 REVERT JUMPDEST POP JUMP JUMPDEST PUSH1 0x0 DUP2 MLOAD SWAP1 POP PUSH3 0xA18 DUP2 PUSH3 0x9ED JUMP JUMPDEST SWAP3 SWAP2 POP POP JUMP JUMPDEST PUSH1 0x0 PUSH1 0x20 DUP3 DUP5 SUB SLT ISZERO PUSH3 0xA37 JUMPI PUSH3 0xA36 PUSH3 0x4D9 JUMP JUMPDEST JUMPDEST PUSH1 0x0 PUSH3 0xA47 DUP5 DUP3 DUP6 ADD PUSH3 0xA07 JUMP JUMPDEST SWAP2 POP POP SWAP3 SWAP2 POP POP JUMP JUMPDEST PUSH1 0x0 DUP2 SWAP1 POP SWAP2 SWAP1 POP JUMP JUMPDEST PUSH1 0x0 PUSH3 0xA7B PUSH3 0xA75 PUSH3 0xA6F DUP5 PUSH3 0xA50 JUMP JUMPDEST PUSH3 0x672 JUMP JUMPDEST PUSH3 0x6FA JUMP JUMPDEST SWAP1 POP SWAP2 SWAP1 POP JUMP JUMPDEST PUSH3 0xA8D DUP2 PUSH3 0xA5A JUMP JUMPDEST DUP3 MSTORE POP POP JUMP JUMPDEST PUSH1 0x0 DUP3 DUP3 MSTORE PUSH1 0x20 DUP3 ADD SWAP1 POP SWAP3 SWAP2 POP POP JUMP JUMPDEST PUSH32 0x68656C6C6F000000000000000000000000000000000000000000000000000000 PUSH1 0x0 DUP3 ADD MSTORE POP JUMP JUMPDEST PUSH1 0x0 PUSH3 0xADC PUSH1 0x5 DUP4 PUSH3 0xA93 JUMP JUMPDEST SWAP2 POP PUSH3 0xAE9 DUP3 PUSH3 0xAA4 JUMP JUMPDEST PUSH1 0x20 DUP3 ADD SWAP1 POP SWAP2 SWAP1 POP JUMP JUMPDEST PUSH1 0x0 PUSH1 0x60 DUP3 ADD SWAP1 POP PUSH3 0xB0B PUSH1 0x0 DUP4 ADD DUP6 PUSH3 0xA82 JUMP JUMPDEST DUP2 DUP2 SUB PUSH1 0x20 DUP4 ADD MSTORE PUSH3 0xB1E DUP2 PUSH3 0xACD JUMP JUMPDEST SWAP1 POP PUSH3 0xB2F PUSH1 0x40 DUP4 ADD DUP5 PUSH3 0x771 JUMP JUMPDEST SWAP4 SWAP3 POP POP POP JUMP JUMPDEST PUSH1 0x0 DUP2 SWAP1 POP DUP2 PUSH1 0x0 MSTORE PUSH1 0x20 PUSH1 0x0 KECCAK256 SWAP1 POP SWAP2 SWAP1 POP JUMP JUMPDEST PUSH1 0x0 PUSH1 0x20 PUSH1 0x1F DUP4 ADD DIV SWAP1 POP SWAP2 SWAP1 POP JUMP JUMPDEST PUSH1 0x0 DUP3 DUP3 SHL SWAP1 POP SWAP3 SWAP2 POP POP JUMP JUMPDEST PUSH1 0x0 PUSH1 0x8 DUP4 MUL PUSH3 0xB9A PUSH32 0xFFFFFFFFFFFFFFFFFFFFFFFFFFFFFFFFFFFFFFFFFFFFFFFFFFFFFFFFFFFFFFFF DUP3 PUSH3 0xB5B JUMP JUMPDEST PUSH3 0xBA6 DUP7 DUP4 PUSH3 0xB5B JUMP JUMPDEST SWAP6 POP DUP1 NOT DUP5 AND SWAP4 POP DUP1 DUP7 AND DUP5 OR SWAP3 POP POP POP SWAP4 SWAP3 POP POP POP JUMP JUMPDEST PUSH1 0x0 PUSH3 0xBDF PUSH3 0xBD9 PUSH3 0xBD3 DUP5 PUSH3 0x6FA JUMP JUMPDEST PUSH3 0x672 JUMP JUMPDEST PUSH3 0x6FA JUMP JUMPDEST SWAP1 POP SWAP2 SWAP1 POP JUMP JUMPDEST PUSH1 0x0 DUP2 SWAP1 POP SWAP2 SWAP1 POP JUMP JUMPDEST PUSH3 0xBFB DUP4 PUSH3 0xBBE JUMP JUMPDEST PUSH3 0xC13 PUSH3 0xC0A DUP3 PUSH3 0xBE6 JUMP JUMPDEST DUP5 DUP5 SLOAD PUSH3 0xB68 JUMP JUMPDEST DUP3 SSTORE POP POP POP POP JUMP JUMPDEST PUSH1 0x0 SWAP1 JUMP JUMPDEST PUSH3 0xC2A PUSH3 0xC1B JUMP JUMPDEST PUSH3 0xC37 DUP2 DUP5 DUP5 PUSH3 0xBF0 JUMP JUMPDEST POP POP POP JUMP JUMPDEST JUMPDEST DUP2 DUP2 LT ISZERO PUSH3 0xC5F JUMPI PUSH3 0xC53 PUSH1 0x0 DUP3 PUSH3 0xC20 JUMP JUMPDEST PUSH1 0x1 DUP2 ADD SWAP1 POP PUSH3 0xC3D JUMP JUMPDEST POP POP JUMP JUMPDEST PUSH1 0x1F DUP3 GT ISZERO PUSH3 0xCAE JUMPI PUSH3 0xC78 DUP2 PUSH3 0xB36 JUMP JUMPDEST PUSH3 0xC83 DUP5 PUSH3 0xB4B JUMP JUMPDEST DUP2 ADD PUSH1 0x20 DUP6 LT ISZERO PUSH3 0xC93 JUMPI DUP2 SWAP1 POP JUMPDEST PUSH3 0xCAB PUSH3 0xCA2 DUP6 PUSH3 0xB4B JUMP JUMPDEST DUP4 ADD DUP3 PUSH3 0xC3C JUMP JUMPDEST POP POP JUMPDEST POP POP POP JUMP JUMPDEST PUSH1 0x0 DUP3 DUP3 SHR SWAP1 POP SWAP3 SWAP2 POP POP JUMP JUMPDEST PUSH1 0x0 PUSH3 0xCD3 PUSH1 0x0 NOT DUP5 PUSH1 0x8 MUL PUSH3 0xCB3 JUMP JUMPDEST NOT DUP1 DUP4 AND SWAP2 POP POP SWAP3 SWAP2 POP POP JUMP JUMPDEST PUSH1 0x0 PUSH3 0xCEE DUP4 DUP4 PUSH3 0xCC0 JUMP JUMPDEST SWAP2 POP DUP3 PUSH1 0x2 MUL DUP3 OR SWAP1 POP SWAP3 SWAP2 POP POP JUMP JUMPDEST PUSH3 0xD09 DUP3 PUSH3 0x5B4 JUMP JUMPDEST PUSH8 0xFFFFFFFFFFFFFFFF DUP2 GT ISZERO PUSH3 0xD25 JUMPI PUSH3 0xD24 PUSH3 0x7A9 JUMP JUMPDEST JUMPDEST PUSH3 0xD31 DUP3 SLOAD PUSH3 0x9A4 JUMP JUMPDEST PUSH3 0xD3E DUP3 DUP3 DUP6 PUSH3 0xC63 JUMP JUMPDEST PUSH1 0x0 PUSH1 0x20 SWAP1 POP PUSH1 0x1F DUP4 GT PUSH1 0x1 DUP2 EQ PUSH3 0xD76 JUMPI PUSH1 0x0 DUP5 ISZERO PUSH3 0xD61 JUMPI DUP3 DUP8 ADD MLOAD SWAP1 POP JUMPDEST PUSH3 0xD6D DUP6 DUP3 PUSH3 0xCE0 JUMP JUMPDEST DUP7 SSTORE POP PUSH3 0xDDD JUMP JUMPDEST PUSH1 0x1F NOT DUP5 AND PUSH3 0xD86 DUP7 PUSH3 0xB36 JUMP JUMPDEST PUSH1 0x0 JUMPDEST DUP3 DUP2 LT ISZERO PUSH3 0xDB0 JUMPI DUP5 DUP10 ADD MLOAD DUP3 SSTORE PUSH1 0x1 DUP3 ADD SWAP2 POP PUSH1 0x20 DUP6 ADD SWAP5 POP PUSH1 0x20 DUP2 ADD SWAP1 POP PUSH3 0xD89 JUMP JUMPDEST DUP7 DUP4 LT ISZERO PUSH3 0xDD0 JUMPI DUP5 DUP10 ADD MLOAD PUSH3 0xDCC PUSH1 0x1F DUP10 AND DUP3 PUSH3 0xCC0 JUMP JUMPDEST DUP4 SSTORE POP JUMPDEST PUSH1 0x1 PUSH1 0x2 DUP9 MUL ADD DUP9 SSTORE POP POP POP JUMPDEST POP POP POP POP POP POP JUMP JUMPDEST PUSH3 0xDF0 DUP2 PUSH3 0x6FA JUMP JUMPDEST DUP3 MSTORE POP POP JUMP JUMPDEST PUSH1 0x0 PUSH1 0x20 DUP3 ADD SWAP1 POP PUSH3 0xE0D PUSH1 0x0 DUP4 ADD DUP5 PUSH3 0xDE5 JUMP JUMPDEST SWAP3 SWAP2 POP POP JUMP JUMPDEST PUSH1 0x0 DUP2 SWAP1 POP SWAP3 SWAP2 POP POP JUMP JUMPDEST PUSH1 0x0 PUSH3 0xE2B DUP3 PUSH3 0x5B4 JUMP JUMPDEST PUSH3 0xE37 DUP2 DUP6 PUSH3 0xE13 JUMP JUMPDEST SWAP4 POP PUSH3 0xE49 DUP2 DUP6 PUSH1 0x20 DUP7 ADD PUSH3 0x5D0 JUMP JUMPDEST DUP1 DUP5 ADD SWAP2 POP POP SWAP3 SWAP2 POP POP JUMP JUMPDEST PUSH1 0x0 PUSH3 0xE63 DUP3 DUP5 PUSH3 0xE1E JUMP JUMPDEST SWAP2 POP DUP2 SWAP1 POP SWAP3 SWAP2 POP POP JUMP JUMPDEST PUSH3 0xE79 DUP2 PUSH3 0x767 JUMP JUMPDEST DUP2 EQ PUSH3 0xE85 JUMPI PUSH1 0x0 DUP1 REVERT JUMPDEST POP JUMP JUMPDEST PUSH1 0x0 DUP2 MLOAD SWAP1 POP PUSH3 0xE99 DUP2 PUSH3 0xE6E JUMP JUMPDEST SWAP3 SWAP2 POP POP JUMP JUMPDEST PUSH1 0x0 PUSH1 0x20 DUP3 DUP5 SUB SLT ISZERO PUSH3 0xEB8 JUMPI PUSH3 0xEB7 PUSH3 0x4D9 JUMP JUMPDEST JUMPDEST PUSH1 0x0 PUSH3 0xEC8 DUP5 DUP3 DUP6 ADD PUSH3 0xE88 JUMP JUMPDEST SWAP2 POP POP SWAP3 SWAP2 POP POP JUMP INVALID PUSH1 0x80 PUSH1 0x40 MSTORE CALLVALUE DUP1 ISZERO PUSH2 0x10 JUMPI PUSH1 0x0 DUP1 REVERT JUMPDEST POP PUSH1 0x40 MLOAD PUSH2 0x5DE CODESIZE SUB DUP1 PUSH2 0x5DE DUP4 CODECOPY DUP2 DUP2 ADD PUSH1 0x40 MSTORE DUP2 ADD SWAP1 PUSH2 0x32 SWAP2 SWAP1 PUSH2 0x239 JUMP JUMPDEST DUP3 PUSH1 0x0 DUP2 SWAP1 SSTORE POP DUP2 PUSH1 0x1 SWAP1 DUP2 PUSH2 0x48 SWAP2 SWAP1 PUSH2 0x4BF JUMP JUMPDEST POP DUP1 PUSH1 0x2 DUP2 SWAP1 SSTORE POP POP POP POP PUSH2 0x591 JUMP JUMPDEST PUSH1 0x0 PUSH1 0x40 MLOAD SWAP1 POP SWAP1 JUMP JUMPDEST PUSH1 0x0 DUP1 REVERT JUMPDEST PUSH1 0x0 DUP1 REVERT JUMPDEST PUSH1 0x0 DUP2 SWAP1 POP SWAP2 SWAP1 POP JUMP JUMPDEST PUSH2 0x7F DUP2 PUSH2 0x6C JUMP JUMPDEST DUP2 EQ PUSH2 0x8A JUMPI PUSH1 0x0 DUP1 REVERT JUMPDEST POP JUMP JUMPDEST PUSH1 0x0 DUP2 MLOAD SWAP1 POP PUSH2 0x9C DUP2 PUSH2 0x76 JUMP JUMPDEST SWAP3 SWAP2 POP POP JUMP JUMPDEST PUSH1 0x0 DUP1 REVERT JUMPDEST PUSH1 0x0 DUP1 REVERT JUMPDEST PUSH1 0x0 PUSH1 0x1F NOT PUSH1 0x1F DUP4 ADD AND SWAP1 POP SWAP2 SWAP1 POP JUMP JUMPDEST PUSH32 0x4E487B7100000000000000000000000000000000000000000000000000000000 PUSH1 0x0 MSTORE PUSH1 0x41 PUSH1 0x4 MSTORE PUSH1 0x24 PUSH1 0x0 REVERT JUMPDEST PUSH2 0xF5 DUP3 PUSH2 0xAC JUMP JUMPDEST DUP2 ADD DUP2 DUP2 LT PUSH8 0xFFFFFFFFFFFFFFFF DUP3 GT OR ISZERO PUSH2 0x114 JUMPI PUSH2 0x113 PUSH2 0xBD JUMP JUMPDEST JUMPDEST DUP1 PUSH1 0x40 MSTORE POP POP POP JUMP JUMPDEST PUSH1 0x0 PUSH2 0x127 PUSH2 0x58 JUMP JUMPDEST SWAP1 POP PUSH2 0x133 DUP3 DUP3 PUSH2 0xEC JUMP JUMPDEST SWAP2 SWAP1 POP JUMP JUMPDEST PUSH1 0x0 PUSH8 0xFFFFFFFFFFFFFFFF DUP3 GT ISZERO PUSH2 0x153 JUMPI PUSH2 0x152 PUSH2 0xBD JUMP JUMPDEST JUMPDEST PUSH2 0x15C DUP3 PUSH2 0xAC JUMP JUMPDEST SWAP1 POP PUSH1 0x20 DUP2 ADD SWAP1 POP SWAP2 SWAP1 POP JUMP JUMPDEST PUSH1 0x0 JUMPDEST DUP4 DUP2 LT ISZERO PUSH2 0x187 JUMPI DUP1 DUP3 ADD MLOAD DUP2 DUP5 ADD MSTORE PUSH1 0x20 DUP2 ADD SWAP1 POP PUSH2 0x16C JUMP JUMPDEST PUSH1 0x0 DUP5 DUP5 ADD MSTORE POP POP POP POP JUMP JUMPDEST PUSH1 0x0 PUSH2 0x1A6 PUSH2 0x1A1 DUP5 PUSH2 0x138 JUMP JUMPDEST PUSH2 0x11D JUMP JUMPDEST SWAP1 POP DUP3 DUP2 MSTORE PUSH1 0x20 DUP2 ADD DUP5 DUP5 DUP5 ADD GT ISZERO PUSH2 0x1C2 JUMPI PUSH2 0x1C1 PUSH2 0xA7 JUMP JUMPDEST JUMPDEST PUSH2 0x1CD DUP5 DUP3 DUP6 PUSH2 0x169 JUMP JUMPDEST POP SWAP4 SWAP3 POP POP POP JUMP JUMPDEST PUSH1 0x0 DUP3 PUSH1 0x1F DUP4 ADD SLT PUSH2 0x1EA JUMPI PUSH2 0x1E9 PUSH2 0xA2 JUMP JUMPDEST JUMPDEST DUP2 MLOAD PUSH2 0x1FA DUP5 DUP3 PUSH1 0x20 DUP7 ADD PUSH2 0x193 JUMP JUMPDEST SWAP2 POP POP SWAP3 SWAP2 POP POP JUMP JUMPDEST PUSH1 0x0 DUP2 SWAP1 POP SWAP2 SWAP1 POP JUMP JUMPDEST PUSH2 0x216 DUP2 PUSH2 0x203 JUMP JUMPDEST DUP2 EQ PUSH2 0x221 JUMPI PUSH1 0x0 DUP1 REVERT JUMPDEST POP JUMP JUMPDEST PUSH1 0x0 DUP2 MLOAD SWAP1 POP PUSH2 0x233 DUP2 PUSH2 0x20D JUMP JUMPDEST SWAP3 SWAP2 POP POP JUMP JUMPDEST PUSH1 0x0 DUP1 PUSH1 0x0 PUSH1 0x60 DUP5 DUP7 SUB SLT ISZERO PUSH2 0x252 JUMPI PUSH2 0x251 PUSH2 0x62 JUMP JUMPDEST JUMPDEST PUSH1 0x0 PUSH2 0x260 DUP7 DUP3 DUP8 ADD PUSH2 0x8D JUMP JUMPDEST SWAP4 POP POP PUSH1 0x20 DUP5 ADD MLOAD PUSH8 0xFFFFFFFFFFFFFFFF DUP2 GT ISZERO PUSH2 0x281 JUMPI PUSH2 0x280 PUSH2 0x67 JUMP JUMPDEST JUMPDEST PUSH2 0x28D DUP7 DUP3 DUP8 ADD PUSH2 0x1D5 JUMP JUMPDEST SWAP3 POP POP PUSH1 0x40 PUSH2 0x29E DUP7 DUP3 DUP8 ADD PUSH2 0x224 JUMP JUMPDEST SWAP2 POP POP SWAP3 POP SWAP3 POP SWAP3 JUMP JUMPDEST PUSH1 0x0 DUP2 MLOAD SWAP1 POP SWAP2 SWAP1 POP JUMP JUMPDEST PUSH32 0x4E487B7100000000000000000000000000000000000000000000000000000000 PUSH1 0x0 MSTORE PUSH1 0x22 PUSH1 0x4 MSTORE PUSH1 0x24 PUSH1 0x0 REVERT JUMPDEST PUSH1 0x0 PUSH1 0x2 DUP3 DIV SWAP1 POP PUSH1 0x1 DUP3 AND DUP1 PUSH2 0x2FA JUMPI PUSH1 0x7F DUP3 AND SWAP2 POP JUMPDEST PUSH1 0x20 DUP3 LT DUP2 SUB PUSH2 0x30D JUMPI PUSH2 0x30C PUSH2 0x2B3 JUMP JUMPDEST JUMPDEST POP SWAP2 SWAP1 POP JUMP JUMPDEST PUSH1 0x0 DUP2 SWAP1 POP DUP2 PUSH1 0x0 MSTORE PUSH1 0x20 PUSH1 0x0 KECCAK256 SWAP1 POP SWAP2 SWAP1 POP JUMP JUMPDEST PUSH1 0x0 PUSH1 0x20 PUSH1 0x1F DUP4 ADD DIV SWAP1 POP SWAP2 SWAP1 POP JUMP JUMPDEST PUSH1 0x0 DUP3 DUP3 SHL SWAP1 POP SWAP3 SWAP2 POP POP JUMP JUMPDEST PUSH1 0x0 PUSH1 0x8 DUP4 MUL PUSH2 0x375 PUSH32 0xFFFFFFFFFFFFFFFFFFFFFFFFFFFFFFFFFFFFFFFFFFFFFFFFFFFFFFFFFFFFFFFF DUP3 PUSH2 0x338 JUMP JUMPDEST PUSH2 0x37F DUP7 DUP4 PUSH2 0x338 JUMP JUMPDEST SWAP6 POP DUP1 NOT DUP5 AND SWAP4 POP DUP1 DUP7 AND DUP5 OR SWAP3 POP POP POP SWAP4 SWAP3 POP POP POP JUMP JUMPDEST PUSH1 0x0 DUP2 SWAP1 POP SWAP2 SWAP1 POP JUMP JUMPDEST PUSH1 0x0 PUSH2 0x3BC PUSH2 0x3B7 PUSH2 0x3B2 DUP5 PUSH2 0x6C JUMP JUMPDEST PUSH2 0x397 JUMP JUMPDEST PUSH2 0x6C JUMP JUMPDEST SWAP1 POP SWAP2 SWAP1 POP JUMP JUMPDEST PUSH1 0x0 DUP2 SWAP1 POP SWAP2 SWAP1 POP JUMP JUMPDEST PUSH2 0x3D6 DUP4 PUSH2 0x3A1 JUMP JUMPDEST PUSH2 0x3EA PUSH2 0x3E2 DUP3 PUSH2 0x3C3 JUMP JUMPDEST DUP5 DUP5 SLOAD PUSH2 0x345 JUMP JUMPDEST DUP3 SSTORE POP POP POP POP JUMP JUMPDEST PUSH1 0x0 SWAP1 JUMP JUMPDEST PUSH2 0x3FF PUSH2 0x3F2 JUMP JUMPDEST PUSH2 0x40A DUP2 DUP5 DUP5 PUSH2 0x3CD JUMP JUMPDEST POP POP POP JUMP JUMPDEST JUMPDEST DUP2 DUP2 LT ISZERO PUSH2 0x42E JUMPI PUSH2 0x423 PUSH1 0x0 DUP3 PUSH2 0x3F7 JUMP JUMPDEST PUSH1 0x1 DUP2 ADD SWAP1 POP PUSH2 0x410 JUMP JUMPDEST POP POP JUMP JUMPDEST PUSH1 0x1F DUP3 GT ISZERO PUSH2 0x473 JUMPI PUSH2 0x444 DUP2 PUSH2 0x313 JUMP JUMPDEST PUSH2 0x44D DUP5 PUSH2 0x328 JUMP JUMPDEST DUP2 ADD PUSH1 0x20 DUP6 LT ISZERO PUSH2 0x45C JUMPI DUP2 SWAP1 POP JUMPDEST PUSH2 0x470 PUSH2 0x468 DUP6 PUSH2 0x328 JUMP JUMPDEST DUP4 ADD DUP3 PUSH2 0x40F JUMP JUMPDEST POP POP JUMPDEST POP POP POP JUMP JUMPDEST PUSH1 0x0 DUP3 DUP3 SHR SWAP1 POP SWAP3 SWAP2 POP POP JUMP JUMPDEST PUSH1 0x0 PUSH2 0x496 PUSH1 0x0 NOT DUP5 PUSH1 0x8 MUL PUSH2 0x478 JUMP JUMPDEST NOT DUP1 DUP4 AND SWAP2 POP POP SWAP3 SWAP2 POP POP JUMP JUMPDEST PUSH1 0x0 PUSH2 0x4AF DUP4 DUP4 PUSH2 0x485 JUMP JUMPDEST SWAP2 POP DUP3 PUSH1 0x2 MUL DUP3 OR SWAP1 POP SWAP3 SWAP2 POP POP JUMP JUMPDEST PUSH2 0x4C8 DUP3 PUSH2 0x2A8 JUMP JUMPDEST PUSH8 0xFFFFFFFFFFFFFFFF DUP2 GT ISZERO PUSH2 0x4E1 JUMPI PUSH2 0x4E0 PUSH2 0xBD JUMP JUMPDEST JUMPDEST PUSH2 0x4EB DUP3 SLOAD PUSH2 0x2E2 JUMP JUMPDEST PUSH2 0x4F6 DUP3 DUP3 DUP6 PUSH2 0x432 JUMP JUMPDEST PUSH1 0x0 PUSH1 0x20 SWAP1 POP PUSH1 0x1F DUP4 GT PUSH1 0x1 DUP2 EQ PUSH2 0x529 JUMPI PUSH1 0x0 DUP5 ISZERO PUSH2 0x517 JUMPI DUP3 DUP8 ADD MLOAD SWAP1 POP JUMPDEST PUSH2 0x521 DUP6 DUP3 PUSH2 0x4A3 JUMP JUMPDEST DUP7 SSTORE POP PUSH2 0x589 JUMP JUMPDEST PUSH1 0x1F NOT DUP5 AND PUSH2 0x537 DUP7 PUSH2 0x313 JUMP JUMPDEST PUSH1 0x0 JUMPDEST DUP3 DUP2 LT ISZERO PUSH2 0x55F JUMPI DUP5 DUP10 ADD MLOAD DUP3 SSTORE PUSH1 0x1 DUP3 ADD SWAP2 POP PUSH1 0x20 DUP6 ADD SWAP5 POP PUSH1 0x20 DUP2 ADD SWAP1 POP PUSH2 0x53A JUMP JUMPDEST DUP7 DUP4 LT ISZERO PUSH2 0x57C JUMPI DUP5 DUP10 ADD MLOAD PUSH2 0x578 PUSH1 0x1F DUP10 AND DUP3 PUSH2 0x485 JUMP JUMPDEST DUP4 SSTORE POP JUMPDEST PUSH1 0x1 PUSH1 0x2 DUP9 MUL ADD DUP9 SSTORE POP POP POP JUMPDEST POP POP POP POP POP POP JUMP JUMPDEST PUSH1 0x3F DUP1 PUSH2 0x59F PUSH1 0x0 CODECOPY PUSH1 0x0 RETURN INVALID PUSH1 0x80 PUSH1 0x40 MSTORE PUSH1 0x0 DUP1 REVERT INVALID LOG2 PUSH5 0x6970667358 0x22 SLT KECCAK256 0x2D 0xBA DUP11 SHL 0xDF 0xC1 0xE 0xD8 PUSH30 0x1C2C29DF6426C3FD2A402233BA1A868B12CA3198027EAD64736F6C634300 ADDMOD XOR STOP CALLER LOG2 PUSH5 0x6970667358 0x22 SLT KECCAK256 SSTORE SIGNEXTEND DUP14 SWAP4 0xE7 LT PUSH1 0x29 SMOD 0x2C PUSH26 0x1312290ED447BDBFF3D9C651E135B67A40E86A4A3764736F6C63 NUMBER STOP ADDMOD XOR STOP CALLER "
        },
        "methodIdentifiers": {
          "deserialize()": "b5cc88f3",
          "hashSha256(uint256)": "d1218931",
          "isContract(address)": "16279055",
          "ret(bytes)": "d5d4984e",
          "serialize()": "bc8018b1",
          "value()": "3fa4f245"
        }
      }
    }
  }
}