{
  "contracts/HackAndSlashParser.sol": {
    "HackAndSlashParser": {
      "abi": [
        {
          "inputs": [
            {
              "internalType": "bytes",
              "name": "input",
              "type": "bytes"
            }
          ],
          "name": "actionDeserializer",
          "outputs": [
            {
              "internalType": "bool",
              "name": "ok",
              "type": "bool"
            },
            {
              "internalType": "bytes",
              "name": "out",
              "type": "bytes"
            }
          ],
          "stateMutability": "view",
          "type": "function"
        },
        {
          "inputs": [],
          "name": "readHackAndSlash",
          "outputs": [
            {
              "components": [
                {
                  "internalType": "uint8[16]",
                  "name": "id",
                  "type": "uint8[16]"
                },
                {
                  "internalType": "uint8[16][]",
                  "name": "costumes",
                  "type": "uint8[16][]"
                },
                {
                  "internalType": "uint8[16][]",
                  "name": "equipments",
                  "type": "uint8[16][]"
                },
                {
                  "internalType": "uint8[16][]",
                  "name": "foods",
                  "type": "uint8[16][]"
                },
                {
                  "internalType": "int64[][]",
                  "name": "r",
                  "type": "int64[][]"
                },
                {
                  "internalType": "int64",
                  "name": "worldId",
                  "type": "int64"
                },
                {
                  "internalType": "int64",
                  "name": "stageId",
                  "type": "int64"
                },
                {
                  "internalType": "address",
                  "name": "avatarAddress",
                  "type": "address"
                },
                {
                  "internalType": "int64",
                  "name": "totalPlayCount",
                  "type": "int64"
                },
                {
                  "internalType": "int64",
                  "name": "apStoneCount",
                  "type": "int64"
                }
              ],
              "internalType": "struct HackAndSlashParser.HackAndSlashStruct",
              "name": "",
              "type": "tuple"
            }
          ],
          "stateMutability": "view",
          "type": "function"
        }
      ],
      "evm": {
        "bytecode": {
          "linkReferences": {},
          "object": "608060405234801561001057600080fd5b5061126e806100206000396000f3fe608060405234801561001057600080fd5b50600436106100365760003560e01c8063824d6b3a1461003b578063bd77664e14610059575b600080fd5b61004361008a565b6040516100509190610633565b60405180910390f35b610073600480360381019061006e91906107af565b6100ee565b604051610081929190610892565b60405180910390f35b610092610169565b6000604051806103e001604052806103c08152602001610e796103c0913990506000806100be836100ee565b91509150816100cc57600080fd5b6000818060200190518101906100e29190610ddc565b90508094505050505090565b60006060600061010090508073ffffffffffffffffffffffffffffffffffffffff168460405161011e9190610e61565b600060405180830381855afa9150503d8060008114610159576040519150601f19603f3d011682016040523d82523d6000602084013e61015e565b606091505b509250925050915091565b60405180610140016040528061017d6101e4565b815260200160608152602001606081526020016060815260200160608152602001600060070b8152602001600060070b8152602001600073ffffffffffffffffffffffffffffffffffffffff168152602001600060070b8152602001600060070b81525090565b604051806102000160405280601090602082028036833780820191505090505090565b600060109050919050565b600081905092915050565b6000819050919050565b600060ff82169050919050565b61023d81610227565b82525050565b600061024f8383610234565b60208301905092915050565b6000602082019050919050565b61027181610207565b61027b8184610212565b92506102868261021d565b8060005b838110156102b757815161029e8782610243565b96506102a98361025b565b92505060018101905061028a565b505050505050565b600081519050919050565b600082825260208201905092915050565b6000819050602082019050919050565b60006102f78383610268565b6102008301905092915050565b6000602082019050919050565b600061031c826102bf565b61032681856102ca565b9350610331836102db565b8060005b8381101561036257815161034988826102eb565b975061035483610304565b925050600181019050610335565b5085935050505092915050565b600081519050919050565b600082825260208201905092915050565b6000819050602082019050919050565b600081519050919050565b600082825260208201905092915050565b6000819050602082019050919050565b60008160070b9050919050565b6103dd816103c7565b82525050565b60006103ef83836103d4565b60208301905092915050565b6000602082019050919050565b60006104138261039b565b61041d81856103a6565b9350610428836103b7565b8060005b8381101561045957815161044088826103e3565b975061044b836103fb565b92505060018101905061042c565b5085935050505092915050565b60006104728383610408565b905092915050565b6000602082019050919050565b60006104928261036f565b61049c818561037a565b9350836020820285016104ae8561038b565b8060005b858110156104ea57848403895281516104cb8582610466565b94506104d68361047a565b925060208a019950506001810190506104b2565b50829750879550505050505092915050565b600073ffffffffffffffffffffffffffffffffffffffff82169050919050565b6000610527826104fc565b9050919050565b6105378161051c565b82525050565b6000610320830160008301516105566000860182610268565b50602083015184820361020086015261056f8282610311565b915050604083015184820361022086015261058a8282610311565b91505060608301518482036102408601526105a58282610311565b91505060808301518482036102608601526105c08282610487565b91505060a08301516105d66102808601826103d4565b5060c08301516105ea6102a08601826103d4565b5060e08301516105fe6102c086018261052e565b506101008301516106136102e08601826103d4565b506101208301516106286103008601826103d4565b508091505092915050565b6000602082019050818103600083015261064d818461053d565b905092915050565b6000604051905090565b600080fd5b600080fd5b600080fd5b600080fd5b6000601f19601f8301169050919050565b7f4e487b7100000000000000000000000000000000000000000000000000000000600052604160045260246000fd5b6106bc82610673565b810181811067ffffffffffffffff821117156106db576106da610684565b5b80604052505050565b60006106ee610655565b90506106fa82826106b3565b919050565b600067ffffffffffffffff82111561071a57610719610684565b5b61072382610673565b9050602081019050919050565b82818337600083830152505050565b600061075261074d846106ff565b6106e4565b90508281526020810184848401111561076e5761076d61066e565b5b610779848285610730565b509392505050565b600082601f83011261079657610795610669565b5b81356107a684826020860161073f565b91505092915050565b6000602082840312156107c5576107c461065f565b5b600082013567ffffffffffffffff8111156107e3576107e2610664565b5b6107ef84828501610781565b91505092915050565b60008115159050919050565b61080d816107f8565b82525050565b600081519050919050565b600082825260208201905092915050565b60005b8381101561084d578082015181840152602081019050610832565b60008484015250505050565b600061086482610813565b61086e818561081e565b935061087e81856020860161082f565b61088781610673565b840191505092915050565b60006040820190506108a76000830185610804565b81810360208301526108b98184610859565b90509392505050565b600080fd5b600080fd5b600067ffffffffffffffff8211156108e7576108e6610684565b5b602082029050919050565b600080fd5b61090081610227565b811461090b57600080fd5b50565b60008151905061091d816108f7565b92915050565b6000610936610931846108cc565b6106e4565b905080602084028301858111156109505761094f6108f2565b5b835b818110156109795780610965888261090e565b845260208401935050602081019050610952565b5050509392505050565b600082601f83011261099857610997610669565b5b60106109a5848285610923565b91505092915050565b600067ffffffffffffffff8211156109c9576109c8610684565b5b602082029050602081019050919050565b60006109ed6109e8846109ae565b6106e4565b9050808382526020820190506102008402830185811115610a1157610a106108f2565b5b835b81811015610a3b5780610a268882610983565b84526020840193505061020081019050610a13565b5050509392505050565b600082601f830112610a5a57610a59610669565b5b8151610a6a8482602086016109da565b91505092915050565b600067ffffffffffffffff821115610a8e57610a8d610684565b5b602082029050602081019050919050565b600067ffffffffffffffff821115610aba57610ab9610684565b5b602082029050602081019050919050565b610ad4816103c7565b8114610adf57600080fd5b50565b600081519050610af181610acb565b92915050565b6000610b0a610b0584610a9f565b6106e4565b90508083825260208201905060208402830185811115610b2d57610b2c6108f2565b5b835b81811015610b565780610b428882610ae2565b845260208401935050602081019050610b2f565b5050509392505050565b600082601f830112610b7557610b74610669565b5b8151610b85848260208601610af7565b91505092915050565b6000610ba1610b9c84610a73565b6106e4565b90508083825260208201905060208402830185811115610bc457610bc36108f2565b5b835b81811015610c0b57805167ffffffffffffffff811115610be957610be8610669565b5b808601610bf68982610b60565b85526020850194505050602081019050610bc6565b5050509392505050565b600082601f830112610c2a57610c29610669565b5b8151610c3a848260208601610b8e565b91505092915050565b610c4c8161051c565b8114610c5757600080fd5b50565b600081519050610c6981610c43565b92915050565b60006103208284031215610c8657610c856108c2565b5b610c916101406106e4565b90506000610ca184828501610983565b60008301525061020082015167ffffffffffffffff811115610cc657610cc56108c7565b5b610cd284828501610a45565b60208301525061022082015167ffffffffffffffff811115610cf757610cf66108c7565b5b610d0384828501610a45565b60408301525061024082015167ffffffffffffffff811115610d2857610d276108c7565b5b610d3484828501610a45565b60608301525061026082015167ffffffffffffffff811115610d5957610d586108c7565b5b610d6584828501610c15565b608083015250610280610d7a84828501610ae2565b60a0830152506102a0610d8f84828501610ae2565b60c0830152506102c0610da484828501610c5a565b60e0830152506102e0610db984828501610ae2565b61010083015250610300610dcf84828501610ae2565b6101208301525092915050565b600060208284031215610df257610df161065f565b5b600082015167ffffffffffffffff811115610e1057610e0f610664565b5b610e1c84828501610c6f565b91505092915050565b600081905092915050565b6000610e3b82610813565b610e458185610e25565b9350610e5581856020860161082f565b80840191505092915050565b6000610e6d8284610e30565b91508190509291505056fe5a444536557a63774f6a4245416942524542346b36562b385641587849653949317335363578655279456854637666743051746b5161766452414967462f37674177454b31684358424933765374574873496e523536506a6270677237375a474e66594a574a38784f6d46735a4855334f6e523563475666615752314d5459366147466a61313968626d526663327868633267794d6e55324f6e5a686248566c633252314d54493659584254644739755a554e7664573530645445364d4855784d7a7068646d463059584a425a4752795a584e7a4d6a4136332b4f6c6d64334a7176774d35434d736f7731424b6b4e35654539314f44706a62334e306457316c6332786c645445774f6d567864576c776257567564484e734d5459366b3068764d53515033455371784865354676502f5a4445324f6e45536454634f454468486a58582b61386b2f6b674d784e6a7075747270446d616e335135563432345932454a75744d5459367647586e6b6a69546a6b36754544682f31556e4b6c5445324f6f436d46715379324664476c4d657952564454643073784e6a7141685236705a73724d526f532b3965754f5837546e4d54593679657473792f416561456d30584a58324758314b425756314e54706d6232396b6332786c64544936615751784e6a70564d724f716f6a7063546f2b737a4673615275357464544536636d7873645445364d4855314f6a4d774d4441785a5756314e7a707a6447466e5a556c6b64544d364d6a4577645445304f6e5276644746735547786865554e7664573530645445364d5855334f6e6476636d786b535752314d546f315a57566c4d54706e4d7a49365259496c4451326a4f775a336d6f5231306f50563353454d614475626d5a313030442b7354316a36613834784f6d78704e4755784f6d31735a4855784d7a706b5a574e7062574673554778685932567a4d546f536454633662576c7564475679633235314e6a703061574e725a584a314e44704e5a57466b5a576b784d4441774d4441774d4441774d4441774d4441774d4441775a5755784f6d35704d7a45784e6d55784f6e41324e546f453377627146516d4131592b732f394b4b4666464330736363686236664d3046624e327a495563627665787471495a2b52476d397a5874692b634252424d68762b2f67685852366b30386c41784f554832694a764d597a4536637a49774f6d7450463474726e334f6941554b372f6f6e554f6a6742423461444d547030645449334f6a49774d6a51744d4463744d4456554d446b364d6a4d364d6a41754e5445334e6a6332576a45366457786c5a513d3da2646970667358221220e65a6784a34df52dc3cddbccb2e40da07c63ff857d7b2190d6accf14e053b6f864736f6c63430008180033",
          "opcodes": "PUSH1 0x80 PUSH1 0x40 MSTORE CALLVALUE DUP1 ISZERO PUSH2 0x10 JUMPI PUSH1 0x0 DUP1 REVERT JUMPDEST POP PUSH2 0x126E DUP1 PUSH2 0x20 PUSH1 0x0 CODECOPY PUSH1 0x0 RETURN INVALID PUSH1 0x80 PUSH1 0x40 MSTORE CALLVALUE DUP1 ISZERO PUSH2 0x10 JUMPI PUSH1 0x0 DUP1 REVERT JUMPDEST POP PUSH1 0x4 CALLDATASIZE LT PUSH2 0x36 JUMPI PUSH1 0x0 CALLDATALOAD PUSH1 0xE0 SHR DUP1 PUSH4 0x824D6B3A EQ PUSH2 0x3B JUMPI DUP1 PUSH4 0xBD77664E EQ PUSH2 0x59 JUMPI JUMPDEST PUSH1 0x0 DUP1 REVERT JUMPDEST PUSH2 0x43 PUSH2 0x8A JUMP JUMPDEST PUSH1 0x40 MLOAD PUSH2 0x50 SWAP2 SWAP1 PUSH2 0x633 JUMP JUMPDEST PUSH1 0x40 MLOAD DUP1 SWAP2 SUB SWAP1 RETURN JUMPDEST PUSH2 0x73 PUSH1 0x4 DUP1 CALLDATASIZE SUB DUP2 ADD SWAP1 PUSH2 0x6E SWAP2 SWAP1 PUSH2 0x7AF JUMP JUMPDEST PUSH2 0xEE JUMP JUMPDEST PUSH1 0x40 MLOAD PUSH2 0x81 SWAP3 SWAP2 SWAP1 PUSH2 0x892 JUMP JUMPDEST PUSH1 0x40 MLOAD DUP1 SWAP2 SUB SWAP1 RETURN JUMPDEST PUSH2 0x92 PUSH2 0x169 JUMP JUMPDEST PUSH1 0x0 PUSH1 0x40 MLOAD DUP1 PUSH2 0x3E0 ADD PUSH1 0x40 MSTORE DUP1 PUSH2 0x3C0 DUP2 MSTORE PUSH1 0x20 ADD PUSH2 0xE79 PUSH2 0x3C0 SWAP2 CODECOPY SWAP1 POP PUSH1 0x0 DUP1 PUSH2 0xBE DUP4 PUSH2 0xEE JUMP JUMPDEST SWAP2 POP SWAP2 POP DUP2 PUSH2 0xCC JUMPI PUSH1 0x0 DUP1 REVERT JUMPDEST PUSH1 0x0 DUP2 DUP1 PUSH1 0x20 ADD SWAP1 MLOAD DUP2 ADD SWAP1 PUSH2 0xE2 SWAP2 SWAP1 PUSH2 0xDDC JUMP JUMPDEST SWAP1 POP DUP1 SWAP5 POP POP POP POP POP SWAP1 JUMP JUMPDEST PUSH1 0x0 PUSH1 0x60 PUSH1 0x0 PUSH2 0x100 SWAP1 POP DUP1 PUSH20 0xFFFFFFFFFFFFFFFFFFFFFFFFFFFFFFFFFFFFFFFF AND DUP5 PUSH1 0x40 MLOAD PUSH2 0x11E SWAP2 SWAP1 PUSH2 0xE61 JUMP JUMPDEST PUSH1 0x0 PUSH1 0x40 MLOAD DUP1 DUP4 SUB DUP2 DUP6 GAS STATICCALL SWAP2 POP POP RETURNDATASIZE DUP1 PUSH1 0x0 DUP2 EQ PUSH2 0x159 JUMPI PUSH1 0x40 MLOAD SWAP2 POP PUSH1 0x1F NOT PUSH1 0x3F RETURNDATASIZE ADD AND DUP3 ADD PUSH1 0x40 MSTORE RETURNDATASIZE DUP3 MSTORE RETURNDATASIZE PUSH1 0x0 PUSH1 0x20 DUP5 ADD RETURNDATACOPY PUSH2 0x15E JUMP JUMPDEST PUSH1 0x60 SWAP2 POP JUMPDEST POP SWAP3 POP SWAP3 POP POP SWAP2 POP SWAP2 JUMP JUMPDEST PUSH1 0x40 MLOAD DUP1 PUSH2 0x140 ADD PUSH1 0x40 MSTORE DUP1 PUSH2 0x17D PUSH2 0x1E4 JUMP JUMPDEST DUP2 MSTORE PUSH1 0x20 ADD PUSH1 0x60 DUP2 MSTORE PUSH1 0x20 ADD PUSH1 0x60 DUP2 MSTORE PUSH1 0x20 ADD PUSH1 0x60 DUP2 MSTORE PUSH1 0x20 ADD PUSH1 0x60 DUP2 MSTORE PUSH1 0x20 ADD PUSH1 0x0 PUSH1 0x7 SIGNEXTEND DUP2 MSTORE PUSH1 0x20 ADD PUSH1 0x0 PUSH1 0x7 SIGNEXTEND DUP2 MSTORE PUSH1 0x20 ADD PUSH1 0x0 PUSH20 0xFFFFFFFFFFFFFFFFFFFFFFFFFFFFFFFFFFFFFFFF AND DUP2 MSTORE PUSH1 0x20 ADD PUSH1 0x0 PUSH1 0x7 SIGNEXTEND DUP2 MSTORE PUSH1 0x20 ADD PUSH1 0x0 PUSH1 0x7 SIGNEXTEND DUP2 MSTORE POP SWAP1 JUMP JUMPDEST PUSH1 0x40 MLOAD DUP1 PUSH2 0x200 ADD PUSH1 0x40 MSTORE DUP1 PUSH1 0x10 SWAP1 PUSH1 0x20 DUP3 MUL DUP1 CALLDATASIZE DUP4 CALLDATACOPY DUP1 DUP3 ADD SWAP2 POP POP SWAP1 POP POP SWAP1 JUMP JUMPDEST PUSH1 0x0 PUSH1 0x10 SWAP1 POP SWAP2 SWAP1 POP JUMP JUMPDEST PUSH1 0x0 DUP2 SWAP1 POP SWAP3 SWAP2 POP POP JUMP JUMPDEST PUSH1 0x0 DUP2 SWAP1 POP SWAP2 SWAP1 POP JUMP JUMPDEST PUSH1 0x0 PUSH1 0xFF DUP3 AND SWAP1 POP SWAP2 SWAP1 POP JUMP JUMPDEST PUSH2 0x23D DUP2 PUSH2 0x227 JUMP JUMPDEST DUP3 MSTORE POP POP JUMP JUMPDEST PUSH1 0x0 PUSH2 0x24F DUP4 DUP4 PUSH2 0x234 JUMP JUMPDEST PUSH1 0x20 DUP4 ADD SWAP1 POP SWAP3 SWAP2 POP POP JUMP JUMPDEST PUSH1 0x0 PUSH1 0x20 DUP3 ADD SWAP1 POP SWAP2 SWAP1 POP JUMP JUMPDEST PUSH2 0x271 DUP2 PUSH2 0x207 JUMP JUMPDEST PUSH2 0x27B DUP2 DUP5 PUSH2 0x212 JUMP JUMPDEST SWAP3 POP PUSH2 0x286 DUP3 PUSH2 0x21D JUMP JUMPDEST DUP1 PUSH1 0x0 JUMPDEST DUP4 DUP2 LT ISZERO PUSH2 0x2B7 JUMPI DUP2 MLOAD PUSH2 0x29E DUP8 DUP3 PUSH2 0x243 JUMP JUMPDEST SWAP7 POP PUSH2 0x2A9 DUP4 PUSH2 0x25B JUMP JUMPDEST SWAP3 POP POP PUSH1 0x1 DUP2 ADD SWAP1 POP PUSH2 0x28A JUMP JUMPDEST POP POP POP POP POP POP JUMP JUMPDEST PUSH1 0x0 DUP2 MLOAD SWAP1 POP SWAP2 SWAP1 POP JUMP JUMPDEST PUSH1 0x0 DUP3 DUP3 MSTORE PUSH1 0x20 DUP3 ADD SWAP1 POP SWAP3 SWAP2 POP POP JUMP JUMPDEST PUSH1 0x0 DUP2 SWAP1 POP PUSH1 0x20 DUP3 ADD SWAP1 POP SWAP2 SWAP1 POP JUMP JUMPDEST PUSH1 0x0 PUSH2 0x2F7 DUP4 DUP4 PUSH2 0x268 JUMP JUMPDEST PUSH2 0x200 DUP4 ADD SWAP1 POP SWAP3 SWAP2 POP POP JUMP JUMPDEST PUSH1 0x0 PUSH1 0x20 DUP3 ADD SWAP1 POP SWAP2 SWAP1 POP JUMP JUMPDEST PUSH1 0x0 PUSH2 0x31C DUP3 PUSH2 0x2BF JUMP JUMPDEST PUSH2 0x326 DUP2 DUP6 PUSH2 0x2CA JUMP JUMPDEST SWAP4 POP PUSH2 0x331 DUP4 PUSH2 0x2DB JUMP JUMPDEST DUP1 PUSH1 0x0 JUMPDEST DUP4 DUP2 LT ISZERO PUSH2 0x362 JUMPI DUP2 MLOAD PUSH2 0x349 DUP9 DUP3 PUSH2 0x2EB JUMP JUMPDEST SWAP8 POP PUSH2 0x354 DUP4 PUSH2 0x304 JUMP JUMPDEST SWAP3 POP POP PUSH1 0x1 DUP2 ADD SWAP1 POP PUSH2 0x335 JUMP JUMPDEST POP DUP6 SWAP4 POP POP POP POP SWAP3 SWAP2 POP POP JUMP JUMPDEST PUSH1 0x0 DUP2 MLOAD SWAP1 POP SWAP2 SWAP1 POP JUMP JUMPDEST PUSH1 0x0 DUP3 DUP3 MSTORE PUSH1 0x20 DUP3 ADD SWAP1 POP SWAP3 SWAP2 POP POP JUMP JUMPDEST PUSH1 0x0 DUP2 SWAP1 POP PUSH1 0x20 DUP3 ADD SWAP1 POP SWAP2 SWAP1 POP JUMP JUMPDEST PUSH1 0x0 DUP2 MLOAD SWAP1 POP SWAP2 SWAP1 POP JUMP JUMPDEST PUSH1 0x0 DUP3 DUP3 MSTORE PUSH1 0x20 DUP3 ADD SWAP1 POP SWAP3 SWAP2 POP POP JUMP JUMPDEST PUSH1 0x0 DUP2 SWAP1 POP PUSH1 0x20 DUP3 ADD SWAP1 POP SWAP2 SWAP1 POP JUMP JUMPDEST PUSH1 0x0 DUP2 PUSH1 0x7 SIGNEXTEND SWAP1 POP SWAP2 SWAP1 POP JUMP JUMPDEST PUSH2 0x3DD DUP2 PUSH2 0x3C7 JUMP JUMPDEST DUP3 MSTORE POP POP JUMP JUMPDEST PUSH1 0x0 PUSH2 0x3EF DUP4 DUP4 PUSH2 0x3D4 JUMP JUMPDEST PUSH1 0x20 DUP4 ADD SWAP1 POP SWAP3 SWAP2 POP POP JUMP JUMPDEST PUSH1 0x0 PUSH1 0x20 DUP3 ADD SWAP1 POP SWAP2 SWAP1 POP JUMP JUMPDEST PUSH1 0x0 PUSH2 0x413 DUP3 PUSH2 0x39B JUMP JUMPDEST PUSH2 0x41D DUP2 DUP6 PUSH2 0x3A6 JUMP JUMPDEST SWAP4 POP PUSH2 0x428 DUP4 PUSH2 0x3B7 JUMP JUMPDEST DUP1 PUSH1 0x0 JUMPDEST DUP4 DUP2 LT ISZERO PUSH2 0x459 JUMPI DUP2 MLOAD PUSH2 0x440 DUP9 DUP3 PUSH2 0x3E3 JUMP JUMPDEST SWAP8 POP PUSH2 0x44B DUP4 PUSH2 0x3FB JUMP JUMPDEST SWAP3 POP POP PUSH1 0x1 DUP2 ADD SWAP1 POP PUSH2 0x42C JUMP JUMPDEST POP DUP6 SWAP4 POP POP POP POP SWAP3 SWAP2 POP POP JUMP JUMPDEST PUSH1 0x0 PUSH2 0x472 DUP4 DUP4 PUSH2 0x408 JUMP JUMPDEST SWAP1 POP SWAP3 SWAP2 POP POP JUMP JUMPDEST PUSH1 0x0 PUSH1 0x20 DUP3 ADD SWAP1 POP SWAP2 SWAP1 POP JUMP JUMPDEST PUSH1 0x0 PUSH2 0x492 DUP3 PUSH2 0x36F JUMP JUMPDEST PUSH2 0x49C DUP2 DUP6 PUSH2 0x37A JUMP JUMPDEST SWAP4 POP DUP4 PUSH1 0x20 DUP3 MUL DUP6 ADD PUSH2 0x4AE DUP6 PUSH2 0x38B JUMP JUMPDEST DUP1 PUSH1 0x0 JUMPDEST DUP6 DUP2 LT ISZERO PUSH2 0x4EA JUMPI DUP5 DUP5 SUB DUP10 MSTORE DUP2 MLOAD PUSH2 0x4CB DUP6 DUP3 PUSH2 0x466 JUMP JUMPDEST SWAP5 POP PUSH2 0x4D6 DUP4 PUSH2 0x47A JUMP JUMPDEST SWAP3 POP PUSH1 0x20 DUP11 ADD SWAP10 POP POP PUSH1 0x1 DUP2 ADD SWAP1 POP PUSH2 0x4B2 JUMP JUMPDEST POP DUP3 SWAP8 POP DUP8 SWAP6 POP POP POP POP POP POP SWAP3 SWAP2 POP POP JUMP JUMPDEST PUSH1 0x0 PUSH20 0xFFFFFFFFFFFFFFFFFFFFFFFFFFFFFFFFFFFFFFFF DUP3 AND SWAP1 POP SWAP2 SWAP1 POP JUMP JUMPDEST PUSH1 0x0 PUSH2 0x527 DUP3 PUSH2 0x4FC JUMP JUMPDEST SWAP1 POP SWAP2 SWAP1 POP JUMP JUMPDEST PUSH2 0x537 DUP2 PUSH2 0x51C JUMP JUMPDEST DUP3 MSTORE POP POP JUMP JUMPDEST PUSH1 0x0 PUSH2 0x320 DUP4 ADD PUSH1 0x0 DUP4 ADD MLOAD PUSH2 0x556 PUSH1 0x0 DUP7 ADD DUP3 PUSH2 0x268 JUMP JUMPDEST POP PUSH1 0x20 DUP4 ADD MLOAD DUP5 DUP3 SUB PUSH2 0x200 DUP7 ADD MSTORE PUSH2 0x56F DUP3 DUP3 PUSH2 0x311 JUMP JUMPDEST SWAP2 POP POP PUSH1 0x40 DUP4 ADD MLOAD DUP5 DUP3 SUB PUSH2 0x220 DUP7 ADD MSTORE PUSH2 0x58A DUP3 DUP3 PUSH2 0x311 JUMP JUMPDEST SWAP2 POP POP PUSH1 0x60 DUP4 ADD MLOAD DUP5 DUP3 SUB PUSH2 0x240 DUP7 ADD MSTORE PUSH2 0x5A5 DUP3 DUP3 PUSH2 0x311 JUMP JUMPDEST SWAP2 POP POP PUSH1 0x80 DUP4 ADD MLOAD DUP5 DUP3 SUB PUSH2 0x260 DUP7 ADD MSTORE PUSH2 0x5C0 DUP3 DUP3 PUSH2 0x487 JUMP JUMPDEST SWAP2 POP POP PUSH1 0xA0 DUP4 ADD MLOAD PUSH2 0x5D6 PUSH2 0x280 DUP7 ADD DUP3 PUSH2 0x3D4 JUMP JUMPDEST POP PUSH1 0xC0 DUP4 ADD MLOAD PUSH2 0x5EA PUSH2 0x2A0 DUP7 ADD DUP3 PUSH2 0x3D4 JUMP JUMPDEST POP PUSH1 0xE0 DUP4 ADD MLOAD PUSH2 0x5FE PUSH2 0x2C0 DUP7 ADD DUP3 PUSH2 0x52E JUMP JUMPDEST POP PUSH2 0x100 DUP4 ADD MLOAD PUSH2 0x613 PUSH2 0x2E0 DUP7 ADD DUP3 PUSH2 0x3D4 JUMP JUMPDEST POP PUSH2 0x120 DUP4 ADD MLOAD PUSH2 0x628 PUSH2 0x300 DUP7 ADD DUP3 PUSH2 0x3D4 JUMP JUMPDEST POP DUP1 SWAP2 POP POP SWAP3 SWAP2 POP POP JUMP JUMPDEST PUSH1 0x0 PUSH1 0x20 DUP3 ADD SWAP1 POP DUP2 DUP2 SUB PUSH1 0x0 DUP4 ADD MSTORE PUSH2 0x64D DUP2 DUP5 PUSH2 0x53D JUMP JUMPDEST SWAP1 POP SWAP3 SWAP2 POP POP JUMP JUMPDEST PUSH1 0x0 PUSH1 0x40 MLOAD SWAP1 POP SWAP1 JUMP JUMPDEST PUSH1 0x0 DUP1 REVERT JUMPDEST PUSH1 0x0 DUP1 REVERT JUMPDEST PUSH1 0x0 DUP1 REVERT JUMPDEST PUSH1 0x0 DUP1 REVERT JUMPDEST PUSH1 0x0 PUSH1 0x1F NOT PUSH1 0x1F DUP4 ADD AND SWAP1 POP SWAP2 SWAP1 POP JUMP JUMPDEST PUSH32 0x4E487B7100000000000000000000000000000000000000000000000000000000 PUSH1 0x0 MSTORE PUSH1 0x41 PUSH1 0x4 MSTORE PUSH1 0x24 PUSH1 0x0 REVERT JUMPDEST PUSH2 0x6BC DUP3 PUSH2 0x673 JUMP JUMPDEST DUP2 ADD DUP2 DUP2 LT PUSH8 0xFFFFFFFFFFFFFFFF DUP3 GT OR ISZERO PUSH2 0x6DB JUMPI PUSH2 0x6DA PUSH2 0x684 JUMP JUMPDEST JUMPDEST DUP1 PUSH1 0x40 MSTORE POP POP POP JUMP JUMPDEST PUSH1 0x0 PUSH2 0x6EE PUSH2 0x655 JUMP JUMPDEST SWAP1 POP PUSH2 0x6FA DUP3 DUP3 PUSH2 0x6B3 JUMP JUMPDEST SWAP2 SWAP1 POP JUMP JUMPDEST PUSH1 0x0 PUSH8 0xFFFFFFFFFFFFFFFF DUP3 GT ISZERO PUSH2 0x71A JUMPI PUSH2 0x719 PUSH2 0x684 JUMP JUMPDEST JUMPDEST PUSH2 0x723 DUP3 PUSH2 0x673 JUMP JUMPDEST SWAP1 POP PUSH1 0x20 DUP2 ADD SWAP1 POP SWAP2 SWAP1 POP JUMP JUMPDEST DUP3 DUP2 DUP4 CALLDATACOPY PUSH1 0x0 DUP4 DUP4 ADD MSTORE POP POP POP JUMP JUMPDEST PUSH1 0x0 PUSH2 0x752 PUSH2 0x74D DUP5 PUSH2 0x6FF JUMP JUMPDEST PUSH2 0x6E4 JUMP JUMPDEST SWAP1 POP DUP3 DUP2 MSTORE PUSH1 0x20 DUP2 ADD DUP5 DUP5 DUP5 ADD GT ISZERO PUSH2 0x76E JUMPI PUSH2 0x76D PUSH2 0x66E JUMP JUMPDEST JUMPDEST PUSH2 0x779 DUP5 DUP3 DUP6 PUSH2 0x730 JUMP JUMPDEST POP SWAP4 SWAP3 POP POP POP JUMP JUMPDEST PUSH1 0x0 DUP3 PUSH1 0x1F DUP4 ADD SLT PUSH2 0x796 JUMPI PUSH2 0x795 PUSH2 0x669 JUMP JUMPDEST JUMPDEST DUP2 CALLDATALOAD PUSH2 0x7A6 DUP5 DUP3 PUSH1 0x20 DUP7 ADD PUSH2 0x73F JUMP JUMPDEST SWAP2 POP POP SWAP3 SWAP2 POP POP JUMP JUMPDEST PUSH1 0x0 PUSH1 0x20 DUP3 DUP5 SUB SLT ISZERO PUSH2 0x7C5 JUMPI PUSH2 0x7C4 PUSH2 0x65F JUMP JUMPDEST JUMPDEST PUSH1 0x0 DUP3 ADD CALLDATALOAD PUSH8 0xFFFFFFFFFFFFFFFF DUP2 GT ISZERO PUSH2 0x7E3 JUMPI PUSH2 0x7E2 PUSH2 0x664 JUMP JUMPDEST JUMPDEST PUSH2 0x7EF DUP5 DUP3 DUP6 ADD PUSH2 0x781 JUMP JUMPDEST SWAP2 POP POP SWAP3 SWAP2 POP POP JUMP JUMPDEST PUSH1 0x0 DUP2 ISZERO ISZERO SWAP1 POP SWAP2 SWAP1 POP JUMP JUMPDEST PUSH2 0x80D DUP2 PUSH2 0x7F8 JUMP JUMPDEST DUP3 MSTORE POP POP JUMP JUMPDEST PUSH1 0x0 DUP2 MLOAD SWAP1 POP SWAP2 SWAP1 POP JUMP JUMPDEST PUSH1 0x0 DUP3 DUP3 MSTORE PUSH1 0x20 DUP3 ADD SWAP1 POP SWAP3 SWAP2 POP POP JUMP JUMPDEST PUSH1 0x0 JUMPDEST DUP4 DUP2 LT ISZERO PUSH2 0x84D JUMPI DUP1 DUP3 ADD MLOAD DUP2 DUP5 ADD MSTORE PUSH1 0x20 DUP2 ADD SWAP1 POP PUSH2 0x832 JUMP JUMPDEST PUSH1 0x0 DUP5 DUP5 ADD MSTORE POP POP POP POP JUMP JUMPDEST PUSH1 0x0 PUSH2 0x864 DUP3 PUSH2 0x813 JUMP JUMPDEST PUSH2 0x86E DUP2 DUP6 PUSH2 0x81E JUMP JUMPDEST SWAP4 POP PUSH2 0x87E DUP2 DUP6 PUSH1 0x20 DUP7 ADD PUSH2 0x82F JUMP JUMPDEST PUSH2 0x887 DUP2 PUSH2 0x673 JUMP JUMPDEST DUP5 ADD SWAP2 POP POP SWAP3 SWAP2 POP POP JUMP JUMPDEST PUSH1 0x0 PUSH1 0x40 DUP3 ADD SWAP1 POP PUSH2 0x8A7 PUSH1 0x0 DUP4 ADD DUP6 PUSH2 0x804 JUMP JUMPDEST DUP2 DUP2 SUB PUSH1 0x20 DUP4 ADD MSTORE PUSH2 0x8B9 DUP2 DUP5 PUSH2 0x859 JUMP JUMPDEST SWAP1 POP SWAP4 SWAP3 POP POP POP JUMP JUMPDEST PUSH1 0x0 DUP1 REVERT JUMPDEST PUSH1 0x0 DUP1 REVERT JUMPDEST PUSH1 0x0 PUSH8 0xFFFFFFFFFFFFFFFF DUP3 GT ISZERO PUSH2 0x8E7 JUMPI PUSH2 0x8E6 PUSH2 0x684 JUMP JUMPDEST JUMPDEST PUSH1 0x20 DUP3 MUL SWAP1 POP SWAP2 SWAP1 POP JUMP JUMPDEST PUSH1 0x0 DUP1 REVERT JUMPDEST PUSH2 0x900 DUP2 PUSH2 0x227 JUMP JUMPDEST DUP2 EQ PUSH2 0x90B JUMPI PUSH1 0x0 DUP1 REVERT JUMPDEST POP JUMP JUMPDEST PUSH1 0x0 DUP2 MLOAD SWAP1 POP PUSH2 0x91D DUP2 PUSH2 0x8F7 JUMP JUMPDEST SWAP3 SWAP2 POP POP JUMP JUMPDEST PUSH1 0x0 PUSH2 0x936 PUSH2 0x931 DUP5 PUSH2 0x8CC JUMP JUMPDEST PUSH2 0x6E4 JUMP JUMPDEST SWAP1 POP DUP1 PUSH1 0x20 DUP5 MUL DUP4 ADD DUP6 DUP2 GT ISZERO PUSH2 0x950 JUMPI PUSH2 0x94F PUSH2 0x8F2 JUMP JUMPDEST JUMPDEST DUP4 JUMPDEST DUP2 DUP2 LT ISZERO PUSH2 0x979 JUMPI DUP1 PUSH2 0x965 DUP9 DUP3 PUSH2 0x90E JUMP JUMPDEST DUP5 MSTORE PUSH1 0x20 DUP5 ADD SWAP4 POP POP PUSH1 0x20 DUP2 ADD SWAP1 POP PUSH2 0x952 JUMP JUMPDEST POP POP POP SWAP4 SWAP3 POP POP POP JUMP JUMPDEST PUSH1 0x0 DUP3 PUSH1 0x1F DUP4 ADD SLT PUSH2 0x998 JUMPI PUSH2 0x997 PUSH2 0x669 JUMP JUMPDEST JUMPDEST PUSH1 0x10 PUSH2 0x9A5 DUP5 DUP3 DUP6 PUSH2 0x923 JUMP JUMPDEST SWAP2 POP POP SWAP3 SWAP2 POP POP JUMP JUMPDEST PUSH1 0x0 PUSH8 0xFFFFFFFFFFFFFFFF DUP3 GT ISZERO PUSH2 0x9C9 JUMPI PUSH2 0x9C8 PUSH2 0x684 JUMP JUMPDEST JUMPDEST PUSH1 0x20 DUP3 MUL SWAP1 POP PUSH1 0x20 DUP2 ADD SWAP1 POP SWAP2 SWAP1 POP JUMP JUMPDEST PUSH1 0x0 PUSH2 0x9ED PUSH2 0x9E8 DUP5 PUSH2 0x9AE JUMP JUMPDEST PUSH2 0x6E4 JUMP JUMPDEST SWAP1 POP DUP1 DUP4 DUP3 MSTORE PUSH1 0x20 DUP3 ADD SWAP1 POP PUSH2 0x200 DUP5 MUL DUP4 ADD DUP6 DUP2 GT ISZERO PUSH2 0xA11 JUMPI PUSH2 0xA10 PUSH2 0x8F2 JUMP JUMPDEST JUMPDEST DUP4 JUMPDEST DUP2 DUP2 LT ISZERO PUSH2 0xA3B JUMPI DUP1 PUSH2 0xA26 DUP9 DUP3 PUSH2 0x983 JUMP JUMPDEST DUP5 MSTORE PUSH1 0x20 DUP5 ADD SWAP4 POP POP PUSH2 0x200 DUP2 ADD SWAP1 POP PUSH2 0xA13 JUMP JUMPDEST POP POP POP SWAP4 SWAP3 POP POP POP JUMP JUMPDEST PUSH1 0x0 DUP3 PUSH1 0x1F DUP4 ADD SLT PUSH2 0xA5A JUMPI PUSH2 0xA59 PUSH2 0x669 JUMP JUMPDEST JUMPDEST DUP2 MLOAD PUSH2 0xA6A DUP5 DUP3 PUSH1 0x20 DUP7 ADD PUSH2 0x9DA JUMP JUMPDEST SWAP2 POP POP SWAP3 SWAP2 POP POP JUMP JUMPDEST PUSH1 0x0 PUSH8 0xFFFFFFFFFFFFFFFF DUP3 GT ISZERO PUSH2 0xA8E JUMPI PUSH2 0xA8D PUSH2 0x684 JUMP JUMPDEST JUMPDEST PUSH1 0x20 DUP3 MUL SWAP1 POP PUSH1 0x20 DUP2 ADD SWAP1 POP SWAP2 SWAP1 POP JUMP JUMPDEST PUSH1 0x0 PUSH8 0xFFFFFFFFFFFFFFFF DUP3 GT ISZERO PUSH2 0xABA JUMPI PUSH2 0xAB9 PUSH2 0x684 JUMP JUMPDEST JUMPDEST PUSH1 0x20 DUP3 MUL SWAP1 POP PUSH1 0x20 DUP2 ADD SWAP1 POP SWAP2 SWAP1 POP JUMP JUMPDEST PUSH2 0xAD4 DUP2 PUSH2 0x3C7 JUMP JUMPDEST DUP2 EQ PUSH2 0xADF JUMPI PUSH1 0x0 DUP1 REVERT JUMPDEST POP JUMP JUMPDEST PUSH1 0x0 DUP2 MLOAD SWAP1 POP PUSH2 0xAF1 DUP2 PUSH2 0xACB JUMP JUMPDEST SWAP3 SWAP2 POP POP JUMP JUMPDEST PUSH1 0x0 PUSH2 0xB0A PUSH2 0xB05 DUP5 PUSH2 0xA9F JUMP JUMPDEST PUSH2 0x6E4 JUMP JUMPDEST SWAP1 POP DUP1 DUP4 DUP3 MSTORE PUSH1 0x20 DUP3 ADD SWAP1 POP PUSH1 0x20 DUP5 MUL DUP4 ADD DUP6 DUP2 GT ISZERO PUSH2 0xB2D JUMPI PUSH2 0xB2C PUSH2 0x8F2 JUMP JUMPDEST JUMPDEST DUP4 JUMPDEST DUP2 DUP2 LT ISZERO PUSH2 0xB56 JUMPI DUP1 PUSH2 0xB42 DUP9 DUP3 PUSH2 0xAE2 JUMP JUMPDEST DUP5 MSTORE PUSH1 0x20 DUP5 ADD SWAP4 POP POP PUSH1 0x20 DUP2 ADD SWAP1 POP PUSH2 0xB2F JUMP JUMPDEST POP POP POP SWAP4 SWAP3 POP POP POP JUMP JUMPDEST PUSH1 0x0 DUP3 PUSH1 0x1F DUP4 ADD SLT PUSH2 0xB75 JUMPI PUSH2 0xB74 PUSH2 0x669 JUMP JUMPDEST JUMPDEST DUP2 MLOAD PUSH2 0xB85 DUP5 DUP3 PUSH1 0x20 DUP7 ADD PUSH2 0xAF7 JUMP JUMPDEST SWAP2 POP POP SWAP3 SWAP2 POP POP JUMP JUMPDEST PUSH1 0x0 PUSH2 0xBA1 PUSH2 0xB9C DUP5 PUSH2 0xA73 JUMP JUMPDEST PUSH2 0x6E4 JUMP JUMPDEST SWAP1 POP DUP1 DUP4 DUP3 MSTORE PUSH1 0x20 DUP3 ADD SWAP1 POP PUSH1 0x20 DUP5 MUL DUP4 ADD DUP6 DUP2 GT ISZERO PUSH2 0xBC4 JUMPI PUSH2 0xBC3 PUSH2 0x8F2 JUMP JUMPDEST JUMPDEST DUP4 JUMPDEST DUP2 DUP2 LT ISZERO PUSH2 0xC0B JUMPI DUP1 MLOAD PUSH8 0xFFFFFFFFFFFFFFFF DUP2 GT ISZERO PUSH2 0xBE9 JUMPI PUSH2 0xBE8 PUSH2 0x669 JUMP JUMPDEST JUMPDEST DUP1 DUP7 ADD PUSH2 0xBF6 DUP10 DUP3 PUSH2 0xB60 JUMP JUMPDEST DUP6 MSTORE PUSH1 0x20 DUP6 ADD SWAP5 POP POP POP PUSH1 0x20 DUP2 ADD SWAP1 POP PUSH2 0xBC6 JUMP JUMPDEST POP POP POP SWAP4 SWAP3 POP POP POP JUMP JUMPDEST PUSH1 0x0 DUP3 PUSH1 0x1F DUP4 ADD SLT PUSH2 0xC2A JUMPI PUSH2 0xC29 PUSH2 0x669 JUMP JUMPDEST JUMPDEST DUP2 MLOAD PUSH2 0xC3A DUP5 DUP3 PUSH1 0x20 DUP7 ADD PUSH2 0xB8E JUMP JUMPDEST SWAP2 POP POP SWAP3 SWAP2 POP POP JUMP JUMPDEST PUSH2 0xC4C DUP2 PUSH2 0x51C JUMP JUMPDEST DUP2 EQ PUSH2 0xC57 JUMPI PUSH1 0x0 DUP1 REVERT JUMPDEST POP JUMP JUMPDEST PUSH1 0x0 DUP2 MLOAD SWAP1 POP PUSH2 0xC69 DUP2 PUSH2 0xC43 JUMP JUMPDEST SWAP3 SWAP2 POP POP JUMP JUMPDEST PUSH1 0x0 PUSH2 0x320 DUP3 DUP5 SUB SLT ISZERO PUSH2 0xC86 JUMPI PUSH2 0xC85 PUSH2 0x8C2 JUMP JUMPDEST JUMPDEST PUSH2 0xC91 PUSH2 0x140 PUSH2 0x6E4 JUMP JUMPDEST SWAP1 POP PUSH1 0x0 PUSH2 0xCA1 DUP5 DUP3 DUP6 ADD PUSH2 0x983 JUMP JUMPDEST PUSH1 0x0 DUP4 ADD MSTORE POP PUSH2 0x200 DUP3 ADD MLOAD PUSH8 0xFFFFFFFFFFFFFFFF DUP2 GT ISZERO PUSH2 0xCC6 JUMPI PUSH2 0xCC5 PUSH2 0x8C7 JUMP JUMPDEST JUMPDEST PUSH2 0xCD2 DUP5 DUP3 DUP6 ADD PUSH2 0xA45 JUMP JUMPDEST PUSH1 0x20 DUP4 ADD MSTORE POP PUSH2 0x220 DUP3 ADD MLOAD PUSH8 0xFFFFFFFFFFFFFFFF DUP2 GT ISZERO PUSH2 0xCF7 JUMPI PUSH2 0xCF6 PUSH2 0x8C7 JUMP JUMPDEST JUMPDEST PUSH2 0xD03 DUP5 DUP3 DUP6 ADD PUSH2 0xA45 JUMP JUMPDEST PUSH1 0x40 DUP4 ADD MSTORE POP PUSH2 0x240 DUP3 ADD MLOAD PUSH8 0xFFFFFFFFFFFFFFFF DUP2 GT ISZERO PUSH2 0xD28 JUMPI PUSH2 0xD27 PUSH2 0x8C7 JUMP JUMPDEST JUMPDEST PUSH2 0xD34 DUP5 DUP3 DUP6 ADD PUSH2 0xA45 JUMP JUMPDEST PUSH1 0x60 DUP4 ADD MSTORE POP PUSH2 0x260 DUP3 ADD MLOAD PUSH8 0xFFFFFFFFFFFFFFFF DUP2 GT ISZERO PUSH2 0xD59 JUMPI PUSH2 0xD58 PUSH2 0x8C7 JUMP JUMPDEST JUMPDEST PUSH2 0xD65 DUP5 DUP3 DUP6 ADD PUSH2 0xC15 JUMP JUMPDEST PUSH1 0x80 DUP4 ADD MSTORE POP PUSH2 0x280 PUSH2 0xD7A DUP5 DUP3 DUP6 ADD PUSH2 0xAE2 JUMP JUMPDEST PUSH1 0xA0 DUP4 ADD MSTORE POP PUSH2 0x2A0 PUSH2 0xD8F DUP5 DUP3 DUP6 ADD PUSH2 0xAE2 JUMP JUMPDEST PUSH1 0xC0 DUP4 ADD MSTORE POP PUSH2 0x2C0 PUSH2 0xDA4 DUP5 DUP3 DUP6 ADD PUSH2 0xC5A JUMP JUMPDEST PUSH1 0xE0 DUP4 ADD MSTORE POP PUSH2 0x2E0 PUSH2 0xDB9 DUP5 DUP3 DUP6 ADD PUSH2 0xAE2 JUMP JUMPDEST PUSH2 0x100 DUP4 ADD MSTORE POP PUSH2 0x300 PUSH2 0xDCF DUP5 DUP3 DUP6 ADD PUSH2 0xAE2 JUMP JUMPDEST PUSH2 0x120 DUP4 ADD MSTORE POP SWAP3 SWAP2 POP POP JUMP JUMPDEST PUSH1 0x0 PUSH1 0x20 DUP3 DUP5 SUB SLT ISZERO PUSH2 0xDF2 JUMPI PUSH2 0xDF1 PUSH2 0x65F JUMP JUMPDEST JUMPDEST PUSH1 0x0 DUP3 ADD MLOAD PUSH8 0xFFFFFFFFFFFFFFFF DUP2 GT ISZERO PUSH2 0xE10 JUMPI PUSH2 0xE0F PUSH2 0x664 JUMP JUMPDEST JUMPDEST PUSH2 0xE1C DUP5 DUP3 DUP6 ADD PUSH2 0xC6F JUMP JUMPDEST SWAP2 POP POP SWAP3 SWAP2 POP POP JUMP JUMPDEST PUSH1 0x0 DUP2 SWAP1 POP SWAP3 SWAP2 POP POP JUMP JUMPDEST PUSH1 0x0 PUSH2 0xE3B DUP3 PUSH2 0x813 JUMP JUMPDEST PUSH2 0xE45 DUP2 DUP6 PUSH2 0xE25 JUMP JUMPDEST SWAP4 POP PUSH2 0xE55 DUP2 DUP6 PUSH1 0x20 DUP7 ADD PUSH2 0x82F JUMP JUMPDEST DUP1 DUP5 ADD SWAP2 POP POP SWAP3 SWAP2 POP POP JUMP JUMPDEST PUSH1 0x0 PUSH2 0xE6D DUP3 DUP5 PUSH2 0xE30 JUMP JUMPDEST SWAP2 POP DUP2 SWAP1 POP SWAP3 SWAP2 POP POP JUMP INVALID GAS PREVRANDAO GASLIMIT CALLDATASIZE SSTORE PUSH27 0x63774F6A4245416942524542346B36562B38564158784965394931 PUSH20 0x35363578655279456854637666743051746B5161 PUSH23 0x6452414967462F37674177454B31684358424933765374 JUMPI BASEFEE PUSH20 0x496E523536506A6270677237375A474E66594A57 BLOBBASEFEE CODESIZE PUSH25 0x4F6D46735A4855334F6E523563475666615752314D54593661 SELFBALANCE CHAINID PUSH11 0x61313968626D5266633278 PUSH9 0x633267794D6E55324F PUSH15 0x5A686248566C633252314D54493659 PC TIMESTAMP SLOAD PUSH5 0x4739755A55 0x4E PUSH23 0x64573530645445364D4855784D7A7068646D463059584A TIMESTAMP GAS SELFBALANCE MSTORE PUSH26 0x5A584E7A4D6A4136332B4F6C6D64334A7176774D35434D736F77 BALANCE TIMESTAMP 0x4B PUSH12 0x4E35654539314F44706A6233 0x4E ADDRESS PUSH5 0x57316C6332 PUSH25 0x6C645445774F6D567864576C776257567564484E734D545936 PUSH12 0x3068764D5351503345537178 BASEFEE PUSH6 0x354676502F5A PREVRANDAO GASLIMIT ORIGIN 0x4F PUSH15 0x45536454634F454468486A58582B61 CODESIZE PUSH12 0x2F6B674D784E6A7075747270 PREVRANDAO PUSH14 0x616E335135563432345932454A75 PUSH21 0x4D5459367647586E6B6A69546A6B36754544682F31 SSTORE PUSH15 0x4B6C5445324F6F436D467153793246 PUSH5 0x476C4D6579 MSTORE JUMP PREVRANDAO SLOAD PUSH5 0x3073784E6A PUSH18 0x41685236705A73724D526F532B3965754F58 CALLDATACOPY SLOAD PUSH15 0x4D54593679657473792F416561456D ADDRESS PC BLOBBASEFEE PC ORIGIN SELFBALANCE PC BALANCE 0x4B TIMESTAMP JUMPI JUMP BALANCE 0x4E SLOAD PUSH17 0x6D6232396B6332786C6454493661575178 0x4E PUSH11 0x70564D724F716F6A706354 PUSH16 0x2B737A4673615275357464544536636D PUSH25 0x73645445364D4855314F6A4D774D4441785A5756314E7A707A PUSH5 0x47466E5A55 PUSH13 0x6B64544D364D6A457764544530 0x4F PUSH15 0x5276644746735547786865554E7664 JUMPI CALLDATALOAD ADDRESS PUSH5 0x5445364D58 SSTORE CALLER 0x4F PUSH15 0x6476636D786B535752314D546F315A JUMPI JUMP PUSH13 0x4D54706E4D7A49365259496C44 MLOAD ORIGIN PUSH11 0x4F775A336D6F5231306F50 JUMP CALLER MSTORE8 GASLIMIT 0x4D PUSH2 0x4475 PUSH3 0x6D5A31 ADDRESS ADDRESS PREVRANDAO 0x2B PUSH20 0x54316A36613834784F6D78704E4755784F6D3173 GAS BASEFEE SSTORE PUSH25 0x4D7A706B5A574E7062574673554778685932567A4D546F5364 SLOAD PUSH4 0x3662576C PUSH22 0x64475679633235314E6A703061574E725A584A314E44 PUSH17 0x4E5A57466B5A576B784D4441774D444177 0x4D PREVRANDAO COINBASE PUSH24 0x4D4441774D4441774D4441775A5755784F6D35704D7A4578 0x4E PUSH14 0x55784F6E41324E546F4533776271 CHAINID MLOAD PUSH14 0x4131592B732F394B4B4666464330 PUSH20 0x6363686236664D3046624E327A49556362766578 PUSH21 0x71495A2B52476D397A5874692B634252424D68762B 0x2F PUSH8 0x685852366B30386C COINBASE PUSH25 0x4F554832694A764D597A4536637A49774F6D7450463474726E CALLER 0x4F PUSH10 0x41554B372F6F6E554F6A PUSH8 0x42423461444D5470 ADDRESS PUSH5 0x5449334F6A BLOBHASH PUSH24 0x4D6A51744D4463744D4456554D446B364D6A4D364D6A4175 0x4E SLOAD GASLIMIT CALLER 0x4E PUSH11 0x6332576A45366457786C5A MLOAD RETURNDATASIZE RETURNDATASIZE LOG2 PUSH5 0x6970667358 0x22 SLT KECCAK256 0xE6 GAS PUSH8 0x84A34DF52DC3CDDB 0xCC 0xB2 0xE4 0xD LOG0 PUSH29 0x63FF857D7B2190D6ACCF14E053B6F864736F6C63430008180033000000 "
        },
        "methodIdentifiers": {
          "actionDeserializer(bytes)": "bd77664e",
          "readHackAndSlash()": "824d6b3a"
        }
      }
    }
  }
}