{
  "contracts/Versatile.sol": {
    "Versatile": {
      "abi": [
        {
          "inputs": [
            {
              "internalType": "uint256",
              "name": "numberToHash",
              "type": "uint256"
            }
          ],
          "name": "hashSha256",
          "outputs": [
            {
              "internalType": "bytes32",
              "name": "h",
              "type": "bytes32"
            }
          ],
          "stateMutability": "view",
          "type": "function"
        },
        {
          "inputs": [
            {
              "internalType": "address",
              "name": "_addr",
              "type": "address"
            }
          ],
          "name": "isContract",
          "outputs": [
            {
              "internalType": "bool",
              "name": "",
              "type": "bool"
            }
          ],
          "stateMutability": "view",
          "type": "function"
        },
        {
          "inputs": [
            {
              "internalType": "bytes",
              "name": "input",
              "type": "bytes"
            }
          ],
          "name": "ret",
          "outputs": [
            {
              "internalType": "bool",
              "name": "ok",
              "type": "bool"
            },
            {
              "internalType": "bytes",
              "name": "out",
              "type": "bytes"
            }
          ],
          "stateMutability": "view",
          "type": "function"
        },
        {
          "inputs": [],
          "name": "serialize",
          "outputs": [],
          "stateMutability": "nonpayable",
          "type": "function"
        },
        {
          "inputs": [],
          "name": "value",
          "outputs": [
            {
              "internalType": "bytes",
              "name": "",
              "type": "bytes"
            }
          ],
          "stateMutability": "view",
          "type": "function"
        }
      ],
      "evm": {
        "bytecode": {
          "linkReferences": {},
          "object": "608060405234801561001057600080fd5b5061138c806100206000396000f3fe60806040523480156200001157600080fd5b50600436106200005e5760003560e01c80631627905514620000635780633fa4f2451462000099578063bc8018b114620000bb578063d121893114620000c7578063d5d4984e14620000fd575b600080fd5b6200008160048036038101906200007b919062000466565b62000134565b604051620000909190620004b5565b60405180910390f35b620000a36200014d565b604051620000b291906200056c565b60405180910390f35b620000c5620001e7565b005b620000e56004803603810190620000df9190620005cb565b6200029c565b604051620000f4919062000618565b60405180910390f35b6200011b600480360381019062000115919062000786565b62000360565b6040516200012b929190620007d7565b60405180910390f35b600080823b905060008163ffffffff1611915050919050565b6060600080546200015e906200083a565b80601f01602080910402602001604051908101604052809291908181526020018280546200018c906200083a565b8015620001dd5780601f10620001b157610100808354040283529160200191620001dd565b820191906000526020600020905b815481529060010190602001808311620001bf57829003601f168201915b5050505050905090565b600060017f62797465733332000000000000000000000000000000000000000000000000006040516200021a90620003df565b620002279291906200091d565b604051809103906000f08015801562000244573d6000803e3d6000fd5b5090506000806200027683604051602001620002619190620009c0565b60405160208183030381529060405262000360565b91509150816200028557600080fd5b806000908162000296919062000ba5565b50505050565b600080600290506000808273ffffffffffffffffffffffffffffffffffffffff1685604051602001620002d0919062000c9d565b604051602081830303815290604052604051620002ee919062000cfc565b600060405180830381855afa9150503d80600081146200032b576040519150601f19603f3d011682016040523d82523d6000602084013e62000330565b606091505b5091509150816200034057600080fd5b8080602001905181019062000356919062000d46565b9350505050919050565b60006060600061010090508073ffffffffffffffffffffffffffffffffffffffff168460405162000392919062000cfc565b600060405180830381855afa9150503d8060008114620003cf576040519150601f19603f3d011682016040523d82523d6000602084013e620003d4565b606091505b509250925050915091565b6105de8062000d7983390190565b6000604051905090565b600080fd5b600080fd5b600073ffffffffffffffffffffffffffffffffffffffff82169050919050565b60006200042e8262000401565b9050919050565b620004408162000421565b81146200044c57600080fd5b50565b600081359050620004608162000435565b92915050565b6000602082840312156200047f576200047e620003f7565b5b60006200048f848285016200044f565b91505092915050565b60008115159050919050565b620004af8162000498565b82525050565b6000602082019050620004cc6000830184620004a4565b92915050565b600081519050919050565b600082825260208201905092915050565b60005b838110156200050e578082015181840152602081019050620004f1565b60008484015250505050565b6000601f19601f8301169050919050565b60006200053882620004d2565b620005448185620004dd565b935062000556818560208601620004ee565b62000561816200051a565b840191505092915050565b600060208201905081810360008301526200058881846200052b565b905092915050565b6000819050919050565b620005a58162000590565b8114620005b157600080fd5b50565b600081359050620005c5816200059a565b92915050565b600060208284031215620005e457620005e3620003f7565b5b6000620005f484828501620005b4565b91505092915050565b6000819050919050565b6200061281620005fd565b82525050565b60006020820190506200062f600083018462000607565b92915050565b600080fd5b600080fd5b7f4e487b7100000000000000000000000000000000000000000000000000000000600052604160045260246000fd5b62000679826200051a565b810181811067ffffffffffffffff821117156200069b576200069a6200063f565b5b80604052505050565b6000620006b0620003ed565b9050620006be82826200066e565b919050565b600067ffffffffffffffff821115620006e157620006e06200063f565b5b620006ec826200051a565b9050602081019050919050565b82818337600083830152505050565b60006200071f6200071984620006c3565b620006a4565b9050828152602081018484840111156200073e576200073d6200063a565b5b6200074b848285620006f9565b509392505050565b600082601f8301126200076b576200076a62000635565b5b81356200077d84826020860162000708565b91505092915050565b6000602082840312156200079f576200079e620003f7565b5b600082013567ffffffffffffffff811115620007c057620007bf620003fc565b5b620007ce8482850162000753565b91505092915050565b6000604082019050620007ee6000830185620004a4565b81810360208301526200080281846200052b565b90509392505050565b7f4e487b7100000000000000000000000000000000000000000000000000000000600052602260045260246000fd5b600060028204905060018216806200085357607f821691505b6020821081036200086957620008686200080b565b5b50919050565b6000819050919050565b6000819050919050565b6000620008a46200089e62000898846200086f565b62000879565b62000590565b9050919050565b620008b68162000883565b82525050565b600082825260208201905092915050565b7f68656c6c6f000000000000000000000000000000000000000000000000000000600082015250565b600062000905600583620008bc565b91506200091282620008cd565b602082019050919050565b6000606082019050620009346000830185620008ab565b81810360208301526200094781620008f6565b905062000958604083018462000607565b9392505050565b6000620009806200097a620009748462000401565b62000879565b62000401565b9050919050565b600062000994826200095f565b9050919050565b6000620009a88262000987565b9050919050565b620009ba816200099b565b82525050565b6000602082019050620009d76000830184620009af565b92915050565b60008190508160005260206000209050919050565b60006020601f8301049050919050565b600082821b905092915050565b60006008830262000a417fffffffffffffffffffffffffffffffffffffffffffffffffffffffffffffffff8262000a02565b62000a4d868362000a02565b95508019841693508086168417925050509392505050565b600062000a8662000a8062000a7a8462000590565b62000879565b62000590565b9050919050565b6000819050919050565b62000aa28362000a65565b62000aba62000ab18262000a8d565b84845462000a0f565b825550505050565b600090565b62000ad162000ac2565b62000ade81848462000a97565b505050565b5b8181101562000b065762000afa60008262000ac7565b60018101905062000ae4565b5050565b601f82111562000b555762000b1f81620009dd565b62000b2a84620009f2565b8101602085101562000b3a578190505b62000b5262000b4985620009f2565b83018262000ae3565b50505b505050565b600082821c905092915050565b600062000b7a6000198460080262000b5a565b1980831691505092915050565b600062000b95838362000b67565b9150826002028217905092915050565b62000bb082620004d2565b67ffffffffffffffff81111562000bcc5762000bcb6200063f565b5b62000bd882546200083a565b62000be582828562000b0a565b600060209050601f83116001811462000c1d576000841562000c08578287015190505b62000c14858262000b87565b86555062000c84565b601f19841662000c2d86620009dd565b60005b8281101562000c575784890151825560018201915060208501945060208101905062000c30565b8683101562000c77578489015162000c73601f89168262000b67565b8355505b6001600288020188555050505b505050505050565b62000c978162000590565b82525050565b600060208201905062000cb4600083018462000c8c565b92915050565b600081905092915050565b600062000cd282620004d2565b62000cde818562000cba565b935062000cf0818560208601620004ee565b80840191505092915050565b600062000d0a828462000cc5565b915081905092915050565b62000d2081620005fd565b811462000d2c57600080fd5b50565b60008151905062000d408162000d15565b92915050565b60006020828403121562000d5f5762000d5e620003f7565b5b600062000d6f8482850162000d2f565b9150509291505056fe608060405234801561001057600080fd5b506040516105de3803806105de83398181016040528101906100329190610239565b82600081905550816001908161004891906104bf565b5080600281905550505050610591565b6000604051905090565b600080fd5b600080fd5b6000819050919050565b61007f8161006c565b811461008a57600080fd5b50565b60008151905061009c81610076565b92915050565b600080fd5b600080fd5b6000601f19601f8301169050919050565b7f4e487b7100000000000000000000000000000000000000000000000000000000600052604160045260246000fd5b6100f5826100ac565b810181811067ffffffffffffffff82111715610114576101136100bd565b5b80604052505050565b6000610127610058565b905061013382826100ec565b919050565b600067ffffffffffffffff821115610153576101526100bd565b5b61015c826100ac565b9050602081019050919050565b60005b8381101561018757808201518184015260208101905061016c565b60008484015250505050565b60006101a66101a184610138565b61011d565b9050828152602081018484840111156101c2576101c16100a7565b5b6101cd848285610169565b509392505050565b600082601f8301126101ea576101e96100a2565b5b81516101fa848260208601610193565b91505092915050565b6000819050919050565b61021681610203565b811461022157600080fd5b50565b6000815190506102338161020d565b92915050565b60008060006060848603121561025257610251610062565b5b60006102608682870161008d565b935050602084015167ffffffffffffffff81111561028157610280610067565b5b61028d868287016101d5565b925050604061029e86828701610224565b9150509250925092565b600081519050919050565b7f4e487b7100000000000000000000000000000000000000000000000000000000600052602260045260246000fd5b600060028204905060018216806102fa57607f821691505b60208210810361030d5761030c6102b3565b5b50919050565b60008190508160005260206000209050919050565b60006020601f8301049050919050565b600082821b905092915050565b6000600883026103757fffffffffffffffffffffffffffffffffffffffffffffffffffffffffffffffff82610338565b61037f8683610338565b95508019841693508086168417925050509392505050565b6000819050919050565b60006103bc6103b76103b28461006c565b610397565b61006c565b9050919050565b6000819050919050565b6103d6836103a1565b6103ea6103e2826103c3565b848454610345565b825550505050565b600090565b6103ff6103f2565b61040a8184846103cd565b505050565b5b8181101561042e576104236000826103f7565b600181019050610410565b5050565b601f8211156104735761044481610313565b61044d84610328565b8101602085101561045c578190505b61047061046885610328565b83018261040f565b50505b505050565b600082821c905092915050565b600061049660001984600802610478565b1980831691505092915050565b60006104af8383610485565b9150826002028217905092915050565b6104c8826102a8565b67ffffffffffffffff8111156104e1576104e06100bd565b5b6104eb82546102e2565b6104f6828285610432565b600060209050601f8311600181146105295760008415610517578287015190505b61052185826104a3565b865550610589565b601f19841661053786610313565b60005b8281101561055f5784890151825560018201915060208501945060208101905061053a565b8683101561057c5784890151610578601f891682610485565b8355505b6001600288020188555050505b505050505050565b603f8061059f6000396000f3fe6080604052600080fdfea26469706673582212202dba8a1bdfc10ed87d1c2c29df6426c3fd2a402233ba1a868b12ca3198027ead64736f6c63430008180033a2646970667358221220ca8e907e4cd927bef9c229082659dcd50e67b329bf27bbd351f3734a2b5f667664736f6c63430008180033",
          "opcodes": "PUSH1 0x80 PUSH1 0x40 MSTORE CALLVALUE DUP1 ISZERO PUSH2 0x10 JUMPI PUSH1 0x0 DUP1 REVERT JUMPDEST POP PUSH2 0x138C DUP1 PUSH2 0x20 PUSH1 0x0 CODECOPY PUSH1 0x0 RETURN INVALID PUSH1 0x80 PUSH1 0x40 MSTORE CALLVALUE DUP1 ISZERO PUSH3 0x11 JUMPI PUSH1 0x0 DUP1 REVERT JUMPDEST POP PUSH1 0x4 CALLDATASIZE LT PUSH3 0x5E JUMPI PUSH1 0x0 CALLDATALOAD PUSH1 0xE0 SHR DUP1 PUSH4 0x16279055 EQ PUSH3 0x63 JUMPI DUP1 PUSH4 0x3FA4F245 EQ PUSH3 0x99 JUMPI DUP1 PUSH4 0xBC8018B1 EQ PUSH3 0xBB JUMPI DUP1 PUSH4 0xD1218931 EQ PUSH3 0xC7 JUMPI DUP1 PUSH4 0xD5D4984E EQ PUSH3 0xFD JUMPI JUMPDEST PUSH1 0x0 DUP1 REVERT JUMPDEST PUSH3 0x81 PUSH1 0x4 DUP1 CALLDATASIZE SUB DUP2 ADD SWAP1 PUSH3 0x7B SWAP2 SWAP1 PUSH3 0x466 JUMP JUMPDEST PUSH3 0x134 JUMP JUMPDEST PUSH1 0x40 MLOAD PUSH3 0x90 SWAP2 SWAP1 PUSH3 0x4B5 JUMP JUMPDEST PUSH1 0x40 MLOAD DUP1 SWAP2 SUB SWAP1 RETURN JUMPDEST PUSH3 0xA3 PUSH3 0x14D JUMP JUMPDEST PUSH1 0x40 MLOAD PUSH3 0xB2 SWAP2 SWAP1 PUSH3 0x56C JUMP JUMPDEST PUSH1 0x40 MLOAD DUP1 SWAP2 SUB SWAP1 RETURN JUMPDEST PUSH3 0xC5 PUSH3 0x1E7 JUMP JUMPDEST STOP JUMPDEST PUSH3 0xE5 PUSH1 0x4 DUP1 CALLDATASIZE SUB DUP2 ADD SWAP1 PUSH3 0xDF SWAP2 SWAP1 PUSH3 0x5CB JUMP JUMPDEST PUSH3 0x29C JUMP JUMPDEST PUSH1 0x40 MLOAD PUSH3 0xF4 SWAP2 SWAP1 PUSH3 0x618 JUMP JUMPDEST PUSH1 0x40 MLOAD DUP1 SWAP2 SUB SWAP1 RETURN JUMPDEST PUSH3 0x11B PUSH1 0x4 DUP1 CALLDATASIZE SUB DUP2 ADD SWAP1 PUSH3 0x115 SWAP2 SWAP1 PUSH3 0x786 JUMP JUMPDEST PUSH3 0x360 JUMP JUMPDEST PUSH1 0x40 MLOAD PUSH3 0x12B SWAP3 SWAP2 SWAP1 PUSH3 0x7D7 JUMP JUMPDEST PUSH1 0x40 MLOAD DUP1 SWAP2 SUB SWAP1 RETURN JUMPDEST PUSH1 0x0 DUP1 DUP3 EXTCODESIZE SWAP1 POP PUSH1 0x0 DUP2 PUSH4 0xFFFFFFFF AND GT SWAP2 POP POP SWAP2 SWAP1 POP JUMP JUMPDEST PUSH1 0x60 PUSH1 0x0 DUP1 SLOAD PUSH3 0x15E SWAP1 PUSH3 0x83A JUMP JUMPDEST DUP1 PUSH1 0x1F ADD PUSH1 0x20 DUP1 SWAP2 DIV MUL PUSH1 0x20 ADD PUSH1 0x40 MLOAD SWAP1 DUP2 ADD PUSH1 0x40 MSTORE DUP1 SWAP3 SWAP2 SWAP1 DUP2 DUP2 MSTORE PUSH1 0x20 ADD DUP3 DUP1 SLOAD PUSH3 0x18C SWAP1 PUSH3 0x83A JUMP JUMPDEST DUP1 ISZERO PUSH3 0x1DD JUMPI DUP1 PUSH1 0x1F LT PUSH3 0x1B1 JUMPI PUSH2 0x100 DUP1 DUP4 SLOAD DIV MUL DUP4 MSTORE SWAP2 PUSH1 0x20 ADD SWAP2 PUSH3 0x1DD JUMP JUMPDEST DUP3 ADD SWAP2 SWAP1 PUSH1 0x0 MSTORE PUSH1 0x20 PUSH1 0x0 KECCAK256 SWAP1 JUMPDEST DUP2 SLOAD DUP2 MSTORE SWAP1 PUSH1 0x1 ADD SWAP1 PUSH1 0x20 ADD DUP1 DUP4 GT PUSH3 0x1BF JUMPI DUP3 SWAP1 SUB PUSH1 0x1F AND DUP3 ADD SWAP2 JUMPDEST POP POP POP POP POP SWAP1 POP SWAP1 JUMP JUMPDEST PUSH1 0x0 PUSH1 0x1 PUSH32 0x6279746573333200000000000000000000000000000000000000000000000000 PUSH1 0x40 MLOAD PUSH3 0x21A SWAP1 PUSH3 0x3DF JUMP JUMPDEST PUSH3 0x227 SWAP3 SWAP2 SWAP1 PUSH3 0x91D JUMP JUMPDEST PUSH1 0x40 MLOAD DUP1 SWAP2 SUB SWAP1 PUSH1 0x0 CREATE DUP1 ISZERO DUP1 ISZERO PUSH3 0x244 JUMPI RETURNDATASIZE PUSH1 0x0 DUP1 RETURNDATACOPY RETURNDATASIZE PUSH1 0x0 REVERT JUMPDEST POP SWAP1 POP PUSH1 0x0 DUP1 PUSH3 0x276 DUP4 PUSH1 0x40 MLOAD PUSH1 0x20 ADD PUSH3 0x261 SWAP2 SWAP1 PUSH3 0x9C0 JUMP JUMPDEST PUSH1 0x40 MLOAD PUSH1 0x20 DUP2 DUP4 SUB SUB DUP2 MSTORE SWAP1 PUSH1 0x40 MSTORE PUSH3 0x360 JUMP JUMPDEST SWAP2 POP SWAP2 POP DUP2 PUSH3 0x285 JUMPI PUSH1 0x0 DUP1 REVERT JUMPDEST DUP1 PUSH1 0x0 SWAP1 DUP2 PUSH3 0x296 SWAP2 SWAP1 PUSH3 0xBA5 JUMP JUMPDEST POP POP POP POP JUMP JUMPDEST PUSH1 0x0 DUP1 PUSH1 0x2 SWAP1 POP PUSH1 0x0 DUP1 DUP3 PUSH20 0xFFFFFFFFFFFFFFFFFFFFFFFFFFFFFFFFFFFFFFFF AND DUP6 PUSH1 0x40 MLOAD PUSH1 0x20 ADD PUSH3 0x2D0 SWAP2 SWAP1 PUSH3 0xC9D JUMP JUMPDEST PUSH1 0x40 MLOAD PUSH1 0x20 DUP2 DUP4 SUB SUB DUP2 MSTORE SWAP1 PUSH1 0x40 MSTORE PUSH1 0x40 MLOAD PUSH3 0x2EE SWAP2 SWAP1 PUSH3 0xCFC JUMP JUMPDEST PUSH1 0x0 PUSH1 0x40 MLOAD DUP1 DUP4 SUB DUP2 DUP6 GAS STATICCALL SWAP2 POP POP RETURNDATASIZE DUP1 PUSH1 0x0 DUP2 EQ PUSH3 0x32B JUMPI PUSH1 0x40 MLOAD SWAP2 POP PUSH1 0x1F NOT PUSH1 0x3F RETURNDATASIZE ADD AND DUP3 ADD PUSH1 0x40 MSTORE RETURNDATASIZE DUP3 MSTORE RETURNDATASIZE PUSH1 0x0 PUSH1 0x20 DUP5 ADD RETURNDATACOPY PUSH3 0x330 JUMP JUMPDEST PUSH1 0x60 SWAP2 POP JUMPDEST POP SWAP2 POP SWAP2 POP DUP2 PUSH3 0x340 JUMPI PUSH1 0x0 DUP1 REVERT JUMPDEST DUP1 DUP1 PUSH1 0x20 ADD SWAP1 MLOAD DUP2 ADD SWAP1 PUSH3 0x356 SWAP2 SWAP1 PUSH3 0xD46 JUMP JUMPDEST SWAP4 POP POP POP POP SWAP2 SWAP1 POP JUMP JUMPDEST PUSH1 0x0 PUSH1 0x60 PUSH1 0x0 PUSH2 0x100 SWAP1 POP DUP1 PUSH20 0xFFFFFFFFFFFFFFFFFFFFFFFFFFFFFFFFFFFFFFFF AND DUP5 PUSH1 0x40 MLOAD PUSH3 0x392 SWAP2 SWAP1 PUSH3 0xCFC JUMP JUMPDEST PUSH1 0x0 PUSH1 0x40 MLOAD DUP1 DUP4 SUB DUP2 DUP6 GAS STATICCALL SWAP2 POP POP RETURNDATASIZE DUP1 PUSH1 0x0 DUP2 EQ PUSH3 0x3CF JUMPI PUSH1 0x40 MLOAD SWAP2 POP PUSH1 0x1F NOT PUSH1 0x3F RETURNDATASIZE ADD AND DUP3 ADD PUSH1 0x40 MSTORE RETURNDATASIZE DUP3 MSTORE RETURNDATASIZE PUSH1 0x0 PUSH1 0x20 DUP5 ADD RETURNDATACOPY PUSH3 0x3D4 JUMP JUMPDEST PUSH1 0x60 SWAP2 POP JUMPDEST POP SWAP3 POP SWAP3 POP POP SWAP2 POP SWAP2 JUMP JUMPDEST PUSH2 0x5DE DUP1 PUSH3 0xD79 DUP4 CODECOPY ADD SWAP1 JUMP JUMPDEST PUSH1 0x0 PUSH1 0x40 MLOAD SWAP1 POP SWAP1 JUMP JUMPDEST PUSH1 0x0 DUP1 REVERT JUMPDEST PUSH1 0x0 DUP1 REVERT JUMPDEST PUSH1 0x0 PUSH20 0xFFFFFFFFFFFFFFFFFFFFFFFFFFFFFFFFFFFFFFFF DUP3 AND SWAP1 POP SWAP2 SWAP1 POP JUMP JUMPDEST PUSH1 0x0 PUSH3 0x42E DUP3 PUSH3 0x401 JUMP JUMPDEST SWAP1 POP SWAP2 SWAP1 POP JUMP JUMPDEST PUSH3 0x440 DUP2 PUSH3 0x421 JUMP JUMPDEST DUP2 EQ PUSH3 0x44C JUMPI PUSH1 0x0 DUP1 REVERT JUMPDEST POP JUMP JUMPDEST PUSH1 0x0 DUP2 CALLDATALOAD SWAP1 POP PUSH3 0x460 DUP2 PUSH3 0x435 JUMP JUMPDEST SWAP3 SWAP2 POP POP JUMP JUMPDEST PUSH1 0x0 PUSH1 0x20 DUP3 DUP5 SUB SLT ISZERO PUSH3 0x47F JUMPI PUSH3 0x47E PUSH3 0x3F7 JUMP JUMPDEST JUMPDEST PUSH1 0x0 PUSH3 0x48F DUP5 DUP3 DUP6 ADD PUSH3 0x44F JUMP JUMPDEST SWAP2 POP POP SWAP3 SWAP2 POP POP JUMP JUMPDEST PUSH1 0x0 DUP2 ISZERO ISZERO SWAP1 POP SWAP2 SWAP1 POP JUMP JUMPDEST PUSH3 0x4AF DUP2 PUSH3 0x498 JUMP JUMPDEST DUP3 MSTORE POP POP JUMP JUMPDEST PUSH1 0x0 PUSH1 0x20 DUP3 ADD SWAP1 POP PUSH3 0x4CC PUSH1 0x0 DUP4 ADD DUP5 PUSH3 0x4A4 JUMP JUMPDEST SWAP3 SWAP2 POP POP JUMP JUMPDEST PUSH1 0x0 DUP2 MLOAD SWAP1 POP SWAP2 SWAP1 POP JUMP JUMPDEST PUSH1 0x0 DUP3 DUP3 MSTORE PUSH1 0x20 DUP3 ADD SWAP1 POP SWAP3 SWAP2 POP POP JUMP JUMPDEST PUSH1 0x0 JUMPDEST DUP4 DUP2 LT ISZERO PUSH3 0x50E JUMPI DUP1 DUP3 ADD MLOAD DUP2 DUP5 ADD MSTORE PUSH1 0x20 DUP2 ADD SWAP1 POP PUSH3 0x4F1 JUMP JUMPDEST PUSH1 0x0 DUP5 DUP5 ADD MSTORE POP POP POP POP JUMP JUMPDEST PUSH1 0x0 PUSH1 0x1F NOT PUSH1 0x1F DUP4 ADD AND SWAP1 POP SWAP2 SWAP1 POP JUMP JUMPDEST PUSH1 0x0 PUSH3 0x538 DUP3 PUSH3 0x4D2 JUMP JUMPDEST PUSH3 0x544 DUP2 DUP6 PUSH3 0x4DD JUMP JUMPDEST SWAP4 POP PUSH3 0x556 DUP2 DUP6 PUSH1 0x20 DUP7 ADD PUSH3 0x4EE JUMP JUMPDEST PUSH3 0x561 DUP2 PUSH3 0x51A JUMP JUMPDEST DUP5 ADD SWAP2 POP POP SWAP3 SWAP2 POP POP JUMP JUMPDEST PUSH1 0x0 PUSH1 0x20 DUP3 ADD SWAP1 POP DUP2 DUP2 SUB PUSH1 0x0 DUP4 ADD MSTORE PUSH3 0x588 DUP2 DUP5 PUSH3 0x52B JUMP JUMPDEST SWAP1 POP SWAP3 SWAP2 POP POP JUMP JUMPDEST PUSH1 0x0 DUP2 SWAP1 POP SWAP2 SWAP1 POP JUMP JUMPDEST PUSH3 0x5A5 DUP2 PUSH3 0x590 JUMP JUMPDEST DUP2 EQ PUSH3 0x5B1 JUMPI PUSH1 0x0 DUP1 REVERT JUMPDEST POP JUMP JUMPDEST PUSH1 0x0 DUP2 CALLDATALOAD SWAP1 POP PUSH3 0x5C5 DUP2 PUSH3 0x59A JUMP JUMPDEST SWAP3 SWAP2 POP POP JUMP JUMPDEST PUSH1 0x0 PUSH1 0x20 DUP3 DUP5 SUB SLT ISZERO PUSH3 0x5E4 JUMPI PUSH3 0x5E3 PUSH3 0x3F7 JUMP JUMPDEST JUMPDEST PUSH1 0x0 PUSH3 0x5F4 DUP5 DUP3 DUP6 ADD PUSH3 0x5B4 JUMP JUMPDEST SWAP2 POP POP SWAP3 SWAP2 POP POP JUMP JUMPDEST PUSH1 0x0 DUP2 SWAP1 POP SWAP2 SWAP1 POP JUMP JUMPDEST PUSH3 0x612 DUP2 PUSH3 0x5FD JUMP JUMPDEST DUP3 MSTORE POP POP JUMP JUMPDEST PUSH1 0x0 PUSH1 0x20 DUP3 ADD SWAP1 POP PUSH3 0x62F PUSH1 0x0 DUP4 ADD DUP5 PUSH3 0x607 JUMP JUMPDEST SWAP3 SWAP2 POP POP JUMP JUMPDEST PUSH1 0x0 DUP1 REVERT JUMPDEST PUSH1 0x0 DUP1 REVERT JUMPDEST PUSH32 0x4E487B7100000000000000000000000000000000000000000000000000000000 PUSH1 0x0 MSTORE PUSH1 0x41 PUSH1 0x4 MSTORE PUSH1 0x24 PUSH1 0x0 REVERT JUMPDEST PUSH3 0x679 DUP3 PUSH3 0x51A JUMP JUMPDEST DUP2 ADD DUP2 DUP2 LT PUSH8 0xFFFFFFFFFFFFFFFF DUP3 GT OR ISZERO PUSH3 0x69B JUMPI PUSH3 0x69A PUSH3 0x63F JUMP JUMPDEST JUMPDEST DUP1 PUSH1 0x40 MSTORE POP POP POP JUMP JUMPDEST PUSH1 0x0 PUSH3 0x6B0 PUSH3 0x3ED JUMP JUMPDEST SWAP1 POP PUSH3 0x6BE DUP3 DUP3 PUSH3 0x66E JUMP JUMPDEST SWAP2 SWAP1 POP JUMP JUMPDEST PUSH1 0x0 PUSH8 0xFFFFFFFFFFFFFFFF DUP3 GT ISZERO PUSH3 0x6E1 JUMPI PUSH3 0x6E0 PUSH3 0x63F JUMP JUMPDEST JUMPDEST PUSH3 0x6EC DUP3 PUSH3 0x51A JUMP JUMPDEST SWAP1 POP PUSH1 0x20 DUP2 ADD SWAP1 POP SWAP2 SWAP1 POP JUMP JUMPDEST DUP3 DUP2 DUP4 CALLDATACOPY PUSH1 0x0 DUP4 DUP4 ADD MSTORE POP POP POP JUMP JUMPDEST PUSH1 0x0 PUSH3 0x71F PUSH3 0x719 DUP5 PUSH3 0x6C3 JUMP JUMPDEST PUSH3 0x6A4 JUMP JUMPDEST SWAP1 POP DUP3 DUP2 MSTORE PUSH1 0x20 DUP2 ADD DUP5 DUP5 DUP5 ADD GT ISZERO PUSH3 0x73E JUMPI PUSH3 0x73D PUSH3 0x63A JUMP JUMPDEST JUMPDEST PUSH3 0x74B DUP5 DUP3 DUP6 PUSH3 0x6F9 JUMP JUMPDEST POP SWAP4 SWAP3 POP POP POP JUMP JUMPDEST PUSH1 0x0 DUP3 PUSH1 0x1F DUP4 ADD SLT PUSH3 0x76B JUMPI PUSH3 0x76A PUSH3 0x635 JUMP JUMPDEST JUMPDEST DUP2 CALLDATALOAD PUSH3 0x77D DUP5 DUP3 PUSH1 0x20 DUP7 ADD PUSH3 0x708 JUMP JUMPDEST SWAP2 POP POP SWAP3 SWAP2 POP POP JUMP JUMPDEST PUSH1 0x0 PUSH1 0x20 DUP3 DUP5 SUB SLT ISZERO PUSH3 0x79F JUMPI PUSH3 0x79E PUSH3 0x3F7 JUMP JUMPDEST JUMPDEST PUSH1 0x0 DUP3 ADD CALLDATALOAD PUSH8 0xFFFFFFFFFFFFFFFF DUP2 GT ISZERO PUSH3 0x7C0 JUMPI PUSH3 0x7BF PUSH3 0x3FC JUMP JUMPDEST JUMPDEST PUSH3 0x7CE DUP5 DUP3 DUP6 ADD PUSH3 0x753 JUMP JUMPDEST SWAP2 POP POP SWAP3 SWAP2 POP POP JUMP JUMPDEST PUSH1 0x0 PUSH1 0x40 DUP3 ADD SWAP1 POP PUSH3 0x7EE PUSH1 0x0 DUP4 ADD DUP6 PUSH3 0x4A4 JUMP JUMPDEST DUP2 DUP2 SUB PUSH1 0x20 DUP4 ADD MSTORE PUSH3 0x802 DUP2 DUP5 PUSH3 0x52B JUMP JUMPDEST SWAP1 POP SWAP4 SWAP3 POP POP POP JUMP JUMPDEST PUSH32 0x4E487B7100000000000000000000000000000000000000000000000000000000 PUSH1 0x0 MSTORE PUSH1 0x22 PUSH1 0x4 MSTORE PUSH1 0x24 PUSH1 0x0 REVERT JUMPDEST PUSH1 0x0 PUSH1 0x2 DUP3 DIV SWAP1 POP PUSH1 0x1 DUP3 AND DUP1 PUSH3 0x853 JUMPI PUSH1 0x7F DUP3 AND SWAP2 POP JUMPDEST PUSH1 0x20 DUP3 LT DUP2 SUB PUSH3 0x869 JUMPI PUSH3 0x868 PUSH3 0x80B JUMP JUMPDEST JUMPDEST POP SWAP2 SWAP1 POP JUMP JUMPDEST PUSH1 0x0 DUP2 SWAP1 POP SWAP2 SWAP1 POP JUMP JUMPDEST PUSH1 0x0 DUP2 SWAP1 POP SWAP2 SWAP1 POP JUMP JUMPDEST PUSH1 0x0 PUSH3 0x8A4 PUSH3 0x89E PUSH3 0x898 DUP5 PUSH3 0x86F JUMP JUMPDEST PUSH3 0x879 JUMP JUMPDEST PUSH3 0x590 JUMP JUMPDEST SWAP1 POP SWAP2 SWAP1 POP JUMP JUMPDEST PUSH3 0x8B6 DUP2 PUSH3 0x883 JUMP JUMPDEST DUP3 MSTORE POP POP JUMP JUMPDEST PUSH1 0x0 DUP3 DUP3 MSTORE PUSH1 0x20 DUP3 ADD SWAP1 POP SWAP3 SWAP2 POP POP JUMP JUMPDEST PUSH32 0x68656C6C6F000000000000000000000000000000000000000000000000000000 PUSH1 0x0 DUP3 ADD MSTORE POP JUMP JUMPDEST PUSH1 0x0 PUSH3 0x905 PUSH1 0x5 DUP4 PUSH3 0x8BC JUMP JUMPDEST SWAP2 POP PUSH3 0x912 DUP3 PUSH3 0x8CD JUMP JUMPDEST PUSH1 0x20 DUP3 ADD SWAP1 POP SWAP2 SWAP1 POP JUMP JUMPDEST PUSH1 0x0 PUSH1 0x60 DUP3 ADD SWAP1 POP PUSH3 0x934 PUSH1 0x0 DUP4 ADD DUP6 PUSH3 0x8AB JUMP JUMPDEST DUP2 DUP2 SUB PUSH1 0x20 DUP4 ADD MSTORE PUSH3 0x947 DUP2 PUSH3 0x8F6 JUMP JUMPDEST SWAP1 POP PUSH3 0x958 PUSH1 0x40 DUP4 ADD DUP5 PUSH3 0x607 JUMP JUMPDEST SWAP4 SWAP3 POP POP POP JUMP JUMPDEST PUSH1 0x0 PUSH3 0x980 PUSH3 0x97A PUSH3 0x974 DUP5 PUSH3 0x401 JUMP JUMPDEST PUSH3 0x879 JUMP JUMPDEST PUSH3 0x401 JUMP JUMPDEST SWAP1 POP SWAP2 SWAP1 POP JUMP JUMPDEST PUSH1 0x0 PUSH3 0x994 DUP3 PUSH3 0x95F JUMP JUMPDEST SWAP1 POP SWAP2 SWAP1 POP JUMP JUMPDEST PUSH1 0x0 PUSH3 0x9A8 DUP3 PUSH3 0x987 JUMP JUMPDEST SWAP1 POP SWAP2 SWAP1 POP JUMP JUMPDEST PUSH3 0x9BA DUP2 PUSH3 0x99B JUMP JUMPDEST DUP3 MSTORE POP POP JUMP JUMPDEST PUSH1 0x0 PUSH1 0x20 DUP3 ADD SWAP1 POP PUSH3 0x9D7 PUSH1 0x0 DUP4 ADD DUP5 PUSH3 0x9AF JUMP JUMPDEST SWAP3 SWAP2 POP POP JUMP JUMPDEST PUSH1 0x0 DUP2 SWAP1 POP DUP2 PUSH1 0x0 MSTORE PUSH1 0x20 PUSH1 0x0 KECCAK256 SWAP1 POP SWAP2 SWAP1 POP JUMP JUMPDEST PUSH1 0x0 PUSH1 0x20 PUSH1 0x1F DUP4 ADD DIV SWAP1 POP SWAP2 SWAP1 POP JUMP JUMPDEST PUSH1 0x0 DUP3 DUP3 SHL SWAP1 POP SWAP3 SWAP2 POP POP JUMP JUMPDEST PUSH1 0x0 PUSH1 0x8 DUP4 MUL PUSH3 0xA41 PUSH32 0xFFFFFFFFFFFFFFFFFFFFFFFFFFFFFFFFFFFFFFFFFFFFFFFFFFFFFFFFFFFFFFFF DUP3 PUSH3 0xA02 JUMP JUMPDEST PUSH3 0xA4D DUP7 DUP4 PUSH3 0xA02 JUMP JUMPDEST SWAP6 POP DUP1 NOT DUP5 AND SWAP4 POP DUP1 DUP7 AND DUP5 OR SWAP3 POP POP POP SWAP4 SWAP3 POP POP POP JUMP JUMPDEST PUSH1 0x0 PUSH3 0xA86 PUSH3 0xA80 PUSH3 0xA7A DUP5 PUSH3 0x590 JUMP JUMPDEST PUSH3 0x879 JUMP JUMPDEST PUSH3 0x590 JUMP JUMPDEST SWAP1 POP SWAP2 SWAP1 POP JUMP JUMPDEST PUSH1 0x0 DUP2 SWAP1 POP SWAP2 SWAP1 POP JUMP JUMPDEST PUSH3 0xAA2 DUP4 PUSH3 0xA65 JUMP JUMPDEST PUSH3 0xABA PUSH3 0xAB1 DUP3 PUSH3 0xA8D JUMP JUMPDEST DUP5 DUP5 SLOAD PUSH3 0xA0F JUMP JUMPDEST DUP3 SSTORE POP POP POP POP JUMP JUMPDEST PUSH1 0x0 SWAP1 JUMP JUMPDEST PUSH3 0xAD1 PUSH3 0xAC2 JUMP JUMPDEST PUSH3 0xADE DUP2 DUP5 DUP5 PUSH3 0xA97 JUMP JUMPDEST POP POP POP JUMP JUMPDEST JUMPDEST DUP2 DUP2 LT ISZERO PUSH3 0xB06 JUMPI PUSH3 0xAFA PUSH1 0x0 DUP3 PUSH3 0xAC7 JUMP JUMPDEST PUSH1 0x1 DUP2 ADD SWAP1 POP PUSH3 0xAE4 JUMP JUMPDEST POP POP JUMP JUMPDEST PUSH1 0x1F DUP3 GT ISZERO PUSH3 0xB55 JUMPI PUSH3 0xB1F DUP2 PUSH3 0x9DD JUMP JUMPDEST PUSH3 0xB2A DUP5 PUSH3 0x9F2 JUMP JUMPDEST DUP2 ADD PUSH1 0x20 DUP6 LT ISZERO PUSH3 0xB3A JUMPI DUP2 SWAP1 POP JUMPDEST PUSH3 0xB52 PUSH3 0xB49 DUP6 PUSH3 0x9F2 JUMP JUMPDEST DUP4 ADD DUP3 PUSH3 0xAE3 JUMP JUMPDEST POP POP JUMPDEST POP POP POP JUMP JUMPDEST PUSH1 0x0 DUP3 DUP3 SHR SWAP1 POP SWAP3 SWAP2 POP POP JUMP JUMPDEST PUSH1 0x0 PUSH3 0xB7A PUSH1 0x0 NOT DUP5 PUSH1 0x8 MUL PUSH3 0xB5A JUMP JUMPDEST NOT DUP1 DUP4 AND SWAP2 POP POP SWAP3 SWAP2 POP POP JUMP JUMPDEST PUSH1 0x0 PUSH3 0xB95 DUP4 DUP4 PUSH3 0xB67 JUMP JUMPDEST SWAP2 POP DUP3 PUSH1 0x2 MUL DUP3 OR SWAP1 POP SWAP3 SWAP2 POP POP JUMP JUMPDEST PUSH3 0xBB0 DUP3 PUSH3 0x4D2 JUMP JUMPDEST PUSH8 0xFFFFFFFFFFFFFFFF DUP2 GT ISZERO PUSH3 0xBCC JUMPI PUSH3 0xBCB PUSH3 0x63F JUMP JUMPDEST JUMPDEST PUSH3 0xBD8 DUP3 SLOAD PUSH3 0x83A JUMP JUMPDEST PUSH3 0xBE5 DUP3 DUP3 DUP6 PUSH3 0xB0A JUMP JUMPDEST PUSH1 0x0 PUSH1 0x20 SWAP1 POP PUSH1 0x1F DUP4 GT PUSH1 0x1 DUP2 EQ PUSH3 0xC1D JUMPI PUSH1 0x0 DUP5 ISZERO PUSH3 0xC08 JUMPI DUP3 DUP8 ADD MLOAD SWAP1 POP JUMPDEST PUSH3 0xC14 DUP6 DUP3 PUSH3 0xB87 JUMP JUMPDEST DUP7 SSTORE POP PUSH3 0xC84 JUMP JUMPDEST PUSH1 0x1F NOT DUP5 AND PUSH3 0xC2D DUP7 PUSH3 0x9DD JUMP JUMPDEST PUSH1 0x0 JUMPDEST DUP3 DUP2 LT ISZERO PUSH3 0xC57 JUMPI DUP5 DUP10 ADD MLOAD DUP3 SSTORE PUSH1 0x1 DUP3 ADD SWAP2 POP PUSH1 0x20 DUP6 ADD SWAP5 POP PUSH1 0x20 DUP2 ADD SWAP1 POP PUSH3 0xC30 JUMP JUMPDEST DUP7 DUP4 LT ISZERO PUSH3 0xC77 JUMPI DUP5 DUP10 ADD MLOAD PUSH3 0xC73 PUSH1 0x1F DUP10 AND DUP3 PUSH3 0xB67 JUMP JUMPDEST DUP4 SSTORE POP JUMPDEST PUSH1 0x1 PUSH1 0x2 DUP9 MUL ADD DUP9 SSTORE POP POP POP JUMPDEST POP POP POP POP POP POP JUMP JUMPDEST PUSH3 0xC97 DUP2 PUSH3 0x590 JUMP JUMPDEST DUP3 MSTORE POP POP JUMP JUMPDEST PUSH1 0x0 PUSH1 0x20 DUP3 ADD SWAP1 POP PUSH3 0xCB4 PUSH1 0x0 DUP4 ADD DUP5 PUSH3 0xC8C JUMP JUMPDEST SWAP3 SWAP2 POP POP JUMP JUMPDEST PUSH1 0x0 DUP2 SWAP1 POP SWAP3 SWAP2 POP POP JUMP JUMPDEST PUSH1 0x0 PUSH3 0xCD2 DUP3 PUSH3 0x4D2 JUMP JUMPDEST PUSH3 0xCDE DUP2 DUP6 PUSH3 0xCBA JUMP JUMPDEST SWAP4 POP PUSH3 0xCF0 DUP2 DUP6 PUSH1 0x20 DUP7 ADD PUSH3 0x4EE JUMP JUMPDEST DUP1 DUP5 ADD SWAP2 POP POP SWAP3 SWAP2 POP POP JUMP JUMPDEST PUSH1 0x0 PUSH3 0xD0A DUP3 DUP5 PUSH3 0xCC5 JUMP JUMPDEST SWAP2 POP DUP2 SWAP1 POP SWAP3 SWAP2 POP POP JUMP JUMPDEST PUSH3 0xD20 DUP2 PUSH3 0x5FD JUMP JUMPDEST DUP2 EQ PUSH3 0xD2C JUMPI PUSH1 0x0 DUP1 REVERT JUMPDEST POP JUMP JUMPDEST PUSH1 0x0 DUP2 MLOAD SWAP1 POP PUSH3 0xD40 DUP2 PUSH3 0xD15 JUMP JUMPDEST SWAP3 SWAP2 POP POP JUMP JUMPDEST PUSH1 0x0 PUSH1 0x20 DUP3 DUP5 SUB SLT ISZERO PUSH3 0xD5F JUMPI PUSH3 0xD5E PUSH3 0x3F7 JUMP JUMPDEST JUMPDEST PUSH1 0x0 PUSH3 0xD6F DUP5 DUP3 DUP6 ADD PUSH3 0xD2F JUMP JUMPDEST SWAP2 POP POP SWAP3 SWAP2 POP POP JUMP INVALID PUSH1 0x80 PUSH1 0x40 MSTORE CALLVALUE DUP1 ISZERO PUSH2 0x10 JUMPI PUSH1 0x0 DUP1 REVERT JUMPDEST POP PUSH1 0x40 MLOAD PUSH2 0x5DE CODESIZE SUB DUP1 PUSH2 0x5DE DUP4 CODECOPY DUP2 DUP2 ADD PUSH1 0x40 MSTORE DUP2 ADD SWAP1 PUSH2 0x32 SWAP2 SWAP1 PUSH2 0x239 JUMP JUMPDEST DUP3 PUSH1 0x0 DUP2 SWAP1 SSTORE POP DUP2 PUSH1 0x1 SWAP1 DUP2 PUSH2 0x48 SWAP2 SWAP1 PUSH2 0x4BF JUMP JUMPDEST POP DUP1 PUSH1 0x2 DUP2 SWAP1 SSTORE POP POP POP POP PUSH2 0x591 JUMP JUMPDEST PUSH1 0x0 PUSH1 0x40 MLOAD SWAP1 POP SWAP1 JUMP JUMPDEST PUSH1 0x0 DUP1 REVERT JUMPDEST PUSH1 0x0 DUP1 REVERT JUMPDEST PUSH1 0x0 DUP2 SWAP1 POP SWAP2 SWAP1 POP JUMP JUMPDEST PUSH2 0x7F DUP2 PUSH2 0x6C JUMP JUMPDEST DUP2 EQ PUSH2 0x8A JUMPI PUSH1 0x0 DUP1 REVERT JUMPDEST POP JUMP JUMPDEST PUSH1 0x0 DUP2 MLOAD SWAP1 POP PUSH2 0x9C DUP2 PUSH2 0x76 JUMP JUMPDEST SWAP3 SWAP2 POP POP JUMP JUMPDEST PUSH1 0x0 DUP1 REVERT JUMPDEST PUSH1 0x0 DUP1 REVERT JUMPDEST PUSH1 0x0 PUSH1 0x1F NOT PUSH1 0x1F DUP4 ADD AND SWAP1 POP SWAP2 SWAP1 POP JUMP JUMPDEST PUSH32 0x4E487B7100000000000000000000000000000000000000000000000000000000 PUSH1 0x0 MSTORE PUSH1 0x41 PUSH1 0x4 MSTORE PUSH1 0x24 PUSH1 0x0 REVERT JUMPDEST PUSH2 0xF5 DUP3 PUSH2 0xAC JUMP JUMPDEST DUP2 ADD DUP2 DUP2 LT PUSH8 0xFFFFFFFFFFFFFFFF DUP3 GT OR ISZERO PUSH2 0x114 JUMPI PUSH2 0x113 PUSH2 0xBD JUMP JUMPDEST JUMPDEST DUP1 PUSH1 0x40 MSTORE POP POP POP JUMP JUMPDEST PUSH1 0x0 PUSH2 0x127 PUSH2 0x58 JUMP JUMPDEST SWAP1 POP PUSH2 0x133 DUP3 DUP3 PUSH2 0xEC JUMP JUMPDEST SWAP2 SWAP1 POP JUMP JUMPDEST PUSH1 0x0 PUSH8 0xFFFFFFFFFFFFFFFF DUP3 GT ISZERO PUSH2 0x153 JUMPI PUSH2 0x152 PUSH2 0xBD JUMP JUMPDEST JUMPDEST PUSH2 0x15C DUP3 PUSH2 0xAC JUMP JUMPDEST SWAP1 POP PUSH1 0x20 DUP2 ADD SWAP1 POP SWAP2 SWAP1 POP JUMP JUMPDEST PUSH1 0x0 JUMPDEST DUP4 DUP2 LT ISZERO PUSH2 0x187 JUMPI DUP1 DUP3 ADD MLOAD DUP2 DUP5 ADD MSTORE PUSH1 0x20 DUP2 ADD SWAP1 POP PUSH2 0x16C JUMP JUMPDEST PUSH1 0x0 DUP5 DUP5 ADD MSTORE POP POP POP POP JUMP JUMPDEST PUSH1 0x0 PUSH2 0x1A6 PUSH2 0x1A1 DUP5 PUSH2 0x138 JUMP JUMPDEST PUSH2 0x11D JUMP JUMPDEST SWAP1 POP DUP3 DUP2 MSTORE PUSH1 0x20 DUP2 ADD DUP5 DUP5 DUP5 ADD GT ISZERO PUSH2 0x1C2 JUMPI PUSH2 0x1C1 PUSH2 0xA7 JUMP JUMPDEST JUMPDEST PUSH2 0x1CD DUP5 DUP3 DUP6 PUSH2 0x169 JUMP JUMPDEST POP SWAP4 SWAP3 POP POP POP JUMP JUMPDEST PUSH1 0x0 DUP3 PUSH1 0x1F DUP4 ADD SLT PUSH2 0x1EA JUMPI PUSH2 0x1E9 PUSH2 0xA2 JUMP JUMPDEST JUMPDEST DUP2 MLOAD PUSH2 0x1FA DUP5 DUP3 PUSH1 0x20 DUP7 ADD PUSH2 0x193 JUMP JUMPDEST SWAP2 POP POP SWAP3 SWAP2 POP POP JUMP JUMPDEST PUSH1 0x0 DUP2 SWAP1 POP SWAP2 SWAP1 POP JUMP JUMPDEST PUSH2 0x216 DUP2 PUSH2 0x203 JUMP JUMPDEST DUP2 EQ PUSH2 0x221 JUMPI PUSH1 0x0 DUP1 REVERT JUMPDEST POP JUMP JUMPDEST PUSH1 0x0 DUP2 MLOAD SWAP1 POP PUSH2 0x233 DUP2 PUSH2 0x20D JUMP JUMPDEST SWAP3 SWAP2 POP POP JUMP JUMPDEST PUSH1 0x0 DUP1 PUSH1 0x0 PUSH1 0x60 DUP5 DUP7 SUB SLT ISZERO PUSH2 0x252 JUMPI PUSH2 0x251 PUSH2 0x62 JUMP JUMPDEST JUMPDEST PUSH1 0x0 PUSH2 0x260 DUP7 DUP3 DUP8 ADD PUSH2 0x8D JUMP JUMPDEST SWAP4 POP POP PUSH1 0x20 DUP5 ADD MLOAD PUSH8 0xFFFFFFFFFFFFFFFF DUP2 GT ISZERO PUSH2 0x281 JUMPI PUSH2 0x280 PUSH2 0x67 JUMP JUMPDEST JUMPDEST PUSH2 0x28D DUP7 DUP3 DUP8 ADD PUSH2 0x1D5 JUMP JUMPDEST SWAP3 POP POP PUSH1 0x40 PUSH2 0x29E DUP7 DUP3 DUP8 ADD PUSH2 0x224 JUMP JUMPDEST SWAP2 POP POP SWAP3 POP SWAP3 POP SWAP3 JUMP JUMPDEST PUSH1 0x0 DUP2 MLOAD SWAP1 POP SWAP2 SWAP1 POP JUMP JUMPDEST PUSH32 0x4E487B7100000000000000000000000000000000000000000000000000000000 PUSH1 0x0 MSTORE PUSH1 0x22 PUSH1 0x4 MSTORE PUSH1 0x24 PUSH1 0x0 REVERT JUMPDEST PUSH1 0x0 PUSH1 0x2 DUP3 DIV SWAP1 POP PUSH1 0x1 DUP3 AND DUP1 PUSH2 0x2FA JUMPI PUSH1 0x7F DUP3 AND SWAP2 POP JUMPDEST PUSH1 0x20 DUP3 LT DUP2 SUB PUSH2 0x30D JUMPI PUSH2 0x30C PUSH2 0x2B3 JUMP JUMPDEST JUMPDEST POP SWAP2 SWAP1 POP JUMP JUMPDEST PUSH1 0x0 DUP2 SWAP1 POP DUP2 PUSH1 0x0 MSTORE PUSH1 0x20 PUSH1 0x0 KECCAK256 SWAP1 POP SWAP2 SWAP1 POP JUMP JUMPDEST PUSH1 0x0 PUSH1 0x20 PUSH1 0x1F DUP4 ADD DIV SWAP1 POP SWAP2 SWAP1 POP JUMP JUMPDEST PUSH1 0x0 DUP3 DUP3 SHL SWAP1 POP SWAP3 SWAP2 POP POP JUMP JUMPDEST PUSH1 0x0 PUSH1 0x8 DUP4 MUL PUSH2 0x375 PUSH32 0xFFFFFFFFFFFFFFFFFFFFFFFFFFFFFFFFFFFFFFFFFFFFFFFFFFFFFFFFFFFFFFFF DUP3 PUSH2 0x338 JUMP JUMPDEST PUSH2 0x37F DUP7 DUP4 PUSH2 0x338 JUMP JUMPDEST SWAP6 POP DUP1 NOT DUP5 AND SWAP4 POP DUP1 DUP7 AND DUP5 OR SWAP3 POP POP POP SWAP4 SWAP3 POP POP POP JUMP JUMPDEST PUSH1 0x0 DUP2 SWAP1 POP SWAP2 SWAP1 POP JUMP JUMPDEST PUSH1 0x0 PUSH2 0x3BC PUSH2 0x3B7 PUSH2 0x3B2 DUP5 PUSH2 0x6C JUMP JUMPDEST PUSH2 0x397 JUMP JUMPDEST PUSH2 0x6C JUMP JUMPDEST SWAP1 POP SWAP2 SWAP1 POP JUMP JUMPDEST PUSH1 0x0 DUP2 SWAP1 POP SWAP2 SWAP1 POP JUMP JUMPDEST PUSH2 0x3D6 DUP4 PUSH2 0x3A1 JUMP JUMPDEST PUSH2 0x3EA PUSH2 0x3E2 DUP3 PUSH2 0x3C3 JUMP JUMPDEST DUP5 DUP5 SLOAD PUSH2 0x345 JUMP JUMPDEST DUP3 SSTORE POP POP POP POP JUMP JUMPDEST PUSH1 0x0 SWAP1 JUMP JUMPDEST PUSH2 0x3FF PUSH2 0x3F2 JUMP JUMPDEST PUSH2 0x40A DUP2 DUP5 DUP5 PUSH2 0x3CD JUMP JUMPDEST POP POP POP JUMP JUMPDEST JUMPDEST DUP2 DUP2 LT ISZERO PUSH2 0x42E JUMPI PUSH2 0x423 PUSH1 0x0 DUP3 PUSH2 0x3F7 JUMP JUMPDEST PUSH1 0x1 DUP2 ADD SWAP1 POP PUSH2 0x410 JUMP JUMPDEST POP POP JUMP JUMPDEST PUSH1 0x1F DUP3 GT ISZERO PUSH2 0x473 JUMPI PUSH2 0x444 DUP2 PUSH2 0x313 JUMP JUMPDEST PUSH2 0x44D DUP5 PUSH2 0x328 JUMP JUMPDEST DUP2 ADD PUSH1 0x20 DUP6 LT ISZERO PUSH2 0x45C JUMPI DUP2 SWAP1 POP JUMPDEST PUSH2 0x470 PUSH2 0x468 DUP6 PUSH2 0x328 JUMP JUMPDEST DUP4 ADD DUP3 PUSH2 0x40F JUMP JUMPDEST POP POP JUMPDEST POP POP POP JUMP JUMPDEST PUSH1 0x0 DUP3 DUP3 SHR SWAP1 POP SWAP3 SWAP2 POP POP JUMP JUMPDEST PUSH1 0x0 PUSH2 0x496 PUSH1 0x0 NOT DUP5 PUSH1 0x8 MUL PUSH2 0x478 JUMP JUMPDEST NOT DUP1 DUP4 AND SWAP2 POP POP SWAP3 SWAP2 POP POP JUMP JUMPDEST PUSH1 0x0 PUSH2 0x4AF DUP4 DUP4 PUSH2 0x485 JUMP JUMPDEST SWAP2 POP DUP3 PUSH1 0x2 MUL DUP3 OR SWAP1 POP SWAP3 SWAP2 POP POP JUMP JUMPDEST PUSH2 0x4C8 DUP3 PUSH2 0x2A8 JUMP JUMPDEST PUSH8 0xFFFFFFFFFFFFFFFF DUP2 GT ISZERO PUSH2 0x4E1 JUMPI PUSH2 0x4E0 PUSH2 0xBD JUMP JUMPDEST JUMPDEST PUSH2 0x4EB DUP3 SLOAD PUSH2 0x2E2 JUMP JUMPDEST PUSH2 0x4F6 DUP3 DUP3 DUP6 PUSH2 0x432 JUMP JUMPDEST PUSH1 0x0 PUSH1 0x20 SWAP1 POP PUSH1 0x1F DUP4 GT PUSH1 0x1 DUP2 EQ PUSH2 0x529 JUMPI PUSH1 0x0 DUP5 ISZERO PUSH2 0x517 JUMPI DUP3 DUP8 ADD MLOAD SWAP1 POP JUMPDEST PUSH2 0x521 DUP6 DUP3 PUSH2 0x4A3 JUMP JUMPDEST DUP7 SSTORE POP PUSH2 0x589 JUMP JUMPDEST PUSH1 0x1F NOT DUP5 AND PUSH2 0x537 DUP7 PUSH2 0x313 JUMP JUMPDEST PUSH1 0x0 JUMPDEST DUP3 DUP2 LT ISZERO PUSH2 0x55F JUMPI DUP5 DUP10 ADD MLOAD DUP3 SSTORE PUSH1 0x1 DUP3 ADD SWAP2 POP PUSH1 0x20 DUP6 ADD SWAP5 POP PUSH1 0x20 DUP2 ADD SWAP1 POP PUSH2 0x53A JUMP JUMPDEST DUP7 DUP4 LT ISZERO PUSH2 0x57C JUMPI DUP5 DUP10 ADD MLOAD PUSH2 0x578 PUSH1 0x1F DUP10 AND DUP3 PUSH2 0x485 JUMP JUMPDEST DUP4 SSTORE POP JUMPDEST PUSH1 0x1 PUSH1 0x2 DUP9 MUL ADD DUP9 SSTORE POP POP POP JUMPDEST POP POP POP POP POP POP JUMP JUMPDEST PUSH1 0x3F DUP1 PUSH2 0x59F PUSH1 0x0 CODECOPY PUSH1 0x0 RETURN INVALID PUSH1 0x80 PUSH1 0x40 MSTORE PUSH1 0x0 DUP1 REVERT INVALID LOG2 PUSH5 0x6970667358 0x22 SLT KECCAK256 0x2D 0xBA DUP11 SHL 0xDF 0xC1 0xE 0xD8 PUSH30 0x1C2C29DF6426C3FD2A402233BA1A868B12CA3198027EAD64736F6C634300 ADDMOD XOR STOP CALLER LOG2 PUSH5 0x6970667358 0x22 SLT KECCAK256 0xCA DUP15 SWAP1 PUSH31 0x4CD927BEF9C229082659DCD50E67B329BF27BBD351F3734A2B5F667664736F PUSH13 0x63430008180033000000000000 "
        },
        "methodIdentifiers": {
          "hashSha256(uint256)": "d1218931",
          "isContract(address)": "16279055",
          "ret(bytes)": "d5d4984e",
          "serialize()": "bc8018b1",
          "value()": "3fa4f245"
        }
      }
    }
  }
}