{
  "contracts/Versatile.sol": {
    "Versatile": {
      "abi": [
        {
          "inputs": [
            {
              "internalType": "uint256",
              "name": "numberToHash",
              "type": "uint256"
            }
          ],
          "name": "hashSha256",
          "outputs": [
            {
              "internalType": "bytes32",
              "name": "h",
              "type": "bytes32"
            }
          ],
          "stateMutability": "view",
          "type": "function"
        },
        {
          "inputs": [
            {
              "internalType": "uint256",
              "name": "input",
              "type": "uint256"
            }
          ],
          "name": "ret",
          "outputs": [
            {
              "internalType": "bytes32",
              "name": "r",
              "type": "bytes32"
            }
          ],
          "stateMutability": "view",
          "type": "function"
        }
      ],
      "evm": {
        "bytecode": {
          "linkReferences": {},
          "object": "608060405234801561001057600080fd5b50610497806100206000396000f3fe608060405234801561001057600080fd5b50600436106100365760003560e01c8063d12189311461003b578063e6b0eaf11461006b575b600080fd5b61005560048036038101906100509190610278565b61009b565b60405161006291906102be565b60405180910390f35b61008560048036038101906100809190610278565b610151565b60405161009291906102be565b60405180910390f35b6000806000600273ffffffffffffffffffffffffffffffffffffffff16846040516020016100c991906102e8565b6040516020818303038152906040526040516100e59190610374565b600060405180830381855afa9150503d8060008114610120576040519150601f19603f3d011682016040523d82523d6000602084013e610125565b606091505b50915091508161013457600080fd5b8080602001905181019061014891906103b7565b92505050919050565b6000806000606473ffffffffffffffffffffffffffffffffffffffff168460405160200161017f91906102e8565b60405160208183030381529060405260405161019b9190610374565b600060405180830381855afa9150503d80600081146101d6576040519150601f19603f3d011682016040523d82523d6000602084013e6101db565b606091505b509150915081610220576040517f08c379a000000000000000000000000000000000000000000000000000000000815260040161021790610441565b60405180910390fd5b8080602001905181019061023491906103b7565b92505050919050565b600080fd5b6000819050919050565b61025581610242565b811461026057600080fd5b50565b6000813590506102728161024c565b92915050565b60006020828403121561028e5761028d61023d565b5b600061029c84828501610263565b91505092915050565b6000819050919050565b6102b8816102a5565b82525050565b60006020820190506102d360008301846102af565b92915050565b6102e281610242565b82525050565b60006020820190506102fd60008301846102d9565b92915050565b600081519050919050565b600081905092915050565b60005b8381101561033757808201518184015260208101905061031c565b60008484015250505050565b600061034e82610303565b610358818561030e565b9350610368818560208601610319565b80840191505092915050565b60006103808284610343565b915081905092915050565b610394816102a5565b811461039f57600080fd5b50565b6000815190506103b18161038b565b92915050565b6000602082840312156103cd576103cc61023d565b5b60006103db848285016103a2565b91505092915050565b600082825260208201905092915050565b7f6661696c65640000000000000000000000000000000000000000000000000000600082015250565b600061042b6006836103e4565b9150610436826103f5565b602082019050919050565b6000602082019050818103600083015261045a8161041e565b905091905056fea264697066735822122060d0f01b8e9e742f14a12074833827ade977802823c0fb16a9d61c6076d3ba9964736f6c63430008180033",
          "opcodes": "PUSH1 0x80 PUSH1 0x40 MSTORE CALLVALUE DUP1 ISZERO PUSH2 0x10 JUMPI PUSH1 0x0 DUP1 REVERT JUMPDEST POP PUSH2 0x497 DUP1 PUSH2 0x20 PUSH1 0x0 CODECOPY PUSH1 0x0 RETURN INVALID PUSH1 0x80 PUSH1 0x40 MSTORE CALLVALUE DUP1 ISZERO PUSH2 0x10 JUMPI PUSH1 0x0 DUP1 REVERT JUMPDEST POP PUSH1 0x4 CALLDATASIZE LT PUSH2 0x36 JUMPI PUSH1 0x0 CALLDATALOAD PUSH1 0xE0 SHR DUP1 PUSH4 0xD1218931 EQ PUSH2 0x3B JUMPI DUP1 PUSH4 0xE6B0EAF1 EQ PUSH2 0x6B JUMPI JUMPDEST PUSH1 0x0 DUP1 REVERT JUMPDEST PUSH2 0x55 PUSH1 0x4 DUP1 CALLDATASIZE SUB DUP2 ADD SWAP1 PUSH2 0x50 SWAP2 SWAP1 PUSH2 0x278 JUMP JUMPDEST PUSH2 0x9B JUMP JUMPDEST PUSH1 0x40 MLOAD PUSH2 0x62 SWAP2 SWAP1 PUSH2 0x2BE JUMP JUMPDEST PUSH1 0x40 MLOAD DUP1 SWAP2 SUB SWAP1 RETURN JUMPDEST PUSH2 0x85 PUSH1 0x4 DUP1 CALLDATASIZE SUB DUP2 ADD SWAP1 PUSH2 0x80 SWAP2 SWAP1 PUSH2 0x278 JUMP JUMPDEST PUSH2 0x151 JUMP JUMPDEST PUSH1 0x40 MLOAD PUSH2 0x92 SWAP2 SWAP1 PUSH2 0x2BE JUMP JUMPDEST PUSH1 0x40 MLOAD DUP1 SWAP2 SUB SWAP1 RETURN JUMPDEST PUSH1 0x0 DUP1 PUSH1 0x0 PUSH1 0x2 PUSH20 0xFFFFFFFFFFFFFFFFFFFFFFFFFFFFFFFFFFFFFFFF AND DUP5 PUSH1 0x40 MLOAD PUSH1 0x20 ADD PUSH2 0xC9 SWAP2 SWAP1 PUSH2 0x2E8 JUMP JUMPDEST PUSH1 0x40 MLOAD PUSH1 0x20 DUP2 DUP4 SUB SUB DUP2 MSTORE SWAP1 PUSH1 0x40 MSTORE PUSH1 0x40 MLOAD PUSH2 0xE5 SWAP2 SWAP1 PUSH2 0x374 JUMP JUMPDEST PUSH1 0x0 PUSH1 0x40 MLOAD DUP1 DUP4 SUB DUP2 DUP6 GAS STATICCALL SWAP2 POP POP RETURNDATASIZE DUP1 PUSH1 0x0 DUP2 EQ PUSH2 0x120 JUMPI PUSH1 0x40 MLOAD SWAP2 POP PUSH1 0x1F NOT PUSH1 0x3F RETURNDATASIZE ADD AND DUP3 ADD PUSH1 0x40 MSTORE RETURNDATASIZE DUP3 MSTORE RETURNDATASIZE PUSH1 0x0 PUSH1 0x20 DUP5 ADD RETURNDATACOPY PUSH2 0x125 JUMP JUMPDEST PUSH1 0x60 SWAP2 POP JUMPDEST POP SWAP2 POP SWAP2 POP DUP2 PUSH2 0x134 JUMPI PUSH1 0x0 DUP1 REVERT JUMPDEST DUP1 DUP1 PUSH1 0x20 ADD SWAP1 MLOAD DUP2 ADD SWAP1 PUSH2 0x148 SWAP2 SWAP1 PUSH2 0x3B7 JUMP JUMPDEST SWAP3 POP POP POP SWAP2 SWAP1 POP JUMP JUMPDEST PUSH1 0x0 DUP1 PUSH1 0x0 PUSH1 0x64 PUSH20 0xFFFFFFFFFFFFFFFFFFFFFFFFFFFFFFFFFFFFFFFF AND DUP5 PUSH1 0x40 MLOAD PUSH1 0x20 ADD PUSH2 0x17F SWAP2 SWAP1 PUSH2 0x2E8 JUMP JUMPDEST PUSH1 0x40 MLOAD PUSH1 0x20 DUP2 DUP4 SUB SUB DUP2 MSTORE SWAP1 PUSH1 0x40 MSTORE PUSH1 0x40 MLOAD PUSH2 0x19B SWAP2 SWAP1 PUSH2 0x374 JUMP JUMPDEST PUSH1 0x0 PUSH1 0x40 MLOAD DUP1 DUP4 SUB DUP2 DUP6 GAS STATICCALL SWAP2 POP POP RETURNDATASIZE DUP1 PUSH1 0x0 DUP2 EQ PUSH2 0x1D6 JUMPI PUSH1 0x40 MLOAD SWAP2 POP PUSH1 0x1F NOT PUSH1 0x3F RETURNDATASIZE ADD AND DUP3 ADD PUSH1 0x40 MSTORE RETURNDATASIZE DUP3 MSTORE RETURNDATASIZE PUSH1 0x0 PUSH1 0x20 DUP5 ADD RETURNDATACOPY PUSH2 0x1DB JUMP JUMPDEST PUSH1 0x60 SWAP2 POP JUMPDEST POP SWAP2 POP SWAP2 POP DUP2 PUSH2 0x220 JUMPI PUSH1 0x40 MLOAD PUSH32 0x8C379A000000000000000000000000000000000000000000000000000000000 DUP2 MSTORE PUSH1 0x4 ADD PUSH2 0x217 SWAP1 PUSH2 0x441 JUMP JUMPDEST PUSH1 0x40 MLOAD DUP1 SWAP2 SUB SWAP1 REVERT JUMPDEST DUP1 DUP1 PUSH1 0x20 ADD SWAP1 MLOAD DUP2 ADD SWAP1 PUSH2 0x234 SWAP2 SWAP1 PUSH2 0x3B7 JUMP JUMPDEST SWAP3 POP POP POP SWAP2 SWAP1 POP JUMP JUMPDEST PUSH1 0x0 DUP1 REVERT JUMPDEST PUSH1 0x0 DUP2 SWAP1 POP SWAP2 SWAP1 POP JUMP JUMPDEST PUSH2 0x255 DUP2 PUSH2 0x242 JUMP JUMPDEST DUP2 EQ PUSH2 0x260 JUMPI PUSH1 0x0 DUP1 REVERT JUMPDEST POP JUMP JUMPDEST PUSH1 0x0 DUP2 CALLDATALOAD SWAP1 POP PUSH2 0x272 DUP2 PUSH2 0x24C JUMP JUMPDEST SWAP3 SWAP2 POP POP JUMP JUMPDEST PUSH1 0x0 PUSH1 0x20 DUP3 DUP5 SUB SLT ISZERO PUSH2 0x28E JUMPI PUSH2 0x28D PUSH2 0x23D JUMP JUMPDEST JUMPDEST PUSH1 0x0 PUSH2 0x29C DUP5 DUP3 DUP6 ADD PUSH2 0x263 JUMP JUMPDEST SWAP2 POP POP SWAP3 SWAP2 POP POP JUMP JUMPDEST PUSH1 0x0 DUP2 SWAP1 POP SWAP2 SWAP1 POP JUMP JUMPDEST PUSH2 0x2B8 DUP2 PUSH2 0x2A5 JUMP JUMPDEST DUP3 MSTORE POP POP JUMP JUMPDEST PUSH1 0x0 PUSH1 0x20 DUP3 ADD SWAP1 POP PUSH2 0x2D3 PUSH1 0x0 DUP4 ADD DUP5 PUSH2 0x2AF JUMP JUMPDEST SWAP3 SWAP2 POP POP JUMP JUMPDEST PUSH2 0x2E2 DUP2 PUSH2 0x242 JUMP JUMPDEST DUP3 MSTORE POP POP JUMP JUMPDEST PUSH1 0x0 PUSH1 0x20 DUP3 ADD SWAP1 POP PUSH2 0x2FD PUSH1 0x0 DUP4 ADD DUP5 PUSH2 0x2D9 JUMP JUMPDEST SWAP3 SWAP2 POP POP JUMP JUMPDEST PUSH1 0x0 DUP2 MLOAD SWAP1 POP SWAP2 SWAP1 POP JUMP JUMPDEST PUSH1 0x0 DUP2 SWAP1 POP SWAP3 SWAP2 POP POP JUMP JUMPDEST PUSH1 0x0 JUMPDEST DUP4 DUP2 LT ISZERO PUSH2 0x337 JUMPI DUP1 DUP3 ADD MLOAD DUP2 DUP5 ADD MSTORE PUSH1 0x20 DUP2 ADD SWAP1 POP PUSH2 0x31C JUMP JUMPDEST PUSH1 0x0 DUP5 DUP5 ADD MSTORE POP POP POP POP JUMP JUMPDEST PUSH1 0x0 PUSH2 0x34E DUP3 PUSH2 0x303 JUMP JUMPDEST PUSH2 0x358 DUP2 DUP6 PUSH2 0x30E JUMP JUMPDEST SWAP4 POP PUSH2 0x368 DUP2 DUP6 PUSH1 0x20 DUP7 ADD PUSH2 0x319 JUMP JUMPDEST DUP1 DUP5 ADD SWAP2 POP POP SWAP3 SWAP2 POP POP JUMP JUMPDEST PUSH1 0x0 PUSH2 0x380 DUP3 DUP5 PUSH2 0x343 JUMP JUMPDEST SWAP2 POP DUP2 SWAP1 POP SWAP3 SWAP2 POP POP JUMP JUMPDEST PUSH2 0x394 DUP2 PUSH2 0x2A5 JUMP JUMPDEST DUP2 EQ PUSH2 0x39F JUMPI PUSH1 0x0 DUP1 REVERT JUMPDEST POP JUMP JUMPDEST PUSH1 0x0 DUP2 MLOAD SWAP1 POP PUSH2 0x3B1 DUP2 PUSH2 0x38B JUMP JUMPDEST SWAP3 SWAP2 POP POP JUMP JUMPDEST PUSH1 0x0 PUSH1 0x20 DUP3 DUP5 SUB SLT ISZERO PUSH2 0x3CD JUMPI PUSH2 0x3CC PUSH2 0x23D JUMP JUMPDEST JUMPDEST PUSH1 0x0 PUSH2 0x3DB DUP5 DUP3 DUP6 ADD PUSH2 0x3A2 JUMP JUMPDEST SWAP2 POP POP SWAP3 SWAP2 POP POP JUMP JUMPDEST PUSH1 0x0 DUP3 DUP3 MSTORE PUSH1 0x20 DUP3 ADD SWAP1 POP SWAP3 SWAP2 POP POP JUMP JUMPDEST PUSH32 0x6661696C65640000000000000000000000000000000000000000000000000000 PUSH1 0x0 DUP3 ADD MSTORE POP JUMP JUMPDEST PUSH1 0x0 PUSH2 0x42B PUSH1 0x6 DUP4 PUSH2 0x3E4 JUMP JUMPDEST SWAP2 POP PUSH2 0x436 DUP3 PUSH2 0x3F5 JUMP JUMPDEST PUSH1 0x20 DUP3 ADD SWAP1 POP SWAP2 SWAP1 POP JUMP JUMPDEST PUSH1 0x0 PUSH1 0x20 DUP3 ADD SWAP1 POP DUP2 DUP2 SUB PUSH1 0x0 DUP4 ADD MSTORE PUSH2 0x45A DUP2 PUSH2 0x41E JUMP JUMPDEST SWAP1 POP SWAP2 SWAP1 POP JUMP INVALID LOG2 PUSH5 0x6970667358 0x22 SLT KECCAK256 PUSH1 0xD0 CREATE SHL DUP15 SWAP15 PUSH21 0x2F14A12074833827ADE977802823C0FB16A9D61C60 PUSH23 0xD3BA9964736F6C63430008180033000000000000000000 "
        },
        "methodIdentifiers": {
          "hashSha256(uint256)": "d1218931",
          "ret(uint256)": "e6b0eaf1"
        }
      }
    }
  }
}