{
  "contracts/Versatile.sol": {
    "Versatile": {
      "abi": [
        {
          "inputs": [
            {
              "internalType": "uint256",
              "name": "numberToHash",
              "type": "uint256"
            }
          ],
          "name": "hashSha256",
          "outputs": [
            {
              "internalType": "bytes32",
              "name": "h",
              "type": "bytes32"
            }
          ],
          "stateMutability": "view",
          "type": "function"
        },
        {
          "inputs": [
            {
              "internalType": "address",
              "name": "_addr",
              "type": "address"
            }
          ],
          "name": "isContract",
          "outputs": [
            {
              "internalType": "bool",
              "name": "",
              "type": "bool"
            }
          ],
          "stateMutability": "view",
          "type": "function"
        },
        {
          "inputs": [],
          "name": "ret",
          "outputs": [
            {
              "internalType": "bytes32",
              "name": "r",
              "type": "bytes32"
            }
          ],
          "stateMutability": "view",
          "type": "function"
        }
      ],
      "evm": {
        "bytecode": {
          "linkReferences": {},
          "object": "608060405234801561001057600080fd5b50610654806100206000396000f3fe608060405234801561001057600080fd5b50600436106100415760003560e01c806316279055146100465780631b08d96f14610076578063d121893114610094575b600080fd5b610060600480360381019061005b9190610325565b6100c4565b60405161006d919061036d565b60405180910390f35b61007e6100dd565b60405161008b91906103a1565b60405180910390f35b6100ae60048036038101906100a991906103f2565b610207565b6040516100bb91906103a1565b60405180910390f35b600080823b905060008163ffffffff1611915050919050565b60008061010090506000610126576040517f08c379a000000000000000000000000000000000000000000000000000000000815260040161011d9061047c565b60405180910390fd5b6000808273ffffffffffffffffffffffffffffffffffffffff16604051602001604051602081830303815290604052604051610162919061050d565b600060405180830381855afa9150503d806000811461019d576040519150601f19603f3d011682016040523d82523d6000602084013e6101a2565b606091505b50915091508181906101ea576040517f08c379a00000000000000000000000000000000000000000000000000000000081526004016101e19190610579565b60405180910390fd5b50808060200190518101906101ff91906105c7565b935050505090565b600080600290506000808273ffffffffffffffffffffffffffffffffffffffff16856040516020016102399190610603565b604051602081830303815290604052604051610255919061050d565b600060405180830381855afa9150503d8060008114610290576040519150601f19603f3d011682016040523d82523d6000602084013e610295565b606091505b5091509150816102a457600080fd5b808060200190518101906102b891906105c7565b9350505050919050565b600080fd5b600073ffffffffffffffffffffffffffffffffffffffff82169050919050565b60006102f2826102c7565b9050919050565b610302816102e7565b811461030d57600080fd5b50565b60008135905061031f816102f9565b92915050565b60006020828403121561033b5761033a6102c2565b5b600061034984828501610310565b91505092915050565b60008115159050919050565b61036781610352565b82525050565b6000602082019050610382600083018461035e565b92915050565b6000819050919050565b61039b81610388565b82525050565b60006020820190506103b66000830184610392565b92915050565b6000819050919050565b6103cf816103bc565b81146103da57600080fd5b50565b6000813590506103ec816103c6565b92915050565b600060208284031215610408576104076102c2565b5b6000610416848285016103dd565b91505092915050565b600082825260208201905092915050565b7f5468697320697320612074657374206572726f72206d65737361676500000000600082015250565b6000610466601c8361041f565b915061047182610430565b602082019050919050565b6000602082019050818103600083015261049581610459565b9050919050565b600081519050919050565b600081905092915050565b60005b838110156104d05780820151818401526020810190506104b5565b60008484015250505050565b60006104e78261049c565b6104f181856104a7565b93506105018185602086016104b2565b80840191505092915050565b600061051982846104dc565b915081905092915050565b600081519050919050565b6000601f19601f8301169050919050565b600061054b82610524565b610555818561041f565b93506105658185602086016104b2565b61056e8161052f565b840191505092915050565b600060208201905081810360008301526105938184610540565b905092915050565b6105a481610388565b81146105af57600080fd5b50565b6000815190506105c18161059b565b92915050565b6000602082840312156105dd576105dc6102c2565b5b60006105eb848285016105b2565b91505092915050565b6105fd816103bc565b82525050565b600060208201905061061860008301846105f4565b9291505056fea2646970667358221220b3ce2037a67ceda5407adf016d0f142e98d3fc7c4609665149fc6f798035ec0564736f6c63430008180033",
          "opcodes": "PUSH1 0x80 PUSH1 0x40 MSTORE CALLVALUE DUP1 ISZERO PUSH2 0x10 JUMPI PUSH1 0x0 DUP1 REVERT JUMPDEST POP PUSH2 0x654 DUP1 PUSH2 0x20 PUSH1 0x0 CODECOPY PUSH1 0x0 RETURN INVALID PUSH1 0x80 PUSH1 0x40 MSTORE CALLVALUE DUP1 ISZERO PUSH2 0x10 JUMPI PUSH1 0x0 DUP1 REVERT JUMPDEST POP PUSH1 0x4 CALLDATASIZE LT PUSH2 0x41 JUMPI PUSH1 0x0 CALLDATALOAD PUSH1 0xE0 SHR DUP1 PUSH4 0x16279055 EQ PUSH2 0x46 JUMPI DUP1 PUSH4 0x1B08D96F EQ PUSH2 0x76 JUMPI DUP1 PUSH4 0xD1218931 EQ PUSH2 0x94 JUMPI JUMPDEST PUSH1 0x0 DUP1 REVERT JUMPDEST PUSH2 0x60 PUSH1 0x4 DUP1 CALLDATASIZE SUB DUP2 ADD SWAP1 PUSH2 0x5B SWAP2 SWAP1 PUSH2 0x325 JUMP JUMPDEST PUSH2 0xC4 JUMP JUMPDEST PUSH1 0x40 MLOAD PUSH2 0x6D SWAP2 SWAP1 PUSH2 0x36D JUMP JUMPDEST PUSH1 0x40 MLOAD DUP1 SWAP2 SUB SWAP1 RETURN JUMPDEST PUSH2 0x7E PUSH2 0xDD JUMP JUMPDEST PUSH1 0x40 MLOAD PUSH2 0x8B SWAP2 SWAP1 PUSH2 0x3A1 JUMP JUMPDEST PUSH1 0x40 MLOAD DUP1 SWAP2 SUB SWAP1 RETURN JUMPDEST PUSH2 0xAE PUSH1 0x4 DUP1 CALLDATASIZE SUB DUP2 ADD SWAP1 PUSH2 0xA9 SWAP2 SWAP1 PUSH2 0x3F2 JUMP JUMPDEST PUSH2 0x207 JUMP JUMPDEST PUSH1 0x40 MLOAD PUSH2 0xBB SWAP2 SWAP1 PUSH2 0x3A1 JUMP JUMPDEST PUSH1 0x40 MLOAD DUP1 SWAP2 SUB SWAP1 RETURN JUMPDEST PUSH1 0x0 DUP1 DUP3 EXTCODESIZE SWAP1 POP PUSH1 0x0 DUP2 PUSH4 0xFFFFFFFF AND GT SWAP2 POP POP SWAP2 SWAP1 POP JUMP JUMPDEST PUSH1 0x0 DUP1 PUSH2 0x100 SWAP1 POP PUSH1 0x0 PUSH2 0x126 JUMPI PUSH1 0x40 MLOAD PUSH32 0x8C379A000000000000000000000000000000000000000000000000000000000 DUP2 MSTORE PUSH1 0x4 ADD PUSH2 0x11D SWAP1 PUSH2 0x47C JUMP JUMPDEST PUSH1 0x40 MLOAD DUP1 SWAP2 SUB SWAP1 REVERT JUMPDEST PUSH1 0x0 DUP1 DUP3 PUSH20 0xFFFFFFFFFFFFFFFFFFFFFFFFFFFFFFFFFFFFFFFF AND PUSH1 0x40 MLOAD PUSH1 0x20 ADD PUSH1 0x40 MLOAD PUSH1 0x20 DUP2 DUP4 SUB SUB DUP2 MSTORE SWAP1 PUSH1 0x40 MSTORE PUSH1 0x40 MLOAD PUSH2 0x162 SWAP2 SWAP1 PUSH2 0x50D JUMP JUMPDEST PUSH1 0x0 PUSH1 0x40 MLOAD DUP1 DUP4 SUB DUP2 DUP6 GAS STATICCALL SWAP2 POP POP RETURNDATASIZE DUP1 PUSH1 0x0 DUP2 EQ PUSH2 0x19D JUMPI PUSH1 0x40 MLOAD SWAP2 POP PUSH1 0x1F NOT PUSH1 0x3F RETURNDATASIZE ADD AND DUP3 ADD PUSH1 0x40 MSTORE RETURNDATASIZE DUP3 MSTORE RETURNDATASIZE PUSH1 0x0 PUSH1 0x20 DUP5 ADD RETURNDATACOPY PUSH2 0x1A2 JUMP JUMPDEST PUSH1 0x60 SWAP2 POP JUMPDEST POP SWAP2 POP SWAP2 POP DUP2 DUP2 SWAP1 PUSH2 0x1EA JUMPI PUSH1 0x40 MLOAD PUSH32 0x8C379A000000000000000000000000000000000000000000000000000000000 DUP2 MSTORE PUSH1 0x4 ADD PUSH2 0x1E1 SWAP2 SWAP1 PUSH2 0x579 JUMP JUMPDEST PUSH1 0x40 MLOAD DUP1 SWAP2 SUB SWAP1 REVERT JUMPDEST POP DUP1 DUP1 PUSH1 0x20 ADD SWAP1 MLOAD DUP2 ADD SWAP1 PUSH2 0x1FF SWAP2 SWAP1 PUSH2 0x5C7 JUMP JUMPDEST SWAP4 POP POP POP POP SWAP1 JUMP JUMPDEST PUSH1 0x0 DUP1 PUSH1 0x2 SWAP1 POP PUSH1 0x0 DUP1 DUP3 PUSH20 0xFFFFFFFFFFFFFFFFFFFFFFFFFFFFFFFFFFFFFFFF AND DUP6 PUSH1 0x40 MLOAD PUSH1 0x20 ADD PUSH2 0x239 SWAP2 SWAP1 PUSH2 0x603 JUMP JUMPDEST PUSH1 0x40 MLOAD PUSH1 0x20 DUP2 DUP4 SUB SUB DUP2 MSTORE SWAP1 PUSH1 0x40 MSTORE PUSH1 0x40 MLOAD PUSH2 0x255 SWAP2 SWAP1 PUSH2 0x50D JUMP JUMPDEST PUSH1 0x0 PUSH1 0x40 MLOAD DUP1 DUP4 SUB DUP2 DUP6 GAS STATICCALL SWAP2 POP POP RETURNDATASIZE DUP1 PUSH1 0x0 DUP2 EQ PUSH2 0x290 JUMPI PUSH1 0x40 MLOAD SWAP2 POP PUSH1 0x1F NOT PUSH1 0x3F RETURNDATASIZE ADD AND DUP3 ADD PUSH1 0x40 MSTORE RETURNDATASIZE DUP3 MSTORE RETURNDATASIZE PUSH1 0x0 PUSH1 0x20 DUP5 ADD RETURNDATACOPY PUSH2 0x295 JUMP JUMPDEST PUSH1 0x60 SWAP2 POP JUMPDEST POP SWAP2 POP SWAP2 POP DUP2 PUSH2 0x2A4 JUMPI PUSH1 0x0 DUP1 REVERT JUMPDEST DUP1 DUP1 PUSH1 0x20 ADD SWAP1 MLOAD DUP2 ADD SWAP1 PUSH2 0x2B8 SWAP2 SWAP1 PUSH2 0x5C7 JUMP JUMPDEST SWAP4 POP POP POP POP SWAP2 SWAP1 POP JUMP JUMPDEST PUSH1 0x0 DUP1 REVERT JUMPDEST PUSH1 0x0 PUSH20 0xFFFFFFFFFFFFFFFFFFFFFFFFFFFFFFFFFFFFFFFF DUP3 AND SWAP1 POP SWAP2 SWAP1 POP JUMP JUMPDEST PUSH1 0x0 PUSH2 0x2F2 DUP3 PUSH2 0x2C7 JUMP JUMPDEST SWAP1 POP SWAP2 SWAP1 POP JUMP JUMPDEST PUSH2 0x302 DUP2 PUSH2 0x2E7 JUMP JUMPDEST DUP2 EQ PUSH2 0x30D JUMPI PUSH1 0x0 DUP1 REVERT JUMPDEST POP JUMP JUMPDEST PUSH1 0x0 DUP2 CALLDATALOAD SWAP1 POP PUSH2 0x31F DUP2 PUSH2 0x2F9 JUMP JUMPDEST SWAP3 SWAP2 POP POP JUMP JUMPDEST PUSH1 0x0 PUSH1 0x20 DUP3 DUP5 SUB SLT ISZERO PUSH2 0x33B JUMPI PUSH2 0x33A PUSH2 0x2C2 JUMP JUMPDEST JUMPDEST PUSH1 0x0 PUSH2 0x349 DUP5 DUP3 DUP6 ADD PUSH2 0x310 JUMP JUMPDEST SWAP2 POP POP SWAP3 SWAP2 POP POP JUMP JUMPDEST PUSH1 0x0 DUP2 ISZERO ISZERO SWAP1 POP SWAP2 SWAP1 POP JUMP JUMPDEST PUSH2 0x367 DUP2 PUSH2 0x352 JUMP JUMPDEST DUP3 MSTORE POP POP JUMP JUMPDEST PUSH1 0x0 PUSH1 0x20 DUP3 ADD SWAP1 POP PUSH2 0x382 PUSH1 0x0 DUP4 ADD DUP5 PUSH2 0x35E JUMP JUMPDEST SWAP3 SWAP2 POP POP JUMP JUMPDEST PUSH1 0x0 DUP2 SWAP1 POP SWAP2 SWAP1 POP JUMP JUMPDEST PUSH2 0x39B DUP2 PUSH2 0x388 JUMP JUMPDEST DUP3 MSTORE POP POP JUMP JUMPDEST PUSH1 0x0 PUSH1 0x20 DUP3 ADD SWAP1 POP PUSH2 0x3B6 PUSH1 0x0 DUP4 ADD DUP5 PUSH2 0x392 JUMP JUMPDEST SWAP3 SWAP2 POP POP JUMP JUMPDEST PUSH1 0x0 DUP2 SWAP1 POP SWAP2 SWAP1 POP JUMP JUMPDEST PUSH2 0x3CF DUP2 PUSH2 0x3BC JUMP JUMPDEST DUP2 EQ PUSH2 0x3DA JUMPI PUSH1 0x0 DUP1 REVERT JUMPDEST POP JUMP JUMPDEST PUSH1 0x0 DUP2 CALLDATALOAD SWAP1 POP PUSH2 0x3EC DUP2 PUSH2 0x3C6 JUMP JUMPDEST SWAP3 SWAP2 POP POP JUMP JUMPDEST PUSH1 0x0 PUSH1 0x20 DUP3 DUP5 SUB SLT ISZERO PUSH2 0x408 JUMPI PUSH2 0x407 PUSH2 0x2C2 JUMP JUMPDEST JUMPDEST PUSH1 0x0 PUSH2 0x416 DUP5 DUP3 DUP6 ADD PUSH2 0x3DD JUMP JUMPDEST SWAP2 POP POP SWAP3 SWAP2 POP POP JUMP JUMPDEST PUSH1 0x0 DUP3 DUP3 MSTORE PUSH1 0x20 DUP3 ADD SWAP1 POP SWAP3 SWAP2 POP POP JUMP JUMPDEST PUSH32 0x5468697320697320612074657374206572726F72206D65737361676500000000 PUSH1 0x0 DUP3 ADD MSTORE POP JUMP JUMPDEST PUSH1 0x0 PUSH2 0x466 PUSH1 0x1C DUP4 PUSH2 0x41F JUMP JUMPDEST SWAP2 POP PUSH2 0x471 DUP3 PUSH2 0x430 JUMP JUMPDEST PUSH1 0x20 DUP3 ADD SWAP1 POP SWAP2 SWAP1 POP JUMP JUMPDEST PUSH1 0x0 PUSH1 0x20 DUP3 ADD SWAP1 POP DUP2 DUP2 SUB PUSH1 0x0 DUP4 ADD MSTORE PUSH2 0x495 DUP2 PUSH2 0x459 JUMP JUMPDEST SWAP1 POP SWAP2 SWAP1 POP JUMP JUMPDEST PUSH1 0x0 DUP2 MLOAD SWAP1 POP SWAP2 SWAP1 POP JUMP JUMPDEST PUSH1 0x0 DUP2 SWAP1 POP SWAP3 SWAP2 POP POP JUMP JUMPDEST PUSH1 0x0 JUMPDEST DUP4 DUP2 LT ISZERO PUSH2 0x4D0 JUMPI DUP1 DUP3 ADD MLOAD DUP2 DUP5 ADD MSTORE PUSH1 0x20 DUP2 ADD SWAP1 POP PUSH2 0x4B5 JUMP JUMPDEST PUSH1 0x0 DUP5 DUP5 ADD MSTORE POP POP POP POP JUMP JUMPDEST PUSH1 0x0 PUSH2 0x4E7 DUP3 PUSH2 0x49C JUMP JUMPDEST PUSH2 0x4F1 DUP2 DUP6 PUSH2 0x4A7 JUMP JUMPDEST SWAP4 POP PUSH2 0x501 DUP2 DUP6 PUSH1 0x20 DUP7 ADD PUSH2 0x4B2 JUMP JUMPDEST DUP1 DUP5 ADD SWAP2 POP POP SWAP3 SWAP2 POP POP JUMP JUMPDEST PUSH1 0x0 PUSH2 0x519 DUP3 DUP5 PUSH2 0x4DC JUMP JUMPDEST SWAP2 POP DUP2 SWAP1 POP SWAP3 SWAP2 POP POP JUMP JUMPDEST PUSH1 0x0 DUP2 MLOAD SWAP1 POP SWAP2 SWAP1 POP JUMP JUMPDEST PUSH1 0x0 PUSH1 0x1F NOT PUSH1 0x1F DUP4 ADD AND SWAP1 POP SWAP2 SWAP1 POP JUMP JUMPDEST PUSH1 0x0 PUSH2 0x54B DUP3 PUSH2 0x524 JUMP JUMPDEST PUSH2 0x555 DUP2 DUP6 PUSH2 0x41F JUMP JUMPDEST SWAP4 POP PUSH2 0x565 DUP2 DUP6 PUSH1 0x20 DUP7 ADD PUSH2 0x4B2 JUMP JUMPDEST PUSH2 0x56E DUP2 PUSH2 0x52F JUMP JUMPDEST DUP5 ADD SWAP2 POP POP SWAP3 SWAP2 POP POP JUMP JUMPDEST PUSH1 0x0 PUSH1 0x20 DUP3 ADD SWAP1 POP DUP2 DUP2 SUB PUSH1 0x0 DUP4 ADD MSTORE PUSH2 0x593 DUP2 DUP5 PUSH2 0x540 JUMP JUMPDEST SWAP1 POP SWAP3 SWAP2 POP POP JUMP JUMPDEST PUSH2 0x5A4 DUP2 PUSH2 0x388 JUMP JUMPDEST DUP2 EQ PUSH2 0x5AF JUMPI PUSH1 0x0 DUP1 REVERT JUMPDEST POP JUMP JUMPDEST PUSH1 0x0 DUP2 MLOAD SWAP1 POP PUSH2 0x5C1 DUP2 PUSH2 0x59B JUMP JUMPDEST SWAP3 SWAP2 POP POP JUMP JUMPDEST PUSH1 0x0 PUSH1 0x20 DUP3 DUP5 SUB SLT ISZERO PUSH2 0x5DD JUMPI PUSH2 0x5DC PUSH2 0x2C2 JUMP JUMPDEST JUMPDEST PUSH1 0x0 PUSH2 0x5EB DUP5 DUP3 DUP6 ADD PUSH2 0x5B2 JUMP JUMPDEST SWAP2 POP POP SWAP3 SWAP2 POP POP JUMP JUMPDEST PUSH2 0x5FD DUP2 PUSH2 0x3BC JUMP JUMPDEST DUP3 MSTORE POP POP JUMP JUMPDEST PUSH1 0x0 PUSH1 0x20 DUP3 ADD SWAP1 POP PUSH2 0x618 PUSH1 0x0 DUP4 ADD DUP5 PUSH2 0x5F4 JUMP JUMPDEST SWAP3 SWAP2 POP POP JUMP INVALID LOG2 PUSH5 0x6970667358 0x22 SLT KECCAK256 0xB3 0xCE KECCAK256 CALLDATACOPY 0xA6 PUSH29 0xEDA5407ADF016D0F142E98D3FC7C4609665149FC6F798035EC0564736F PUSH13 0x63430008180033000000000000 "
        },
        "methodIdentifiers": {
          "hashSha256(uint256)": "d1218931",
          "isContract(address)": "16279055",
          "ret()": "1b08d96f"
        }
      }
    }
  }
}