{
  "contracts/Versatile.sol": {
    "Versatile": {
      "abi": [
        {
          "inputs": [
            {
              "internalType": "uint256",
              "name": "numberToHash",
              "type": "uint256"
            }
          ],
          "name": "hashSha256",
          "outputs": [
            {
              "internalType": "bytes32",
              "name": "h",
              "type": "bytes32"
            }
          ],
          "stateMutability": "view",
          "type": "function"
        },
        {
          "inputs": [
            {
              "internalType": "bytes32",
              "name": "input",
              "type": "bytes32"
            }
          ],
          "name": "ret",
          "outputs": [
            {
              "internalType": "bytes32",
              "name": "r",
              "type": "bytes32"
            }
          ],
          "stateMutability": "view",
          "type": "function"
        }
      ],
      "evm": {
        "bytecode": {
          "linkReferences": {},
          "object": "608060405234801561001057600080fd5b50610426806100206000396000f3fe608060405234801561001057600080fd5b50600436106100365760003560e01c80634d4221e71461003b578063d12189311461006b575b600080fd5b61005560048036038101906100509190610242565b61009b565b604051610062919061027e565b60405180910390f35b610085600480360381019061008091906102cf565b610151565b604051610092919061027e565b60405180910390f35b6000806000606473ffffffffffffffffffffffffffffffffffffffff16846040516020016100c9919061027e565b6040516020818303038152906040526040516100e5919061036d565b600060405180830381855afa9150503d8060008114610120576040519150601f19603f3d011682016040523d82523d6000602084013e610125565b606091505b50915091508161013457600080fd5b808060200190518101906101489190610399565b92505050919050565b6000806000600273ffffffffffffffffffffffffffffffffffffffff168460405160200161017f91906103d5565b60405160208183030381529060405260405161019b919061036d565b600060405180830381855afa9150503d80600081146101d6576040519150601f19603f3d011682016040523d82523d6000602084013e6101db565b606091505b5091509150816101ea57600080fd5b808060200190518101906101fe9190610399565b92505050919050565b600080fd5b6000819050919050565b61021f8161020c565b811461022a57600080fd5b50565b60008135905061023c81610216565b92915050565b60006020828403121561025857610257610207565b5b60006102668482850161022d565b91505092915050565b6102788161020c565b82525050565b6000602082019050610293600083018461026f565b92915050565b6000819050919050565b6102ac81610299565b81146102b757600080fd5b50565b6000813590506102c9816102a3565b92915050565b6000602082840312156102e5576102e4610207565b5b60006102f3848285016102ba565b91505092915050565b600081519050919050565b600081905092915050565b60005b83811015610330578082015181840152602081019050610315565b60008484015250505050565b6000610347826102fc565b6103518185610307565b9350610361818560208601610312565b80840191505092915050565b6000610379828461033c565b915081905092915050565b60008151905061039381610216565b92915050565b6000602082840312156103af576103ae610207565b5b60006103bd84828501610384565b91505092915050565b6103cf81610299565b82525050565b60006020820190506103ea60008301846103c6565b9291505056fea2646970667358221220ca36db653742582b5264a593dfc8028fe93195763f2090323dd02a0fa23c81f464736f6c63430008180033",
          "opcodes": "PUSH1 0x80 PUSH1 0x40 MSTORE CALLVALUE DUP1 ISZERO PUSH2 0x10 JUMPI PUSH1 0x0 DUP1 REVERT JUMPDEST POP PUSH2 0x426 DUP1 PUSH2 0x20 PUSH1 0x0 CODECOPY PUSH1 0x0 RETURN INVALID PUSH1 0x80 PUSH1 0x40 MSTORE CALLVALUE DUP1 ISZERO PUSH2 0x10 JUMPI PUSH1 0x0 DUP1 REVERT JUMPDEST POP PUSH1 0x4 CALLDATASIZE LT PUSH2 0x36 JUMPI PUSH1 0x0 CALLDATALOAD PUSH1 0xE0 SHR DUP1 PUSH4 0x4D4221E7 EQ PUSH2 0x3B JUMPI DUP1 PUSH4 0xD1218931 EQ PUSH2 0x6B JUMPI JUMPDEST PUSH1 0x0 DUP1 REVERT JUMPDEST PUSH2 0x55 PUSH1 0x4 DUP1 CALLDATASIZE SUB DUP2 ADD SWAP1 PUSH2 0x50 SWAP2 SWAP1 PUSH2 0x242 JUMP JUMPDEST PUSH2 0x9B JUMP JUMPDEST PUSH1 0x40 MLOAD PUSH2 0x62 SWAP2 SWAP1 PUSH2 0x27E JUMP JUMPDEST PUSH1 0x40 MLOAD DUP1 SWAP2 SUB SWAP1 RETURN JUMPDEST PUSH2 0x85 PUSH1 0x4 DUP1 CALLDATASIZE SUB DUP2 ADD SWAP1 PUSH2 0x80 SWAP2 SWAP1 PUSH2 0x2CF JUMP JUMPDEST PUSH2 0x151 JUMP JUMPDEST PUSH1 0x40 MLOAD PUSH2 0x92 SWAP2 SWAP1 PUSH2 0x27E JUMP JUMPDEST PUSH1 0x40 MLOAD DUP1 SWAP2 SUB SWAP1 RETURN JUMPDEST PUSH1 0x0 DUP1 PUSH1 0x0 PUSH1 0x64 PUSH20 0xFFFFFFFFFFFFFFFFFFFFFFFFFFFFFFFFFFFFFFFF AND DUP5 PUSH1 0x40 MLOAD PUSH1 0x20 ADD PUSH2 0xC9 SWAP2 SWAP1 PUSH2 0x27E JUMP JUMPDEST PUSH1 0x40 MLOAD PUSH1 0x20 DUP2 DUP4 SUB SUB DUP2 MSTORE SWAP1 PUSH1 0x40 MSTORE PUSH1 0x40 MLOAD PUSH2 0xE5 SWAP2 SWAP1 PUSH2 0x36D JUMP JUMPDEST PUSH1 0x0 PUSH1 0x40 MLOAD DUP1 DUP4 SUB DUP2 DUP6 GAS STATICCALL SWAP2 POP POP RETURNDATASIZE DUP1 PUSH1 0x0 DUP2 EQ PUSH2 0x120 JUMPI PUSH1 0x40 MLOAD SWAP2 POP PUSH1 0x1F NOT PUSH1 0x3F RETURNDATASIZE ADD AND DUP3 ADD PUSH1 0x40 MSTORE RETURNDATASIZE DUP3 MSTORE RETURNDATASIZE PUSH1 0x0 PUSH1 0x20 DUP5 ADD RETURNDATACOPY PUSH2 0x125 JUMP JUMPDEST PUSH1 0x60 SWAP2 POP JUMPDEST POP SWAP2 POP SWAP2 POP DUP2 PUSH2 0x134 JUMPI PUSH1 0x0 DUP1 REVERT JUMPDEST DUP1 DUP1 PUSH1 0x20 ADD SWAP1 MLOAD DUP2 ADD SWAP1 PUSH2 0x148 SWAP2 SWAP1 PUSH2 0x399 JUMP JUMPDEST SWAP3 POP POP POP SWAP2 SWAP1 POP JUMP JUMPDEST PUSH1 0x0 DUP1 PUSH1 0x0 PUSH1 0x2 PUSH20 0xFFFFFFFFFFFFFFFFFFFFFFFFFFFFFFFFFFFFFFFF AND DUP5 PUSH1 0x40 MLOAD PUSH1 0x20 ADD PUSH2 0x17F SWAP2 SWAP1 PUSH2 0x3D5 JUMP JUMPDEST PUSH1 0x40 MLOAD PUSH1 0x20 DUP2 DUP4 SUB SUB DUP2 MSTORE SWAP1 PUSH1 0x40 MSTORE PUSH1 0x40 MLOAD PUSH2 0x19B SWAP2 SWAP1 PUSH2 0x36D JUMP JUMPDEST PUSH1 0x0 PUSH1 0x40 MLOAD DUP1 DUP4 SUB DUP2 DUP6 GAS STATICCALL SWAP2 POP POP RETURNDATASIZE DUP1 PUSH1 0x0 DUP2 EQ PUSH2 0x1D6 JUMPI PUSH1 0x40 MLOAD SWAP2 POP PUSH1 0x1F NOT PUSH1 0x3F RETURNDATASIZE ADD AND DUP3 ADD PUSH1 0x40 MSTORE RETURNDATASIZE DUP3 MSTORE RETURNDATASIZE PUSH1 0x0 PUSH1 0x20 DUP5 ADD RETURNDATACOPY PUSH2 0x1DB JUMP JUMPDEST PUSH1 0x60 SWAP2 POP JUMPDEST POP SWAP2 POP SWAP2 POP DUP2 PUSH2 0x1EA JUMPI PUSH1 0x0 DUP1 REVERT JUMPDEST DUP1 DUP1 PUSH1 0x20 ADD SWAP1 MLOAD DUP2 ADD SWAP1 PUSH2 0x1FE SWAP2 SWAP1 PUSH2 0x399 JUMP JUMPDEST SWAP3 POP POP POP SWAP2 SWAP1 POP JUMP JUMPDEST PUSH1 0x0 DUP1 REVERT JUMPDEST PUSH1 0x0 DUP2 SWAP1 POP SWAP2 SWAP1 POP JUMP JUMPDEST PUSH2 0x21F DUP2 PUSH2 0x20C JUMP JUMPDEST DUP2 EQ PUSH2 0x22A JUMPI PUSH1 0x0 DUP1 REVERT JUMPDEST POP JUMP JUMPDEST PUSH1 0x0 DUP2 CALLDATALOAD SWAP1 POP PUSH2 0x23C DUP2 PUSH2 0x216 JUMP JUMPDEST SWAP3 SWAP2 POP POP JUMP JUMPDEST PUSH1 0x0 PUSH1 0x20 DUP3 DUP5 SUB SLT ISZERO PUSH2 0x258 JUMPI PUSH2 0x257 PUSH2 0x207 JUMP JUMPDEST JUMPDEST PUSH1 0x0 PUSH2 0x266 DUP5 DUP3 DUP6 ADD PUSH2 0x22D JUMP JUMPDEST SWAP2 POP POP SWAP3 SWAP2 POP POP JUMP JUMPDEST PUSH2 0x278 DUP2 PUSH2 0x20C JUMP JUMPDEST DUP3 MSTORE POP POP JUMP JUMPDEST PUSH1 0x0 PUSH1 0x20 DUP3 ADD SWAP1 POP PUSH2 0x293 PUSH1 0x0 DUP4 ADD DUP5 PUSH2 0x26F JUMP JUMPDEST SWAP3 SWAP2 POP POP JUMP JUMPDEST PUSH1 0x0 DUP2 SWAP1 POP SWAP2 SWAP1 POP JUMP JUMPDEST PUSH2 0x2AC DUP2 PUSH2 0x299 JUMP JUMPDEST DUP2 EQ PUSH2 0x2B7 JUMPI PUSH1 0x0 DUP1 REVERT JUMPDEST POP JUMP JUMPDEST PUSH1 0x0 DUP2 CALLDATALOAD SWAP1 POP PUSH2 0x2C9 DUP2 PUSH2 0x2A3 JUMP JUMPDEST SWAP3 SWAP2 POP POP JUMP JUMPDEST PUSH1 0x0 PUSH1 0x20 DUP3 DUP5 SUB SLT ISZERO PUSH2 0x2E5 JUMPI PUSH2 0x2E4 PUSH2 0x207 JUMP JUMPDEST JUMPDEST PUSH1 0x0 PUSH2 0x2F3 DUP5 DUP3 DUP6 ADD PUSH2 0x2BA JUMP JUMPDEST SWAP2 POP POP SWAP3 SWAP2 POP POP JUMP JUMPDEST PUSH1 0x0 DUP2 MLOAD SWAP1 POP SWAP2 SWAP1 POP JUMP JUMPDEST PUSH1 0x0 DUP2 SWAP1 POP SWAP3 SWAP2 POP POP JUMP JUMPDEST PUSH1 0x0 JUMPDEST DUP4 DUP2 LT ISZERO PUSH2 0x330 JUMPI DUP1 DUP3 ADD MLOAD DUP2 DUP5 ADD MSTORE PUSH1 0x20 DUP2 ADD SWAP1 POP PUSH2 0x315 JUMP JUMPDEST PUSH1 0x0 DUP5 DUP5 ADD MSTORE POP POP POP POP JUMP JUMPDEST PUSH1 0x0 PUSH2 0x347 DUP3 PUSH2 0x2FC JUMP JUMPDEST PUSH2 0x351 DUP2 DUP6 PUSH2 0x307 JUMP JUMPDEST SWAP4 POP PUSH2 0x361 DUP2 DUP6 PUSH1 0x20 DUP7 ADD PUSH2 0x312 JUMP JUMPDEST DUP1 DUP5 ADD SWAP2 POP POP SWAP3 SWAP2 POP POP JUMP JUMPDEST PUSH1 0x0 PUSH2 0x379 DUP3 DUP5 PUSH2 0x33C JUMP JUMPDEST SWAP2 POP DUP2 SWAP1 POP SWAP3 SWAP2 POP POP JUMP JUMPDEST PUSH1 0x0 DUP2 MLOAD SWAP1 POP PUSH2 0x393 DUP2 PUSH2 0x216 JUMP JUMPDEST SWAP3 SWAP2 POP POP JUMP JUMPDEST PUSH1 0x0 PUSH1 0x20 DUP3 DUP5 SUB SLT ISZERO PUSH2 0x3AF JUMPI PUSH2 0x3AE PUSH2 0x207 JUMP JUMPDEST JUMPDEST PUSH1 0x0 PUSH2 0x3BD DUP5 DUP3 DUP6 ADD PUSH2 0x384 JUMP JUMPDEST SWAP2 POP POP SWAP3 SWAP2 POP POP JUMP JUMPDEST PUSH2 0x3CF DUP2 PUSH2 0x299 JUMP JUMPDEST DUP3 MSTORE POP POP JUMP JUMPDEST PUSH1 0x0 PUSH1 0x20 DUP3 ADD SWAP1 POP PUSH2 0x3EA PUSH1 0x0 DUP4 ADD DUP5 PUSH2 0x3C6 JUMP JUMPDEST SWAP3 SWAP2 POP POP JUMP INVALID LOG2 PUSH5 0x6970667358 0x22 SLT KECCAK256 0xCA CALLDATASIZE 0xDB PUSH6 0x3742582B5264 0xA5 SWAP4 0xDF 0xC8 MUL DUP16 0xE9 BALANCE SWAP6 PUSH23 0x3F2090323DD02A0FA23C81F464736F6C63430008180033 "
        },
        "methodIdentifiers": {
          "hashSha256(uint256)": "d1218931",
          "ret(bytes32)": "4d4221e7"
        }
      }
    }
  }
}