{
  "contracts/Versatile.sol": {
    "Versatile": {
      "abi": [
        {
          "inputs": [],
          "name": "deserialize",
          "outputs": [
            {
              "internalType": "uint256",
              "name": "",
              "type": "uint256"
            },
            {
              "internalType": "string",
              "name": "",
              "type": "string"
            },
            {
              "internalType": "bytes32",
              "name": "",
              "type": "bytes32"
            }
          ],
          "stateMutability": "view",
          "type": "function"
        },
        {
          "inputs": [
            {
              "internalType": "uint256",
              "name": "numberToHash",
              "type": "uint256"
            }
          ],
          "name": "hashSha256",
          "outputs": [
            {
              "internalType": "bytes32",
              "name": "h",
              "type": "bytes32"
            }
          ],
          "stateMutability": "view",
          "type": "function"
        },
        {
          "inputs": [
            {
              "internalType": "address",
              "name": "_addr",
              "type": "address"
            }
          ],
          "name": "isContract",
          "outputs": [
            {
              "internalType": "bool",
              "name": "",
              "type": "bool"
            }
          ],
          "stateMutability": "view",
          "type": "function"
        },
        {
          "inputs": [
            {
              "internalType": "bytes",
              "name": "input",
              "type": "bytes"
            }
          ],
          "name": "ret",
          "outputs": [
            {
              "internalType": "bool",
              "name": "ok",
              "type": "bool"
            },
            {
              "internalType": "bytes",
              "name": "out",
              "type": "bytes"
            }
          ],
          "stateMutability": "view",
          "type": "function"
        },
        {
          "inputs": [],
          "name": "serialize",
          "outputs": [],
          "stateMutability": "nonpayable",
          "type": "function"
        },
        {
          "inputs": [],
          "name": "value",
          "outputs": [
            {
              "internalType": "bytes",
              "name": "",
              "type": "bytes"
            }
          ],
          "stateMutability": "view",
          "type": "function"
        }
      ],
      "evm": {
        "bytecode": {
          "linkReferences": {},
          "object": "608060405234801561001057600080fd5b50611b51806100206000396000f3fe60806040523480156200001157600080fd5b50600436106200006a5760003560e01c806316279055146200006f5780633fa4f24514620000a5578063b5cc88f314620000c7578063bc8018b114620000eb578063d121893114620000f7578063d5d4984e146200012d575b600080fd5b6200008d6004803603810190620000879190620006ae565b62000164565b6040516200009c9190620006fd565b60405180910390f35b620000af6200017d565b604051620000be9190620007b4565b60405180910390f35b620000d162000217565b604051620000e2939291906200086b565b60405180910390f35b620000f56200042f565b005b6200011560048036038101906200010f9190620008e0565b620004e4565b60405162000124919062000912565b60405180910390f35b6200014b600480360381019062000145919062000a80565b620005a8565b6040516200015b92919062000ad1565b60405180910390f35b600080823b905060008163ffffffff1611915050919050565b6060600080546200018e9062000b34565b80601f0160208091040260200160405190810160405280929190818152602001828054620001bc9062000b34565b80156200020d5780601f10620001e1576101008083540402835291602001916200020d565b820191906000526020600020905b815481529060010190602001808311620001ef57829003601f168201915b5050505050905090565b60006060600080600080546200022d9062000b34565b80601f01602080910402602001604051908101604052809291908181526020018280546200025b9062000b34565b8015620002ac5780601f106200028057610100808354040283529160200191620002ac565b820191906000526020600020905b8154815290600101906020018083116200028e57829003601f168201915b5050505050806020019051810190620002c6919062000bae565b90508073ffffffffffffffffffffffffffffffffffffffff1663cd5f65cb6040518163ffffffff1660e01b8152600401602060405180830381865afa15801562000314573d6000803e3d6000fd5b505050506040513d601f19601f820116820180604052508101906200033a919062000bf7565b8173ffffffffffffffffffffffffffffffffffffffff1663a32d88816040518163ffffffff1660e01b8152600401600060405180830381865afa15801562000386573d6000803e3d6000fd5b505050506040513d6000823e3d601f19601f82011682018060405250810190620003b1919062000cdd565b8273ffffffffffffffffffffffffffffffffffffffff1663f39668d26040518163ffffffff1660e01b8152600401602060405180830381865afa158015620003fd573d6000803e3d6000fd5b505050506040513d601f19601f8201168201806040525081019062000423919062000d5f565b93509350935050909192565b600060017f6279746573333200000000000000000000000000000000000000000000000000604051620004629062000627565b6200046f92919062000e2e565b604051809103906000f0801580156200048c573d6000803e3d6000fd5b509050600080620004be83604051602001620004a9919062000ed1565b604051602081830303815290604052620005a8565b9150915081620004cd57600080fd5b8060009081620004de9190620010b6565b50505050565b600080600290506000808273ffffffffffffffffffffffffffffffffffffffff16856040516020016200051891906200119d565b604051602081830303815290604052604051620005369190620011fc565b600060405180830381855afa9150503d806000811462000573576040519150601f19603f3d011682016040523d82523d6000602084013e62000578565b606091505b5091509150816200058857600080fd5b808060200190518101906200059e919062000d5f565b9350505050919050565b60006060600061010090508073ffffffffffffffffffffffffffffffffffffffff1684604051620005da9190620011fc565b600060405180830381855afa9150503d806000811462000617576040519150601f19603f3d011682016040523d82523d6000602084013e6200061c565b606091505b509250925050915091565b610906806200121683390190565b6000604051905090565b600080fd5b600080fd5b600073ffffffffffffffffffffffffffffffffffffffff82169050919050565b6000620006768262000649565b9050919050565b620006888162000669565b81146200069457600080fd5b50565b600081359050620006a8816200067d565b92915050565b600060208284031215620006c757620006c66200063f565b5b6000620006d78482850162000697565b91505092915050565b60008115159050919050565b620006f781620006e0565b82525050565b6000602082019050620007146000830184620006ec565b92915050565b600081519050919050565b600082825260208201905092915050565b60005b838110156200075657808201518184015260208101905062000739565b60008484015250505050565b6000601f19601f8301169050919050565b600062000780826200071a565b6200078c818562000725565b93506200079e81856020860162000736565b620007a98162000762565b840191505092915050565b60006020820190508181036000830152620007d0818462000773565b905092915050565b6000819050919050565b620007ed81620007d8565b82525050565b600081519050919050565b600082825260208201905092915050565b60006200081c82620007f3565b620008288185620007fe565b93506200083a81856020860162000736565b620008458162000762565b840191505092915050565b6000819050919050565b620008658162000850565b82525050565b6000606082019050620008826000830186620007e2565b81810360208301526200089681856200080f565b9050620008a760408301846200085a565b949350505050565b620008ba81620007d8565b8114620008c657600080fd5b50565b600081359050620008da81620008af565b92915050565b600060208284031215620008f957620008f86200063f565b5b60006200090984828501620008c9565b91505092915050565b60006020820190506200092960008301846200085a565b92915050565b600080fd5b600080fd5b7f4e487b7100000000000000000000000000000000000000000000000000000000600052604160045260246000fd5b620009738262000762565b810181811067ffffffffffffffff8211171562000995576200099462000939565b5b80604052505050565b6000620009aa62000635565b9050620009b8828262000968565b919050565b600067ffffffffffffffff821115620009db57620009da62000939565b5b620009e68262000762565b9050602081019050919050565b82818337600083830152505050565b600062000a1962000a1384620009bd565b6200099e565b90508281526020810184848401111562000a385762000a3762000934565b5b62000a45848285620009f3565b509392505050565b600082601f83011262000a655762000a646200092f565b5b813562000a7784826020860162000a02565b91505092915050565b60006020828403121562000a995762000a986200063f565b5b600082013567ffffffffffffffff81111562000aba5762000ab962000644565b5b62000ac88482850162000a4d565b91505092915050565b600060408201905062000ae86000830185620006ec565b818103602083015262000afc818462000773565b90509392505050565b7f4e487b7100000000000000000000000000000000000000000000000000000000600052602260045260246000fd5b6000600282049050600182168062000b4d57607f821691505b60208210810362000b635762000b6262000b05565b5b50919050565b600062000b768262000669565b9050919050565b62000b888162000b69565b811462000b9457600080fd5b50565b60008151905062000ba88162000b7d565b92915050565b60006020828403121562000bc75762000bc66200063f565b5b600062000bd78482850162000b97565b91505092915050565b60008151905062000bf181620008af565b92915050565b60006020828403121562000c105762000c0f6200063f565b5b600062000c208482850162000be0565b91505092915050565b600067ffffffffffffffff82111562000c475762000c4662000939565b5b62000c528262000762565b9050602081019050919050565b600062000c7662000c708462000c29565b6200099e565b90508281526020810184848401111562000c955762000c9462000934565b5b62000ca284828562000736565b509392505050565b600082601f83011262000cc25762000cc16200092f565b5b815162000cd484826020860162000c5f565b91505092915050565b60006020828403121562000cf65762000cf56200063f565b5b600082015167ffffffffffffffff81111562000d175762000d1662000644565b5b62000d258482850162000caa565b91505092915050565b62000d398162000850565b811462000d4557600080fd5b50565b60008151905062000d598162000d2e565b92915050565b60006020828403121562000d785762000d776200063f565b5b600062000d888482850162000d48565b91505092915050565b6000819050919050565b6000819050919050565b600062000dc662000dc062000dba8462000d91565b62000d9b565b620007d8565b9050919050565b62000dd88162000da5565b82525050565b7f68656c6c6f000000000000000000000000000000000000000000000000000000600082015250565b600062000e16600583620007fe565b915062000e238262000dde565b602082019050919050565b600060608201905062000e45600083018562000dcd565b818103602083015262000e588162000e07565b905062000e6960408301846200085a565b9392505050565b600062000e9162000e8b62000e858462000649565b62000d9b565b62000649565b9050919050565b600062000ea58262000e70565b9050919050565b600062000eb98262000e98565b9050919050565b62000ecb8162000eac565b82525050565b600060208201905062000ee8600083018462000ec0565b92915050565b60008190508160005260206000209050919050565b60006020601f8301049050919050565b600082821b905092915050565b60006008830262000f527fffffffffffffffffffffffffffffffffffffffffffffffffffffffffffffffff8262000f13565b62000f5e868362000f13565b95508019841693508086168417925050509392505050565b600062000f9762000f9162000f8b84620007d8565b62000d9b565b620007d8565b9050919050565b6000819050919050565b62000fb38362000f76565b62000fcb62000fc28262000f9e565b84845462000f20565b825550505050565b600090565b62000fe262000fd3565b62000fef81848462000fa8565b505050565b5b8181101562001017576200100b60008262000fd8565b60018101905062000ff5565b5050565b601f8211156200106657620010308162000eee565b6200103b8462000f03565b810160208510156200104b578190505b620010636200105a8562000f03565b83018262000ff4565b50505b505050565b600082821c905092915050565b60006200108b600019846008026200106b565b1980831691505092915050565b6000620010a6838362001078565b9150826002028217905092915050565b620010c1826200071a565b67ffffffffffffffff811115620010dd57620010dc62000939565b5b620010e9825462000b34565b620010f68282856200101b565b600060209050601f8311600181146200112e576000841562001119578287015190505b62001125858262001098565b86555062001195565b601f1984166200113e8662000eee565b60005b82811015620011685784890151825560018201915060208501945060208101905062001141565b8683101562001188578489015162001184601f89168262001078565b8355505b6001600288020188555050505b505050505050565b6000602082019050620011b46000830184620007e2565b92915050565b600081905092915050565b6000620011d2826200071a565b620011de8185620011ba565b9350620011f081856020860162000736565b80840191505092915050565b60006200120a8284620011c5565b91508190509291505056fe60806040523480156200001157600080fd5b506040516200090638038062000906833981810160405281019062000037919062000269565b8260008190555081600190816200004f919062000525565b50806002819055505050506200060c565b6000604051905090565b600080fd5b600080fd5b6000819050919050565b620000898162000074565b81146200009557600080fd5b50565b600081519050620000a9816200007e565b92915050565b600080fd5b600080fd5b6000601f19601f8301169050919050565b7f4e487b7100000000000000000000000000000000000000000000000000000000600052604160045260246000fd5b6200010482620000b9565b810181811067ffffffffffffffff82111715620001265762000125620000ca565b5b80604052505050565b60006200013b62000060565b9050620001498282620000f9565b919050565b600067ffffffffffffffff8211156200016c576200016b620000ca565b5b6200017782620000b9565b9050602081019050919050565b60005b83811015620001a457808201518184015260208101905062000187565b60008484015250505050565b6000620001c7620001c1846200014e565b6200012f565b905082815260208101848484011115620001e657620001e5620000b4565b5b620001f384828562000184565b509392505050565b600082601f830112620002135762000212620000af565b5b815162000225848260208601620001b0565b91505092915050565b6000819050919050565b62000243816200022e565b81146200024f57600080fd5b50565b600081519050620002638162000238565b92915050565b6000806000606084860312156200028557620002846200006a565b5b6000620002958682870162000098565b935050602084015167ffffffffffffffff811115620002b957620002b86200006f565b5b620002c786828701620001fb565b9250506040620002da8682870162000252565b9150509250925092565b600081519050919050565b7f4e487b7100000000000000000000000000000000000000000000000000000000600052602260045260246000fd5b600060028204905060018216806200033757607f821691505b6020821081036200034d576200034c620002ef565b5b50919050565b60008190508160005260206000209050919050565b60006020601f8301049050919050565b600082821b905092915050565b600060088302620003b77fffffffffffffffffffffffffffffffffffffffffffffffffffffffffffffffff8262000378565b620003c3868362000378565b95508019841693508086168417925050509392505050565b6000819050919050565b60006200040662000400620003fa8462000074565b620003db565b62000074565b9050919050565b6000819050919050565b6200042283620003e5565b6200043a62000431826200040d565b84845462000385565b825550505050565b600090565b6200045162000442565b6200045e81848462000417565b505050565b5b8181101562000486576200047a60008262000447565b60018101905062000464565b5050565b601f821115620004d5576200049f8162000353565b620004aa8462000368565b81016020851015620004ba578190505b620004d2620004c98562000368565b83018262000463565b50505b505050565b600082821c905092915050565b6000620004fa60001984600802620004da565b1980831691505092915050565b6000620005158383620004e7565b9150826002028217905092915050565b6200053082620002e4565b67ffffffffffffffff8111156200054c576200054b620000ca565b5b6200055882546200031e565b620005658282856200048a565b600060209050601f8311600181146200059d576000841562000588578287015190505b62000594858262000507565b86555062000604565b601f198416620005ad8662000353565b60005b82811015620005d757848901518255600182019150602085019450602081019050620005b0565b86831015620005f75784890151620005f3601f891682620004e7565b8355505b6001600288020188555050505b505050505050565b6102ea806200061c6000396000f3fe608060405234801561001057600080fd5b50600436106100415760003560e01c8063a32d888114610046578063cd5f65cb14610064578063f39668d214610082575b600080fd5b61004e6100a0565b60405161005b91906101ca565b60405180910390f35b61006c61012e565b6040516100799190610205565b60405180910390f35b61008a610134565b6040516100979190610239565b60405180910390f35b600180546100ad90610283565b80601f01602080910402602001604051908101604052809291908181526020018280546100d990610283565b80156101265780601f106100fb57610100808354040283529160200191610126565b820191906000526020600020905b81548152906001019060200180831161010957829003601f168201915b505050505081565b60005481565b60025481565b600081519050919050565b600082825260208201905092915050565b60005b83811015610174578082015181840152602081019050610159565b60008484015250505050565b6000601f19601f8301169050919050565b600061019c8261013a565b6101a68185610145565b93506101b6818560208601610156565b6101bf81610180565b840191505092915050565b600060208201905081810360008301526101e48184610191565b905092915050565b6000819050919050565b6101ff816101ec565b82525050565b600060208201905061021a60008301846101f6565b92915050565b6000819050919050565b61023381610220565b82525050565b600060208201905061024e600083018461022a565b92915050565b7f4e487b7100000000000000000000000000000000000000000000000000000000600052602260045260246000fd5b6000600282049050600182168061029b57607f821691505b6020821081036102ae576102ad610254565b5b5091905056fea264697066735822122044505496b014e1a4dbd166f717d7440d3d3a58f160dfd59ba613346a5889eba564736f6c63430008180033a2646970667358221220ae6c66fcbbb7102b99eb4d192560ce3a6b6c71451f0ccea5ef7576f410c791b864736f6c63430008180033",
          "opcodes": "PUSH1 0x80 PUSH1 0x40 MSTORE CALLVALUE DUP1 ISZERO PUSH2 0x10 JUMPI PUSH1 0x0 DUP1 REVERT JUMPDEST POP PUSH2 0x1B51 DUP1 PUSH2 0x20 PUSH1 0x0 CODECOPY PUSH1 0x0 RETURN INVALID PUSH1 0x80 PUSH1 0x40 MSTORE CALLVALUE DUP1 ISZERO PUSH3 0x11 JUMPI PUSH1 0x0 DUP1 REVERT JUMPDEST POP PUSH1 0x4 CALLDATASIZE LT PUSH3 0x6A JUMPI PUSH1 0x0 CALLDATALOAD PUSH1 0xE0 SHR DUP1 PUSH4 0x16279055 EQ PUSH3 0x6F JUMPI DUP1 PUSH4 0x3FA4F245 EQ PUSH3 0xA5 JUMPI DUP1 PUSH4 0xB5CC88F3 EQ PUSH3 0xC7 JUMPI DUP1 PUSH4 0xBC8018B1 EQ PUSH3 0xEB JUMPI DUP1 PUSH4 0xD1218931 EQ PUSH3 0xF7 JUMPI DUP1 PUSH4 0xD5D4984E EQ PUSH3 0x12D JUMPI JUMPDEST PUSH1 0x0 DUP1 REVERT JUMPDEST PUSH3 0x8D PUSH1 0x4 DUP1 CALLDATASIZE SUB DUP2 ADD SWAP1 PUSH3 0x87 SWAP2 SWAP1 PUSH3 0x6AE JUMP JUMPDEST PUSH3 0x164 JUMP JUMPDEST PUSH1 0x40 MLOAD PUSH3 0x9C SWAP2 SWAP1 PUSH3 0x6FD JUMP JUMPDEST PUSH1 0x40 MLOAD DUP1 SWAP2 SUB SWAP1 RETURN JUMPDEST PUSH3 0xAF PUSH3 0x17D JUMP JUMPDEST PUSH1 0x40 MLOAD PUSH3 0xBE SWAP2 SWAP1 PUSH3 0x7B4 JUMP JUMPDEST PUSH1 0x40 MLOAD DUP1 SWAP2 SUB SWAP1 RETURN JUMPDEST PUSH3 0xD1 PUSH3 0x217 JUMP JUMPDEST PUSH1 0x40 MLOAD PUSH3 0xE2 SWAP4 SWAP3 SWAP2 SWAP1 PUSH3 0x86B JUMP JUMPDEST PUSH1 0x40 MLOAD DUP1 SWAP2 SUB SWAP1 RETURN JUMPDEST PUSH3 0xF5 PUSH3 0x42F JUMP JUMPDEST STOP JUMPDEST PUSH3 0x115 PUSH1 0x4 DUP1 CALLDATASIZE SUB DUP2 ADD SWAP1 PUSH3 0x10F SWAP2 SWAP1 PUSH3 0x8E0 JUMP JUMPDEST PUSH3 0x4E4 JUMP JUMPDEST PUSH1 0x40 MLOAD PUSH3 0x124 SWAP2 SWAP1 PUSH3 0x912 JUMP JUMPDEST PUSH1 0x40 MLOAD DUP1 SWAP2 SUB SWAP1 RETURN JUMPDEST PUSH3 0x14B PUSH1 0x4 DUP1 CALLDATASIZE SUB DUP2 ADD SWAP1 PUSH3 0x145 SWAP2 SWAP1 PUSH3 0xA80 JUMP JUMPDEST PUSH3 0x5A8 JUMP JUMPDEST PUSH1 0x40 MLOAD PUSH3 0x15B SWAP3 SWAP2 SWAP1 PUSH3 0xAD1 JUMP JUMPDEST PUSH1 0x40 MLOAD DUP1 SWAP2 SUB SWAP1 RETURN JUMPDEST PUSH1 0x0 DUP1 DUP3 EXTCODESIZE SWAP1 POP PUSH1 0x0 DUP2 PUSH4 0xFFFFFFFF AND GT SWAP2 POP POP SWAP2 SWAP1 POP JUMP JUMPDEST PUSH1 0x60 PUSH1 0x0 DUP1 SLOAD PUSH3 0x18E SWAP1 PUSH3 0xB34 JUMP JUMPDEST DUP1 PUSH1 0x1F ADD PUSH1 0x20 DUP1 SWAP2 DIV MUL PUSH1 0x20 ADD PUSH1 0x40 MLOAD SWAP1 DUP2 ADD PUSH1 0x40 MSTORE DUP1 SWAP3 SWAP2 SWAP1 DUP2 DUP2 MSTORE PUSH1 0x20 ADD DUP3 DUP1 SLOAD PUSH3 0x1BC SWAP1 PUSH3 0xB34 JUMP JUMPDEST DUP1 ISZERO PUSH3 0x20D JUMPI DUP1 PUSH1 0x1F LT PUSH3 0x1E1 JUMPI PUSH2 0x100 DUP1 DUP4 SLOAD DIV MUL DUP4 MSTORE SWAP2 PUSH1 0x20 ADD SWAP2 PUSH3 0x20D JUMP JUMPDEST DUP3 ADD SWAP2 SWAP1 PUSH1 0x0 MSTORE PUSH1 0x20 PUSH1 0x0 KECCAK256 SWAP1 JUMPDEST DUP2 SLOAD DUP2 MSTORE SWAP1 PUSH1 0x1 ADD SWAP1 PUSH1 0x20 ADD DUP1 DUP4 GT PUSH3 0x1EF JUMPI DUP3 SWAP1 SUB PUSH1 0x1F AND DUP3 ADD SWAP2 JUMPDEST POP POP POP POP POP SWAP1 POP SWAP1 JUMP JUMPDEST PUSH1 0x0 PUSH1 0x60 PUSH1 0x0 DUP1 PUSH1 0x0 DUP1 SLOAD PUSH3 0x22D SWAP1 PUSH3 0xB34 JUMP JUMPDEST DUP1 PUSH1 0x1F ADD PUSH1 0x20 DUP1 SWAP2 DIV MUL PUSH1 0x20 ADD PUSH1 0x40 MLOAD SWAP1 DUP2 ADD PUSH1 0x40 MSTORE DUP1 SWAP3 SWAP2 SWAP1 DUP2 DUP2 MSTORE PUSH1 0x20 ADD DUP3 DUP1 SLOAD PUSH3 0x25B SWAP1 PUSH3 0xB34 JUMP JUMPDEST DUP1 ISZERO PUSH3 0x2AC JUMPI DUP1 PUSH1 0x1F LT PUSH3 0x280 JUMPI PUSH2 0x100 DUP1 DUP4 SLOAD DIV MUL DUP4 MSTORE SWAP2 PUSH1 0x20 ADD SWAP2 PUSH3 0x2AC JUMP JUMPDEST DUP3 ADD SWAP2 SWAP1 PUSH1 0x0 MSTORE PUSH1 0x20 PUSH1 0x0 KECCAK256 SWAP1 JUMPDEST DUP2 SLOAD DUP2 MSTORE SWAP1 PUSH1 0x1 ADD SWAP1 PUSH1 0x20 ADD DUP1 DUP4 GT PUSH3 0x28E JUMPI DUP3 SWAP1 SUB PUSH1 0x1F AND DUP3 ADD SWAP2 JUMPDEST POP POP POP POP POP DUP1 PUSH1 0x20 ADD SWAP1 MLOAD DUP2 ADD SWAP1 PUSH3 0x2C6 SWAP2 SWAP1 PUSH3 0xBAE JUMP JUMPDEST SWAP1 POP DUP1 PUSH20 0xFFFFFFFFFFFFFFFFFFFFFFFFFFFFFFFFFFFFFFFF AND PUSH4 0xCD5F65CB PUSH1 0x40 MLOAD DUP2 PUSH4 0xFFFFFFFF AND PUSH1 0xE0 SHL DUP2 MSTORE PUSH1 0x4 ADD PUSH1 0x20 PUSH1 0x40 MLOAD DUP1 DUP4 SUB DUP2 DUP7 GAS STATICCALL ISZERO DUP1 ISZERO PUSH3 0x314 JUMPI RETURNDATASIZE PUSH1 0x0 DUP1 RETURNDATACOPY RETURNDATASIZE PUSH1 0x0 REVERT JUMPDEST POP POP POP POP PUSH1 0x40 MLOAD RETURNDATASIZE PUSH1 0x1F NOT PUSH1 0x1F DUP3 ADD AND DUP3 ADD DUP1 PUSH1 0x40 MSTORE POP DUP2 ADD SWAP1 PUSH3 0x33A SWAP2 SWAP1 PUSH3 0xBF7 JUMP JUMPDEST DUP2 PUSH20 0xFFFFFFFFFFFFFFFFFFFFFFFFFFFFFFFFFFFFFFFF AND PUSH4 0xA32D8881 PUSH1 0x40 MLOAD DUP2 PUSH4 0xFFFFFFFF AND PUSH1 0xE0 SHL DUP2 MSTORE PUSH1 0x4 ADD PUSH1 0x0 PUSH1 0x40 MLOAD DUP1 DUP4 SUB DUP2 DUP7 GAS STATICCALL ISZERO DUP1 ISZERO PUSH3 0x386 JUMPI RETURNDATASIZE PUSH1 0x0 DUP1 RETURNDATACOPY RETURNDATASIZE PUSH1 0x0 REVERT JUMPDEST POP POP POP POP PUSH1 0x40 MLOAD RETURNDATASIZE PUSH1 0x0 DUP3 RETURNDATACOPY RETURNDATASIZE PUSH1 0x1F NOT PUSH1 0x1F DUP3 ADD AND DUP3 ADD DUP1 PUSH1 0x40 MSTORE POP DUP2 ADD SWAP1 PUSH3 0x3B1 SWAP2 SWAP1 PUSH3 0xCDD JUMP JUMPDEST DUP3 PUSH20 0xFFFFFFFFFFFFFFFFFFFFFFFFFFFFFFFFFFFFFFFF AND PUSH4 0xF39668D2 PUSH1 0x40 MLOAD DUP2 PUSH4 0xFFFFFFFF AND PUSH1 0xE0 SHL DUP2 MSTORE PUSH1 0x4 ADD PUSH1 0x20 PUSH1 0x40 MLOAD DUP1 DUP4 SUB DUP2 DUP7 GAS STATICCALL ISZERO DUP1 ISZERO PUSH3 0x3FD JUMPI RETURNDATASIZE PUSH1 0x0 DUP1 RETURNDATACOPY RETURNDATASIZE PUSH1 0x0 REVERT JUMPDEST POP POP POP POP PUSH1 0x40 MLOAD RETURNDATASIZE PUSH1 0x1F NOT PUSH1 0x1F DUP3 ADD AND DUP3 ADD DUP1 PUSH1 0x40 MSTORE POP DUP2 ADD SWAP1 PUSH3 0x423 SWAP2 SWAP1 PUSH3 0xD5F JUMP JUMPDEST SWAP4 POP SWAP4 POP SWAP4 POP POP SWAP1 SWAP2 SWAP3 JUMP JUMPDEST PUSH1 0x0 PUSH1 0x1 PUSH32 0x6279746573333200000000000000000000000000000000000000000000000000 PUSH1 0x40 MLOAD PUSH3 0x462 SWAP1 PUSH3 0x627 JUMP JUMPDEST PUSH3 0x46F SWAP3 SWAP2 SWAP1 PUSH3 0xE2E JUMP JUMPDEST PUSH1 0x40 MLOAD DUP1 SWAP2 SUB SWAP1 PUSH1 0x0 CREATE DUP1 ISZERO DUP1 ISZERO PUSH3 0x48C JUMPI RETURNDATASIZE PUSH1 0x0 DUP1 RETURNDATACOPY RETURNDATASIZE PUSH1 0x0 REVERT JUMPDEST POP SWAP1 POP PUSH1 0x0 DUP1 PUSH3 0x4BE DUP4 PUSH1 0x40 MLOAD PUSH1 0x20 ADD PUSH3 0x4A9 SWAP2 SWAP1 PUSH3 0xED1 JUMP JUMPDEST PUSH1 0x40 MLOAD PUSH1 0x20 DUP2 DUP4 SUB SUB DUP2 MSTORE SWAP1 PUSH1 0x40 MSTORE PUSH3 0x5A8 JUMP JUMPDEST SWAP2 POP SWAP2 POP DUP2 PUSH3 0x4CD JUMPI PUSH1 0x0 DUP1 REVERT JUMPDEST DUP1 PUSH1 0x0 SWAP1 DUP2 PUSH3 0x4DE SWAP2 SWAP1 PUSH3 0x10B6 JUMP JUMPDEST POP POP POP POP JUMP JUMPDEST PUSH1 0x0 DUP1 PUSH1 0x2 SWAP1 POP PUSH1 0x0 DUP1 DUP3 PUSH20 0xFFFFFFFFFFFFFFFFFFFFFFFFFFFFFFFFFFFFFFFF AND DUP6 PUSH1 0x40 MLOAD PUSH1 0x20 ADD PUSH3 0x518 SWAP2 SWAP1 PUSH3 0x119D JUMP JUMPDEST PUSH1 0x40 MLOAD PUSH1 0x20 DUP2 DUP4 SUB SUB DUP2 MSTORE SWAP1 PUSH1 0x40 MSTORE PUSH1 0x40 MLOAD PUSH3 0x536 SWAP2 SWAP1 PUSH3 0x11FC JUMP JUMPDEST PUSH1 0x0 PUSH1 0x40 MLOAD DUP1 DUP4 SUB DUP2 DUP6 GAS STATICCALL SWAP2 POP POP RETURNDATASIZE DUP1 PUSH1 0x0 DUP2 EQ PUSH3 0x573 JUMPI PUSH1 0x40 MLOAD SWAP2 POP PUSH1 0x1F NOT PUSH1 0x3F RETURNDATASIZE ADD AND DUP3 ADD PUSH1 0x40 MSTORE RETURNDATASIZE DUP3 MSTORE RETURNDATASIZE PUSH1 0x0 PUSH1 0x20 DUP5 ADD RETURNDATACOPY PUSH3 0x578 JUMP JUMPDEST PUSH1 0x60 SWAP2 POP JUMPDEST POP SWAP2 POP SWAP2 POP DUP2 PUSH3 0x588 JUMPI PUSH1 0x0 DUP1 REVERT JUMPDEST DUP1 DUP1 PUSH1 0x20 ADD SWAP1 MLOAD DUP2 ADD SWAP1 PUSH3 0x59E SWAP2 SWAP1 PUSH3 0xD5F JUMP JUMPDEST SWAP4 POP POP POP POP SWAP2 SWAP1 POP JUMP JUMPDEST PUSH1 0x0 PUSH1 0x60 PUSH1 0x0 PUSH2 0x100 SWAP1 POP DUP1 PUSH20 0xFFFFFFFFFFFFFFFFFFFFFFFFFFFFFFFFFFFFFFFF AND DUP5 PUSH1 0x40 MLOAD PUSH3 0x5DA SWAP2 SWAP1 PUSH3 0x11FC JUMP JUMPDEST PUSH1 0x0 PUSH1 0x40 MLOAD DUP1 DUP4 SUB DUP2 DUP6 GAS STATICCALL SWAP2 POP POP RETURNDATASIZE DUP1 PUSH1 0x0 DUP2 EQ PUSH3 0x617 JUMPI PUSH1 0x40 MLOAD SWAP2 POP PUSH1 0x1F NOT PUSH1 0x3F RETURNDATASIZE ADD AND DUP3 ADD PUSH1 0x40 MSTORE RETURNDATASIZE DUP3 MSTORE RETURNDATASIZE PUSH1 0x0 PUSH1 0x20 DUP5 ADD RETURNDATACOPY PUSH3 0x61C JUMP JUMPDEST PUSH1 0x60 SWAP2 POP JUMPDEST POP SWAP3 POP SWAP3 POP POP SWAP2 POP SWAP2 JUMP JUMPDEST PUSH2 0x906 DUP1 PUSH3 0x1216 DUP4 CODECOPY ADD SWAP1 JUMP JUMPDEST PUSH1 0x0 PUSH1 0x40 MLOAD SWAP1 POP SWAP1 JUMP JUMPDEST PUSH1 0x0 DUP1 REVERT JUMPDEST PUSH1 0x0 DUP1 REVERT JUMPDEST PUSH1 0x0 PUSH20 0xFFFFFFFFFFFFFFFFFFFFFFFFFFFFFFFFFFFFFFFF DUP3 AND SWAP1 POP SWAP2 SWAP1 POP JUMP JUMPDEST PUSH1 0x0 PUSH3 0x676 DUP3 PUSH3 0x649 JUMP JUMPDEST SWAP1 POP SWAP2 SWAP1 POP JUMP JUMPDEST PUSH3 0x688 DUP2 PUSH3 0x669 JUMP JUMPDEST DUP2 EQ PUSH3 0x694 JUMPI PUSH1 0x0 DUP1 REVERT JUMPDEST POP JUMP JUMPDEST PUSH1 0x0 DUP2 CALLDATALOAD SWAP1 POP PUSH3 0x6A8 DUP2 PUSH3 0x67D JUMP JUMPDEST SWAP3 SWAP2 POP POP JUMP JUMPDEST PUSH1 0x0 PUSH1 0x20 DUP3 DUP5 SUB SLT ISZERO PUSH3 0x6C7 JUMPI PUSH3 0x6C6 PUSH3 0x63F JUMP JUMPDEST JUMPDEST PUSH1 0x0 PUSH3 0x6D7 DUP5 DUP3 DUP6 ADD PUSH3 0x697 JUMP JUMPDEST SWAP2 POP POP SWAP3 SWAP2 POP POP JUMP JUMPDEST PUSH1 0x0 DUP2 ISZERO ISZERO SWAP1 POP SWAP2 SWAP1 POP JUMP JUMPDEST PUSH3 0x6F7 DUP2 PUSH3 0x6E0 JUMP JUMPDEST DUP3 MSTORE POP POP JUMP JUMPDEST PUSH1 0x0 PUSH1 0x20 DUP3 ADD SWAP1 POP PUSH3 0x714 PUSH1 0x0 DUP4 ADD DUP5 PUSH3 0x6EC JUMP JUMPDEST SWAP3 SWAP2 POP POP JUMP JUMPDEST PUSH1 0x0 DUP2 MLOAD SWAP1 POP SWAP2 SWAP1 POP JUMP JUMPDEST PUSH1 0x0 DUP3 DUP3 MSTORE PUSH1 0x20 DUP3 ADD SWAP1 POP SWAP3 SWAP2 POP POP JUMP JUMPDEST PUSH1 0x0 JUMPDEST DUP4 DUP2 LT ISZERO PUSH3 0x756 JUMPI DUP1 DUP3 ADD MLOAD DUP2 DUP5 ADD MSTORE PUSH1 0x20 DUP2 ADD SWAP1 POP PUSH3 0x739 JUMP JUMPDEST PUSH1 0x0 DUP5 DUP5 ADD MSTORE POP POP POP POP JUMP JUMPDEST PUSH1 0x0 PUSH1 0x1F NOT PUSH1 0x1F DUP4 ADD AND SWAP1 POP SWAP2 SWAP1 POP JUMP JUMPDEST PUSH1 0x0 PUSH3 0x780 DUP3 PUSH3 0x71A JUMP JUMPDEST PUSH3 0x78C DUP2 DUP6 PUSH3 0x725 JUMP JUMPDEST SWAP4 POP PUSH3 0x79E DUP2 DUP6 PUSH1 0x20 DUP7 ADD PUSH3 0x736 JUMP JUMPDEST PUSH3 0x7A9 DUP2 PUSH3 0x762 JUMP JUMPDEST DUP5 ADD SWAP2 POP POP SWAP3 SWAP2 POP POP JUMP JUMPDEST PUSH1 0x0 PUSH1 0x20 DUP3 ADD SWAP1 POP DUP2 DUP2 SUB PUSH1 0x0 DUP4 ADD MSTORE PUSH3 0x7D0 DUP2 DUP5 PUSH3 0x773 JUMP JUMPDEST SWAP1 POP SWAP3 SWAP2 POP POP JUMP JUMPDEST PUSH1 0x0 DUP2 SWAP1 POP SWAP2 SWAP1 POP JUMP JUMPDEST PUSH3 0x7ED DUP2 PUSH3 0x7D8 JUMP JUMPDEST DUP3 MSTORE POP POP JUMP JUMPDEST PUSH1 0x0 DUP2 MLOAD SWAP1 POP SWAP2 SWAP1 POP JUMP JUMPDEST PUSH1 0x0 DUP3 DUP3 MSTORE PUSH1 0x20 DUP3 ADD SWAP1 POP SWAP3 SWAP2 POP POP JUMP JUMPDEST PUSH1 0x0 PUSH3 0x81C DUP3 PUSH3 0x7F3 JUMP JUMPDEST PUSH3 0x828 DUP2 DUP6 PUSH3 0x7FE JUMP JUMPDEST SWAP4 POP PUSH3 0x83A DUP2 DUP6 PUSH1 0x20 DUP7 ADD PUSH3 0x736 JUMP JUMPDEST PUSH3 0x845 DUP2 PUSH3 0x762 JUMP JUMPDEST DUP5 ADD SWAP2 POP POP SWAP3 SWAP2 POP POP JUMP JUMPDEST PUSH1 0x0 DUP2 SWAP1 POP SWAP2 SWAP1 POP JUMP JUMPDEST PUSH3 0x865 DUP2 PUSH3 0x850 JUMP JUMPDEST DUP3 MSTORE POP POP JUMP JUMPDEST PUSH1 0x0 PUSH1 0x60 DUP3 ADD SWAP1 POP PUSH3 0x882 PUSH1 0x0 DUP4 ADD DUP7 PUSH3 0x7E2 JUMP JUMPDEST DUP2 DUP2 SUB PUSH1 0x20 DUP4 ADD MSTORE PUSH3 0x896 DUP2 DUP6 PUSH3 0x80F JUMP JUMPDEST SWAP1 POP PUSH3 0x8A7 PUSH1 0x40 DUP4 ADD DUP5 PUSH3 0x85A JUMP JUMPDEST SWAP5 SWAP4 POP POP POP POP JUMP JUMPDEST PUSH3 0x8BA DUP2 PUSH3 0x7D8 JUMP JUMPDEST DUP2 EQ PUSH3 0x8C6 JUMPI PUSH1 0x0 DUP1 REVERT JUMPDEST POP JUMP JUMPDEST PUSH1 0x0 DUP2 CALLDATALOAD SWAP1 POP PUSH3 0x8DA DUP2 PUSH3 0x8AF JUMP JUMPDEST SWAP3 SWAP2 POP POP JUMP JUMPDEST PUSH1 0x0 PUSH1 0x20 DUP3 DUP5 SUB SLT ISZERO PUSH3 0x8F9 JUMPI PUSH3 0x8F8 PUSH3 0x63F JUMP JUMPDEST JUMPDEST PUSH1 0x0 PUSH3 0x909 DUP5 DUP3 DUP6 ADD PUSH3 0x8C9 JUMP JUMPDEST SWAP2 POP POP SWAP3 SWAP2 POP POP JUMP JUMPDEST PUSH1 0x0 PUSH1 0x20 DUP3 ADD SWAP1 POP PUSH3 0x929 PUSH1 0x0 DUP4 ADD DUP5 PUSH3 0x85A JUMP JUMPDEST SWAP3 SWAP2 POP POP JUMP JUMPDEST PUSH1 0x0 DUP1 REVERT JUMPDEST PUSH1 0x0 DUP1 REVERT JUMPDEST PUSH32 0x4E487B7100000000000000000000000000000000000000000000000000000000 PUSH1 0x0 MSTORE PUSH1 0x41 PUSH1 0x4 MSTORE PUSH1 0x24 PUSH1 0x0 REVERT JUMPDEST PUSH3 0x973 DUP3 PUSH3 0x762 JUMP JUMPDEST DUP2 ADD DUP2 DUP2 LT PUSH8 0xFFFFFFFFFFFFFFFF DUP3 GT OR ISZERO PUSH3 0x995 JUMPI PUSH3 0x994 PUSH3 0x939 JUMP JUMPDEST JUMPDEST DUP1 PUSH1 0x40 MSTORE POP POP POP JUMP JUMPDEST PUSH1 0x0 PUSH3 0x9AA PUSH3 0x635 JUMP JUMPDEST SWAP1 POP PUSH3 0x9B8 DUP3 DUP3 PUSH3 0x968 JUMP JUMPDEST SWAP2 SWAP1 POP JUMP JUMPDEST PUSH1 0x0 PUSH8 0xFFFFFFFFFFFFFFFF DUP3 GT ISZERO PUSH3 0x9DB JUMPI PUSH3 0x9DA PUSH3 0x939 JUMP JUMPDEST JUMPDEST PUSH3 0x9E6 DUP3 PUSH3 0x762 JUMP JUMPDEST SWAP1 POP PUSH1 0x20 DUP2 ADD SWAP1 POP SWAP2 SWAP1 POP JUMP JUMPDEST DUP3 DUP2 DUP4 CALLDATACOPY PUSH1 0x0 DUP4 DUP4 ADD MSTORE POP POP POP JUMP JUMPDEST PUSH1 0x0 PUSH3 0xA19 PUSH3 0xA13 DUP5 PUSH3 0x9BD JUMP JUMPDEST PUSH3 0x99E JUMP JUMPDEST SWAP1 POP DUP3 DUP2 MSTORE PUSH1 0x20 DUP2 ADD DUP5 DUP5 DUP5 ADD GT ISZERO PUSH3 0xA38 JUMPI PUSH3 0xA37 PUSH3 0x934 JUMP JUMPDEST JUMPDEST PUSH3 0xA45 DUP5 DUP3 DUP6 PUSH3 0x9F3 JUMP JUMPDEST POP SWAP4 SWAP3 POP POP POP JUMP JUMPDEST PUSH1 0x0 DUP3 PUSH1 0x1F DUP4 ADD SLT PUSH3 0xA65 JUMPI PUSH3 0xA64 PUSH3 0x92F JUMP JUMPDEST JUMPDEST DUP2 CALLDATALOAD PUSH3 0xA77 DUP5 DUP3 PUSH1 0x20 DUP7 ADD PUSH3 0xA02 JUMP JUMPDEST SWAP2 POP POP SWAP3 SWAP2 POP POP JUMP JUMPDEST PUSH1 0x0 PUSH1 0x20 DUP3 DUP5 SUB SLT ISZERO PUSH3 0xA99 JUMPI PUSH3 0xA98 PUSH3 0x63F JUMP JUMPDEST JUMPDEST PUSH1 0x0 DUP3 ADD CALLDATALOAD PUSH8 0xFFFFFFFFFFFFFFFF DUP2 GT ISZERO PUSH3 0xABA JUMPI PUSH3 0xAB9 PUSH3 0x644 JUMP JUMPDEST JUMPDEST PUSH3 0xAC8 DUP5 DUP3 DUP6 ADD PUSH3 0xA4D JUMP JUMPDEST SWAP2 POP POP SWAP3 SWAP2 POP POP JUMP JUMPDEST PUSH1 0x0 PUSH1 0x40 DUP3 ADD SWAP1 POP PUSH3 0xAE8 PUSH1 0x0 DUP4 ADD DUP6 PUSH3 0x6EC JUMP JUMPDEST DUP2 DUP2 SUB PUSH1 0x20 DUP4 ADD MSTORE PUSH3 0xAFC DUP2 DUP5 PUSH3 0x773 JUMP JUMPDEST SWAP1 POP SWAP4 SWAP3 POP POP POP JUMP JUMPDEST PUSH32 0x4E487B7100000000000000000000000000000000000000000000000000000000 PUSH1 0x0 MSTORE PUSH1 0x22 PUSH1 0x4 MSTORE PUSH1 0x24 PUSH1 0x0 REVERT JUMPDEST PUSH1 0x0 PUSH1 0x2 DUP3 DIV SWAP1 POP PUSH1 0x1 DUP3 AND DUP1 PUSH3 0xB4D JUMPI PUSH1 0x7F DUP3 AND SWAP2 POP JUMPDEST PUSH1 0x20 DUP3 LT DUP2 SUB PUSH3 0xB63 JUMPI PUSH3 0xB62 PUSH3 0xB05 JUMP JUMPDEST JUMPDEST POP SWAP2 SWAP1 POP JUMP JUMPDEST PUSH1 0x0 PUSH3 0xB76 DUP3 PUSH3 0x669 JUMP JUMPDEST SWAP1 POP SWAP2 SWAP1 POP JUMP JUMPDEST PUSH3 0xB88 DUP2 PUSH3 0xB69 JUMP JUMPDEST DUP2 EQ PUSH3 0xB94 JUMPI PUSH1 0x0 DUP1 REVERT JUMPDEST POP JUMP JUMPDEST PUSH1 0x0 DUP2 MLOAD SWAP1 POP PUSH3 0xBA8 DUP2 PUSH3 0xB7D JUMP JUMPDEST SWAP3 SWAP2 POP POP JUMP JUMPDEST PUSH1 0x0 PUSH1 0x20 DUP3 DUP5 SUB SLT ISZERO PUSH3 0xBC7 JUMPI PUSH3 0xBC6 PUSH3 0x63F JUMP JUMPDEST JUMPDEST PUSH1 0x0 PUSH3 0xBD7 DUP5 DUP3 DUP6 ADD PUSH3 0xB97 JUMP JUMPDEST SWAP2 POP POP SWAP3 SWAP2 POP POP JUMP JUMPDEST PUSH1 0x0 DUP2 MLOAD SWAP1 POP PUSH3 0xBF1 DUP2 PUSH3 0x8AF JUMP JUMPDEST SWAP3 SWAP2 POP POP JUMP JUMPDEST PUSH1 0x0 PUSH1 0x20 DUP3 DUP5 SUB SLT ISZERO PUSH3 0xC10 JUMPI PUSH3 0xC0F PUSH3 0x63F JUMP JUMPDEST JUMPDEST PUSH1 0x0 PUSH3 0xC20 DUP5 DUP3 DUP6 ADD PUSH3 0xBE0 JUMP JUMPDEST SWAP2 POP POP SWAP3 SWAP2 POP POP JUMP JUMPDEST PUSH1 0x0 PUSH8 0xFFFFFFFFFFFFFFFF DUP3 GT ISZERO PUSH3 0xC47 JUMPI PUSH3 0xC46 PUSH3 0x939 JUMP JUMPDEST JUMPDEST PUSH3 0xC52 DUP3 PUSH3 0x762 JUMP JUMPDEST SWAP1 POP PUSH1 0x20 DUP2 ADD SWAP1 POP SWAP2 SWAP1 POP JUMP JUMPDEST PUSH1 0x0 PUSH3 0xC76 PUSH3 0xC70 DUP5 PUSH3 0xC29 JUMP JUMPDEST PUSH3 0x99E JUMP JUMPDEST SWAP1 POP DUP3 DUP2 MSTORE PUSH1 0x20 DUP2 ADD DUP5 DUP5 DUP5 ADD GT ISZERO PUSH3 0xC95 JUMPI PUSH3 0xC94 PUSH3 0x934 JUMP JUMPDEST JUMPDEST PUSH3 0xCA2 DUP5 DUP3 DUP6 PUSH3 0x736 JUMP JUMPDEST POP SWAP4 SWAP3 POP POP POP JUMP JUMPDEST PUSH1 0x0 DUP3 PUSH1 0x1F DUP4 ADD SLT PUSH3 0xCC2 JUMPI PUSH3 0xCC1 PUSH3 0x92F JUMP JUMPDEST JUMPDEST DUP2 MLOAD PUSH3 0xCD4 DUP5 DUP3 PUSH1 0x20 DUP7 ADD PUSH3 0xC5F JUMP JUMPDEST SWAP2 POP POP SWAP3 SWAP2 POP POP JUMP JUMPDEST PUSH1 0x0 PUSH1 0x20 DUP3 DUP5 SUB SLT ISZERO PUSH3 0xCF6 JUMPI PUSH3 0xCF5 PUSH3 0x63F JUMP JUMPDEST JUMPDEST PUSH1 0x0 DUP3 ADD MLOAD PUSH8 0xFFFFFFFFFFFFFFFF DUP2 GT ISZERO PUSH3 0xD17 JUMPI PUSH3 0xD16 PUSH3 0x644 JUMP JUMPDEST JUMPDEST PUSH3 0xD25 DUP5 DUP3 DUP6 ADD PUSH3 0xCAA JUMP JUMPDEST SWAP2 POP POP SWAP3 SWAP2 POP POP JUMP JUMPDEST PUSH3 0xD39 DUP2 PUSH3 0x850 JUMP JUMPDEST DUP2 EQ PUSH3 0xD45 JUMPI PUSH1 0x0 DUP1 REVERT JUMPDEST POP JUMP JUMPDEST PUSH1 0x0 DUP2 MLOAD SWAP1 POP PUSH3 0xD59 DUP2 PUSH3 0xD2E JUMP JUMPDEST SWAP3 SWAP2 POP POP JUMP JUMPDEST PUSH1 0x0 PUSH1 0x20 DUP3 DUP5 SUB SLT ISZERO PUSH3 0xD78 JUMPI PUSH3 0xD77 PUSH3 0x63F JUMP JUMPDEST JUMPDEST PUSH1 0x0 PUSH3 0xD88 DUP5 DUP3 DUP6 ADD PUSH3 0xD48 JUMP JUMPDEST SWAP2 POP POP SWAP3 SWAP2 POP POP JUMP JUMPDEST PUSH1 0x0 DUP2 SWAP1 POP SWAP2 SWAP1 POP JUMP JUMPDEST PUSH1 0x0 DUP2 SWAP1 POP SWAP2 SWAP1 POP JUMP JUMPDEST PUSH1 0x0 PUSH3 0xDC6 PUSH3 0xDC0 PUSH3 0xDBA DUP5 PUSH3 0xD91 JUMP JUMPDEST PUSH3 0xD9B JUMP JUMPDEST PUSH3 0x7D8 JUMP JUMPDEST SWAP1 POP SWAP2 SWAP1 POP JUMP JUMPDEST PUSH3 0xDD8 DUP2 PUSH3 0xDA5 JUMP JUMPDEST DUP3 MSTORE POP POP JUMP JUMPDEST PUSH32 0x68656C6C6F000000000000000000000000000000000000000000000000000000 PUSH1 0x0 DUP3 ADD MSTORE POP JUMP JUMPDEST PUSH1 0x0 PUSH3 0xE16 PUSH1 0x5 DUP4 PUSH3 0x7FE JUMP JUMPDEST SWAP2 POP PUSH3 0xE23 DUP3 PUSH3 0xDDE JUMP JUMPDEST PUSH1 0x20 DUP3 ADD SWAP1 POP SWAP2 SWAP1 POP JUMP JUMPDEST PUSH1 0x0 PUSH1 0x60 DUP3 ADD SWAP1 POP PUSH3 0xE45 PUSH1 0x0 DUP4 ADD DUP6 PUSH3 0xDCD JUMP JUMPDEST DUP2 DUP2 SUB PUSH1 0x20 DUP4 ADD MSTORE PUSH3 0xE58 DUP2 PUSH3 0xE07 JUMP JUMPDEST SWAP1 POP PUSH3 0xE69 PUSH1 0x40 DUP4 ADD DUP5 PUSH3 0x85A JUMP JUMPDEST SWAP4 SWAP3 POP POP POP JUMP JUMPDEST PUSH1 0x0 PUSH3 0xE91 PUSH3 0xE8B PUSH3 0xE85 DUP5 PUSH3 0x649 JUMP JUMPDEST PUSH3 0xD9B JUMP JUMPDEST PUSH3 0x649 JUMP JUMPDEST SWAP1 POP SWAP2 SWAP1 POP JUMP JUMPDEST PUSH1 0x0 PUSH3 0xEA5 DUP3 PUSH3 0xE70 JUMP JUMPDEST SWAP1 POP SWAP2 SWAP1 POP JUMP JUMPDEST PUSH1 0x0 PUSH3 0xEB9 DUP3 PUSH3 0xE98 JUMP JUMPDEST SWAP1 POP SWAP2 SWAP1 POP JUMP JUMPDEST PUSH3 0xECB DUP2 PUSH3 0xEAC JUMP JUMPDEST DUP3 MSTORE POP POP JUMP JUMPDEST PUSH1 0x0 PUSH1 0x20 DUP3 ADD SWAP1 POP PUSH3 0xEE8 PUSH1 0x0 DUP4 ADD DUP5 PUSH3 0xEC0 JUMP JUMPDEST SWAP3 SWAP2 POP POP JUMP JUMPDEST PUSH1 0x0 DUP2 SWAP1 POP DUP2 PUSH1 0x0 MSTORE PUSH1 0x20 PUSH1 0x0 KECCAK256 SWAP1 POP SWAP2 SWAP1 POP JUMP JUMPDEST PUSH1 0x0 PUSH1 0x20 PUSH1 0x1F DUP4 ADD DIV SWAP1 POP SWAP2 SWAP1 POP JUMP JUMPDEST PUSH1 0x0 DUP3 DUP3 SHL SWAP1 POP SWAP3 SWAP2 POP POP JUMP JUMPDEST PUSH1 0x0 PUSH1 0x8 DUP4 MUL PUSH3 0xF52 PUSH32 0xFFFFFFFFFFFFFFFFFFFFFFFFFFFFFFFFFFFFFFFFFFFFFFFFFFFFFFFFFFFFFFFF DUP3 PUSH3 0xF13 JUMP JUMPDEST PUSH3 0xF5E DUP7 DUP4 PUSH3 0xF13 JUMP JUMPDEST SWAP6 POP DUP1 NOT DUP5 AND SWAP4 POP DUP1 DUP7 AND DUP5 OR SWAP3 POP POP POP SWAP4 SWAP3 POP POP POP JUMP JUMPDEST PUSH1 0x0 PUSH3 0xF97 PUSH3 0xF91 PUSH3 0xF8B DUP5 PUSH3 0x7D8 JUMP JUMPDEST PUSH3 0xD9B JUMP JUMPDEST PUSH3 0x7D8 JUMP JUMPDEST SWAP1 POP SWAP2 SWAP1 POP JUMP JUMPDEST PUSH1 0x0 DUP2 SWAP1 POP SWAP2 SWAP1 POP JUMP JUMPDEST PUSH3 0xFB3 DUP4 PUSH3 0xF76 JUMP JUMPDEST PUSH3 0xFCB PUSH3 0xFC2 DUP3 PUSH3 0xF9E JUMP JUMPDEST DUP5 DUP5 SLOAD PUSH3 0xF20 JUMP JUMPDEST DUP3 SSTORE POP POP POP POP JUMP JUMPDEST PUSH1 0x0 SWAP1 JUMP JUMPDEST PUSH3 0xFE2 PUSH3 0xFD3 JUMP JUMPDEST PUSH3 0xFEF DUP2 DUP5 DUP5 PUSH3 0xFA8 JUMP JUMPDEST POP POP POP JUMP JUMPDEST JUMPDEST DUP2 DUP2 LT ISZERO PUSH3 0x1017 JUMPI PUSH3 0x100B PUSH1 0x0 DUP3 PUSH3 0xFD8 JUMP JUMPDEST PUSH1 0x1 DUP2 ADD SWAP1 POP PUSH3 0xFF5 JUMP JUMPDEST POP POP JUMP JUMPDEST PUSH1 0x1F DUP3 GT ISZERO PUSH3 0x1066 JUMPI PUSH3 0x1030 DUP2 PUSH3 0xEEE JUMP JUMPDEST PUSH3 0x103B DUP5 PUSH3 0xF03 JUMP JUMPDEST DUP2 ADD PUSH1 0x20 DUP6 LT ISZERO PUSH3 0x104B JUMPI DUP2 SWAP1 POP JUMPDEST PUSH3 0x1063 PUSH3 0x105A DUP6 PUSH3 0xF03 JUMP JUMPDEST DUP4 ADD DUP3 PUSH3 0xFF4 JUMP JUMPDEST POP POP JUMPDEST POP POP POP JUMP JUMPDEST PUSH1 0x0 DUP3 DUP3 SHR SWAP1 POP SWAP3 SWAP2 POP POP JUMP JUMPDEST PUSH1 0x0 PUSH3 0x108B PUSH1 0x0 NOT DUP5 PUSH1 0x8 MUL PUSH3 0x106B JUMP JUMPDEST NOT DUP1 DUP4 AND SWAP2 POP POP SWAP3 SWAP2 POP POP JUMP JUMPDEST PUSH1 0x0 PUSH3 0x10A6 DUP4 DUP4 PUSH3 0x1078 JUMP JUMPDEST SWAP2 POP DUP3 PUSH1 0x2 MUL DUP3 OR SWAP1 POP SWAP3 SWAP2 POP POP JUMP JUMPDEST PUSH3 0x10C1 DUP3 PUSH3 0x71A JUMP JUMPDEST PUSH8 0xFFFFFFFFFFFFFFFF DUP2 GT ISZERO PUSH3 0x10DD JUMPI PUSH3 0x10DC PUSH3 0x939 JUMP JUMPDEST JUMPDEST PUSH3 0x10E9 DUP3 SLOAD PUSH3 0xB34 JUMP JUMPDEST PUSH3 0x10F6 DUP3 DUP3 DUP6 PUSH3 0x101B JUMP JUMPDEST PUSH1 0x0 PUSH1 0x20 SWAP1 POP PUSH1 0x1F DUP4 GT PUSH1 0x1 DUP2 EQ PUSH3 0x112E JUMPI PUSH1 0x0 DUP5 ISZERO PUSH3 0x1119 JUMPI DUP3 DUP8 ADD MLOAD SWAP1 POP JUMPDEST PUSH3 0x1125 DUP6 DUP3 PUSH3 0x1098 JUMP JUMPDEST DUP7 SSTORE POP PUSH3 0x1195 JUMP JUMPDEST PUSH1 0x1F NOT DUP5 AND PUSH3 0x113E DUP7 PUSH3 0xEEE JUMP JUMPDEST PUSH1 0x0 JUMPDEST DUP3 DUP2 LT ISZERO PUSH3 0x1168 JUMPI DUP5 DUP10 ADD MLOAD DUP3 SSTORE PUSH1 0x1 DUP3 ADD SWAP2 POP PUSH1 0x20 DUP6 ADD SWAP5 POP PUSH1 0x20 DUP2 ADD SWAP1 POP PUSH3 0x1141 JUMP JUMPDEST DUP7 DUP4 LT ISZERO PUSH3 0x1188 JUMPI DUP5 DUP10 ADD MLOAD PUSH3 0x1184 PUSH1 0x1F DUP10 AND DUP3 PUSH3 0x1078 JUMP JUMPDEST DUP4 SSTORE POP JUMPDEST PUSH1 0x1 PUSH1 0x2 DUP9 MUL ADD DUP9 SSTORE POP POP POP JUMPDEST POP POP POP POP POP POP JUMP JUMPDEST PUSH1 0x0 PUSH1 0x20 DUP3 ADD SWAP1 POP PUSH3 0x11B4 PUSH1 0x0 DUP4 ADD DUP5 PUSH3 0x7E2 JUMP JUMPDEST SWAP3 SWAP2 POP POP JUMP JUMPDEST PUSH1 0x0 DUP2 SWAP1 POP SWAP3 SWAP2 POP POP JUMP JUMPDEST PUSH1 0x0 PUSH3 0x11D2 DUP3 PUSH3 0x71A JUMP JUMPDEST PUSH3 0x11DE DUP2 DUP6 PUSH3 0x11BA JUMP JUMPDEST SWAP4 POP PUSH3 0x11F0 DUP2 DUP6 PUSH1 0x20 DUP7 ADD PUSH3 0x736 JUMP JUMPDEST DUP1 DUP5 ADD SWAP2 POP POP SWAP3 SWAP2 POP POP JUMP JUMPDEST PUSH1 0x0 PUSH3 0x120A DUP3 DUP5 PUSH3 0x11C5 JUMP JUMPDEST SWAP2 POP DUP2 SWAP1 POP SWAP3 SWAP2 POP POP JUMP INVALID PUSH1 0x80 PUSH1 0x40 MSTORE CALLVALUE DUP1 ISZERO PUSH3 0x11 JUMPI PUSH1 0x0 DUP1 REVERT JUMPDEST POP PUSH1 0x40 MLOAD PUSH3 0x906 CODESIZE SUB DUP1 PUSH3 0x906 DUP4 CODECOPY DUP2 DUP2 ADD PUSH1 0x40 MSTORE DUP2 ADD SWAP1 PUSH3 0x37 SWAP2 SWAP1 PUSH3 0x269 JUMP JUMPDEST DUP3 PUSH1 0x0 DUP2 SWAP1 SSTORE POP DUP2 PUSH1 0x1 SWAP1 DUP2 PUSH3 0x4F SWAP2 SWAP1 PUSH3 0x525 JUMP JUMPDEST POP DUP1 PUSH1 0x2 DUP2 SWAP1 SSTORE POP POP POP POP PUSH3 0x60C JUMP JUMPDEST PUSH1 0x0 PUSH1 0x40 MLOAD SWAP1 POP SWAP1 JUMP JUMPDEST PUSH1 0x0 DUP1 REVERT JUMPDEST PUSH1 0x0 DUP1 REVERT JUMPDEST PUSH1 0x0 DUP2 SWAP1 POP SWAP2 SWAP1 POP JUMP JUMPDEST PUSH3 0x89 DUP2 PUSH3 0x74 JUMP JUMPDEST DUP2 EQ PUSH3 0x95 JUMPI PUSH1 0x0 DUP1 REVERT JUMPDEST POP JUMP JUMPDEST PUSH1 0x0 DUP2 MLOAD SWAP1 POP PUSH3 0xA9 DUP2 PUSH3 0x7E JUMP JUMPDEST SWAP3 SWAP2 POP POP JUMP JUMPDEST PUSH1 0x0 DUP1 REVERT JUMPDEST PUSH1 0x0 DUP1 REVERT JUMPDEST PUSH1 0x0 PUSH1 0x1F NOT PUSH1 0x1F DUP4 ADD AND SWAP1 POP SWAP2 SWAP1 POP JUMP JUMPDEST PUSH32 0x4E487B7100000000000000000000000000000000000000000000000000000000 PUSH1 0x0 MSTORE PUSH1 0x41 PUSH1 0x4 MSTORE PUSH1 0x24 PUSH1 0x0 REVERT JUMPDEST PUSH3 0x104 DUP3 PUSH3 0xB9 JUMP JUMPDEST DUP2 ADD DUP2 DUP2 LT PUSH8 0xFFFFFFFFFFFFFFFF DUP3 GT OR ISZERO PUSH3 0x126 JUMPI PUSH3 0x125 PUSH3 0xCA JUMP JUMPDEST JUMPDEST DUP1 PUSH1 0x40 MSTORE POP POP POP JUMP JUMPDEST PUSH1 0x0 PUSH3 0x13B PUSH3 0x60 JUMP JUMPDEST SWAP1 POP PUSH3 0x149 DUP3 DUP3 PUSH3 0xF9 JUMP JUMPDEST SWAP2 SWAP1 POP JUMP JUMPDEST PUSH1 0x0 PUSH8 0xFFFFFFFFFFFFFFFF DUP3 GT ISZERO PUSH3 0x16C JUMPI PUSH3 0x16B PUSH3 0xCA JUMP JUMPDEST JUMPDEST PUSH3 0x177 DUP3 PUSH3 0xB9 JUMP JUMPDEST SWAP1 POP PUSH1 0x20 DUP2 ADD SWAP1 POP SWAP2 SWAP1 POP JUMP JUMPDEST PUSH1 0x0 JUMPDEST DUP4 DUP2 LT ISZERO PUSH3 0x1A4 JUMPI DUP1 DUP3 ADD MLOAD DUP2 DUP5 ADD MSTORE PUSH1 0x20 DUP2 ADD SWAP1 POP PUSH3 0x187 JUMP JUMPDEST PUSH1 0x0 DUP5 DUP5 ADD MSTORE POP POP POP POP JUMP JUMPDEST PUSH1 0x0 PUSH3 0x1C7 PUSH3 0x1C1 DUP5 PUSH3 0x14E JUMP JUMPDEST PUSH3 0x12F JUMP JUMPDEST SWAP1 POP DUP3 DUP2 MSTORE PUSH1 0x20 DUP2 ADD DUP5 DUP5 DUP5 ADD GT ISZERO PUSH3 0x1E6 JUMPI PUSH3 0x1E5 PUSH3 0xB4 JUMP JUMPDEST JUMPDEST PUSH3 0x1F3 DUP5 DUP3 DUP6 PUSH3 0x184 JUMP JUMPDEST POP SWAP4 SWAP3 POP POP POP JUMP JUMPDEST PUSH1 0x0 DUP3 PUSH1 0x1F DUP4 ADD SLT PUSH3 0x213 JUMPI PUSH3 0x212 PUSH3 0xAF JUMP JUMPDEST JUMPDEST DUP2 MLOAD PUSH3 0x225 DUP5 DUP3 PUSH1 0x20 DUP7 ADD PUSH3 0x1B0 JUMP JUMPDEST SWAP2 POP POP SWAP3 SWAP2 POP POP JUMP JUMPDEST PUSH1 0x0 DUP2 SWAP1 POP SWAP2 SWAP1 POP JUMP JUMPDEST PUSH3 0x243 DUP2 PUSH3 0x22E JUMP JUMPDEST DUP2 EQ PUSH3 0x24F JUMPI PUSH1 0x0 DUP1 REVERT JUMPDEST POP JUMP JUMPDEST PUSH1 0x0 DUP2 MLOAD SWAP1 POP PUSH3 0x263 DUP2 PUSH3 0x238 JUMP JUMPDEST SWAP3 SWAP2 POP POP JUMP JUMPDEST PUSH1 0x0 DUP1 PUSH1 0x0 PUSH1 0x60 DUP5 DUP7 SUB SLT ISZERO PUSH3 0x285 JUMPI PUSH3 0x284 PUSH3 0x6A JUMP JUMPDEST JUMPDEST PUSH1 0x0 PUSH3 0x295 DUP7 DUP3 DUP8 ADD PUSH3 0x98 JUMP JUMPDEST SWAP4 POP POP PUSH1 0x20 DUP5 ADD MLOAD PUSH8 0xFFFFFFFFFFFFFFFF DUP2 GT ISZERO PUSH3 0x2B9 JUMPI PUSH3 0x2B8 PUSH3 0x6F JUMP JUMPDEST JUMPDEST PUSH3 0x2C7 DUP7 DUP3 DUP8 ADD PUSH3 0x1FB JUMP JUMPDEST SWAP3 POP POP PUSH1 0x40 PUSH3 0x2DA DUP7 DUP3 DUP8 ADD PUSH3 0x252 JUMP JUMPDEST SWAP2 POP POP SWAP3 POP SWAP3 POP SWAP3 JUMP JUMPDEST PUSH1 0x0 DUP2 MLOAD SWAP1 POP SWAP2 SWAP1 POP JUMP JUMPDEST PUSH32 0x4E487B7100000000000000000000000000000000000000000000000000000000 PUSH1 0x0 MSTORE PUSH1 0x22 PUSH1 0x4 MSTORE PUSH1 0x24 PUSH1 0x0 REVERT JUMPDEST PUSH1 0x0 PUSH1 0x2 DUP3 DIV SWAP1 POP PUSH1 0x1 DUP3 AND DUP1 PUSH3 0x337 JUMPI PUSH1 0x7F DUP3 AND SWAP2 POP JUMPDEST PUSH1 0x20 DUP3 LT DUP2 SUB PUSH3 0x34D JUMPI PUSH3 0x34C PUSH3 0x2EF JUMP JUMPDEST JUMPDEST POP SWAP2 SWAP1 POP JUMP JUMPDEST PUSH1 0x0 DUP2 SWAP1 POP DUP2 PUSH1 0x0 MSTORE PUSH1 0x20 PUSH1 0x0 KECCAK256 SWAP1 POP SWAP2 SWAP1 POP JUMP JUMPDEST PUSH1 0x0 PUSH1 0x20 PUSH1 0x1F DUP4 ADD DIV SWAP1 POP SWAP2 SWAP1 POP JUMP JUMPDEST PUSH1 0x0 DUP3 DUP3 SHL SWAP1 POP SWAP3 SWAP2 POP POP JUMP JUMPDEST PUSH1 0x0 PUSH1 0x8 DUP4 MUL PUSH3 0x3B7 PUSH32 0xFFFFFFFFFFFFFFFFFFFFFFFFFFFFFFFFFFFFFFFFFFFFFFFFFFFFFFFFFFFFFFFF DUP3 PUSH3 0x378 JUMP JUMPDEST PUSH3 0x3C3 DUP7 DUP4 PUSH3 0x378 JUMP JUMPDEST SWAP6 POP DUP1 NOT DUP5 AND SWAP4 POP DUP1 DUP7 AND DUP5 OR SWAP3 POP POP POP SWAP4 SWAP3 POP POP POP JUMP JUMPDEST PUSH1 0x0 DUP2 SWAP1 POP SWAP2 SWAP1 POP JUMP JUMPDEST PUSH1 0x0 PUSH3 0x406 PUSH3 0x400 PUSH3 0x3FA DUP5 PUSH3 0x74 JUMP JUMPDEST PUSH3 0x3DB JUMP JUMPDEST PUSH3 0x74 JUMP JUMPDEST SWAP1 POP SWAP2 SWAP1 POP JUMP JUMPDEST PUSH1 0x0 DUP2 SWAP1 POP SWAP2 SWAP1 POP JUMP JUMPDEST PUSH3 0x422 DUP4 PUSH3 0x3E5 JUMP JUMPDEST PUSH3 0x43A PUSH3 0x431 DUP3 PUSH3 0x40D JUMP JUMPDEST DUP5 DUP5 SLOAD PUSH3 0x385 JUMP JUMPDEST DUP3 SSTORE POP POP POP POP JUMP JUMPDEST PUSH1 0x0 SWAP1 JUMP JUMPDEST PUSH3 0x451 PUSH3 0x442 JUMP JUMPDEST PUSH3 0x45E DUP2 DUP5 DUP5 PUSH3 0x417 JUMP JUMPDEST POP POP POP JUMP JUMPDEST JUMPDEST DUP2 DUP2 LT ISZERO PUSH3 0x486 JUMPI PUSH3 0x47A PUSH1 0x0 DUP3 PUSH3 0x447 JUMP JUMPDEST PUSH1 0x1 DUP2 ADD SWAP1 POP PUSH3 0x464 JUMP JUMPDEST POP POP JUMP JUMPDEST PUSH1 0x1F DUP3 GT ISZERO PUSH3 0x4D5 JUMPI PUSH3 0x49F DUP2 PUSH3 0x353 JUMP JUMPDEST PUSH3 0x4AA DUP5 PUSH3 0x368 JUMP JUMPDEST DUP2 ADD PUSH1 0x20 DUP6 LT ISZERO PUSH3 0x4BA JUMPI DUP2 SWAP1 POP JUMPDEST PUSH3 0x4D2 PUSH3 0x4C9 DUP6 PUSH3 0x368 JUMP JUMPDEST DUP4 ADD DUP3 PUSH3 0x463 JUMP JUMPDEST POP POP JUMPDEST POP POP POP JUMP JUMPDEST PUSH1 0x0 DUP3 DUP3 SHR SWAP1 POP SWAP3 SWAP2 POP POP JUMP JUMPDEST PUSH1 0x0 PUSH3 0x4FA PUSH1 0x0 NOT DUP5 PUSH1 0x8 MUL PUSH3 0x4DA JUMP JUMPDEST NOT DUP1 DUP4 AND SWAP2 POP POP SWAP3 SWAP2 POP POP JUMP JUMPDEST PUSH1 0x0 PUSH3 0x515 DUP4 DUP4 PUSH3 0x4E7 JUMP JUMPDEST SWAP2 POP DUP3 PUSH1 0x2 MUL DUP3 OR SWAP1 POP SWAP3 SWAP2 POP POP JUMP JUMPDEST PUSH3 0x530 DUP3 PUSH3 0x2E4 JUMP JUMPDEST PUSH8 0xFFFFFFFFFFFFFFFF DUP2 GT ISZERO PUSH3 0x54C JUMPI PUSH3 0x54B PUSH3 0xCA JUMP JUMPDEST JUMPDEST PUSH3 0x558 DUP3 SLOAD PUSH3 0x31E JUMP JUMPDEST PUSH3 0x565 DUP3 DUP3 DUP6 PUSH3 0x48A JUMP JUMPDEST PUSH1 0x0 PUSH1 0x20 SWAP1 POP PUSH1 0x1F DUP4 GT PUSH1 0x1 DUP2 EQ PUSH3 0x59D JUMPI PUSH1 0x0 DUP5 ISZERO PUSH3 0x588 JUMPI DUP3 DUP8 ADD MLOAD SWAP1 POP JUMPDEST PUSH3 0x594 DUP6 DUP3 PUSH3 0x507 JUMP JUMPDEST DUP7 SSTORE POP PUSH3 0x604 JUMP JUMPDEST PUSH1 0x1F NOT DUP5 AND PUSH3 0x5AD DUP7 PUSH3 0x353 JUMP JUMPDEST PUSH1 0x0 JUMPDEST DUP3 DUP2 LT ISZERO PUSH3 0x5D7 JUMPI DUP5 DUP10 ADD MLOAD DUP3 SSTORE PUSH1 0x1 DUP3 ADD SWAP2 POP PUSH1 0x20 DUP6 ADD SWAP5 POP PUSH1 0x20 DUP2 ADD SWAP1 POP PUSH3 0x5B0 JUMP JUMPDEST DUP7 DUP4 LT ISZERO PUSH3 0x5F7 JUMPI DUP5 DUP10 ADD MLOAD PUSH3 0x5F3 PUSH1 0x1F DUP10 AND DUP3 PUSH3 0x4E7 JUMP JUMPDEST DUP4 SSTORE POP JUMPDEST PUSH1 0x1 PUSH1 0x2 DUP9 MUL ADD DUP9 SSTORE POP POP POP JUMPDEST POP POP POP POP POP POP JUMP JUMPDEST PUSH2 0x2EA DUP1 PUSH3 0x61C PUSH1 0x0 CODECOPY PUSH1 0x0 RETURN INVALID PUSH1 0x80 PUSH1 0x40 MSTORE CALLVALUE DUP1 ISZERO PUSH2 0x10 JUMPI PUSH1 0x0 DUP1 REVERT JUMPDEST POP PUSH1 0x4 CALLDATASIZE LT PUSH2 0x41 JUMPI PUSH1 0x0 CALLDATALOAD PUSH1 0xE0 SHR DUP1 PUSH4 0xA32D8881 EQ PUSH2 0x46 JUMPI DUP1 PUSH4 0xCD5F65CB EQ PUSH2 0x64 JUMPI DUP1 PUSH4 0xF39668D2 EQ PUSH2 0x82 JUMPI JUMPDEST PUSH1 0x0 DUP1 REVERT JUMPDEST PUSH2 0x4E PUSH2 0xA0 JUMP JUMPDEST PUSH1 0x40 MLOAD PUSH2 0x5B SWAP2 SWAP1 PUSH2 0x1CA JUMP JUMPDEST PUSH1 0x40 MLOAD DUP1 SWAP2 SUB SWAP1 RETURN JUMPDEST PUSH2 0x6C PUSH2 0x12E JUMP JUMPDEST PUSH1 0x40 MLOAD PUSH2 0x79 SWAP2 SWAP1 PUSH2 0x205 JUMP JUMPDEST PUSH1 0x40 MLOAD DUP1 SWAP2 SUB SWAP1 RETURN JUMPDEST PUSH2 0x8A PUSH2 0x134 JUMP JUMPDEST PUSH1 0x40 MLOAD PUSH2 0x97 SWAP2 SWAP1 PUSH2 0x239 JUMP JUMPDEST PUSH1 0x40 MLOAD DUP1 SWAP2 SUB SWAP1 RETURN JUMPDEST PUSH1 0x1 DUP1 SLOAD PUSH2 0xAD SWAP1 PUSH2 0x283 JUMP JUMPDEST DUP1 PUSH1 0x1F ADD PUSH1 0x20 DUP1 SWAP2 DIV MUL PUSH1 0x20 ADD PUSH1 0x40 MLOAD SWAP1 DUP2 ADD PUSH1 0x40 MSTORE DUP1 SWAP3 SWAP2 SWAP1 DUP2 DUP2 MSTORE PUSH1 0x20 ADD DUP3 DUP1 SLOAD PUSH2 0xD9 SWAP1 PUSH2 0x283 JUMP JUMPDEST DUP1 ISZERO PUSH2 0x126 JUMPI DUP1 PUSH1 0x1F LT PUSH2 0xFB JUMPI PUSH2 0x100 DUP1 DUP4 SLOAD DIV MUL DUP4 MSTORE SWAP2 PUSH1 0x20 ADD SWAP2 PUSH2 0x126 JUMP JUMPDEST DUP3 ADD SWAP2 SWAP1 PUSH1 0x0 MSTORE PUSH1 0x20 PUSH1 0x0 KECCAK256 SWAP1 JUMPDEST DUP2 SLOAD DUP2 MSTORE SWAP1 PUSH1 0x1 ADD SWAP1 PUSH1 0x20 ADD DUP1 DUP4 GT PUSH2 0x109 JUMPI DUP3 SWAP1 SUB PUSH1 0x1F AND DUP3 ADD SWAP2 JUMPDEST POP POP POP POP POP DUP2 JUMP JUMPDEST PUSH1 0x0 SLOAD DUP2 JUMP JUMPDEST PUSH1 0x2 SLOAD DUP2 JUMP JUMPDEST PUSH1 0x0 DUP2 MLOAD SWAP1 POP SWAP2 SWAP1 POP JUMP JUMPDEST PUSH1 0x0 DUP3 DUP3 MSTORE PUSH1 0x20 DUP3 ADD SWAP1 POP SWAP3 SWAP2 POP POP JUMP JUMPDEST PUSH1 0x0 JUMPDEST DUP4 DUP2 LT ISZERO PUSH2 0x174 JUMPI DUP1 DUP3 ADD MLOAD DUP2 DUP5 ADD MSTORE PUSH1 0x20 DUP2 ADD SWAP1 POP PUSH2 0x159 JUMP JUMPDEST PUSH1 0x0 DUP5 DUP5 ADD MSTORE POP POP POP POP JUMP JUMPDEST PUSH1 0x0 PUSH1 0x1F NOT PUSH1 0x1F DUP4 ADD AND SWAP1 POP SWAP2 SWAP1 POP JUMP JUMPDEST PUSH1 0x0 PUSH2 0x19C DUP3 PUSH2 0x13A JUMP JUMPDEST PUSH2 0x1A6 DUP2 DUP6 PUSH2 0x145 JUMP JUMPDEST SWAP4 POP PUSH2 0x1B6 DUP2 DUP6 PUSH1 0x20 DUP7 ADD PUSH2 0x156 JUMP JUMPDEST PUSH2 0x1BF DUP2 PUSH2 0x180 JUMP JUMPDEST DUP5 ADD SWAP2 POP POP SWAP3 SWAP2 POP POP JUMP JUMPDEST PUSH1 0x0 PUSH1 0x20 DUP3 ADD SWAP1 POP DUP2 DUP2 SUB PUSH1 0x0 DUP4 ADD MSTORE PUSH2 0x1E4 DUP2 DUP5 PUSH2 0x191 JUMP JUMPDEST SWAP1 POP SWAP3 SWAP2 POP POP JUMP JUMPDEST PUSH1 0x0 DUP2 SWAP1 POP SWAP2 SWAP1 POP JUMP JUMPDEST PUSH2 0x1FF DUP2 PUSH2 0x1EC JUMP JUMPDEST DUP3 MSTORE POP POP JUMP JUMPDEST PUSH1 0x0 PUSH1 0x20 DUP3 ADD SWAP1 POP PUSH2 0x21A PUSH1 0x0 DUP4 ADD DUP5 PUSH2 0x1F6 JUMP JUMPDEST SWAP3 SWAP2 POP POP JUMP JUMPDEST PUSH1 0x0 DUP2 SWAP1 POP SWAP2 SWAP1 POP JUMP JUMPDEST PUSH2 0x233 DUP2 PUSH2 0x220 JUMP JUMPDEST DUP3 MSTORE POP POP JUMP JUMPDEST PUSH1 0x0 PUSH1 0x20 DUP3 ADD SWAP1 POP PUSH2 0x24E PUSH1 0x0 DUP4 ADD DUP5 PUSH2 0x22A JUMP JUMPDEST SWAP3 SWAP2 POP POP JUMP JUMPDEST PUSH32 0x4E487B7100000000000000000000000000000000000000000000000000000000 PUSH1 0x0 MSTORE PUSH1 0x22 PUSH1 0x4 MSTORE PUSH1 0x24 PUSH1 0x0 REVERT JUMPDEST PUSH1 0x0 PUSH1 0x2 DUP3 DIV SWAP1 POP PUSH1 0x1 DUP3 AND DUP1 PUSH2 0x29B JUMPI PUSH1 0x7F DUP3 AND SWAP2 POP JUMPDEST PUSH1 0x20 DUP3 LT DUP2 SUB PUSH2 0x2AE JUMPI PUSH2 0x2AD PUSH2 0x254 JUMP JUMPDEST JUMPDEST POP SWAP2 SWAP1 POP JUMP INVALID LOG2 PUSH5 0x6970667358 0x22 SLT KECCAK256 PREVRANDAO POP SLOAD SWAP7 0xB0 EQ 0xE1 LOG4 0xDB 0xD1 PUSH7 0xF717D7440D3D3A PC CALL PUSH1 0xDF 0xD5 SWAP12 0xA6 SGT CALLVALUE PUSH11 0x5889EBA564736F6C634300 ADDMOD XOR STOP CALLER LOG2 PUSH5 0x6970667358 0x22 SLT KECCAK256 0xAE PUSH13 0x66FCBBB7102B99EB4D192560CE GASPRICE PUSH12 0x6C71451F0CCEA5EF7576F410 0xC7 SWAP2 0xB8 PUSH5 0x736F6C6343 STOP ADDMOD XOR STOP CALLER "
        },
        "methodIdentifiers": {
          "deserialize()": "b5cc88f3",
          "hashSha256(uint256)": "d1218931",
          "isContract(address)": "16279055",
          "ret(bytes)": "d5d4984e",
          "serialize()": "bc8018b1",
          "value()": "3fa4f245"
        }
      }
    }
  }
}