{
  "_format": "hh-sol-artifact-1",
  "contractName": "HackAndSlashParser",
  "sourceName": "contracts/HackAndSlashParser.sol",
  "abi": [
    {
      "inputs": [
        {
          "internalType": "bytes",
          "name": "input",
          "type": "bytes"
        }
      ],
      "name": "actionDeserializer",
      "outputs": [
        {
          "internalType": "bool",
          "name": "ok",
          "type": "bool"
        },
        {
          "internalType": "bytes",
          "name": "out",
          "type": "bytes"
        }
      ],
      "stateMutability": "view",
      "type": "function"
    },
    {
      "inputs": [],
      "name": "readHackAndSlash",
      "outputs": [
        {
          "components": [
            {
              "internalType": "uint8[16]",
              "name": "id",
              "type": "uint8[16]"
            },
            {
              "internalType": "uint8[16][]",
              "name": "costumes",
              "type": "uint8[16][]"
            },
            {
              "internalType": "uint8[16][]",
              "name": "equipments",
              "type": "uint8[16][]"
            },
            {
              "internalType": "uint8[16][]",
              "name": "foods",
              "type": "uint8[16][]"
            },
            {
              "internalType": "int64[][]",
              "name": "r",
              "type": "int64[][]"
            },
            {
              "internalType": "int64",
              "name": "worldId",
              "type": "int64"
            },
            {
              "internalType": "int64",
              "name": "stageId",
              "type": "int64"
            },
            {
              "internalType": "address",
              "name": "avatarAddress",
              "type": "address"
            },
            {
              "internalType": "int64",
              "name": "totalPlayCount",
              "type": "int64"
            },
            {
              "internalType": "int64",
              "name": "apStoneCount",
              "type": "int64"
            }
          ],
          "internalType": "struct HackAndSlashParser.HackAndSlashStruct",
          "name": "",
          "type": "tuple"
        }
      ],
      "stateMutability": "view",
      "type": "function"
    }
  ],
  "bytecode": "0x608060405234801561001057600080fd5b5061126e806100206000396000f3fe608060405234801561001057600080fd5b50600436106100365760003560e01c8063824d6b3a1461003b578063bd77664e14610059575b600080fd5b61004361008a565b6040516100509190610633565b60405180910390f35b610073600480360381019061006e91906107af565b6100ee565b604051610081929190610892565b60405180910390f35b610092610169565b6000604051806103e001604052806103c08152602001610e796103c0913990506000806100be836100ee565b91509150816100cc57600080fd5b6000818060200190518101906100e29190610ddc565b90508094505050505090565b60006060600061010090508073ffffffffffffffffffffffffffffffffffffffff168460405161011e9190610e61565b600060405180830381855afa9150503d8060008114610159576040519150601f19603f3d011682016040523d82523d6000602084013e61015e565b606091505b509250925050915091565b60405180610140016040528061017d6101e4565b815260200160608152602001606081526020016060815260200160608152602001600060070b8152602001600060070b8152602001600073ffffffffffffffffffffffffffffffffffffffff168152602001600060070b8152602001600060070b81525090565b604051806102000160405280601090602082028036833780820191505090505090565b600060109050919050565b600081905092915050565b6000819050919050565b600060ff82169050919050565b61023d81610227565b82525050565b600061024f8383610234565b60208301905092915050565b6000602082019050919050565b61027181610207565b61027b8184610212565b92506102868261021d565b8060005b838110156102b757815161029e8782610243565b96506102a98361025b565b92505060018101905061028a565b505050505050565b600081519050919050565b600082825260208201905092915050565b6000819050602082019050919050565b60006102f78383610268565b6102008301905092915050565b6000602082019050919050565b600061031c826102bf565b61032681856102ca565b9350610331836102db565b8060005b8381101561036257815161034988826102eb565b975061035483610304565b925050600181019050610335565b5085935050505092915050565b600081519050919050565b600082825260208201905092915050565b6000819050602082019050919050565b600081519050919050565b600082825260208201905092915050565b6000819050602082019050919050565b60008160070b9050919050565b6103dd816103c7565b82525050565b60006103ef83836103d4565b60208301905092915050565b6000602082019050919050565b60006104138261039b565b61041d81856103a6565b9350610428836103b7565b8060005b8381101561045957815161044088826103e3565b975061044b836103fb565b92505060018101905061042c565b5085935050505092915050565b60006104728383610408565b905092915050565b6000602082019050919050565b60006104928261036f565b61049c818561037a565b9350836020820285016104ae8561038b565b8060005b858110156104ea57848403895281516104cb8582610466565b94506104d68361047a565b925060208a019950506001810190506104b2565b50829750879550505050505092915050565b600073ffffffffffffffffffffffffffffffffffffffff82169050919050565b6000610527826104fc565b9050919050565b6105378161051c565b82525050565b6000610320830160008301516105566000860182610268565b50602083015184820361020086015261056f8282610311565b915050604083015184820361022086015261058a8282610311565b91505060608301518482036102408601526105a58282610311565b91505060808301518482036102608601526105c08282610487565b91505060a08301516105d66102808601826103d4565b5060c08301516105ea6102a08601826103d4565b5060e08301516105fe6102c086018261052e565b506101008301516106136102e08601826103d4565b506101208301516106286103008601826103d4565b508091505092915050565b6000602082019050818103600083015261064d818461053d565b905092915050565b6000604051905090565b600080fd5b600080fd5b600080fd5b600080fd5b6000601f19601f8301169050919050565b7f4e487b7100000000000000000000000000000000000000000000000000000000600052604160045260246000fd5b6106bc82610673565b810181811067ffffffffffffffff821117156106db576106da610684565b5b80604052505050565b60006106ee610655565b90506106fa82826106b3565b919050565b600067ffffffffffffffff82111561071a57610719610684565b5b61072382610673565b9050602081019050919050565b82818337600083830152505050565b600061075261074d846106ff565b6106e4565b90508281526020810184848401111561076e5761076d61066e565b5b610779848285610730565b509392505050565b600082601f83011261079657610795610669565b5b81356107a684826020860161073f565b91505092915050565b6000602082840312156107c5576107c461065f565b5b600082013567ffffffffffffffff8111156107e3576107e2610664565b5b6107ef84828501610781565b91505092915050565b60008115159050919050565b61080d816107f8565b82525050565b600081519050919050565b600082825260208201905092915050565b60005b8381101561084d578082015181840152602081019050610832565b60008484015250505050565b600061086482610813565b61086e818561081e565b935061087e81856020860161082f565b61088781610673565b840191505092915050565b60006040820190506108a76000830185610804565b81810360208301526108b98184610859565b90509392505050565b600080fd5b600080fd5b600067ffffffffffffffff8211156108e7576108e6610684565b5b602082029050919050565b600080fd5b61090081610227565b811461090b57600080fd5b50565b60008151905061091d816108f7565b92915050565b6000610936610931846108cc565b6106e4565b905080602084028301858111156109505761094f6108f2565b5b835b818110156109795780610965888261090e565b845260208401935050602081019050610952565b5050509392505050565b600082601f83011261099857610997610669565b5b60106109a5848285610923565b91505092915050565b600067ffffffffffffffff8211156109c9576109c8610684565b5b602082029050602081019050919050565b60006109ed6109e8846109ae565b6106e4565b9050808382526020820190506102008402830185811115610a1157610a106108f2565b5b835b81811015610a3b5780610a268882610983565b84526020840193505061020081019050610a13565b5050509392505050565b600082601f830112610a5a57610a59610669565b5b8151610a6a8482602086016109da565b91505092915050565b600067ffffffffffffffff821115610a8e57610a8d610684565b5b602082029050602081019050919050565b600067ffffffffffffffff821115610aba57610ab9610684565b5b602082029050602081019050919050565b610ad4816103c7565b8114610adf57600080fd5b50565b600081519050610af181610acb565b92915050565b6000610b0a610b0584610a9f565b6106e4565b90508083825260208201905060208402830185811115610b2d57610b2c6108f2565b5b835b81811015610b565780610b428882610ae2565b845260208401935050602081019050610b2f565b5050509392505050565b600082601f830112610b7557610b74610669565b5b8151610b85848260208601610af7565b91505092915050565b6000610ba1610b9c84610a73565b6106e4565b90508083825260208201905060208402830185811115610bc457610bc36108f2565b5b835b81811015610c0b57805167ffffffffffffffff811115610be957610be8610669565b5b808601610bf68982610b60565b85526020850194505050602081019050610bc6565b5050509392505050565b600082601f830112610c2a57610c29610669565b5b8151610c3a848260208601610b8e565b91505092915050565b610c4c8161051c565b8114610c5757600080fd5b50565b600081519050610c6981610c43565b92915050565b60006103208284031215610c8657610c856108c2565b5b610c916101406106e4565b90506000610ca184828501610983565b60008301525061020082015167ffffffffffffffff811115610cc657610cc56108c7565b5b610cd284828501610a45565b60208301525061022082015167ffffffffffffffff811115610cf757610cf66108c7565b5b610d0384828501610a45565b60408301525061024082015167ffffffffffffffff811115610d2857610d276108c7565b5b610d3484828501610a45565b60608301525061026082015167ffffffffffffffff811115610d5957610d586108c7565b5b610d6584828501610c15565b608083015250610280610d7a84828501610ae2565b60a0830152506102a0610d8f84828501610ae2565b60c0830152506102c0610da484828501610c5a565b60e0830152506102e0610db984828501610ae2565b61010083015250610300610dcf84828501610ae2565b6101208301525092915050565b600060208284031215610df257610df161065f565b5b600082015167ffffffffffffffff811115610e1057610e0f610664565b5b610e1c84828501610c6f565b91505092915050565b600081905092915050565b6000610e3b82610813565b610e458185610e25565b9350610e5581856020860161082f565b80840191505092915050565b6000610e6d8284610e30565b91508190509291505056fe5a444536557a63774f6a4245416942524542346b36562b385641587849653949317335363578655279456854637666743051746b5161766452414967462f37674177454b31684358424933765374574873496e523536506a6270677237375a474e66594a574a38784f6d46735a4855334f6e523563475666615752314d5459366147466a61313968626d526663327868633267794d6e55324f6e5a686248566c633252314d54493659584254644739755a554e7664573530645445364d4855784d7a7068646d463059584a425a4752795a584e7a4d6a4136332b4f6c6d64334a7176774d35434d736f7731424b6b4e35654539314f44706a62334e306457316c6332786c645445774f6d567864576c776257567564484e734d5459366b3068764d53515033455371784865354676502f5a4445324f6e45536454634f454468486a58582b61386b2f6b674d784e6a7075747270446d616e335135563432345932454a75744d5459367647586e6b6a69546a6b36754544682f31556e4b6c5445324f6f436d46715379324664476c4d657952564454643073784e6a7141685236705a73724d526f532b3965754f5837546e4d54593679657473792f416561456d30584a58324758314b425756314e54706d6232396b6332786c64544936615751784e6a70564d724f716f6a7063546f2b737a4673615275357464544536636d7873645445364d4855314f6a4d774d4441785a5756314e7a707a6447466e5a556c6b64544d364d6a4577645445304f6e5276644746735547786865554e7664573530645445364d5855334f6e6476636d786b535752314d546f315a57566c4d54706e4d7a49365259496c4451326a4f775a336d6f5231306f50563353454d614475626d5a313030442b7354316a36613834784f6d78704e4755784f6d31735a4855784d7a706b5a574e7062574673554778685932567a4d546f536454633662576c7564475679633235314e6a703061574e725a584a314e44704e5a57466b5a576b784d4441774d4441774d4441774d4441774d4441774d4441775a5755784f6d35704d7a45784e6d55784f6e41324e546f453377627146516d4131592b732f394b4b4666464330736363686236664d3046624e327a495563627665787471495a2b52476d397a5874692b634252424d68762b2f67685852366b30386c41784f554832694a764d597a4536637a49774f6d7450463474726e334f6941554b372f6f6e554f6a6742423461444d547030645449334f6a49774d6a51744d4463744d4456554d446b364d6a4d364d6a41754e5445334e6a6332576a45366457786c5a513d3da2646970667358221220e65a6784a34df52dc3cddbccb2e40da07c63ff857d7b2190d6accf14e053b6f864736f6c63430008180033",
  "linkReferences": {},
  "deployedLinkReferences": {}
}